{
  "_format": "hh-sol-artifact-1",
  "contractName": "NonfungiblePositionManager",
  "sourceName": "contracts/NonfungiblePositionManager.sol",
  "abi": [
    {
      "inputs": [
        {
          "internalType": "address",
          "name": "_factory",
          "type": "address"
        },
        {
          "internalType": "address",
          "name": "_WETH9",
          "type": "address"
        },
        {
          "internalType": "address",
          "name": "_tokenDescriptor_",
          "type": "address"
        }
      ],
      "stateMutability": "nonpayable",
      "type": "constructor"
    },
    {
      "anonymous": false,
      "inputs": [
        {
          "indexed": true,
          "internalType": "address",
          "name": "owner",
          "type": "address"
        },
        {
          "indexed": true,
          "internalType": "address",
          "name": "approved",
          "type": "address"
        },
        {
          "indexed": true,
          "internalType": "uint256",
          "name": "tokenId",
          "type": "uint256"
        }
      ],
      "name": "Approval",
      "type": "event"
    },
    {
      "anonymous": false,
      "inputs": [
        {
          "indexed": true,
          "internalType": "address",
          "name": "owner",
          "type": "address"
        },
        {
          "indexed": true,
          "internalType": "address",
          "name": "operator",
          "type": "address"
        },
        {
          "indexed": false,
          "internalType": "bool",
          "name": "approved",
          "type": "bool"
        }
      ],
      "name": "ApprovalForAll",
      "type": "event"
    },
    {
      "anonymous": false,
      "inputs": [
        {
          "indexed": true,
          "internalType": "uint256",
          "name": "tokenId",
          "type": "uint256"
        },
        {
          "indexed": false,
          "internalType": "address",
          "name": "recipient",
          "type": "address"
        },
        {
          "indexed": false,
          "internalType": "uint256",
          "name": "amount0",
          "type": "uint256"
        },
        {
          "indexed": false,
          "internalType": "uint256",
          "name": "amount1",
          "type": "uint256"
        }
      ],
      "name": "Collect",
      "type": "event"
    },
    {
      "anonymous": false,
      "inputs": [
        {
          "indexed": true,
          "internalType": "uint256",
          "name": "tokenId",
          "type": "uint256"
        },
        {
          "indexed": false,
          "internalType": "uint128",
          "name": "liquidity",
          "type": "uint128"
        },
        {
          "indexed": false,
          "internalType": "uint256",
          "name": "amount0",
          "type": "uint256"
        },
        {
          "indexed": false,
          "internalType": "uint256",
          "name": "amount1",
          "type": "uint256"
        }
      ],
      "name": "DecreaseLiquidity",
      "type": "event"
    },
    {
      "anonymous": false,
      "inputs": [
        {
          "indexed": true,
          "internalType": "uint256",
          "name": "tokenId",
          "type": "uint256"
        },
        {
          "indexed": false,
          "internalType": "uint128",
          "name": "liquidity",
          "type": "uint128"
        },
        {
          "indexed": false,
          "internalType": "uint256",
          "name": "amount0",
          "type": "uint256"
        },
        {
          "indexed": false,
          "internalType": "uint256",
          "name": "amount1",
          "type": "uint256"
        }
      ],
      "name": "IncreaseLiquidity",
      "type": "event"
    },
    {
      "anonymous": false,
      "inputs": [
        {
          "indexed": true,
          "internalType": "address",
          "name": "from",
          "type": "address"
        },
        {
          "indexed": true,
          "internalType": "address",
          "name": "to",
          "type": "address"
        },
        {
          "indexed": true,
          "internalType": "uint256",
          "name": "tokenId",
          "type": "uint256"
        }
      ],
      "name": "Transfer",
      "type": "event"
    },
    {
      "inputs": [],
      "name": "DOMAIN_SEPARATOR",
      "outputs": [
        {
          "internalType": "bytes32",
          "name": "",
          "type": "bytes32"
        }
      ],
      "stateMutability": "view",
      "type": "function"
    },
    {
      "inputs": [],
      "name": "PERMIT_TYPEHASH",
      "outputs": [
        {
          "internalType": "bytes32",
          "name": "",
          "type": "bytes32"
        }
      ],
      "stateMutability": "view",
      "type": "function"
    },
    {
      "inputs": [],
      "name": "WETH9",
      "outputs": [
        {
          "internalType": "address",
          "name": "",
          "type": "address"
        }
      ],
      "stateMutability": "view",
      "type": "function"
    },
    {
      "inputs": [
        {
          "internalType": "address",
          "name": "to",
          "type": "address"
        },
        {
          "internalType": "uint256",
          "name": "tokenId",
          "type": "uint256"
        }
      ],
      "name": "approve",
      "outputs": [],
      "stateMutability": "nonpayable",
      "type": "function"
    },
    {
      "inputs": [
        {
          "internalType": "address",
          "name": "owner",
          "type": "address"
        }
      ],
      "name": "balanceOf",
      "outputs": [
        {
          "internalType": "uint256",
          "name": "",
          "type": "uint256"
        }
      ],
      "stateMutability": "view",
      "type": "function"
    },
    {
      "inputs": [],
      "name": "baseURI",
      "outputs": [
        {
          "internalType": "string",
          "name": "",
          "type": "string"
        }
      ],
      "stateMutability": "pure",
      "type": "function"
    },
    {
      "inputs": [
        {
          "internalType": "uint256",
          "name": "tokenId",
          "type": "uint256"
        }
      ],
      "name": "burn",
      "outputs": [],
      "stateMutability": "payable",
      "type": "function"
    },
    {
      "inputs": [
        {
          "components": [
            {
              "internalType": "uint256",
              "name": "tokenId",
              "type": "uint256"
            },
            {
              "internalType": "address",
              "name": "recipient",
              "type": "address"
            },
            {
              "internalType": "uint128",
              "name": "amount0Max",
              "type": "uint128"
            },
            {
              "internalType": "uint128",
              "name": "amount1Max",
              "type": "uint128"
            }
          ],
          "internalType": "struct INonfungiblePositionManager.CollectParams",
          "name": "params",
          "type": "tuple"
        }
      ],
      "name": "collect",
      "outputs": [
        {
          "internalType": "uint256",
          "name": "amount0",
          "type": "uint256"
        },
        {
          "internalType": "uint256",
          "name": "amount1",
          "type": "uint256"
        }
      ],
      "stateMutability": "payable",
      "type": "function"
    },
    {
      "inputs": [
        {
          "internalType": "address",
          "name": "token0",
          "type": "address"
        },
        {
          "internalType": "address",
          "name": "token1",
          "type": "address"
        },
        {
          "internalType": "uint24",
          "name": "fee",
          "type": "uint24"
        },
        {
          "internalType": "uint160",
          "name": "sqrtPriceX96",
          "type": "uint160"
        }
      ],
      "name": "createAndInitializePoolIfNecessary",
      "outputs": [
        {
          "internalType": "address",
          "name": "pool",
          "type": "address"
        }
      ],
      "stateMutability": "payable",
      "type": "function"
    },
    {
      "inputs": [
        {
          "components": [
            {
              "internalType": "uint256",
              "name": "tokenId",
              "type": "uint256"
            },
            {
              "internalType": "uint128",
              "name": "liquidity",
              "type": "uint128"
            },
            {
              "internalType": "uint256",
              "name": "amount0Min",
              "type": "uint256"
            },
            {
              "internalType": "uint256",
              "name": "amount1Min",
              "type": "uint256"
            },
            {
              "internalType": "uint256",
              "name": "deadline",
              "type": "uint256"
            }
          ],
          "internalType": "struct INonfungiblePositionManager.DecreaseLiquidityParams",
          "name": "params",
          "type": "tuple"
        }
      ],
      "name": "decreaseLiquidity",
      "outputs": [
        {
          "internalType": "uint256",
          "name": "amount0",
          "type": "uint256"
        },
        {
          "internalType": "uint256",
          "name": "amount1",
          "type": "uint256"
        }
      ],
      "stateMutability": "payable",
      "type": "function"
    },
    {
      "inputs": [],
      "name": "factory",
      "outputs": [
        {
          "internalType": "address",
          "name": "",
          "type": "address"
        }
      ],
      "stateMutability": "view",
      "type": "function"
    },
    {
      "inputs": [
        {
          "internalType": "uint256",
          "name": "tokenId",
          "type": "uint256"
        }
      ],
      "name": "getApproved",
      "outputs": [
        {
          "internalType": "address",
          "name": "",
          "type": "address"
        }
      ],
      "stateMutability": "view",
      "type": "function"
    },
    {
      "inputs": [
        {
          "components": [
            {
              "internalType": "uint256",
              "name": "tokenId",
              "type": "uint256"
            },
            {
              "internalType": "uint256",
              "name": "amount0Desired",
              "type": "uint256"
            },
            {
              "internalType": "uint256",
              "name": "amount1Desired",
              "type": "uint256"
            },
            {
              "internalType": "uint256",
              "name": "amount0Min",
              "type": "uint256"
            },
            {
              "internalType": "uint256",
              "name": "amount1Min",
              "type": "uint256"
            },
            {
              "internalType": "uint256",
              "name": "deadline",
              "type": "uint256"
            }
          ],
          "internalType": "struct INonfungiblePositionManager.IncreaseLiquidityParams",
          "name": "params",
          "type": "tuple"
        }
      ],
      "name": "increaseLiquidity",
      "outputs": [
        {
          "internalType": "uint128",
          "name": "liquidity",
          "type": "uint128"
        },
        {
          "internalType": "uint256",
          "name": "amount0",
          "type": "uint256"
        },
        {
          "internalType": "uint256",
          "name": "amount1",
          "type": "uint256"
        }
      ],
      "stateMutability": "payable",
      "type": "function"
    },
    {
      "inputs": [
        {
          "internalType": "address",
          "name": "owner",
          "type": "address"
        },
        {
          "internalType": "address",
          "name": "operator",
          "type": "address"
        }
      ],
      "name": "isApprovedForAll",
      "outputs": [
        {
          "internalType": "bool",
          "name": "",
          "type": "bool"
        }
      ],
      "stateMutability": "view",
      "type": "function"
    },
    {
      "inputs": [
        {
          "components": [
            {
              "internalType": "address",
              "name": "token0",
              "type": "address"
            },
            {
              "internalType": "address",
              "name": "token1",
              "type": "address"
            },
            {
              "internalType": "uint24",
              "name": "fee",
              "type": "uint24"
            },
            {
              "internalType": "int24",
              "name": "tickLower",
              "type": "int24"
            },
            {
              "internalType": "int24",
              "name": "tickUpper",
              "type": "int24"
            },
            {
              "internalType": "uint256",
              "name": "amount0Desired",
              "type": "uint256"
            },
            {
              "internalType": "uint256",
              "name": "amount1Desired",
              "type": "uint256"
            },
            {
              "internalType": "uint256",
              "name": "amount0Min",
              "type": "uint256"
            },
            {
              "internalType": "uint256",
              "name": "amount1Min",
              "type": "uint256"
            },
            {
              "internalType": "address",
              "name": "recipient",
              "type": "address"
            },
            {
              "internalType": "uint256",
              "name": "deadline",
              "type": "uint256"
            }
          ],
          "internalType": "struct INonfungiblePositionManager.MintParams",
          "name": "params",
          "type": "tuple"
        }
      ],
      "name": "mint",
      "outputs": [
        {
          "internalType": "uint256",
          "name": "tokenId",
          "type": "uint256"
        },
        {
          "internalType": "uint128",
          "name": "liquidity",
          "type": "uint128"
        },
        {
          "internalType": "uint256",
          "name": "amount0",
          "type": "uint256"
        },
        {
          "internalType": "uint256",
          "name": "amount1",
          "type": "uint256"
        }
      ],
      "stateMutability": "payable",
      "type": "function"
    },
    {
      "inputs": [
        {
          "internalType": "bytes[]",
          "name": "data",
          "type": "bytes[]"
        }
      ],
      "name": "multicall",
      "outputs": [
        {
          "internalType": "bytes[]",
          "name": "results",
          "type": "bytes[]"
        }
      ],
      "stateMutability": "payable",
      "type": "function"
    },
    {
      "inputs": [],
      "name": "name",
      "outputs": [
        {
          "internalType": "string",
          "name": "",
          "type": "string"
        }
      ],
      "stateMutability": "view",
      "type": "function"
    },
    {
      "inputs": [
        {
          "internalType": "uint256",
          "name": "tokenId",
          "type": "uint256"
        }
      ],
      "name": "ownerOf",
      "outputs": [
        {
          "internalType": "address",
          "name": "",
          "type": "address"
        }
      ],
      "stateMutability": "view",
      "type": "function"
    },
    {
      "inputs": [
        {
          "internalType": "address",
          "name": "spender",
          "type": "address"
        },
        {
          "internalType": "uint256",
          "name": "tokenId",
          "type": "uint256"
        },
        {
          "internalType": "uint256",
          "name": "deadline",
          "type": "uint256"
        },
        {
          "internalType": "uint8",
          "name": "v",
          "type": "uint8"
        },
        {
          "internalType": "bytes32",
          "name": "r",
          "type": "bytes32"
        },
        {
          "internalType": "bytes32",
          "name": "s",
          "type": "bytes32"
        }
      ],
      "name": "permit",
      "outputs": [],
      "stateMutability": "payable",
      "type": "function"
    },
    {
      "inputs": [
        {
          "internalType": "uint256",
          "name": "tokenId",
          "type": "uint256"
        }
      ],
      "name": "positions",
      "outputs": [
        {
          "internalType": "uint96",
          "name": "nonce",
          "type": "uint96"
        },
        {
          "internalType": "address",
          "name": "operator",
          "type": "address"
        },
        {
          "internalType": "address",
          "name": "token0",
          "type": "address"
        },
        {
          "internalType": "address",
          "name": "token1",
          "type": "address"
        },
        {
          "internalType": "uint24",
          "name": "fee",
          "type": "uint24"
        },
        {
          "internalType": "int24",
          "name": "tickLower",
          "type": "int24"
        },
        {
          "internalType": "int24",
          "name": "tickUpper",
          "type": "int24"
        },
        {
          "internalType": "uint128",
          "name": "liquidity",
          "type": "uint128"
        },
        {
          "internalType": "uint256",
          "name": "feeGrowthInside0LastX128",
          "type": "uint256"
        },
        {
          "internalType": "uint256",
          "name": "feeGrowthInside1LastX128",
          "type": "uint256"
        },
        {
          "internalType": "uint128",
          "name": "tokensOwed0",
          "type": "uint128"
        },
        {
          "internalType": "uint128",
          "name": "tokensOwed1",
          "type": "uint128"
        }
      ],
      "stateMutability": "view",
      "type": "function"
    },
    {
      "inputs": [],
      "name": "refundETH",
      "outputs": [],
      "stateMutability": "payable",
      "type": "function"
    },
    {
      "inputs": [
        {
          "internalType": "address",
          "name": "from",
          "type": "address"
        },
        {
          "internalType": "address",
          "name": "to",
          "type": "address"
        },
        {
          "internalType": "uint256",
          "name": "tokenId",
          "type": "uint256"
        }
      ],
      "name": "safeTransferFrom",
      "outputs": [],
      "stateMutability": "nonpayable",
      "type": "function"
    },
    {
      "inputs": [
        {
          "internalType": "address",
          "name": "from",
          "type": "address"
        },
        {
          "internalType": "address",
          "name": "to",
          "type": "address"
        },
        {
          "internalType": "uint256",
          "name": "tokenId",
          "type": "uint256"
        },
        {
          "internalType": "bytes",
          "name": "_data",
          "type": "bytes"
        }
      ],
      "name": "safeTransferFrom",
      "outputs": [],
      "stateMutability": "nonpayable",
      "type": "function"
    },
    {
      "inputs": [
        {
          "internalType": "address",
          "name": "token",
          "type": "address"
        },
        {
          "internalType": "uint256",
          "name": "value",
          "type": "uint256"
        },
        {
          "internalType": "uint256",
          "name": "deadline",
          "type": "uint256"
        },
        {
          "internalType": "uint8",
          "name": "v",
          "type": "uint8"
        },
        {
          "internalType": "bytes32",
          "name": "r",
          "type": "bytes32"
        },
        {
          "internalType": "bytes32",
          "name": "s",
          "type": "bytes32"
        }
      ],
      "name": "selfPermit",
      "outputs": [],
      "stateMutability": "payable",
      "type": "function"
    },
    {
      "inputs": [
        {
          "internalType": "address",
          "name": "token",
          "type": "address"
        },
        {
          "internalType": "uint256",
          "name": "nonce",
          "type": "uint256"
        },
        {
          "internalType": "uint256",
          "name": "expiry",
          "type": "uint256"
        },
        {
          "internalType": "uint8",
          "name": "v",
          "type": "uint8"
        },
        {
          "internalType": "bytes32",
          "name": "r",
          "type": "bytes32"
        },
        {
          "internalType": "bytes32",
          "name": "s",
          "type": "bytes32"
        }
      ],
      "name": "selfPermitAllowed",
      "outputs": [],
      "stateMutability": "payable",
      "type": "function"
    },
    {
      "inputs": [
        {
          "internalType": "address",
          "name": "token",
          "type": "address"
        },
        {
          "internalType": "uint256",
          "name": "nonce",
          "type": "uint256"
        },
        {
          "internalType": "uint256",
          "name": "expiry",
          "type": "uint256"
        },
        {
          "internalType": "uint8",
          "name": "v",
          "type": "uint8"
        },
        {
          "internalType": "bytes32",
          "name": "r",
          "type": "bytes32"
        },
        {
          "internalType": "bytes32",
          "name": "s",
          "type": "bytes32"
        }
      ],
      "name": "selfPermitAllowedIfNecessary",
      "outputs": [],
      "stateMutability": "payable",
      "type": "function"
    },
    {
      "inputs": [
        {
          "internalType": "address",
          "name": "token",
          "type": "address"
        },
        {
          "internalType": "uint256",
          "name": "value",
          "type": "uint256"
        },
        {
          "internalType": "uint256",
          "name": "deadline",
          "type": "uint256"
        },
        {
          "internalType": "uint8",
          "name": "v",
          "type": "uint8"
        },
        {
          "internalType": "bytes32",
          "name": "r",
          "type": "bytes32"
        },
        {
          "internalType": "bytes32",
          "name": "s",
          "type": "bytes32"
        }
      ],
      "name": "selfPermitIfNecessary",
      "outputs": [],
      "stateMutability": "payable",
      "type": "function"
    },
    {
      "inputs": [
        {
          "internalType": "address",
          "name": "operator",
          "type": "address"
        },
        {
          "internalType": "bool",
          "name": "approved",
          "type": "bool"
        }
      ],
      "name": "setApprovalForAll",
      "outputs": [],
      "stateMutability": "nonpayable",
      "type": "function"
    },
    {
      "inputs": [
        {
          "internalType": "bytes4",
          "name": "interfaceId",
          "type": "bytes4"
        }
      ],
      "name": "supportsInterface",
      "outputs": [
        {
          "internalType": "bool",
          "name": "",
          "type": "bool"
        }
      ],
      "stateMutability": "view",
      "type": "function"
    },
    {
      "inputs": [
        {
          "internalType": "address",
          "name": "token",
          "type": "address"
        },
        {
          "internalType": "uint256",
          "name": "amountMinimum",
          "type": "uint256"
        },
        {
          "internalType": "address",
          "name": "recipient",
          "type": "address"
        }
      ],
      "name": "sweepToken",
      "outputs": [],
      "stateMutability": "payable",
      "type": "function"
    },
    {
      "inputs": [],
      "name": "symbol",
      "outputs": [
        {
          "internalType": "string",
          "name": "",
          "type": "string"
        }
      ],
      "stateMutability": "view",
      "type": "function"
    },
    {
      "inputs": [
        {
          "internalType": "uint256",
          "name": "index",
          "type": "uint256"
        }
      ],
      "name": "tokenByIndex",
      "outputs": [
        {
          "internalType": "uint256",
          "name": "",
          "type": "uint256"
        }
      ],
      "stateMutability": "view",
      "type": "function"
    },
    {
      "inputs": [
        {
          "internalType": "address",
          "name": "owner",
          "type": "address"
        },
        {
          "internalType": "uint256",
          "name": "index",
          "type": "uint256"
        }
      ],
      "name": "tokenOfOwnerByIndex",
      "outputs": [
        {
          "internalType": "uint256",
          "name": "",
          "type": "uint256"
        }
      ],
      "stateMutability": "view",
      "type": "function"
    },
    {
      "inputs": [
        {
          "internalType": "uint256",
          "name": "tokenId",
          "type": "uint256"
        }
      ],
      "name": "tokenURI",
      "outputs": [
        {
          "internalType": "string",
          "name": "",
          "type": "string"
        }
      ],
      "stateMutability": "view",
      "type": "function"
    },
    {
      "inputs": [],
      "name": "totalSupply",
      "outputs": [
        {
          "internalType": "uint256",
          "name": "",
          "type": "uint256"
        }
      ],
      "stateMutability": "view",
      "type": "function"
    },
    {
      "inputs": [
        {
          "internalType": "address",
          "name": "from",
          "type": "address"
        },
        {
          "internalType": "address",
          "name": "to",
          "type": "address"
        },
        {
          "internalType": "uint256",
          "name": "tokenId",
          "type": "uint256"
        }
      ],
      "name": "transferFrom",
      "outputs": [],
      "stateMutability": "nonpayable",
      "type": "function"
    },
    {
      "inputs": [
        {
          "internalType": "uint256",
          "name": "amount0Owed",
          "type": "uint256"
        },
        {
          "internalType": "uint256",
          "name": "amount1Owed",
          "type": "uint256"
        },
        {
          "internalType": "bytes",
          "name": "data",
          "type": "bytes"
        }
      ],
      "name": "uniswapV3MintCallback",
      "outputs": [],
      "stateMutability": "nonpayable",
      "type": "function"
    },
    {
      "inputs": [
        {
          "internalType": "uint256",
          "name": "amountMinimum",
          "type": "uint256"
        },
        {
          "internalType": "address",
          "name": "recipient",
          "type": "address"
        }
      ],
      "name": "unwrapWETH9",
      "outputs": [],
      "stateMutability": "payable",
      "type": "function"
    },
    {
      "stateMutability": "payable",
      "type": "receive"
    }
  ],
  "bytecode": "0x6101206040526001600d8181620000156200028b565b816001600160b01b0302191690836001600160b01b031602179062000039620002ed565b5050506001600d60166101000a81620000516200028b565b816001600160501b0302191690836001600160501b031602179062000075620002ed565b50505034801562000090576000806200008d6200033c565b50505b50604051620080ff380380620080ff833981016040819052620000b391620004ba565b828260405160408082018152601b82527f556e697377617020563320506f736974696f6e73204e46542d5631000000000060208301525160408082018152600a825269554e492d56332d504f5360b01b6020830152516040808201905260018152603160f81b60208201528282620001326301ffc9a760e01b620001db565b600682805162000147929160200190620003a9565b5060078180516200015d929160200190620003a9565b50620001706380ac58cd60e01b620001db565b62000182635b5e139f60e01b620001db565b6200019463780e9d6360e01b620001db565b50508280519060200120608052808051906020012060a0525050506001600160601b0319606092831b811660c05290821b811660e05291901b1661010052506200050e9050565b6001600160e01b03198082161415620002455760405162461bcd60e51b815260206004820152601c60248201527f4552433136353a20696e76616c696420696e7465726661636520696400000000604482015260640160405180910390620002426200033c565b50505b6001600160e01b0319811660009081526020819052600190604090206001816200026e6200028b565b8160ff0219169083151502179062000285620002ed565b50505050565b6303daa959598160e01b8152836004820152602081602483336000905af158600e01573d6000803e3d6000fd5b3d6001141558600a015760016000f35b8051935060005b6040811015620002e857600082820152602001620002cf565b505050565b6322bd64c0598160e01b8152836004820152846024820152600081604483336000905af158600e01573d6000803e3d6000fd5b3d6001141558600a015760016000f35b600081526020620002cf565b632a2a7adb598160e01b8152600481016020815285602082015260005b868110156200037657808601518282016040015260200162000359565b506020828760640184336000905af158600e01573d6000803e3d6000fd5b3d6001141558600a015760016000f35b505050565b8280620003b56200028b565b600181600116156101000203166002900490600052602060002090601f016020900481019282620003f557600085620003ed620002ed565b505062000459565b82601f106200041357805160ff19168380011785620003ed620002ed565b8280016001018562000424620002ed565b5050821562000459579182015b82811115620004595782518262000447620002ed565b50509160200191906001019062000431565b50620004679291506200046b565b5090565b8082111562000467576000808262000482620002ed565b5050506001016200046b565b6000815190506001600160a01b0381168114620004b557600080620004b26200033c565b50505b919050565b600080600060608486031215620004da578283620004d76200033c565b50505b620004e5846200048e565b9250620004f5602085016200048e565b915062000505604085016200048e565b90509250925092565b60805160a05160c05160601c60e05160601c6101005160601c617b6c620005936000398061387e5250806102905280612008528061219552806122465280615237528061527b5280615315525080610c7f528061110d5280611204528061383d52806139b05280613ec452806147ec525080611b6b525080611b4a5250617b6c6000f3fe6080604052600436106102895760003560e01c80636352211e11610153578063ac9650d8116100cb578063d34879971161007f578063e985e9c511610064578063e985e9c5146107dd578063f3995c6714610806578063fc6f78651461081957610326565b8063d3487997146107a1578063df2ab5bb146107ca57610326565b8063c2e3140a116100b0578063c2e3140a14610747578063c45a01551461075a578063c87b56dd1461077857610326565b8063ac9650d8146106fe578063b88d4fde1461071e57610326565b8063883164561161012257806399fbab881161010757806399fbab8814610681578063a22cb465146106c2578063a4a78f0c146106eb57610326565b8063883164561461064057806395d89b411461066357610326565b80636352211e146105bd5780636c0360eb146105e657806370a08231146106045780637ac2ff7b1461062d57610326565b806323b872dd1161020157806342966c68116101b557806349404b7c1161019a57806349404b7c146105635780634aa4a4fc146105765780634f6ccce71461059457610326565b806342966c681461053d5780634659a4941461055057610326565b806330adf81f116101e657806330adf81f146104d85780633644e515146104f657806342842e0e1461051457610326565b806323b872dd146104865780632f745c59146104af57610326565b80630c49ccbe1161025857806313ead5621161023d57806313ead5621461042657806318160ddd14610439578063219f5d171461046457610326565b80630c49ccbe146103fd57806312210e8a1461041e57610326565b806301ffc9a71461033457806306fdde0314610373578063081812fc1461039e578063095ea7b3146103d457610326565b36610326577f00000000000000000000000000000000000000000000000000000000000000006001600160a01b03165a6102c16166c0565b6001600160a01b0316146103245760405162461bcd60e51b815260206004820152600960248201527f4e6f742057455448390000000000000000000000000000000000000000000000604482015260640160405180910390610321616715565b50505b005b600080610331616715565b50505b34801561034957600080610346616715565b50505b5061035d610358366004616efd565b61082c565b60405161036a9190617536565b60405180910390f35b34801561038857600080610385616715565b50505b50610391610862565b60405161036a9190617589565b3480156103b3576000806103b0616715565b50505b506103c76103c2366004617287565b61091f565b60405161036a91906173fa565b3480156103e9576000806103e6616715565b50505b506103246103f8366004616d7f565b610988565b61041061040b366004617007565b610a70565b60405161036a92919061775d565b6103246110e0565b6103c7610434366004616bd3565b6110e2565b34801561044e5760008061044b616715565b50505b50610457611505565b60405161036a9190617541565b61047761047236600461701e565b611516565b60405161036a93929190617718565b34801561049b57600080610498616715565b50505b506103246104aa366004616c35565b611a7c565b3480156104c4576000806104c1616715565b50505b506104576104d3366004616d7f565b611ad6565b3480156104ed576000806104ea616715565b50505b50610457611b01565b34801561050b57600080610508616715565b50505b50610457611b25565b34801561052957600080610526616715565b50505b50610324610538366004616c35565b611c39565b61032461054b366004617287565b611c52565b61032461055e366004616dfd565b611ecf565b6103246105713660046172a8565b612004565b34801561058b57600080610588616715565b50505b506103c7612244565b3480156105a9576000806105a6616715565b50505b506104576105b8366004617287565b612268565b3480156105d2576000806105cf616715565b50505b506103c76105e1366004617287565b61227e565b3480156105fb576000806105f8616715565b50505b506103916122a4565b34801561061957600080610616616715565b50505b50610457610628366004616b6d565b6122a9565b61032461063b366004616dfd565b61231a565b61065361064e3660046170f2565b6127fa565b60405161036a9493929190617739565b34801561067857600080610675616715565b50505b50610391612f09565b34801561069657600080610693616715565b50505b506106aa6106a5366004617287565b612faf565b60405161036a9c9b9a9998979695949392919061776b565b3480156106d7576000806106d4616715565b50505b506103246106e6366004616d49565b613265565b6103246106f9366004616dfd565b613398565b61071161070c366004616e61565b6134d4565b60405161036a91906174b8565b34801561073357600080610730616715565b50505b50610324610742366004616c7e565b6136a2565b610324610755366004616dfd565b613709565b34801561076f5760008061076c616715565b50505b506103c761383b565b34801561078d5760008061078a616715565b50505b5061039161079c366004617287565b61385f565b3480156107b6576000806107b3616715565b50505b506103246107c5366004617302565b61399b565b6103246107d8366004616db3565b613a21565b3480156107f2576000806107ef616715565b50505b5061035d610801366004616b92565b613b9b565b610324610814366004616dfd565b613be9565b610410610827366004616fe7565b613cc9565b6001600160e01b031981166000908152602081905260408120600090610850616780565b906101000a900460ff1690505b919050565b606060068061086f616780565b600181600116156101000203166002900480601f0160208091040260200160405190810160405281815291906020830182806108a9616780565b600181600116156101000203166002900480156109155780601f106108e35761010080836108d5616780565b040283529160200191610915565b820191906000526020600020905b816108fa616780565b815290600101906020018083116108f157829003601f168201915b5050505050905090565b600061092a826143f1565b6109585760405162461bcd60e51b8152600401610946906175d3565b60405180910390610955616715565b50505b6000828152600c60205260409020600c90610971616780565b906101000a90046001600160a01b03169050919050565b60006109938261227e565b9050806001600160a01b0316836001600160a01b031614156109ef5760405162461bcd60e51b8152600401808060200182810382526021815260200180617b1a60219139604001915050604051809103906109ec616715565b50505b806001600160a01b0316610a016143fe565b6001600160a01b03161480610a1d5750610a1d816108016143fe565b610a615760405162461bcd60e51b8152600401808060200182810382526038815260200180617a446038913960400191505060405180910390610a5e616715565b50505b610a6b8383614409565b505050565b6000808235610a875a610a816166c0565b826144a2565b610ab55760405162461bcd60e51b8152600401610aa39061759c565b60405180910390610ab2616715565b50505b836080013580610ac3614547565b1115610b1e5760405162461bcd60e51b815260206004820152601360248201527f5472616e73616374696f6e20746f6f206f6c6400000000000000000000000000604482015260640160405180910390610b1b616715565b50505b6000610b30604087016020880161710a565b6001600160801b031611610b4c57600080610b49616715565b50505b84356000908152600c6020526040812090506000601060018301610b6e616780565b6001600160801b036101009290920a9004169050610b92604088016020890161710a565b6001600160801b0316816001600160801b03161015610bb957600080610bb6616715565b50505b6000600b818060018601610bcb616780565b906101000a900469ffffffffffffffffffff1669ffffffffffffffffffff1669ffffffffffffffffffff168152602001908152602001600020604051606081016040529081600082610c1b616780565b6001600160a01b036101009290920a9004168152602001600060018301610c40616780565b6001600160a01b036101009290920a9004168152602001601460018301610c65616780565b62ffffff6101009290920a90041690525090506000610ca47f000000000000000000000000000000000000000000000000000000000000000083614552565b90506001600160a01b03811663a34123a7600a60018701610cc3616780565b906101000a900460020b86600101600d90610cdc616780565b6101009190910a900460020b610cf860408e0160208f0161710a565b6040518463ffffffff1660e01b8152600401610d1693929190617563565b604080518083038160008780610d2a6167cc565b158015610d3f57600080610d3c616715565b50505b505a610d49616818565b505050505050158015610d69573d6000803e3d6000610d66616715565b50505b50505050604051601f3d908101601f19168201604052610d8c91908101906172d5565b909850965060408901358810801590610da9575088606001358710155b610dd75760405162461bcd60e51b8152600401610dc590617630565b60405180910390610dd4616715565b50505b6000610e6c5a63996d79a5598160e01b8152602081600483336000905af158600e01573d6000803e3d6000fd5b3d6001141558600a015760016000f35b8051925060005b6040811015610e3257600082820152602001610e1b565b50505086600101600a90610e44616780565b906101000a900460020b87600101600d90610e5d616780565b906101000a900460020b61467c565b9050600080836001600160a01b031663514ea4bf846040518263ffffffff1660e01b8152600401610e9d9190617541565b60a0604051808303818680610eb06167cc565b158015610ec557600080610ec2616715565b50505b505a610ecf616903565b5050505050158015610eee573d6000803e3d6000610eeb616715565b50505b50505050604051601f3d908101601f19168201604052610f119190810190617165565b50509250925050610f3d87600201610f27616780565b8303876001600160801b0316600160801b6146d7565b8b01600488016000828183610f50616780565b906101000a90046001600160801b03160192506101000a81610f70616780565b816001600160801b0302191690836001600160801b0316021790610f926169ca565b505050610fba87600301610fa4616780565b8203876001600160801b0316600160801b6146d7565b8a01600488016010828183610fcd616780565b906101000a90046001600160801b03160192506101000a81610fed616780565b816001600160801b0302191690836001600160801b031602179061100f6169ca565b505050818760020181906110216169ca565b505050808760030181906110336169ca565b5061104791505060408d0160208e0161710a565b860360018801600160801b8161105b616780565b816001600160801b0302191690836001600160801b031602179061107d6169ca565b5050508b600001357f26f6a048ee9138f2c0ce266f322cb99228e8d619ae2bff30c67f8dcf9d2377b48d60200160208101906110b9919061710a565b8d8d6040516110ca93929190617718565b60405180910390a2505050505050505050915091565b565b6000836001600160a01b0316856001600160a01b03161061110b57600080611108616715565b50505b7f00000000000000000000000000000000000000000000000000000000000000006001600160a01b0316631698ee828686866040516001600160e01b031960e086901b1681526001600160a01b03938416600482015291909216602482015262ffffff9091166044820152606401602060405180830381868061118c6167cc565b1580156111a15760008061119e616715565b50505b505a6111ab616903565b50505050501580156111ca573d6000803e3d60006111c7616715565b50505b505050506040513d60208110156111e9576000806111e6616715565b50505b81019080805193505050506001600160a01b038116611384577f00000000000000000000000000000000000000000000000000000000000000006001600160a01b031663a16712958686866040516001600160e01b031960e086901b1681526001600160a01b03938416600482015291909216602482015262ffffff9091166044820152606401602060405180830381600087806112856167cc565b15801561129a57600080611297616715565b50505b505a6112a4616818565b5050505050501580156112c4573d6000803e3d60006112c1616715565b50505b505050506040513d60208110156112e3576000806112e0616715565b50505b8101908080519350506001600160a01b038316915063f637731d9050836040516001600160e01b031960e084901b1681526001600160a01b0390911660048201526024016000604051808303816000878061133c6167cc565b1580156113515760008061134e616715565b50505b505a61135b616818565b50505050505015801561137b573d6000803e3d6000611378616715565b50505b505050506114fd565b6000816001600160a01b0316633850c7bd6040518163ffffffff1660e01b815260040160e06040518083038186806113ba6167cc565b1580156113cf576000806113cc616715565b50505b505a6113d9616903565b50505050501580156113f8573d6000803e3d60006113f5616715565b50505b505050506040513d60e081101561141757600080611414616715565b50505b810190808051929190602001805192919060200180519291906020018051929190602001805192919060200180519291906020018051509798505050506001600160a01b038616151594506114fb935050505057816001600160a01b031663f637731d846040516001600160e01b031960e084901b1681526001600160a01b039091166004820152602401600060405180830381600087806114b76167cc565b1580156114cc576000806114c9616715565b50505b505a6114d6616818565b5050505050501580156114f6573d6000803e3d60006114f3616715565b50505b505050505b505b949350505050565b60006115116002614798565b905090565b60008060008360a0013580611529614547565b11156115845760405162461bcd60e51b815260206004820152601360248201527f5472616e73616374696f6e20746f6f206f6c6400000000000000000000000000604482015260640160405180910390611581616715565b50505b84356000908152600c6020526040812090506000600b8180600185016115a8616780565b906101000a900469ffffffffffffffffffff1669ffffffffffffffffffff1669ffffffffffffffffffff1681526020019081526020016000206040516060810160405290816000826115f8616780565b6001600160a01b036101009290920a900416815260200160006001830161161d616780565b6001600160a01b036101009290920a9004168152602001601460018301611642616780565b62ffffff6101009290920a9004169052509050600061176b60405161014081016040528084516001600160a01b0316815260200184602001516001600160a01b03168152602001846040015162ffffff1681526020015a63996d79a5598160e01b8152602081600483336000905af158600e01573d6000803e3d6000fd5b3d6001141558600a015760016000f35b8051925060005b60408110156116ee576000828201526020016116d7565b5050506001600160a01b03168152602001600a6001870161170d616780565b906101000a900460020b60020b815260200185600101600d9061172e616780565b906101000a900460020b60020b81526020018a6020013581526020018a6040013581526020018a6060013581526020018a608001358152506147a3565b9299509097509550905060006117fb5a63996d79a5598160e01b8152602081600483336000905af158600e01573d6000803e3d6000fd5b3d6001141558600a015760016000f35b8051925060005b60408110156117d0576000828201526020016117b9565b50505085600101600a906117e2616780565b906101000a900460020b86600101600d90610e5d616780565b9050600080836001600160a01b031663514ea4bf846040518263ffffffff1660e01b815260040161182c9190617541565b60a060405180830381868061183f6167cc565b15801561185457600080611851616715565b50505b505a61185e616903565b505050505015801561187d573d6000803e3d600061187a616715565b50505b50505050604051601f3d908101601f191682016040526118a09190810190617165565b505092509250506118e9866002016118b6616780565b83036010600189016118c6616780565b906101000a90046001600160801b03166001600160801b0316600160801b6146d7565b6004870160008281836118fa616780565b906101000a90046001600160801b03160192506101000a8161191a616780565b816001600160801b0302191690836001600160801b031602179061193c6169ca565b50505061195e8660030161194e616780565b82036010600189016118c6616780565b60048701601082818361196f616780565b906101000a90046001600160801b03160192506101000a8161198f616780565b816001600160801b0302191690836001600160801b03160217906119b16169ca565b505050818660020181906119c36169ca565b505050808660030181906119d56169ca565b50505089866001016010828282906119eb616780565b906101000a90046001600160801b03160192506101000a81611a0b616780565b816001600160801b0302191690836001600160801b0316021790611a2d6169ca565b50508b3590507f3067048beee31b25b2f1681f88dac838c8bba36af25bfb2b7cf7473a5847e35f8b8b8b604051611a6693929190617718565b60405180910390a2505050505050509193909250565b611a87610a816143fe565b611acb5760405162461bcd60e51b8152600401808060200182810382526031815260200180617b3b6031913960400191505060405180910390611ac8616715565b50505b610a6b838383614a3c565b6001600160a01b03821660009081526001602052611af8826040832090614b9e565b90505b92915050565b7f49ecf333e5b8c95c40fdafc95c1ad136e8914a8fb55e9dc8bb01eaa83a2df9ad81565b60007f8b73c3c69bb8fe3d512ecc4cf759cc79239f7b179b0ffacaa9a75d522b39400f7f00000000000000000000000000000000000000000000000000000000000000007f0000000000000000000000000000000000000000000000000000000000000000611b92614baa565b5a63996d79a5598160e01b8152602081600483336000905af158600e01573d6000803e3d6000fd5b3d6001141558600a015760016000f35b8051925060005b6040811015611be857600082820152602001611bd1565b5050506040516020810195909552604080860194909452606085019290925260808401526001600160a01b031660a083015260c0909101905160208183030381529060405280519060200120905090565b610a6b83838360405160208101604052600081526136a2565b80611c5f5a610a816166c0565b611c8d5760405162461bcd60e51b8152600401611c7b9061759c565b60405180910390611c8a616715565b50505b6000828152600c602052604081209050601060018201611cab616780565b6001600160801b036101009290920a900416158015611ce75750600060048201611cd3616780565b6001600160801b036101009290920a900416155b8015611d105750601060048201611cfc616780565b6001600160801b036101009290920a900416155b611d3e5760405162461bcd60e51b8152600401611d2c9061769e565b60405180910390611d3b616715565b50505b6000838152600c60205260409020600081600181611d5a616780565b906bffffffffffffffffffffffff02191690611d746169ca565b508290506c0100000000000000000000000081611d8f616780565b906001600160a01b0302191690611da46169ca565b505060018281019081611db5616780565b9069ffffffffffffffffffff02191690611dcd6169ca565b5050600182016a010000000000000000000081611de8616780565b9062ffffff02191690611df96169ca565b5050600182016d010000000000000000000000000081611e17616780565b9062ffffff02191690611e286169ca565b505060018201600160801b81611e3c616780565b906001600160801b0302191690611e516169ca565b505060028201600090611e626169ca565b505060038201600090611e736169ca565b505060048201600181611e84616780565b906001600160801b0302191690611e996169ca565b505060048201600160801b81611ead616780565b906001600160801b0302191690611ec26169ca565b50505050610a6b83614bb5565b856001600160a01b0316638fcbaf0c5a611ee76166c0565b5a63996d79a5598160e01b8152602081600483336000905af158600e01573d6000803e3d6000fd5b3d6001141558600a015760016000f35b8051925060005b6040811015611f3d57600082820152602001611f26565b505050888860018989896040516001600160e01b031960e08b901b1681526001600160a01b039889166004820152969097166024870152604486019490945260648501929092521515608484015260ff1660a483015260c482015260e48101919091526101040160006040518083038160008780611fb96167cc565b158015611fce57600080611fcb616715565b50505b505a611fd8616818565b505050505050158015611ff8573d6000803e3d6000611ff5616715565b50505b50505050505050505050565b60007f00000000000000000000000000000000000000000000000000000000000000006001600160a01b03166370a082315a63996d79a5598160e01b8152602081600483336000905af158600e01573d6000803e3d6000fd5b3d6001141558600a015760016000f35b8051925060005b604081101561208b57600082820152602001612074565b5050506040516001600160e01b031960e084901b1681526001600160a01b03909116600482015260240160206040518083038186806120c86167cc565b1580156120dd576000806120da616715565b50505b505a6120e7616903565b5050505050158015612106573d6000803e3d6000612103616715565b50505b505050506040513d602081101561212557600080612122616715565b50505b81019080805193505050508281101561218d5760405162461bcd60e51b815260206004820152601260248201527f496e73756666696369656e74205745544839000000000000000000000000000060448201526064016040518091039061218a616715565b50505b8015610a6b577f00000000000000000000000000000000000000000000000000000000000000006001600160a01b0316632e1a7d4d826040516001600160e01b031960e084901b1681526004810191909152602401600060405180830381600087806121f76167cc565b15801561220c57600080612209616715565b50505b505a612216616818565b505050505050158015612236573d6000803e3d6000612233616715565b50505b50505050610a6b8282614c91565b7f000000000000000000000000000000000000000000000000000000000000000081565b600080612276600284614dc8565b509392505050565b6000611afb82604051606081016040526029808252617aa6602083013960029190614de6565b606090565b60006001600160a01b0382166122f95760405162461bcd60e51b815260040180806020018281038252602a815260200180617a7c602a9139604001915050604051809103906122f6616715565b50505b6001600160a01b03821660009081526001602052611afb9060409020614798565b83612323614547565b111561237e5760405162461bcd60e51b815260206004820152600e60248201527f5065726d6974206578706972656400000000000000000000000000000000000060448201526064016040518091039061237b616715565b50505b6000612388611b25565b7f49ecf333e5b8c95c40fdafc95c1ad136e8914a8fb55e9dc8bb01eaa83a2df9ad88886123b481614df3565b8960405160200180868152602001856001600160a01b0316815260200184815260200183815260200182815260200195505050505050604051602081830303815290604052805190602001206040517f1901000000000000000000000000000000000000000000000000000000000000602082015260228101929092526042820152606201604051602081830303815290604052805190602001209050600061245c8761227e565b9050806001600160a01b0316886001600160a01b031614156124b85760405162461bcd60e51b81526004018080602001828103825260278152602001806179cd60279139604001915050604051809103906124b5616715565b50505b6124c181614e7b565b1561269657806001600160a01b0316631626ba7e83868689604051602001808481526020018381526020018260ff1660f81b815260010193505050506040516020818303038152906040526040518363ffffffff1660e01b81526004018083815260200180602001828103825283818151815260200191508051906020019080838360005b8381101561255e578082015183820152602001612546565b50505050905090810190601f16801561258b5780820380516001836020036101000a031916815260200191505b50935050505060206040518083038186806125a46167cc565b1580156125b9576000806125b6616715565b50505b505a6125c3616903565b50505050501580156125e2573d6000803e3d60006125df616715565b50505b505050506040513d6020811015612601576000806125fe616715565b50505b8101908080516001600160e01b0319167f1626ba7e000000000000000000000000000000000000000000000000000000001492506126919150505760405162461bcd60e51b815260206004820152600c60248201527f556e617574686f72697a6564000000000000000000000000000000000000000060448201526064016040518091039061268e616715565b50505b6127e6565b600060018387878760405160008152602001604052604051808581526020018460ff1681526020018381526020018281526020019450505050506020604051602081039080840390855a6126e8616903565b5050505050158015612707573d6000803e3d6000612704616715565b50505b5050506020604051035190506001600160a01b0381166127765760405162461bcd60e51b815260206004820152601160248201527f496e76616c6964207369676e6174757265000000000000000000000000000000604482015260640160405180910390612773616715565b50505b816001600160a01b0316816001600160a01b0316146127e45760405162461bcd60e51b815260206004820152600c60248201527f556e617574686f72697a656400000000000000000000000000000000000000006044820152606401604051809103906127e1616715565b50505b505b6127f08888614409565b5050505050505050565b6000806000808461014001358061280f614547565b111561286a5760405162461bcd60e51b815260206004820152601360248201527f5472616e73616374696f6e20746f6f206f6c6400000000000000000000000000604482015260640160405180910390612867616715565b50505b600061299460405161014081016040528061288860208b018b616b6d565b6001600160a01b031681526020018960200160208101906128a99190616b6d565b6001600160a01b031681526020016128c760608b0160408c01617264565b62ffffff1681526020015a63996d79a5598160e01b8152602081600483336000905af158600e01573d6000803e3d6000fd5b3d6001141558600a015760016000f35b8051925060005b604081101561292757600082820152602001612910565b5050506001600160a01b0316815260200161294860808b0160608c01616f34565b60020b815260200161296060a08b0160808c01616f34565b60020b81526020018960a0013581526020018960c0013581526020018960e0013581526020018961010001358152506147a3565b92975090955093509050612a596129b361014089016101208a01616b6d565b600d600080826129c1616780565b906101000a900475ffffffffffffffffffffffffffffffffffffffffffff168092919060010191906101000a816129f6616780565b8175ffffffffffffffffffffffffffffffffffffffffffff021916908375ffffffffffffffffffffffffffffffffffffffffffff16021790612a366169ca565b50505075ffffffffffffffffffffffffffffffffffffffffffff16975087614e90565b6000612add5a63996d79a5598160e01b8152602081600483336000905af158600e01573d6000803e3d6000fd5b3d6001141558600a015760016000f35b8051925060005b6040811015612ab457600082820152602001612a9d565b50612ac891505060808b0160608c01616f34565b612ad860a08c0160808d01616f34565b61467c565b9050600080836001600160a01b031663514ea4bf846040518263ffffffff1660e01b8152600401612b0e9190617541565b60a0604051808303818680612b216167cc565b158015612b3657600080612b33616715565b50505b505a612b40616903565b5050505050158015612b5f573d6000803e3d6000612b5c616715565b50505b50505050604051601f3d908101601f19168201604052612b829190810190617165565b505092509250506000612bfb8560405180606001604052808e6000016020810190612bad9190616b6d565b6001600160a01b031681526020018e6020016020810190612bce9190616b6d565b6001600160a01b031681526020018e6040016020810190612bef9190617264565b62ffffff169052614fd1565b9050604051610140810160409081526000808352602083015269ffffffffffffffffffff831690820152606080820190612c3b9060808f01908f01616f34565b60020b8152602001612c5360a08e0160808f01616f34565b60020b81526020018a6001600160801b0316815260200184815260200183815260200160006001600160801b0316815260200160006001600160801b0316815250600c60008c8152602001908152602001600020815181600181612cb5616780565b816bffffffffffffffffffffffff02191690836bffffffffffffffffffffffff16021790612ce16169ca565b5050506020820151816c0100000000000000000000000081612d01616780565b816001600160a01b0302191690836001600160a01b0316021790612d236169ca565b505050604082015160018083019081612d3a616780565b8169ffffffffffffffffffff021916908369ffffffffffffffffffff16021790612d626169ca565b5050506060820151600182016a010000000000000000000081612d83616780565b8162ffffff021916908360020b62ffffff16021790612da06169ca565b5050506080820151600182016d010000000000000000000000000081612dc4616780565b8162ffffff021916908360020b62ffffff16021790612de16169ca565b50505060a082015160018201600160801b81612dfb616780565b816001600160801b0302191690836001600160801b0316021790612e1d6169ca565b50505060c082015181600201612e316169ca565b505060e082015181600301612e446169ca565b505061010082015160048201600181612e5b616780565b816001600160801b0302191690836001600160801b0316021790612e7d6169ca565b50505061012082015160048201600160801b81612e98616780565b816001600160801b0302191690836001600160801b0316021790612eba6169ca565b505050905050897f3067048beee31b25b2f1681f88dac838c8bba36af25bfb2b7cf7473a5847e35f8a8a8a604051612ef493929190617718565b60405180910390a25050505050509193509193565b6060600780612f16616780565b600181600116156101000203166002900480601f016020809104026020016040519081016040528181529190602083018280612f50616780565b600181600116156101000203166002900480156109155780601f10612f7c5761010080836108d5616780565b820191906000526020600020905b81612f93616780565b81529060010190602001808311612f8a57509395945050505050565b6000818152600c6020528080808080808080808080806040812060405161014081016040529081600082612fe1616780565b6bffffffffffffffffffffffff6101009290920a9004168152602001600c82613008616780565b6001600160a01b036101009290920a900416815260200160006001830161302d616780565b69ffffffffffffffffffff6101009290920a9004168152602001600a60018301613055616780565b906101000a900460020b60020b60020b815260200160018201600d90613079616780565b906101000a900460020b60020b60020b81526020016001820160109061309d616780565b6001600160801b036101009290920a9004168152602001600282016130c0616780565b8152602001600382016130d1616780565b81526020016000600483016130e4616780565b6001600160801b036101009290920a9004168152602001601060048301613109616780565b6001600160801b036101009290920a9004169052509050604081015169ffffffffffffffffffff1661315f5760405162461bcd60e51b815260040161314d90617667565b6040518091039061315c616715565b50505b6000600b6000836040015169ffffffffffffffffffff1669ffffffffffffffffffff1681526020019081526020016000206040516060810160405290816000826131a7616780565b6001600160a01b036101009290920a90041681526020016000600183016131cc616780565b6001600160a01b036101009290920a90041681526020016014600183016131f1616780565b62ffffff6101009290920a900416905250905081518260200151825183602001518460400151866060015187608001518860a001518960c001518a60e001518b61010001518c61012001519d509d509d509d509d509d509d509d509d509d509d509d50505091939597999b5091939597999b565b61326d6143fe565b6001600160a01b0316826001600160a01b031614156132db5760405162461bcd60e51b815260206004820152601960248201527f4552433732313a20617070726f766520746f2063616c6c6572000000000000006044820152606401604051809103906132d8616715565b50505b80600560006132e86143fe565b6001600160a01b03166001600160a01b031681526020019081526020016000206001600160a01b03841660009081526020919091526040902060018161332c616780565b8160ff021916908315150217906133416169ca565b505050816001600160a01b03166133566143fe565b6001600160a01b03167f17307eab39ab6107e8899845ad3d59bd9653f200f220920489ca2b5937696c3183604051901515815260200160405180910390a35050565b600019866001600160a01b031663dd62ed3e5a6133b36166c0565b5a63996d79a5598160e01b8152602081600483336000905af158600e01573d6000803e3d6000fd5b3d6001141558600a015760016000f35b8051925060005b6040811015613409576000828201526020016133f2565b5050506040516001600160e01b031960e085901b1681526001600160a01b03928316600482015291166024820152604401602060405180830381868061344d6167cc565b1580156134625760008061345f616715565b50505b505a61346c616903565b505050505015801561348b573d6000803e3d6000613488616715565b50505b505050506040513d60208110156134aa576000806134a7616715565b50505b810190808051939093101592506134cc915050576134cc868686868686611ecf565b505050505050565b60608167ffffffffffffffff811180156134f6576000806134f3616715565b50505b5060405190808252806020026020018201604052801561352a57816020015b60608152602001906001900390816135155790505b50905060005b8281101561369b576000805a63996d79a5598160e01b8152602081600483336000905af158600e01573d6000803e3d6000fd5b3d6001141558600a015760016000f35b8051925060005b60408110156135915760008282015260200161357a565b5050506001600160a01b03168686858181106135a957fe5b90506020028101906135bb919061780a565b6040516135c99291906173ea565b600060405180830381855a6135dc616a18565b50505050509150503d8060008114613610576040513d603f01601f191681016040523d815291503d6000602084013e613615565b606091505b5091509150816136795760448151101561363757600080613634616715565b50505b6004810190602401815181019061364e9190616f59565b60405162461bcd60e51b81526004016136679190617589565b60405180910390613676616715565b50505b8084848151811061368657fe5b60209081029190910101525050600101613530565b5092915050565b6136b36136ad6143fe565b836144a2565b6136f75760405162461bcd60e51b8152600401808060200182810382526031815260200180617b3b60319139604001915050604051809103906136f4616715565b50505b6137038484848461519b565b50505050565b84866001600160a01b031663dd62ed3e5a6137226166c0565b5a63996d79a5598160e01b8152602081600483336000905af158600e01573d6000803e3d6000fd5b3d6001141558600a015760016000f35b8051925060005b604081101561377857600082820152602001613761565b5050506040516001600160e01b031960e085901b1681526001600160a01b0392831660048201529116602482015260440160206040518083038186806137bc6167cc565b1580156137d1576000806137ce616715565b50505b505a6137db616903565b50505050501580156137fa573d6000803e3d60006137f7616715565b50505b505050506040513d602081101561381957600080613816616715565b50505b810190808051939093101592506134cc915050576134cc868686868686613be9565b7f000000000000000000000000000000000000000000000000000000000000000081565b606061386a826143f1565b61387c57600080613879616715565b50505b7f00000000000000000000000000000000000000000000000000000000000000006001600160a01b031663e9dc63755a63996d79a5598160e01b8152602081600483336000905af158600e01573d6000803e3d6000fd5b3d6001141558600a015760016000f35b8051925060005b6040811015613901576000828201526020016138ea565b505050846040518363ffffffff1660e01b815260040161392292919061754a565b60006040518083038186806139356167cc565b15801561394a57600080613947616715565b50505b505a613954616903565b5050505050158015613973573d6000803e3d6000613970616715565b50505b505050506040513d6000823e601f3d908101601f19168201604052611afb9190810190616f59565b60006139a982840184617035565b90506139d67f000000000000000000000000000000000000000000000000000000000000000082516151f3565b5084156139f7576139f781515182602001515a6139f16166c0565b88615235565b8315613a1a57613a1a81516020015182602001515a613a146166c0565b87615235565b5050505050565b6000836001600160a01b03166370a082315a63996d79a5598160e01b8152602081600483336000905af158600e01573d6000803e3d6000fd5b3d6001141558600a015760016000f35b8051925060005b6040811015613a8857600082820152602001613a71565b5050506040516001600160e01b031960e084901b1681526001600160a01b0390911660048201526024016020604051808303818680613ac56167cc565b158015613ada57600080613ad7616715565b50505b505a613ae4616903565b5050505050158015613b03573d6000803e3d6000613b00616715565b50505b505050506040513d6020811015613b2257600080613b1f616715565b50505b810190808051935050505082811015613b8a5760405162461bcd60e51b815260206004820152601260248201527f496e73756666696369656e7420746f6b656e0000000000000000000000000000604482015260640160405180910390613b87616715565b50505b801561370357613703848383615481565b6001600160a01b03821660009081526005602052604081206001600160a01b038316600090815260209190915260409020600090613bd7616780565b906101000a900460ff16905092915050565b856001600160a01b031663d505accf5a613c016166c0565b5a63996d79a5598160e01b8152602081600483336000905af158600e01573d6000803e3d6000fd5b3d6001141558600a015760016000f35b8051925060005b6040811015613c5757600082820152602001613c40565b50505088888888886040516001600160e01b031960e08a901b1681526001600160a01b0397881660048201529590961660248601526044850193909352606484019190915260ff16608483015260a482015260c481019190915260e40160006040518083038160008780611fb96167cc565b6000808235613cda5a610a816166c0565b613d085760405162461bcd60e51b8152600401613cf69061759c565b60405180910390613d05616715565b50505b6000613d1a606086016040870161710a565b6001600160801b03161180613d4757506000613d3c608086016060870161710a565b6001600160801b0316115b613d5957600080613d56616715565b50505b600080613d6c6040870160208801616b6d565b6001600160a01b031614613d8f57613d8a6040860160208701616b6d565b613de9565b5a63996d79a5598160e01b8152602081600483336000905af158600e01573d6000803e3d6000fd5b3d6001141558600a015760016000f35b8051925060005b6040811015613de557600082820152602001613dce565b5050505b85356000908152600c6020529091506040812090506000600b818060018501613e10616780565b906101000a900469ffffffffffffffffffff1669ffffffffffffffffffff1669ffffffffffffffffffff168152602001908152602001600020604051606081016040529081600082613e60616780565b6001600160a01b036101009290920a9004168152602001600060018301613e85616780565b6001600160a01b036101009290920a9004168152602001601460018301613eaa616780565b62ffffff6101009290920a90041690525090506000613ee97f000000000000000000000000000000000000000000000000000000000000000083614552565b90506000808060048601613efb616780565b906101000a90046001600160801b031685600401601090613f1a616780565b906101000a90046001600160801b031691509150600085600101601090613f3f616780565b906101000a90046001600160801b03166001600160801b031611156141cf576001600160a01b03831663a34123a7600a60018801613f7b616780565b906101000a900460020b87600101600d90613f94616780565b906101000a900460020b60006040518463ffffffff1660e01b8152600401613fbe93929190617563565b604080518083038160008780613fd26167cc565b158015613fe757600080613fe4616715565b50505b505a613ff1616818565b505050505050158015614011573d6000803e3d600061400e616715565b50505b50505050604051601f3d908101601f1916820160405261403491908101906172d5565b5050600080846001600160a01b031663514ea4bf6140cc5a63996d79a5598160e01b8152602081600483336000905af158600e01573d6000803e3d6000fd5b3d6001141558600a015760016000f35b8051925060005b60408110156140a15760008282015260200161408a565b5050508a600101600a906140b3616780565b906101000a900460020b8b600101600d90610e5d616780565b6040518263ffffffff1660e01b81526004016140e89190617541565b60a06040518083038186806140fb6167cc565b1580156141105760008061410d616715565b50505b505a61411a616903565b5050505050158015614139573d6000803e3d6000614136616715565b50505b50505050604051601f3d908101601f1916820160405261415c9190810190617165565b5050925092505061418287600201614172616780565b8303601060018a016118c6616780565b840193506141a587600301614195616780565b8203601060018a016118c6616780565b909201918180600289016141b76169ca565b505050808760030181906141c96169ca565b50505050505b6000806001600160801b0384166141ec60608e0160408f0161710a565b6001600160801b03161161420f5761420a60608d0160408e0161710a565b614211565b835b836001600160801b03168d606001602081019061422e919061710a565b6001600160801b0316116142515761424c60808e0160608f0161710a565b614253565b835b91509150846001600160a01b0316634f1eb3d88989600101600a90614276616780565b906101000a900460020b8a600101600d9061428f616780565b906101000a900460020b86866040518663ffffffff1660e01b81526004016142bb959493929190617451565b6040805180830381600087806142cf6167cc565b1580156142e4576000806142e1616715565b50505b505a6142ee616818565b50505050505015801561430e573d6000803e3d600061430b616715565b50505b50505050604051601f3d908101601f19168201604052614331919081019061712f565b6001600160801b039182169c501699508184038184036004890160008282600160801b8161435d616780565b816001600160801b0302191690836001600160801b031602179061437f6169ca565b5050508391906101000a81614392616780565b816001600160801b0302191690836001600160801b03160217906143b46169ca565b50505050508b600001357f40d0efd1a53d60ecbf40971b9daf7dc90178c3aadc7aab1765632738fa8b8f018984846040516110ca9392919061748e565b6000611afb60028361563a565b60005a6115116166c0565b6000818152600c6020528290604090206c0100000000000000000000000081614430616780565b816001600160a01b0302191690836001600160a01b03160217906144526169ca565b50505080826001600160a01b03166144698361227e565b6001600160a01b03167f8c5be1e5ebec7d5bd14f71427d1e84f3dd0314c0f7b2291e5b200ac8c7c3b92560405160405180910390a45050565b60006144ad826143f1565b6144f15760405162461bcd60e51b815260040180806020018281038252602c815260200180617a18602c9139604001915050604051809103906144ee616715565b50505b60006144fc8361227e565b9050806001600160a01b0316846001600160a01b031614806145375750836001600160a01b031661452c8461091f565b6001600160a01b0316145b806114fd57506114fd8185613b9b565b60005a611511616a29565b600081602001516001600160a01b031682516001600160a01b0316106145805760008061457d616715565b50505b8282518360200151846040015160405160200180846001600160a01b03168152602001836001600160a01b031681526020018262ffffff1681526020019350505050604051602081830303815290604052805190602001207fc02f72e8ae5e68802e6d893d58ddfb0df89a2f4c9c2f04927db1186a293736606040517fff00000000000000000000000000000000000000000000000000000000000000602082015260609390931b7fffffffffffffffffffffffffffffffffffffffff00000000000000000000000016602184015260358301919091526055820152607501604051602081830303815290604052805190602001209392505050565b600083838360405160200180846001600160a01b031660601b81526014018360020b60e81b81526003018260020b60e81b815260030193505050506040516020818303038152906040528051906020012090505b9392505050565b6000808060001985870986860292508281109083900303905080614716576000841161470b57600080614708616715565b50505b5082900490506146d0565b80841161472b57600080614728616715565b50505b6000848688096000868103871696879004966002600389028118808a02820302808a02820302808a02820302808a02820302808a02820302808a02909103029181900381900460010186841190950394909402919094039290920491909117919091029150509392505050565b6000611afb82615646565b6000806000806000604051606081016040528087516001600160a01b0316815260200187602001516001600160a01b03168152602001876040015162ffffff16905290506148117f000000000000000000000000000000000000000000000000000000000000000082614552565b91506000826001600160a01b0316633850c7bd6040518163ffffffff1660e01b815260040160e06040518083038186806148496167cc565b15801561485e5760008061485b616715565b50505b505a614868616903565b5050505050158015614887573d6000803e3d6000614884616715565b50505b50505050604051601f3d908101601f191682016040526148aa91908101906171cc565b505050505050905060006148c18860800151615652565b905060006148d28960a00151615652565b90506148e98383838c60c001518d60e001516159a8565b9750505050816001600160a01b0316633c8a7d8d876060015188608001518960a001518960405180604001604052808881526020015a6149276166c0565b6001600160a01b0316905260405160200161494291906176d5565b6040516020818303038152906040526040518663ffffffff1660e01b815260040161497195949392919061740e565b6040805180830381600087806149856167cc565b15801561499a57600080614997616715565b50505b505a6149a4616818565b5050505050501580156149c4573d6000803e3d60006149c1616715565b50505b50505050604051601f3d908101601f191682016040526149e791908101906172d5565b90945092506101008601518410158015614a0657508561012001518310155b614a345760405162461bcd60e51b8152600401614a2290617630565b60405180910390614a31616715565b50505b509193509193565b826001600160a01b0316614a4f8261227e565b6001600160a01b031614614a9d5760405162461bcd60e51b8152600401808060200182810382526029815260200180617af16029913960400191505060405180910390614a9a616715565b50505b6001600160a01b038216614aeb5760405162461bcd60e51b81526004018080602001828103825260248152602001806179f46024913960400191505060405180910390614ae8616715565b50505b614af6838383610a6b565b614b01600082614409565b6001600160a01b03831660009081526001602052614b259082906040902090615a6c565b506001600160a01b03821660009081526001602052614b4a9082906040902090615a78565b50614b5760028284615a84565b5080826001600160a01b0316846001600160a01b03167fddf252ad1be2c89b69c2b068fc378daa952ba7f163c4a11628f55a4df523b3ef60405160405180910390a4505050565b6000611af88383615a9a565b60005a611511616a6f565b6000614bc08261227e565b9050614bce81600084610a6b565b614bd9600083614409565b600082815260086020526040902080614bf0616780565b60018160011615610100020316600290049050600014614c23576000828152600860205260409020614c23906000616ab5565b6001600160a01b03811660009081526001602052614c479083906040902090615a6c565b50614c53600283615b13565b508160006001600160a01b0383167fddf252ad1be2c89b69c2b068fc378daa952ba7f163c4a11628f55a4df523b3ef60405160405180910390a45050565b60006001600160a01b0383168282604051818152601f19601f8301168101602001604052908015614cc9576020820181803683370190505b506040518082805190602001908083835b60208310614cf95780518252601f199092019160209182019101614cda565b6001836020036101000a03801982511681845116808217855250505050505090500191505060006040518083038185875a614d32616818565b505050505050925050503d8060008114614d68576040513d603f01601f191681016040523d815291503d6000602084013e614d6d565b606091505b5050905080610a6b5760405162461bcd60e51b815260206004820152600360248201527f5354450000000000000000000000000000000000000000000000000000000000604482015260640160405180910390613a1a616715565b6000808080614dd78686615b1f565b909450925050505b9250929050565b60006114fd848484615bbb565b6000818152600c6020526040812060008082614e0d616780565b906101000a90046bffffffffffffffffffffffff168092919060010191906101000a81614e38616780565b816bffffffffffffffffffffffff02191690836bffffffffffffffffffffffff16021790614e646169ca565b5050506bffffffffffffffffffffffff1692915050565b60008082614e876167cc565b15159392505050565b6001600160a01b038216614ef35760405162461bcd60e51b815260206004820181905260248201527f4552433732313a206d696e7420746f20746865207a65726f2061646472657373604482015260640160405180910390614ef0616715565b50505b614efc816143f1565b15614f565760405162461bcd60e51b815260206004820152601c60248201527f4552433732313a20746f6b656e20616c7265616479206d696e74656400000000604482015260640160405180910390614f53616715565b50505b614f6260008383610a6b565b6001600160a01b03821660009081526001602052614f869082906040902090615a78565b50614f9360028284615a84565b50806001600160a01b03831660007fddf252ad1be2c89b69c2b068fc378daa952ba7f163c4a11628f55a4df523b3ef60405160405180910390a45050565b6001600160a01b0382166000908152600a60205260408120600090614ff4616780565b69ffffffffffffffffffff6101009290920a900416905080611afb57600d6016808261501e616780565b906101000a900469ffffffffffffffffffff168092919060010191906101000a81615047616780565b8169ffffffffffffffffffff021916908369ffffffffffffffffffff1602179061506f6169ca565b5050506001600160a01b0384166000908152600a60205290915081906040902060018161509a616780565b8169ffffffffffffffffffff021916908369ffffffffffffffffffff160217906150c26169ca565b50505069ffffffffffffffffffff81166000908152600b6020528290604090208151816001816150f0616780565b816001600160a01b0302191690836001600160a01b03160217906151126169ca565b505050602082015160018083019081615129616780565b816001600160a01b0302191690836001600160a01b031602179061514b6169ca565b5050506040820151600182017401000000000000000000000000000000000000000081615176616780565b8162ffffff021916908362ffffff160217906151906169ca565b505050505092915050565b6151a6848484614a3c565b6151b284848484615c9a565b6137035760405162461bcd60e51b815260040180806020018281038252603281526020018061799b60329139604001915050604051809103906134cc616715565b60006151ff8383614552565b9050806001600160a01b03165a6152146166c0565b6001600160a01b031614611afb5760008061522d616715565b505092915050565b7f00000000000000000000000000000000000000000000000000000000000000006001600160a01b0316846001600160a01b0316148015615274575060005b156153f3577f00000000000000000000000000000000000000000000000000000000000000006001600160a01b031663d0e30db0826040518263ffffffff1660e01b81526004016000604051808303818588806152cf6167cc565b1580156152e4576000806152e1616715565b50505b505a6152ee616818565b50505050505015801561530e573d6000803e3d600061530b616715565b50505b50505050507f00000000000000000000000000000000000000000000000000000000000000006001600160a01b031663a9059cbb83836040516001600160e01b031960e085901b1681526001600160a01b0390921660048301526024820152604401602060405180830381600087806153856167cc565b15801561539a57600080615397616715565b50505b505a6153a4616818565b5050505050501580156153c4573d6000803e3d60006153c1616715565b50505b505050506040513d60208110156153e3576000806153e0616715565b50505b8101908080515061370392505050565b5a63996d79a5598160e01b8152602081600483336000905af158600e01573d6000803e3d6000fd5b3d6001141558600a015760016000f35b8051925060005b604081101561544957600082820152602001615432565b5050506001600160a01b0316836001600160a01b0316141561547557615470848383615481565b613703565b61370384848484615e3c565b6000806001600160a01b0385167fa9059cbb0000000000000000000000000000000000000000000000000000000085856040516001600160a01b0390921660248301526044820152606401604051602081830303815290604052906001600160e01b0319166020820180516001600160e01b031690911790526040518082805190602001908083835b602083106155295780518252601f19909201916020918201910161550a565b6001836020036101000a0380198251168184511680821785525050505050509050019150506000604051808303816000865a615563616818565b5050505050509150503d8060008114615598576040513d603f01601f191681016040523d815291503d6000602084013e61559d565b606091505b50915091508180156155db5750805115806155db575060208101815160208110156155d0576000806155cd616715565b50505b810190808051925050505b613a1a5760405162461bcd60e51b815260206004820152600260248201527f5354000000000000000000000000000000000000000000000000000000000000604482015260640160405180910390615631616715565b50505050505050565b6000611af88383615ff9565b600081806146d0616780565b60008060008360020b12615669578260020b615671565b8260020b6000035b9050620d89e88111156156d35760405162461bcd60e51b815260206004820152600160248201527f54000000000000000000000000000000000000000000000000000000000000006044820152606401604051809103906156d0616715565b50505b6000600182166156e757600160801b6156f9565b6ffffcb933bd6fad37aa2d162d1a5940015b70ffffffffffffffffffffffffffffffffff169050600282161561572d576ffff97272373d413259a46990580e213a0260801c5b600482161561574c576ffff2e50f5f656932ef12357cf3c7fdcc0260801c5b600882161561576b576fffe5caca7e10e4e61c3624eaa0941cd00260801c5b601082161561578a576fffcb9843d60f6159c9db58835c9266440260801c5b60208216156157a9576fff973b41fa98c081472e6896dfb254c00260801c5b60408216156157c8576fff2ea16466c96a3843ec78b326b528610260801c5b60808216156157e7576ffe5dee046a99a2a811c461f1969c30530260801c5b610100821615615807576ffcbe86c7900a88aedcffc83b479aa3a40260801c5b610200821615615827576ff987a7253ac413176f2b074cf7815e540260801c5b610400821615615847576ff3392b0822b70005940c7a398e4b70f30260801c5b610800821615615867576fe7159475a2c29b7443b29c7fa6e889d90260801c5b611000821615615887576fd097f3bdfd2022b8845ad8f792aa58250260801c5b6120008216156158a7576fa9f746462d870fdf8a65dc1f90e061e50260801c5b6140008216156158c7576f70d869a156d2a1b890bb3df62baf32f70260801c5b6180008216156158e7576f31be135f97d08fd981231505542fcfa60260801c5b62010000821615615908576f09aa508b5b7a84e1c677de54f3e99bc90260801c5b62020000821615615928576e5d6af8dedb81196699c329225ee6040260801c5b62040000821615615947576d2216e584f5fa1ea926041bedfe980260801c5b62080000821615615964576b048a170391f7dc42444e8fa20260801c5b60008460020b131561597f57806000198161597b57fe5b0490505b640100000000810615615993576001615996565b60005b60ff16602082901c0192505050919050565b6000836001600160a01b0316856001600160a01b031611156159c8579293925b846001600160a01b0316866001600160a01b0316116159f3576159ec858585616011565b9050615a63565b836001600160a01b0316866001600160a01b03161015615a55576000615a1a878686616011565b90506000615a2987898661607d565b9050806001600160801b0316826001600160801b031610615a4a5780615a4c565b815b92505050615a63565b615a6085858461607d565b90505b95945050505050565b6000611af883836160c3565b6000611af883836161e4565b60006114fd84846001600160a01b038516616265565b6000818380615aa7616780565b905011615aee5760405162461bcd60e51b81526004018080602001828103825260228152602001806179796022913960400191505060405180910390615aeb616715565b50505b828281615af9616780565b8110615b0157fe5b90600052602060002001611af8616780565b6000611af88383616363565b600080828480615b2d616780565b905011615b745760405162461bcd60e51b8152600401808060200182810382526022815260200180617acf6022913960400191505060405180910390615b71616715565b50505b6000848481615b81616780565b8110615b8957fe5b906000526020600020600290910201905080615ba3616780565b81600101615baf616780565b92509250509250929050565b6000828152600184016020528060408120615bd4616780565b90508281615c695760405162461bcd60e51b81526004018080602001828103825283818151815260200191508051906020019080838360005b83811015615c25578082015183820152602001615c0d565b50505050905090810190601f168015615c525780820380516001836020036101000a031916815260200191505b509250505060405180910390615c66616715565b50505b5084600019820181615c79616780565b8110615c8157fe5b9060005260206000209060020201600101615a63616780565b6000615cae846001600160a01b0316614e7b565b615cba575060016114fd565b6000615dda7f150b7a0200000000000000000000000000000000000000000000000000000000615ce86143fe565b88878760405160240180856001600160a01b03168152602001846001600160a01b0316815260200183815260200180602001828103825283818151815260200191508051906020019080838360005b83811015615d4f578082015183820152602001615d37565b50505050905090810190601f168015615d7c5780820380516001836020036101000a031916815260200191505b5095505050505050604051602081830303815290604052906001600160e01b0319166020820180516001600160e01b0316909117905260405160608101604052603280825261799b60208301396001600160a01b0388169190616499565b905060006020820182516020811015615dfb57600080615df8616715565b50505b8101908080516001600160e01b0319167f150b7a02000000000000000000000000000000000000000000000000000000001495505050505050949350505050565b6000806001600160a01b0386167f23b872dd000000000000000000000000000000000000000000000000000000008686866040516001600160a01b0393841660248201529190921660448201526064810191909152608401604051602081830303815290604052906001600160e01b0319166020820180516001600160e01b031690911790526040518082805190602001908083835b60208310615ef15780518252601f199092019160209182019101615ed2565b6001836020036101000a0380198251168184511680821785525050505050509050019150506000604051808303816000865a615f2b616818565b5050505050509150503d8060008114615f60576040513d603f01601f191681016040523d815291503d6000602084013e615f65565b606091505b5091509150818015615fa3575080511580615fa357506020810181516020811015615f9857600080615f95616715565b50505b810190808051925050505b6134cc5760405162461bcd60e51b815260206004820152600360248201527f53544600000000000000000000000000000000000000000000000000000000006044820152606401604051809103906127f0616715565b60008181526001830160205260408120614e87616780565b6000826001600160a01b0316846001600160a01b03161115616031579192915b600061605d856001600160a01b0316856001600160a01b03166c010000000000000000000000006146d7565b9050615a6361607884838888036001600160a01b03166146d7565b6164a8565b6000826001600160a01b0316846001600160a01b0316111561609d579192915b6114fd616078836c010000000000000000000000008787036001600160a01b03166146d7565b60008181526001830160205280604081206160dc616780565b905080156161da5760001981016000600186806160f7616780565b9050039050600086600001828161610c616780565b811061611457fe5b90600052602060002001616126616780565b905080878481616134616780565b811061613c57fe5b9060005260206000200181906161506169ca565b505050600081815260018881016020528401906040902081906161716169ca565b5050508660000180616181616780565b8061618857fe5b600190038181906000526020600020016000906161a36169ca565b5050906161ae6169ca565b5050600086815260018801602052604090206000906161cb6169ca565b50506001945050505050611afb565b6000915050611afb565b60006161f08383615ff9565b61625d57818380600181616202616780565b01808261620d6169ca565b5050600092835260001901916020915020016162276169ca565b5083905080616234616780565b6000848152600186016020529091506040902081906162516169ca565b50505060019050611afb565b506000611afb565b600082815260018401602052806040812061627e616780565b905080616323578460405180604001604052808681526020018581525090806001816162a8616780565b0180826162b36169ca565b50506000928352600019019160209150206002909102018151816162d56169ca565b50506020820151816001016162e86169ca565b5050505084600001806162f9616780565b6000868152600188016020529091506040902081906163166169ca565b50505060019150506146d0565b8285600019830181616333616780565b811061633b57fe5b906000526020600020906002020160010181906163566169ca565b50505060009150506146d0565b600081815260018301602052806040812061637c616780565b905080156161da576000198101600060018680616397616780565b905003905060008660000182816163ac616780565b81106163b457fe5b9060005260206000206002909102019050808784816163d1616780565b81106163d957fe5b906000526020600020600290910201816163f1616780565b816163fa6169ca565b505060018201616408616780565b816001016164146169ca565b50505060018481019150880160008361642b616780565b815260200190815260200160002081906164436169ca565b5050508660000180616453616780565b8061645a57fe5b6001900381819060005260206000206002909102016000808261647b6169ca565b50506001820160009061648c6169ca565b50505050906161ae6169ca565b60606114fd84846000856164cb565b806001600160801b038116811461085d576000806164c4616715565b5050919050565b60606164d685614e7b565b61652f5760405162461bcd60e51b815260206004820152601d60248201527f416464726573733a2063616c6c20746f206e6f6e2d636f6e747261637400000060448201526064016040518091039061652c616715565b50505b600080866001600160a01b031685876040518082805190602001908083835b6020831061656d5780518252601f19909201916020918201910161654e565b6001836020036101000a03801982511681845116808217855250505050505090500191505060006040518083038185875a6165a6616818565b505050505050925050503d80600081146165dc576040513d603f01601f191681016040523d815291503d6000602084013e6165e1565b606091505b50915091506165f18282866165fc565b979650505050505050565b6060831561660b5750816146d0565b60008351111561662c5782518084602001616624616715565b5050506146d0565b8160405162461bcd60e51b81526004018080602001828103825283818151815260200191508051906020019080838360005b8381101561667657808201518382015260200161665e565b50505050905090810190601f1680156166a35780820380516001836020036101000a031916815260200191505b5092505050604051809103906166b7616715565b50509392505050565b6373509064598160e01b8152602081600483336000905af158600e01573d6000803e3d6000fd5b3d6001141558600a015760016000f35b8051935060005b6040811015610a6b576000828201526020016166fe565b632a2a7adb598160e01b8152600481016020815285602082015260005b8681101561674d578086015182820160400152602001616732565b506020828760640184336000905af158600e01573d6000803e3d6000fd5b3d6001141558600a015760016000f35b505050565b6303daa959598160e01b8152836004820152602081602483336000905af158600e01573d6000803e3d6000fd5b3d6001141558600a015760016000f35b805160008252935060206166fe565b638435035b598160e01b8152836004820152602081602483336000905af158600e01573d6000803e3d6000fd5b3d6001141558600a015760016000f35b805160008252935060206166fe565b6385979f76598160e01b8152616849565b8080831115611afb575090919050565b8080831015611afb575090919050565b836004820152846024820152606060448201528760648201526084810160005b89811015616881578089015182820152602001616869565b506060828a60a40184336000905af158600e01573d6000803e3d6000fd5b3d6001141558600a015760016000f35b815160408301513d6000853e8c8c82606087013350600060045af150596168d68e3d616839565b8d016168e28187616829565b5b828110156168f757600081526020016168e3565b50929d50505050505050565b638540661f598160e01b81525b836004820152846024820152606060448201528660648201526084810160005b88811015616948578088015182820152602001616930565b506060828960a40184336000905af158600e01573d6000803e3d6000fd5b3d6001141558600a015760016000f35b815160408301513d6000853e8b8b82606087013350600060045af1505961699d8d3d616839565b8c016169a98187616829565b5b828110156169be57600081526020016169aa565b50929c50505050505050565b6322bd64c0598160e01b8152836004820152846024820152600081604483336000905af158600e01573d6000803e3d6000fd5b3d6001141558600a015760016000f35b6000815260206166fe565b63ffe73914598160e01b8152616910565b63bdbf8c36598160e01b8152602081600483336000905af158600e01573d6000803e3d6000fd5b3d6001141558600a015760016000f35b805160008252935060206166fe565b6390580256598160e01b8152602081600483336000905af158600e01573d6000803e3d6000fd5b3d6001141558600a015760016000f35b805160008252935060206166fe565b5080616abf616780565b6001816001161561010002031660029004600082616adb6169ca565b505080601f10616aeb5750616b07565b601f0160209004906000526020600020616b0791810190616b0a565b50565b80821115616b295760008082616b1e6169ca565b505050600101616b0a565b5090565b803561085d81617904565b60008151905061ffff8116811461085d576000806164c4616715565b803562ffffff8116811461085d576000806164c4616715565b600060208284031215616b87578081616b84616715565b50505b81356146d081617904565b60008060408385031215616bad578081616baa616715565b50505b8235616bb881617904565b91506020830135616bc881617904565b809150509250929050565b60008060008060808587031215616bf1578182616bee616715565b50505b8435616bfc81617904565b93506020850135616c0c81617904565b9250616c1a60408601616b54565b91506060850135616c2a81617904565b939692955090935050565b600080600060608486031215616c52578081616c4f616715565b50505b8335616c5d81617904565b92506020840135616c6d81617904565b929592945050506040919091013590565b60008060008060808587031215616c9c578182616c99616715565b50505b8435616ca781617904565b93506020850135616cb781617904565b925060408501359150606085013567ffffffffffffffff811115616ce2578182616cdf616715565b50505b8501601f81018713616cfb578182616cf8616715565b50505b8035616d0e616d09826178b6565b61788e565b818152886020838501011115616d2b578384616d28616715565b50505b81602084016020830137908101602001929092525092959194509250565b60008060408385031215616d64578182616d61616715565b50505b8235616d6f81617904565b91506020830135616bc88161791f565b60008060408385031215616d9a578182616d97616715565b50505b8235616da581617904565b946020939093013593505050565b600080600060608486031215616dd0578081616dcd616715565b50505b8335616ddb81617904565b9250602084013591506040840135616df281617904565b809150509250925092565b60008060008060008060c08789031215616e1e578384616e1b616715565b50505b8635616e2981617904565b955060208701359450604087013593506060870135616e4781617963565b9598949750929560808101359460a0909101359350915050565b60008060208385031215616e7c578182616e79616715565b50505b823567ffffffffffffffff80821115616e9c578384616e99616715565b50505b818501915085601f830112616eb8578384616eb5616715565b50505b813581811115616ecf578485616ecc616715565b50505b8660208083028501011115616eeb578485616ee8616715565b50505b60209290920196919550909350505050565b600060208284031215616f17578081616f14616715565b50505b81356001600160e01b0319811681146146d05781826166b7616715565b600060208284031215616f4e578081616f4b616715565b50505b81356146d081617933565b600060208284031215616f73578081616f70616715565b50505b815167ffffffffffffffff811115616f92578182616f8f616715565b50505b8201601f81018413616fab578182616fa8616715565b50505b8051616fb9616d09826178b6565b818152856020838501011115616fd6578384616fd3616715565b50505b615a638260208301602086016178d8565b600060808284031215617001578081616ffe616715565b50505b50919050565b600060a08284031215617001578081616ffe616715565b600060c08284031215617001578081616ffe616715565b6000818303608081121561705057818261704d616715565b50505b6040516040810167ffffffffffffffff828210818311171561706e57fe5b816040526060841215617088578485617085616715565b50505b60a083019350818410818511171561709c57fe5b5082604052843592506170ae83617904565b9182526020840135916170c083617904565b8260608301526170d260408601616b54565b608083015281526170e560608501616b2d565b6020820152949350505050565b60006101608284031215617001578081616ffe616715565b600060208284031215617124578081617121616715565b50505b81356146d081617948565b6000806040838503121561714a578182617147616715565b50505b825161715581617948565b91506020830151616bc881617948565b600080600080600060a08688031215617185578283617182616715565b50505b855161719081617948565b9450602086015193506040860151925060608601516171ae81617948565b915060808601516171be81617948565b809150509295509295909350565b600080600080600080600060e0888a0312156171ef5784856171ec616715565b50505b87516171fa81617904565b9650602088015161720a81617933565b955061721860408901616b38565b945061722660608901616b38565b935061723460808901616b38565b925060a088015161724481617963565b915060c08801516172548161791f565b8091505092959891949750929550565b60006020828403121561727e57808161727b616715565b50505b611af882616b54565b6000602082840312156172a157808161729e616715565b50505b5035919050565b600080604083850312156172c35781826172c0616715565b50505b823591506020830135616bc881617904565b600080604083850312156172f05781826172ed616715565b50505b82519150602083015190509250929050565b6000806000806060858703121561732057818261731d616715565b50505b8435935060208501359250604085013567ffffffffffffffff8082111561734e57838461734b616715565b50505b818701915087601f83011261736a578384617367616715565b50505b81358181111561738157848561737e616715565b50505b88602082850101111561739b578485617398616715565b50505b95989497505060200194505050565b600081518084526173c28160208601602086016178d8565b601f01601f19169290920160200192915050565b60020b9052565b6001600160801b03169052565b6000828483379101908152919050565b6001600160a01b0391909116815260200190565b60006001600160a01b03871682528560020b60208301528460020b60408301526001600160801b038416606083015260a060808301526165f160a08301846173aa565b6001600160a01b03959095168552600293840b60208601529190920b60408401526001600160801b03918216606084015216608082015260a00190565b6001600160a01b039390931683526001600160801b03918216602084015216604082015260600190565b6000602080830181845280855180835260408601915060408482028701019250838701855b82811015617529577fffffffffffffffffffffffffffffffffffffffffffffffffffffffffffffffc08886030184526175178583516173aa565b945092850192908501906001016174dd565b5092979650505050505050565b901515815260200190565b90815260200190565b6001600160a01b03929092168252602082015260400190565b600293840b81529190920b60208201526001600160801b03909116604082015260600190565b600060208252611af860208301846173aa565b6020808252600c908201527f4e6f7420617070726f7665640000000000000000000000000000000000000000604082015260600190565b6020808252602c908201527f4552433732313a20617070726f76656420717565727920666f72206e6f6e657860408201527f697374656e7420746f6b656e0000000000000000000000000000000000000000606082015260800190565b60208082526014908201527f507269636520736c69707061676520636865636b000000000000000000000000604082015260600190565b60208082526010908201527f496e76616c696420746f6b656e20494400000000000000000000000000000000604082015260600190565b6020808252600b908201527f4e6f7420636c6561726564000000000000000000000000000000000000000000604082015260600190565b6080810182516001600160a01b0380825116845280602083015116602085015262ffffff6040830151166040850152806020860151166060850152505092915050565b6001600160801b039390931683526020830191909152604082015260600190565b9384526001600160801b039290921660208401526040830152606082015260800190565b918252602082015260400190565b6bffffffffffffffffffffffff8d1681526001600160a01b038c811660208301528b811660408301528a16606082015262ffffff89166080820152600288900b60a082015261018081016177c260c08301896173d6565b6177cf60e08301886173dd565b85610100830152846101208301526177eb6101408301856173dd565b6177f96101608301846173dd565b9d9c50505050505050505050505050565b60008083357fffffffffffffffffffffffffffffffffffffffffffffffffffffffffffffffe1843603018112617847578283617844616715565b50505b83018035915067ffffffffffffffff82111561786a578283617867616715565b50505b602001915036819003821315614ddf57600080617885616715565b50509250929050565b6000604051905081810181811067ffffffffffffffff821117156178ae57fe5b604052919050565b600067ffffffffffffffff8211156178ca57fe5b50601f01601f191660200190565b60005b838110156178f35780820151838201526020016178db565b838111156137035750506000910152565b6001600160a01b0381168114616b0757600080610a6b616715565b8015158114616b0757600080610a6b616715565b8060020b8114616b0757600080610a6b616715565b6001600160801b0381168114616b0757600080610a6b616715565b60ff81168114616b0757600080610a6b61671556fe456e756d657261626c655365743a20696e646578206f7574206f6620626f756e64734552433732313a207472616e7366657220746f206e6f6e20455243373231526563656976657220696d706c656d656e7465724552433732315065726d69743a20617070726f76616c20746f2063757272656e74206f776e65724552433732313a207472616e7366657220746f20746865207a65726f20616464726573734552433732313a206f70657261746f7220717565727920666f72206e6f6e6578697374656e7420746f6b656e4552433732313a20617070726f76652063616c6c6572206973206e6f74206f776e6572206e6f7220617070726f76656420666f7220616c6c4552433732313a2062616c616e636520717565727920666f7220746865207a65726f20616464726573734552433732313a206f776e657220717565727920666f72206e6f6e6578697374656e7420746f6b656e456e756d657261626c654d61703a20696e646578206f7574206f6620626f756e64734552433732313a207472616e73666572206f6620746f6b656e2074686174206973206e6f74206f776e4552433732313a20617070726f76616c20746f2063757272656e74206f776e65724552433732313a207472616e736665722063616c6c6572206973206e6f74206f776e6572206e6f7220617070726f766564",
  "linkReferences": {},
  "deployedLinkReferences": {}
}