{
  "_format": "hh-sol-artifact-1",
  "contractName": "NonfungibleTokenPositionDescriptor",
  "sourceName": "contracts/NonfungibleTokenPositionDescriptor.sol",
  "abi": [
    {
      "inputs": [
        {
          "internalType": "address",
          "name": "_WETH9",
          "type": "address"
        }
      ],
      "stateMutability": "nonpayable",
      "type": "constructor"
    },
    {
      "anonymous": false,
      "inputs": [
        {
          "indexed": false,
          "internalType": "address",
          "name": "token",
          "type": "address"
        },
        {
          "indexed": false,
          "internalType": "int256",
          "name": "priority",
          "type": "int256"
        }
      ],
      "name": "UpdateTokenRatioPriority",
      "type": "event"
    },
    {
      "inputs": [],
      "name": "WETH9",
      "outputs": [
        {
          "internalType": "address",
          "name": "",
          "type": "address"
        }
      ],
      "stateMutability": "view",
      "type": "function"
    },
    {
      "inputs": [
        {
          "internalType": "address",
          "name": "token0",
          "type": "address"
        },
        {
          "internalType": "address",
          "name": "token1",
          "type": "address"
        },
        {
          "internalType": "uint256",
          "name": "chainId",
          "type": "uint256"
        }
      ],
      "name": "flipRatio",
      "outputs": [
        {
          "internalType": "bool",
          "name": "",
          "type": "bool"
        }
      ],
      "stateMutability": "view",
      "type": "function"
    },
    {
      "inputs": [
        {
          "internalType": "address",
          "name": "token",
          "type": "address"
        },
        {
          "internalType": "uint256",
          "name": "chainId",
          "type": "uint256"
        }
      ],
      "name": "tokenRatioPriority",
      "outputs": [
        {
          "internalType": "int256",
          "name": "",
          "type": "int256"
        }
      ],
      "stateMutability": "view",
      "type": "function"
    },
    {
      "inputs": [
        {
          "internalType": "contract INonfungiblePositionManager",
          "name": "positionManager",
          "type": "address"
        },
        {
          "internalType": "uint256",
          "name": "tokenId",
          "type": "uint256"
        }
      ],
      "name": "tokenURI",
      "outputs": [
        {
          "internalType": "string",
          "name": "",
          "type": "string"
        }
      ],
      "stateMutability": "view",
      "type": "function"
    }
  ],
  "bytecode": "0x60a06040523480156200001c576000806200001962000055565b50505b5060405162001922380380620019228339810160408190526200003f91620000c2565b60601b6001600160601b03191660805262000108565b632a2a7adb598160e01b8152600481016020815285602082015260005b868110156200008f57808601518282016040015260200162000072565b506020828760640184336000905af158600e01573d6000803e3d6000fd5b3d6001141558600a015760016000f35b505050565b600060208284031215620000df578081620000dc62000055565b50505b81516001600160a01b038116811462000101578182620000fe62000055565b50505b9392505050565b60805160601c6117f86200012a6000398060e3528061012852506117f86000f3fe608060405234801561001957600080610016610ff7565b50505b50600436106100555760003560e01c80634aa4a4fc146100635780637e5af771146100815780639d7b0ea8146100a1578063e9dc6375146100c1575b600080610060610ff7565b50505b61006b6100e1565b6040516100789190611645565b60405180910390f35b61009461008f3660046112df565b610105565b6040516100789190611659565b6100b46100af366004611328565b610124565b6040516100789190611664565b6100d46100cf366004611328565b6102c2565b604051610078919061166d565b7f000000000000000000000000000000000000000000000000000000000000000081565b60006101118383610124565b61011b8584610124565b13949350505050565b60007f00000000000000000000000000000000000000000000000000000000000000006001600160a01b0316836001600160a01b0316141561018757507fffffffffffffffffffffffffffffffffffffffffffffffffffffffffffffff9c6102bc565b81600114156102b8576001600160a01b03831673a0b86991c6218b36c1d19d4a2e9eb0ce3606eb4814156101be575061012c6102bc565b6001600160a01b03831673dac17f958d2ee523a2206206994597c13d831ec714156101eb575060c86102bc565b6001600160a01b038316736b175474e89094c44da98b954eedeac495271d0f1415610218575060646102bc565b6001600160a01b038316738daebade922df735c38c80c7ebd708af50815faa141561026457507fffffffffffffffffffffffffffffffffffffffffffffffffffffffffffffff386102bc565b6001600160a01b038316732260fac5e5542a773aa44fbcfedf7c193bc2c59914156102b057507ffffffffffffffffffffffffffffffffffffffffffffffffffffffffffffffed46102bc565b5060006102bc565b5060005b92915050565b60606000806000806000876001600160a01b03166399fbab88886040518263ffffffff1660e01b81526004016102f89190611664565b61018060405180830381868061030c611062565b1580156103215760008061031e610ff7565b50505b505a61032b6110c2565b505050505015801561034a573d6000803e3d6000610347610ff7565b50505b50505050604051601f3d908101601f1916820160405261036d91908101906114fe565b5050505050965096509650965096505050600061044f896001600160a01b031663c45a01556040518163ffffffff1660e01b815260040160206040518083038186806103b7611062565b1580156103cc576000806103c9610ff7565b50505b505a6103d66110c2565b50505050501580156103f5573d6000803e3d60006103f2610ff7565b50505b50505050604051601f3d908101601f1916820160405261041891908101906112b3565b6040518060600160405280896001600160a01b03168152602001886001600160a01b031681526020018762ffffff16815250610841565b90506000610460878761008f61096b565b9050600081156104705787610472565b865b9050600082156104825787610484565b885b90506000846001600160a01b0316633850c7bd6040518163ffffffff1660e01b815260040160e06040518083038186806104bc611062565b1580156104d1576000806104ce610ff7565b50505b505a6104db6110c2565b50505050501580156104fa573d6000803e3d60006104f7610ff7565b50505b50505050604051601f3d908101601f1916820160405261051d919081019061143a565b505050505091505073__$cea9be979eee3d87fb124d6cbb244bb0b5$__63c49917d7604051806101c001604052808f8152602001866001600160a01b03168152602001856001600160a01b031681526020016105788761097b565b81526020016105868661097b565b8152602001866001600160a01b031663313ce5676040518163ffffffff1660e01b815260040160206040518083038186806105bf611062565b1580156105d4576000806105d1610ff7565b50505b505a6105de6110c2565b50505050501580156105fd573d6000803e3d60006105fa610ff7565b50505b50505050604051601f3d908101601f1916820160405261062091908101906114db565b60ff168152602001856001600160a01b031663313ce5676040518163ffffffff1660e01b8152600401602060405180830381868061065c611062565b1580156106715760008061066e610ff7565b50505b505a61067b6110c2565b505050505015801561069a573d6000803e3d6000610697610ff7565b50505b50505050604051601f3d908101601f191682016040526106bd91908101906114db565b60ff16815260200187151581526020018a60020b81526020018960020b81526020018460020b8152602001886001600160a01b031663d0c93a7c6040518163ffffffff1660e01b8152600401602060405180830381868061071c611062565b1580156107315760008061072e610ff7565b50505b505a61073b6110c2565b505050505015801561075a573d6000803e3d6000610757610ff7565b50505b50505050604051601f3d908101601f1916820160405261077d919081019061135c565b60020b815262ffffff8c1660208201526001600160a01b038916604091820152518263ffffffff1660e01b81526004016107b79190611680565b60006040518083038186806107ca611062565b1580156107df576000806107dc610ff7565b50505b505a6107e96111ad565b5050505050158015610808573d6000803e3d6000610805610ff7565b50505b505050506040513d6000823e601f3d908101601f19168201604052610830919081019061137f565b9d9c50505050505050505050505050565b600081602001516001600160a01b031682516001600160a01b03161061086f5760008061086c610ff7565b50505b8282518360200151846040015160405160200180846001600160a01b03168152602001836001600160a01b031681526020018262ffffff1681526020019350505050604051602081830303815290604052805190602001207fc02f72e8ae5e68802e6d893d58ddfb0df89a2f4c9c2f04927db1186a293736606040517fff00000000000000000000000000000000000000000000000000000000000000602082015260609390931b7fffffffffffffffffffffffffffffffffffffffff00000000000000000000000016602184015260358301919091526055820152607501604051602081830303815290604052805190602001209392505050565b60005a6109766111be565b905090565b606060006109a9837f95d89b41000000000000000000000000000000000000000000000000000000006109ca565b905080516109c2576109ba83610c61565b9150506109c5565b90505b919050565b6060600080846001600160a01b031684604051602401604051602081830303815290604052907bffffffffffffffffffffffffffffffffffffffffffffffffffffffff19166020820180517bffffffffffffffffffffffffffffffffffffffffffffffffffffffff1690911790526040518082805190602001908083835b60208310610a675780518252601f199092019160209182019101610a48565b6001836020036101000a038019825116818451168082178552505050505050905001915050600060405180830381855a610a9f6110c2565b50505050509150503d8060008114610ad3576040513d603f01601f191681016040523d815291503d6000602084013e610ad8565b606091505b5091509150811580610ae957508051155b15610b0657604051602081016040526000815292506102bc915050565b805160201415610b505760006020820182516020811015610b2f57600080610b2c610ff7565b50505b8101908080519350610b469250839150610c6e9050565b93505050506102bc565b604081511115610c4a576020810181516020811015610b7757600080610b74610ff7565b50505b8101908080516040519392919084640100000000821115610ba057600080610b9d610ff7565b50505b908301906020820185811115610bbe57600080610bbb610ff7565b50505b8251640100000000811182820188101715610be157600080610bde610ff7565b50505b825250602001908051906020019080838360005b83811015610c0d578082015183820152602001610bf5565b50505050905090810190601f168015610c3a5780820380516001836020036101000a031916815260200191505b50604052505050925050506102bc565b604051602081016040526000815295945050505050565b60606109c2826006610e11565b606060006020604051818152601f19601f8301168101602001604052908015610c9e576020820181803683370190505b5090506000805b6020811015610d36576000858260208110610cbc57fe5b1a60f81b90507fff00000000000000000000000000000000000000000000000000000000000000811615610d2d5780848481518110610cf757fe5b60200101907effffffffffffffffffffffffffffffffffffffffffffffffffffffffffffff1916908160001a9053506001909201915b50600101610ca5565b5060008167ffffffffffffffff81118015610d5957600080610d56610ff7565b50505b50604051818152601f19601f8301168101602001604052908015610d84576020820181803683370190505b50905060005b82811015610e0857838181518110610d9e57fe5b60200101517fff0000000000000000000000000000000000000000000000000000000000000016828281518110610dd157fe5b60200101907effffffffffffffffffffffffffffffffffffffffffffffffffffffffffffff1916908160001a905350600101610d8a565b50949350505050565b606060028206158015610e245750600082115b8015610e31575060288211155b610ea4576040517f08c379a000000000000000000000000000000000000000000000000000000000815260206004820152601e60248201527f41646472657373537472696e675574696c3a20494e56414c49445f4c454e0000604482015260640160405180910390610ea1610ff7565b50505b60008267ffffffffffffffff81118015610ec657600080610ec3610ff7565b50505b50604051818152601f19601f8301168101602001604052908015610ef1576020820181803683370190505b5090506001600160a01b03841660005b60028504811015610fc557600860138290030282901c600f600482901c1660f082168203610f2e82610fcf565b868560020281518110610f3d57fe5b60200101907effffffffffffffffffffffffffffffffffffffffffffffffffffffffffffff1916908160001a905350610f7581610fcf565b868560020260010181518110610f8757fe5b60200101907effffffffffffffffffffffffffffffffffffffffffffffffffffffffffffff1916908160001a9053505060019092019150610f019050565b5090949350505050565b6000600a8260ff161015610fea57506030810160f81b6109c5565b506037810160f81b6109c5565b632a2a7adb598160e01b8152600481016020815285602082015260005b8681101561102f578086015182820160400152602001611014565b506020828760640184336000905af158600e01573d6000803e3d6000fd5b3d6001141558600a015760016000f35b505050565b638435035b598160e01b8152836004820152602081602483336000905af158600e01573d6000803e3d6000fd5b3d6001141558600a015760016000f35b8051935060005b60408110156110bd576000828201526020016110a6565b505050565b638540661f598160e01b81526110f3565b80808311156102bc575090919050565b80808310156102bc575090919050565b836004820152846024820152606060448201528660648201526084810160005b8881101561112b578088015182820152602001611113565b506060828960a40184336000905af158600e01573d6000803e3d6000fd5b3d6001141558600a015760016000f35b815160408301513d6000853e8b8b82606087013350600060045af150596111808d3d6110e3565b8c0161118c81876110d3565b5b828110156111a1576000815260200161118d565b50929c50505050505050565b63ffe73914598160e01b81526110f3565b6390580256598160e01b8152602081600483336000905af158600e01573d6000803e3d6000fd5b3d6001141558600a015760016000f35b805160008252935060206110a6565b6000815190506109c5816117da565b6000815190508060020b81146109c55760008061122e610ff7565b5050919050565b6000815190506fffffffffffffffffffffffffffffffff811681146109c55760008061122e610ff7565b60008151905061ffff811681146109c55760008061122e610ff7565b60008151905062ffffff811681146109c55760008061122e610ff7565b60008151905060ff811681146109c55760008061122e610ff7565b6000602082840312156112cd5780816112ca610ff7565b50505b81516112d8816117da565b9392505050565b6000806000606084860312156112fc5781826112f9610ff7565b50505b8335611307816117da565b92506020840135611317816117da565b929592945050506040919091013590565b60008060408385031215611343578182611340610ff7565b50505b823561134e816117da565b946020939093013593505050565b600060208284031215611376578081611373610ff7565b50505b6112d882611213565b600060208284031215611399578081611396610ff7565b50505b815167ffffffffffffffff808211156113b95782836113b6610ff7565b50505b818401915084601f8301126113d55782836113d2610ff7565b50505b8151818111156113e157fe5b6040516020601f19601f84011682010181811084821117156113ff57fe5b60405281815283820160200187101561141f57848561141c610ff7565b50505b6114308260208301602087016117aa565b9695505050505050565b600080600080600080600060e0888a03121561145d57828361145a610ff7565b50505b8751611468816117da565b965061147660208901611213565b95506114846040890161125f565b94506114926060890161125f565b93506114a06080890161125f565b92506114ae60a08901611298565b915060c088015180151581146114cb5781826114c8610ff7565b50505b8091505092959891949750929550565b6000602082840312156114f55780816114f2610ff7565b50505b6112d882611298565b6000806000806000806000806000806000806101808d8f031215611529578485611526610ff7565b50505b8c516bffffffffffffffffffffffff8116811461154d57858661154a610ff7565b50505b9b5061155b60208e01611204565b9a5061156960408e01611204565b995061157760608e01611204565b985061158560808e0161127b565b975061159360a08e01611213565b96506115a160c08e01611213565b95506115af60e08e01611235565b94506101008d015193506101208d015192506115ce6101408e01611235565b91506115dd6101608e01611235565b90509295989b509295989b509295989b565b6001600160a01b03169052565b15159052565b60020b9052565b600081518084526116218160208601602086016117aa565b601f01601f19169290920160200192915050565b62ffffff169052565b60ff169052565b6001600160a01b0391909116815260200190565b901515815260200190565b90815260200190565b6000602082526112d86020830184611609565b60006020825282516020830152602083015161169f60408401826115ef565b5060408301516116b260608401826115ef565b5060608301516101c08060808501526116cf6101e0850183611609565b91506080850151601f198584030160a08601526116ec8382611609565b92505060a085015161170160c086018261163e565b5060c085015161171460e086018261163e565b5060e0850151610100611729818701836115fc565b8087015191505061012061173f81870183611602565b8087015191505061014061175581870183611602565b8087015191505061016061176b81870183611602565b8087015191505061018061178181870183611602565b808701519150506101a061179781870183611635565b80870151915050610fc5828601826115ef565b60005b838110156117c55780820151838201526020016117ad565b838111156117d4576000848401525b50505050565b6001600160a01b03811681146117f5576000806110bd610ff7565b5056",
  "linkReferences": {
    "contracts/libraries/NFTDescriptor.sol": {
      "NFTDescriptor": [
        {
          "length": 20,
          "start": 1617
        }
      ]
    }
  },
  "deployedLinkReferences": {
    "contracts/libraries/NFTDescriptor.sol": {
      "NFTDescriptor": [
        {
          "length": 20,
          "start": 1319
        }
      ]
    }
  }
}