{
  "_format": "hh-sol-artifact-1",
  "contractName": "V3Migrator",
  "sourceName": "contracts/V3Migrator.sol",
  "abi": [
    {
      "inputs": [
        {
          "internalType": "address",
          "name": "_factory",
          "type": "address"
        },
        {
          "internalType": "address",
          "name": "_WETH9",
          "type": "address"
        },
        {
          "internalType": "address",
          "name": "_nonfungiblePositionManager",
          "type": "address"
        }
      ],
      "stateMutability": "nonpayable",
      "type": "constructor"
    },
    {
      "inputs": [],
      "name": "WETH9",
      "outputs": [
        {
          "internalType": "address",
          "name": "",
          "type": "address"
        }
      ],
      "stateMutability": "view",
      "type": "function"
    },
    {
      "inputs": [
        {
          "internalType": "address",
          "name": "token0",
          "type": "address"
        },
        {
          "internalType": "address",
          "name": "token1",
          "type": "address"
        },
        {
          "internalType": "uint24",
          "name": "fee",
          "type": "uint24"
        },
        {
          "internalType": "uint160",
          "name": "sqrtPriceX96",
          "type": "uint160"
        }
      ],
      "name": "createAndInitializePoolIfNecessary",
      "outputs": [
        {
          "internalType": "address",
          "name": "pool",
          "type": "address"
        }
      ],
      "stateMutability": "payable",
      "type": "function"
    },
    {
      "inputs": [],
      "name": "factory",
      "outputs": [
        {
          "internalType": "address",
          "name": "",
          "type": "address"
        }
      ],
      "stateMutability": "view",
      "type": "function"
    },
    {
      "inputs": [
        {
          "components": [
            {
              "internalType": "address",
              "name": "pair",
              "type": "address"
            },
            {
              "internalType": "uint256",
              "name": "liquidityToMigrate",
              "type": "uint256"
            },
            {
              "internalType": "uint8",
              "name": "percentageToMigrate",
              "type": "uint8"
            },
            {
              "internalType": "address",
              "name": "token0",
              "type": "address"
            },
            {
              "internalType": "address",
              "name": "token1",
              "type": "address"
            },
            {
              "internalType": "uint24",
              "name": "fee",
              "type": "uint24"
            },
            {
              "internalType": "int24",
              "name": "tickLower",
              "type": "int24"
            },
            {
              "internalType": "int24",
              "name": "tickUpper",
              "type": "int24"
            },
            {
              "internalType": "uint256",
              "name": "amount0Min",
              "type": "uint256"
            },
            {
              "internalType": "uint256",
              "name": "amount1Min",
              "type": "uint256"
            },
            {
              "internalType": "address",
              "name": "recipient",
              "type": "address"
            },
            {
              "internalType": "uint256",
              "name": "deadline",
              "type": "uint256"
            },
            {
              "internalType": "bool",
              "name": "refundAsETH",
              "type": "bool"
            }
          ],
          "internalType": "struct IV3Migrator.MigrateParams",
          "name": "params",
          "type": "tuple"
        }
      ],
      "name": "migrate",
      "outputs": [],
      "stateMutability": "nonpayable",
      "type": "function"
    },
    {
      "inputs": [
        {
          "internalType": "bytes[]",
          "name": "data",
          "type": "bytes[]"
        }
      ],
      "name": "multicall",
      "outputs": [
        {
          "internalType": "bytes[]",
          "name": "results",
          "type": "bytes[]"
        }
      ],
      "stateMutability": "payable",
      "type": "function"
    },
    {
      "inputs": [],
      "name": "nonfungiblePositionManager",
      "outputs": [
        {
          "internalType": "address",
          "name": "",
          "type": "address"
        }
      ],
      "stateMutability": "view",
      "type": "function"
    },
    {
      "inputs": [
        {
          "internalType": "address",
          "name": "token",
          "type": "address"
        },
        {
          "internalType": "uint256",
          "name": "value",
          "type": "uint256"
        },
        {
          "internalType": "uint256",
          "name": "deadline",
          "type": "uint256"
        },
        {
          "internalType": "uint8",
          "name": "v",
          "type": "uint8"
        },
        {
          "internalType": "bytes32",
          "name": "r",
          "type": "bytes32"
        },
        {
          "internalType": "bytes32",
          "name": "s",
          "type": "bytes32"
        }
      ],
      "name": "selfPermit",
      "outputs": [],
      "stateMutability": "payable",
      "type": "function"
    },
    {
      "inputs": [
        {
          "internalType": "address",
          "name": "token",
          "type": "address"
        },
        {
          "internalType": "uint256",
          "name": "nonce",
          "type": "uint256"
        },
        {
          "internalType": "uint256",
          "name": "expiry",
          "type": "uint256"
        },
        {
          "internalType": "uint8",
          "name": "v",
          "type": "uint8"
        },
        {
          "internalType": "bytes32",
          "name": "r",
          "type": "bytes32"
        },
        {
          "internalType": "bytes32",
          "name": "s",
          "type": "bytes32"
        }
      ],
      "name": "selfPermitAllowed",
      "outputs": [],
      "stateMutability": "payable",
      "type": "function"
    },
    {
      "inputs": [
        {
          "internalType": "address",
          "name": "token",
          "type": "address"
        },
        {
          "internalType": "uint256",
          "name": "nonce",
          "type": "uint256"
        },
        {
          "internalType": "uint256",
          "name": "expiry",
          "type": "uint256"
        },
        {
          "internalType": "uint8",
          "name": "v",
          "type": "uint8"
        },
        {
          "internalType": "bytes32",
          "name": "r",
          "type": "bytes32"
        },
        {
          "internalType": "bytes32",
          "name": "s",
          "type": "bytes32"
        }
      ],
      "name": "selfPermitAllowedIfNecessary",
      "outputs": [],
      "stateMutability": "payable",
      "type": "function"
    },
    {
      "inputs": [
        {
          "internalType": "address",
          "name": "token",
          "type": "address"
        },
        {
          "internalType": "uint256",
          "name": "value",
          "type": "uint256"
        },
        {
          "internalType": "uint256",
          "name": "deadline",
          "type": "uint256"
        },
        {
          "internalType": "uint8",
          "name": "v",
          "type": "uint8"
        },
        {
          "internalType": "bytes32",
          "name": "r",
          "type": "bytes32"
        },
        {
          "internalType": "bytes32",
          "name": "s",
          "type": "bytes32"
        }
      ],
      "name": "selfPermitIfNecessary",
      "outputs": [],
      "stateMutability": "payable",
      "type": "function"
    },
    {
      "stateMutability": "payable",
      "type": "receive"
    }
  ],
  "bytecode": "0x60e06040523480156200001c576000806200001962000067565b50505b5060405162002b6138038062002b618339810160408190526200003f9162000100565b6001600160601b0319606093841b811660805291831b821660a05290911b1660c05262000154565b632a2a7adb598160e01b8152600481016020815285602082015260005b86811015620000a157808601518282016040015260200162000084565b506020828760640184336000905af158600e01573d6000803e3d6000fd5b3d6001141558600a015760016000f35b505050565b6000815190506001600160a01b0381168114620000fb57600080620000f862000067565b50505b919050565b600080600060608486031215620001205782836200011d62000067565b50505b6200012b84620000d4565b92506200013b60208501620000d4565b91506200014b60408501620000d4565b90509250925092565b60805160601c60a05160601c60c05160601c6129a1620001c060003980610cd952806111d1528061120b5280611235528061145252508060bc528061091652806114ab52806114fa528061163a52806116895250806102c652806103fc5280610e6152506129a16000f3fe6080604052600436106100b55760003560e01c8063b44a272211610069578063c45a01551161004e578063c45a015514610227578063d44f2bf214610245578063f3995c671461026e5761015b565b8063b44a2722146101f6578063c2e3140a146102145761015b565b80634aa4a4fc1161009a5780634aa4a4fc146101a5578063a4a78f0c146101c3578063ac9650d8146101d65761015b565b806313ead562146101695780634659a494146101925761015b565b3661015b577f000000000000000000000000000000000000000000000000000000000000000073ffffffffffffffffffffffffffffffffffffffff165a6100fa611f04565b73ffffffffffffffffffffffffffffffffffffffff1614610159576040517f08c379a00000000000000000000000000000000000000000000000000000000081526004016101479061278a565b60405180910390610156611f59565b50505b005b600080610166611f59565b50505b61017c610177366004612236565b610281565b6040516101899190612670565b60405180910390f35b6101596101a0366004612298565b6107ad565b3480156101ba576000806101b7611f59565b50505b5061017c610914565b6101596101d1366004612298565b610938565b6101e96101e43660046122fa565b610ac4565b60405161018991906126c2565b34801561020b57600080610208611f59565b50505b5061017c610cd7565b610159610222366004612298565b610cfb565b34801561023c57600080610239611f59565b50505b5061017c610e5f565b34801561025a57600080610257611f59565b50505b506101596102693660046124f2565b610e83565b61015961027c366004612298565b611767565b60008373ffffffffffffffffffffffffffffffffffffffff168573ffffffffffffffffffffffffffffffffffffffff16106102c4576000806102c1611f59565b50505b7f000000000000000000000000000000000000000000000000000000000000000073ffffffffffffffffffffffffffffffffffffffff16631698ee828686866040517fffffffff0000000000000000000000000000000000000000000000000000000060e086901b16815273ffffffffffffffffffffffffffffffffffffffff938416600482015291909216602482015262ffffff90911660448201526064016020604051808303818680610377611fc4565b15801561038c57600080610389611f59565b50505b505a610396612010565b50505050501580156103b5573d6000803e3d60006103b2611f59565b50505b505050506040513d60208110156103d4576000806103d1611f59565b50505b810190808051935050505073ffffffffffffffffffffffffffffffffffffffff81166105e0577f000000000000000000000000000000000000000000000000000000000000000073ffffffffffffffffffffffffffffffffffffffff1663a16712958686866040517fffffffff0000000000000000000000000000000000000000000000000000000060e086901b16815273ffffffffffffffffffffffffffffffffffffffff938416600482015291909216602482015262ffffff9091166044820152606401602060405180830381600087806104af611fc4565b1580156104c4576000806104c1611f59565b50505b505a6104ce6120fb565b5050505050501580156104ee573d6000803e3d60006104eb611f59565b50505b505050506040513d602081101561050d5760008061050a611f59565b50505b81019080805193505073ffffffffffffffffffffffffffffffffffffffff8316915063f637731d9050836040517fffffffff0000000000000000000000000000000000000000000000000000000060e084901b16815273ffffffffffffffffffffffffffffffffffffffff909116600482015260240160006040518083038160008780610598611fc4565b1580156105ad576000806105aa611f59565b50505b505a6105b76120fb565b5050505050501580156105d7573d6000803e3d60006105d4611f59565b50505b505050506107a5565b60008173ffffffffffffffffffffffffffffffffffffffff16633850c7bd6040518163ffffffff1660e01b815260040160e0604051808303818680610623611fc4565b15801561063857600080610635611f59565b50505b505a610642612010565b5050505050158015610661573d6000803e3d600061065e611f59565b50505b505050506040513d60e08110156106805760008061067d611f59565b50505b8101908080519291906020018051929190602001805192919060200180519291906020018051929190602001805192919060200180515097985050505073ffffffffffffffffffffffffffffffffffffffff8616151594506107a39350505050578173ffffffffffffffffffffffffffffffffffffffff1663f637731d846040517fffffffff0000000000000000000000000000000000000000000000000000000060e084901b16815273ffffffffffffffffffffffffffffffffffffffff90911660048201526024016000604051808303816000878061075f611fc4565b15801561077457600080610771611f59565b50505b505a61077e6120fb565b50505050505015801561079e573d6000803e3d600061079b611f59565b50505b505050505b505b949350505050565b8573ffffffffffffffffffffffffffffffffffffffff16638fcbaf0c5a6107d2611f04565b5a63996d79a5598160e01b8152602081600483336000905af158600e01573d6000803e3d6000fd5b3d6001141558600a015760016000f35b8051925060005b604081101561082857600082820152602001610811565b505050888860018989896040517fffffffff0000000000000000000000000000000000000000000000000000000060e08b901b16815273ffffffffffffffffffffffffffffffffffffffff9889166004820152969097166024870152604486019490945260648501929092521515608484015260ff1660a483015260c482015260e481019190915261010401600060405180830381600087806108c9611fc4565b1580156108de576000806108db611f59565b50505b505a6108e86120fb565b505050505050158015610908573d6000803e3d6000610905611f59565b50505b50505050505050505050565b7f000000000000000000000000000000000000000000000000000000000000000081565b7fffffffffffffffffffffffffffffffffffffffffffffffffffffffffffffffff8673ffffffffffffffffffffffffffffffffffffffff1663dd62ed3e5a61097e611f04565b5a63996d79a5598160e01b8152602081600483336000905af158600e01573d6000803e3d6000fd5b3d6001141558600a015760016000f35b8051925060005b60408110156109d4576000828201526020016109bd565b5050506040517fffffffff0000000000000000000000000000000000000000000000000000000060e085901b16815273ffffffffffffffffffffffffffffffffffffffff9283166004820152911660248201526044016020604051808303818680610a3d611fc4565b158015610a5257600080610a4f611f59565b50505b505a610a5c612010565b5050505050158015610a7b573d6000803e3d6000610a78611f59565b50505b505050506040513d6020811015610a9a57600080610a97611f59565b50505b81019080805193909310159250610abc91505057610abc8686868686866107ad565b505050505050565b60608167ffffffffffffffff81118015610ae657600080610ae3611f59565b50505b50604051908082528060200260200182016040528015610b1a57816020015b6060815260200190600190039081610b055790505b50905060005b82811015610cd0576000805a63996d79a5598160e01b8152602081600483336000905af158600e01573d6000803e3d6000fd5b3d6001141558600a015760016000f35b8051925060005b6040811015610b8157600082820152602001610b6a565b50505073ffffffffffffffffffffffffffffffffffffffff16868685818110610ba657fe5b9050602002810190610bb891906128ad565b604051610bc6929190612660565b600060405180830381855a610bd96121c1565b50505050509150503d8060008114610c2b576040513d603f017fffffffffffffffffffffffffffffffffffffffffffffffffffffffffffffffe01681016040523d815291503d6000602084013e610c30565b606091505b509150915081610cae57604481511015610c5257600080610c4f611f59565b50505b60048101906024018151810190610c699190612419565b6040517f08c379a0000000000000000000000000000000000000000000000000000000008152600401610c9c9190612740565b60405180910390610cab611f59565b50505b80848481518110610cbb57fe5b60209081029190910101525050600101610b20565b5092915050565b7f000000000000000000000000000000000000000000000000000000000000000081565b848673ffffffffffffffffffffffffffffffffffffffff1663dd62ed3e5a610d21611f04565b5a63996d79a5598160e01b8152602081600483336000905af158600e01573d6000803e3d6000fd5b3d6001141558600a015760016000f35b8051925060005b6040811015610d7757600082820152602001610d60565b5050506040517fffffffff0000000000000000000000000000000000000000000000000000000060e085901b16815273ffffffffffffffffffffffffffffffffffffffff9283166004820152911660248201526044016020604051808303818680610de0611fc4565b158015610df557600080610df2611f59565b50505b505a610dff612010565b5050505050158015610e1e573d6000803e3d6000610e1b611f59565b50505b505050506040513d6020811015610e3d57600080610e3a611f59565b50505b81019080805193909310159250610abc91505057610abc868686868686611767565b7f000000000000000000000000000000000000000000000000000000000000000081565b6000610e9560608301604084016125c9565b60ff1611610ee1576040517f08c379a0000000000000000000000000000000000000000000000000000000008152600401610ecf90612753565b60405180910390610ede611f59565b50505b6064610ef360608301604084016125c9565b60ff161115610f40576040517f08c379a0000000000000000000000000000000000000000000000000000000008152600401610f2e906127c1565b60405180910390610f3d611f59565b50505b610f4d602082018261220a565b73ffffffffffffffffffffffffffffffffffffffff166323b872dd5a610f71611f04565b610f7e602085018561220a565b84602001356040518463ffffffff1660e01b8152600401610fa193929190612691565b60206040518083038160008780610fb6611fc4565b158015610fcb57600080610fc8611f59565b50505b505a610fd56120fb565b505050505050158015610ff5573d6000803e3d6000610ff2611f59565b50505b50505050604051601f3d9081017fffffffffffffffffffffffffffffffffffffffffffffffffffffffffffffffe016820160405261103691908101906123bb565b50600080611047602084018461220a565b73ffffffffffffffffffffffffffffffffffffffff166389afcb445a63996d79a5598160e01b8152602081600483336000905af158600e01573d6000803e3d6000fd5b3d6001141558600a015760016000f35b8051925060005b60408110156110b8576000828201526020016110a1565b5050506040518263ffffffff1660e01b81526004016110d79190612670565b6040805180830381600087806110eb611fc4565b158015611100576000806110fd611f59565b50505b505a61110a6120fb565b50505050505015801561112a573d6000803e3d6000611127611f59565b50505b50505050604051601f3d9081017fffffffffffffffffffffffffffffffffffffffffffffffffffffffffffffffe016820160405261116b919081019061259c565b90925090506000606461119161118760608701604088016125c9565b859060ff16611879565b8161119857fe5b049050600060646111b261118760608801604089016125c9565b816111b957fe5b0490506111f66111cf608087016060880161220a565b7f0000000000000000000000000000000000000000000000000000000000000000846118ac565b61123061120960a087016080880161220a565b7f0000000000000000000000000000000000000000000000000000000000000000836118ac565b6000807f000000000000000000000000000000000000000000000000000000000000000073ffffffffffffffffffffffffffffffffffffffff16638831645660405161016081016040528061128b60808c0160608d0161220a565b73ffffffffffffffffffffffffffffffffffffffff1681526020016112b660a08c0160808d0161220a565b73ffffffffffffffffffffffffffffffffffffffff1681526020016112e160c08c0160a08d01612513565b62ffffff1681526020016112fb60e08c0160c08d016123e0565b60020b81526020016113146101008c0160e08d016123e0565b60020b815260208101889052604081018790526101008b013560608201526101208b0135608082015260a0016113526101608c016101408d0161220a565b73ffffffffffffffffffffffffffffffffffffffff1681526020018a61016001358152506040518263ffffffff1660e01b815260040161139291906127f8565b608060405180830381600087806113a7611fc4565b1580156113bc576000806113b9611f59565b50505b505a6113c66120fb565b5050505050501580156113e6573d6000803e3d60006113e3611f59565b50505b50505050604051601f3d9081017fffffffffffffffffffffffffffffffffffffffffffffffffffffffffffffffe01682016040526114279190810190612536565b935093505050858210156115e45783821015611478576114786114506080890160608a0161220a565b7f000000000000000000000000000000000000000000000000000000000000000060006118ac565b81860361148d6101a089016101808a01612396565b80156114f3575073ffffffffffffffffffffffffffffffffffffffff7f0000000000000000000000000000000000000000000000000000000000000000166114db60808a0160608b0161220a565b73ffffffffffffffffffffffffffffffffffffffff16145b156115c0577f000000000000000000000000000000000000000000000000000000000000000073ffffffffffffffffffffffffffffffffffffffff16632e1a7d4d826040518263ffffffff1660e01b815260040161155191906128a4565b60006040518083038160008780611566611fc4565b15801561157b57600080611578611f59565b50505b505a6115856120fb565b5050505050501580156115a5573d6000803e3d60006115a2611f59565b50505b505050506115bb5a6115b5611f04565b82611afd565b6115e2565b6115e26115d360808a0160608b0161220a565b5a6115dc611f04565b83611cba565b505b8481101561175e57828110156116075761160761145060a0890160808a0161220a565b80850361161c6101a089016101808a01612396565b8015611682575073ffffffffffffffffffffffffffffffffffffffff7f00000000000000000000000000000000000000000000000000000000000000001661166a60a08a0160808b0161220a565b73ffffffffffffffffffffffffffffffffffffffff16145b15611749577f000000000000000000000000000000000000000000000000000000000000000073ffffffffffffffffffffffffffffffffffffffff16632e1a7d4d826040518263ffffffff1660e01b81526004016116e091906128a4565b600060405180830381600087806116f5611fc4565b15801561170a57600080611707611f59565b50505b505a6117146120fb565b505050505050158015611734573d6000803e3d6000611731611f59565b50505b505050506117445a6115b5611f04565b61175c565b61175c6115d360a08a0160808b0161220a565b505b50505050505050565b8573ffffffffffffffffffffffffffffffffffffffff1663d505accf5a61178c611f04565b5a63996d79a5598160e01b8152602081600483336000905af158600e01573d6000803e3d6000fd5b3d6001141558600a015760016000f35b8051925060005b60408110156117e2576000828201526020016117cb565b50505088888888886040517fffffffff0000000000000000000000000000000000000000000000000000000060e08a901b16815273ffffffffffffffffffffffffffffffffffffffff97881660048201529590961660248601526044850193909352606484019190915260ff16608483015260a482015260c481019190915260e401600060405180830381600087806108c9611fc4565b60008215806118945750508181028183828161189157fe5b04145b6118a6576000806118a3611f59565b50505b92915050565b60008073ffffffffffffffffffffffffffffffffffffffff85167f095ea7b300000000000000000000000000000000000000000000000000000000858560405173ffffffffffffffffffffffffffffffffffffffff90921660248301526044820152606401604051602081830303815290604052907bffffffffffffffffffffffffffffffffffffffffffffffffffffffff19166020820180517bffffffffffffffffffffffffffffffffffffffffffffffffffffffff1690911790526040518082805190602001908083835b602083106119b657805182527fffffffffffffffffffffffffffffffffffffffffffffffffffffffffffffffe09092019160209182019101611979565b6001836020036101000a0380198251168184511680821785525050505050509050019150506000604051808303816000865a6119f06120fb565b5050505050509150503d8060008114611a43576040513d603f017fffffffffffffffffffffffffffffffffffffffffffffffffffffffffffffffe01681016040523d815291503d6000602084013e611a48565b606091505b5091509150818015611a86575080511580611a8657506020810181516020811015611a7b57600080611a78611f59565b50505b810190808051925050505b611af6576040517f08c379a000000000000000000000000000000000000000000000000000000000815260206004820152600260248201527f534100000000000000000000000000000000000000000000000000000000000060448201526064016040518091039061175e611f59565b5050505050565b600073ffffffffffffffffffffffffffffffffffffffff831682826040518181527fffffffffffffffffffffffffffffffffffffffffffffffffffffffffffffffe0601f8301168101602001604052908015611b60576020820181803683370190505b506040518082805190602001908083835b60208310611bae57805182527fffffffffffffffffffffffffffffffffffffffffffffffffffffffffffffffe09092019160209182019101611b71565b6001836020036101000a03801982511681845116808217855250505050505090500191505060006040518083038185875a611be76120fb565b505050505050925050503d8060008114611c3b576040513d603f017fffffffffffffffffffffffffffffffffffffffffffffffffffffffffffffffe01681016040523d815291503d6000602084013e611c40565b606091505b5050905080611cb5576040517f08c379a000000000000000000000000000000000000000000000000000000000815260206004820152600360248201527f5354450000000000000000000000000000000000000000000000000000000000604482015260640160405180910390611af6611f59565b505050565b60008073ffffffffffffffffffffffffffffffffffffffff85167fa9059cbb00000000000000000000000000000000000000000000000000000000858560405173ffffffffffffffffffffffffffffffffffffffff90921660248301526044820152606401604051602081830303815290604052907bffffffffffffffffffffffffffffffffffffffffffffffffffffffff19166020820180517bffffffffffffffffffffffffffffffffffffffffffffffffffffffff1690911790526040518082805190602001908083835b60208310611dc457805182527fffffffffffffffffffffffffffffffffffffffffffffffffffffffffffffffe09092019160209182019101611d87565b6001836020036101000a0380198251168184511680821785525050505050509050019150506000604051808303816000865a611dfe6120fb565b5050505050509150503d8060008114611e51576040513d603f017fffffffffffffffffffffffffffffffffffffffffffffffffffffffffffffffe01681016040523d815291503d6000602084013e611e56565b606091505b5091509150818015611e94575080511580611e9457506020810181516020811015611e8957600080611e86611f59565b50505b810190808051925050505b611af6576040517f08c379a000000000000000000000000000000000000000000000000000000000815260206004820152600260248201527f535400000000000000000000000000000000000000000000000000000000000060448201526064016040518091039061175e611f59565b6373509064598160e01b8152602081600483336000905af158600e01573d6000803e3d6000fd5b3d6001141558600a015760016000f35b8051935060005b6040811015611cb557600082820152602001611f42565b632a2a7adb598160e01b8152600481016020815285602082015260005b86811015611f91578086015182820160400152602001611f76565b506020828760640184336000905af158600e01573d6000803e3d6000fd5b3d6001141558600a015760016000f35b505050565b638435035b598160e01b8152836004820152602081602483336000905af158600e01573d6000803e3d6000fd5b3d6001141558600a015760016000f35b80516000825293506020611f42565b638540661f598160e01b8152612041565b80808311156118a6575090919050565b80808310156118a6575090919050565b836004820152846024820152606060448201528660648201526084810160005b88811015612079578088015182820152602001612061565b506060828960a40184336000905af158600e01573d6000803e3d6000fd5b3d6001141558600a015760016000f35b815160408301513d6000853e8b8b82606087013350600060045af150596120ce8d3d612031565b8c016120da8187612021565b5b828110156120ef57600081526020016120db565b50929c50505050505050565b6385979f76598160e01b8152836004820152846024820152606060448201528760648201526084810160005b8981101561213f578089015182820152602001612127565b506060828a60a40184336000905af158600e01573d6000803e3d6000fd5b3d6001141558600a015760016000f35b815160408301513d6000853e8c8c82606087013350600060045af150596121948e3d612031565b8d016121a08187612021565b5b828110156121b557600081526020016121a1565b50929d50505050505050565b63ffe73914598160e01b8152612041565b803562ffffff811681146121ee576000806121eb611f59565b50505b919050565b803560ff811681146121ee576000806121eb611f59565b600060208284031215612224578081612221611f59565b50505b813561222f81612962565b9392505050565b60008060008060808587031215612254578283612251611f59565b50505b843561225f81612962565b9350602085013561226f81612962565b925061227d604086016121d2565b9150606085013561228d81612962565b939692955090935050565b60008060008060008060c087890312156122b95781826122b6611f59565b50505b86356122c481612962565b955060208701359450604087013593506122e0606088016121f3565b92506080870135915060a087013590509295509295509295565b60008060208385031215612315578182612312611f59565b50505b823567ffffffffffffffff80821115612335578384612332611f59565b50505b818501915085601f83011261235157838461234e611f59565b50505b813581811115612368578485612365611f59565b50505b8660208083028501011115612384578485612381611f59565b50505b60209290920196919550909350505050565b6000602082840312156123b05780816123ad611f59565b50505b813561222f8161298d565b6000602082840312156123d55780816123d2611f59565b50505b815161222f8161298d565b6000602082840312156123fa5780816123f7611f59565b50505b81358060020b811461222f578182612410611f59565b50509392505050565b600060208284031215612433578081612430611f59565b50505b815167ffffffffffffffff80821115612453578283612450611f59565b50505b818401915084601f83011261246f57828361246c611f59565b50505b81518181111561247b57fe5b60405160207fffffffffffffffffffffffffffffffffffffffffffffffffffffffffffffffe0601f84011682010181811084821117156124b757fe5b6040528181528382016020018710156124d75784856124d4611f59565b50505b6124e8826020830160208701612932565b9695505050505050565b60006101a0828403121561250d57808161250a611f59565b50505b50919050565b60006020828403121561252d57808161252a611f59565b50505b61222f826121d2565b60008060008060808587031215612554578384612551611f59565b50505b8451935060208501516fffffffffffffffffffffffffffffffff81168114612583578384612580611f59565b50505b9250604085015191506060850151905092959194509250565b600080604083850312156125b75781826125b4611f59565b50505b82519150602083015190509250929050565b6000602082840312156125e35780816125e0611f59565b50505b61222f826121f3565b73ffffffffffffffffffffffffffffffffffffffff169052565b6000815180845261261e816020860160208601612932565b601f017fffffffffffffffffffffffffffffffffffffffffffffffffffffffffffffffe0169290920160200192915050565b60020b9052565b62ffffff169052565b6000828483379101908152919050565b73ffffffffffffffffffffffffffffffffffffffff91909116815260200190565b73ffffffffffffffffffffffffffffffffffffffff9384168152919092166020820152604081019190915260600190565b6000602080830181845280855180835260408601915060408482028701019250838701855b82811015612733577fffffffffffffffffffffffffffffffffffffffffffffffffffffffffffffffc0888603018452612721858351612606565b945092850192908501906001016126e7565b5092979650505050505050565b60006020825261222f6020830184612606565b60208082526014908201527f50657263656e7461676520746f6f20736d616c6c000000000000000000000000604082015260600190565b60208082526009908201527f4e6f742057455448390000000000000000000000000000000000000000000000604082015260600190565b60208082526014908201527f50657263656e7461676520746f6f206c61726765000000000000000000000000604082015260600190565b61016081016128088284516125ec565b602083015161281a60208401826125ec565b50604083015161282d6040840182612657565b5060608301516128406060840182612650565b5060808301516128536080840182612650565b5060a083015160a083015260c083015160c083015260e083015160e0830152610100808401519083015261012083810151612890828501826125ec565b505061014080840151818401525092915050565b90815260200190565b60008083357fffffffffffffffffffffffffffffffffffffffffffffffffffffffffffffffe18436030181126128ea5782836128e7611f59565b50505b83018035915067ffffffffffffffff82111561290d57828361290a611f59565b50505b60200191503681900382131561292b57600080612928611f59565b50505b9250929050565b60005b8381101561294d578082015183820152602001612935565b8381111561295c576000848401525b50505050565b73ffffffffffffffffffffffffffffffffffffffff8116811461298a57600080611cb5611f59565b50565b801515811461298a57600080611cb5611f5956",
  "linkReferences": {},
  "deployedLinkReferences": {}
}