{
  "_format": "hh-sol-artifact-1",
  "contractName": "UniswapV3PoolDeployer",
  "sourceName": "contracts/UniswapV3PoolDeployer.sol",
  "abi": [
    {
      "inputs": [],
      "name": "parameters",
      "outputs": [
        {
          "internalType": "address",
          "name": "factory",
          "type": "address"
        },
        {
          "internalType": "address",
          "name": "token0",
          "type": "address"
        },
        {
          "internalType": "address",
          "name": "token1",
          "type": "address"
        },
        {
          "internalType": "uint24",
          "name": "fee",
          "type": "uint24"
        },
        {
          "internalType": "int24",
          "name": "tickSpacing",
          "type": "int24"
        }
      ],
      "stateMutability": "view",
      "type": "function"
    }
  ],
  "bytecode": "0x60806040523480156100195760008061001661001f565b50505b5061008a565b632a2a7adb598160e01b8152600481016020815285602082015260005b8681101561005757808601518282016040015260200161003c565b506020828760640184336000905af158600e01573d6000803e3d6000fd5b3d6001141558600a015760016000f35b505050565b6101f0806100996000396000f3fe608060405234801561001957600080610016610125565b50505b50600436106100345760003560e01c80638903573014610042575b60008061003f610125565b50505b61004a61008e565b6040516001600160a01b03958616815293851660208501529190931660408084019190915262ffffff909316606083015260020b608082015260a001905180910390f35b6000808061009a610190565b906101000a90046001600160a01b031690806001016000906100ba610190565b906101000a90046001600160a01b031690806002016000906100da610190565b906101000a90046001600160a01b031690806002016014906100fa610190565b906101000a900462ffffff169080600201601790610116610190565b906101000a900460020b905085565b632a2a7adb598160e01b8152600481016020815285602082015260005b8681101561015d578086015182820160400152602001610142565b506020828760640184336000905af158600e01573d6000803e3d6000fd5b3d6001141558600a015760016000f35b505050565b6303daa959598160e01b8152836004820152602081602483336000905af158600e01573d6000803e3d6000fd5b3d6001141558600a015760016000f35b8051935060005b60408110156101eb576000828201526020016101d4565b50505056",
  "linkReferences": {},
  "deployedLinkReferences": {}
}