{
  "_format": "hh-sol-artifact-1",
  "contractName": "UniswapV3Factory",
  "sourceName": "contracts/UniswapV3Factory.sol",
  "abi": [
    {
      "inputs": [],
      "stateMutability": "nonpayable",
      "type": "constructor"
    },
    {
      "anonymous": false,
      "inputs": [
        {
          "indexed": true,
          "internalType": "uint24",
          "name": "fee",
          "type": "uint24"
        },
        {
          "indexed": true,
          "internalType": "int24",
          "name": "tickSpacing",
          "type": "int24"
        }
      ],
      "name": "FeeAmountEnabled",
      "type": "event"
    },
    {
      "anonymous": false,
      "inputs": [
        {
          "indexed": true,
          "internalType": "address",
          "name": "oldOwner",
          "type": "address"
        },
        {
          "indexed": true,
          "internalType": "address",
          "name": "newOwner",
          "type": "address"
        }
      ],
      "name": "OwnerChanged",
      "type": "event"
    },
    {
      "anonymous": false,
      "inputs": [
        {
          "indexed": true,
          "internalType": "address",
          "name": "token0",
          "type": "address"
        },
        {
          "indexed": true,
          "internalType": "address",
          "name": "token1",
          "type": "address"
        },
        {
          "indexed": true,
          "internalType": "uint24",
          "name": "fee",
          "type": "uint24"
        },
        {
          "indexed": false,
          "internalType": "int24",
          "name": "tickSpacing",
          "type": "int24"
        },
        {
          "indexed": false,
          "internalType": "address",
          "name": "pool",
          "type": "address"
        }
      ],
      "name": "PoolCreated",
      "type": "event"
    },
    {
      "inputs": [
        {
          "internalType": "address",
          "name": "tokenA",
          "type": "address"
        },
        {
          "internalType": "address",
          "name": "tokenB",
          "type": "address"
        },
        {
          "internalType": "uint24",
          "name": "fee",
          "type": "uint24"
        }
      ],
      "name": "createPool",
      "outputs": [
        {
          "internalType": "address",
          "name": "pool",
          "type": "address"
        }
      ],
      "stateMutability": "nonpayable",
      "type": "function"
    },
    {
      "inputs": [
        {
          "internalType": "uint24",
          "name": "fee",
          "type": "uint24"
        },
        {
          "internalType": "int24",
          "name": "tickSpacing",
          "type": "int24"
        }
      ],
      "name": "enableFeeAmount",
      "outputs": [],
      "stateMutability": "nonpayable",
      "type": "function"
    },
    {
      "inputs": [
        {
          "internalType": "uint24",
          "name": "",
          "type": "uint24"
        }
      ],
      "name": "feeAmountTickSpacing",
      "outputs": [
        {
          "internalType": "int24",
          "name": "",
          "type": "int24"
        }
      ],
      "stateMutability": "view",
      "type": "function"
    },
    {
      "inputs": [
        {
          "internalType": "address",
          "name": "",
          "type": "address"
        },
        {
          "internalType": "address",
          "name": "",
          "type": "address"
        },
        {
          "internalType": "uint24",
          "name": "",
          "type": "uint24"
        }
      ],
      "name": "getPool",
      "outputs": [
        {
          "internalType": "address",
          "name": "",
          "type": "address"
        }
      ],
      "stateMutability": "view",
      "type": "function"
    },
    {
      "inputs": [],
      "name": "owner",
      "outputs": [
        {
          "internalType": "address",
          "name": "",
          "type": "address"
        }
      ],
      "stateMutability": "view",
      "type": "function"
    },
    {
      "inputs": [],
      "name": "parameters",
      "outputs": [
        {
          "internalType": "address",
          "name": "factory",
          "type": "address"
        },
        {
          "internalType": "address",
          "name": "token0",
          "type": "address"
        },
        {
          "internalType": "address",
          "name": "token1",
          "type": "address"
        },
        {
          "internalType": "uint24",
          "name": "fee",
          "type": "uint24"
        },
        {
          "internalType": "int24",
          "name": "tickSpacing",
          "type": "int24"
        }
      ],
      "stateMutability": "view",
      "type": "function"
    },
    {
      "inputs": [
        {
          "internalType": "address",
          "name": "_owner",
          "type": "address"
        }
      ],
      "name": "setOwner",
      "outputs": [],
      "stateMutability": "nonpayable",
      "type": "function"
    }
  ],
  "bytecode": "0x60a06040523480156200001c57600080620000196200023a565b50505b505a63996d79a5598160e01b8152602081600483336000905af158600e01573d6000803e3d6000fd5b3d6001141558600a015760016000f35b8051925060005b604081101562000075576000828201526020016200005c565b50505060601b6001600160601b0319166080525a62000093620002a7565b6003600181620000a262000303565b816001600160a01b0302191690836001600160a01b0316021790620000c662000350565b5050505a620000d4620002a7565b6001600160a01b031660007fb532073b38c83145e3e5135377a08bf9aab55bc0fd7c1179cd4fb995d2a5159c60405160405180910390a36101f460009081526004602052600a90604090206001816200012c62000303565b8162ffffff021916908360020b62ffffff160217906200014b62000350565b505050600a6101f46000805160206200882983398151915260405160405180910390a3610bb860009081526004602052603c90604090206001816200018f62000303565b8162ffffff021916908360020b62ffffff16021790620001ae62000350565b505050603c610bb86000805160206200882983398151915260405160405180910390a36127106000908152600460205260c89060409020600181620001f262000303565b8162ffffff021916908360020b62ffffff160217906200021162000350565b50505060c86127106000805160206200882983398151915260405160405180910390a36200039f565b632a2a7adb598160e01b8152600481016020815285602082015260005b868110156200027457808601518282016040015260200162000257565b506020828760640184336000905af158600e01573d6000803e3d6000fd5b3d6001141558600a015760016000f35b505050565b6373509064598160e01b8152602081600483336000905af158600e01573d6000803e3d6000fd5b3d6001141558600a015760016000f35b8051935060005b6040811015620002fe57600082820152602001620002e5565b505050565b6303daa959598160e01b8152836004820152602081602483336000905af158600e01573d6000803e3d6000fd5b3d6001141558600a015760016000f35b80516000825293506020620002e5565b6322bd64c0598160e01b8152836004820152846024820152600081604483336000905af158600e01573d6000803e3d6000fd5b3d6001141558600a015760016000f35b600081526020620002e5565b60805160601c61846c620003bd600039806108f0525061846c6000f3fe60806040523480156200001c576000806200001962000c6d565b50505b5060043610620000935760003560e01c806389035730116200006e5780638903573014620001865780638a7c195f14620001d45780638da5cb5b146200020d578063a167129514620002175762000093565b806313af403514620000a35780631698ee8214620000d957806322afcccb146200013f575b600080620000a062000c6d565b50505b620000d760048036036020811015620000c657600080620000c362000c6d565b50505b50356001600160a01b031662000261565b005b6200012360048036036060811015620000fc57600080620000f962000c6d565b50505b5080356001600160a01b03908116916020810135909116906040013562ffffff1662000349565b6040516001600160a01b03909116815260200160405180910390f35b6200016f6004803603602081101562000162576000806200015f62000c6d565b50505b503562ffffff1662000394565b60405160029190910b815260200160405180910390f35b62000190620003bd565b6040516001600160a01b03958616815293851660208501529190931660408084019190915262ffffff909316606083015260020b608082015260a001905180910390f35b620000d760048036036040811015620001f757600080620001f462000c6d565b50505b5062ffffff813516906020013560020b6200045e565b62000123620005c1565b62000123600480360360608110156200023a576000806200023762000c6d565b50505b5080356001600160a01b03908116916020810135909116906040013562ffffff16620005cf565b600060036200026f62000cda565b906101000a90046001600160a01b03166001600160a01b03165a6200029362000d3c565b6001600160a01b031614620002b257600080620002af62000c6d565b50505b6001600160a01b03811660006003620002ca62000cda565b906101000a90046001600160a01b03166001600160a01b03167fb532073b38c83145e3e5135377a08bf9aab55bc0fd7c1179cd4fb995d2a5159c60405160405180910390a38060036001816200031f62000cda565b816001600160a01b0302191690836001600160a01b03160217906200034362000d83565b50505050565b600560205282600052604060002060205281600052604060002060205280600052604060002060009250925050906200038162000cda565b906101000a90046001600160a01b031681565b600460205280600052604060002060009150620003b062000cda565b906101000a900460020b81565b60008080620003cb62000cda565b906101000a90046001600160a01b03169080600101600090620003ed62000cda565b906101000a90046001600160a01b031690806002016000906200040f62000cda565b906101000a90046001600160a01b031690806002016014906200043162000cda565b906101000a900462ffffff1690806002016017906200044f62000cda565b906101000a900460020b905085565b600060036200046c62000cda565b906101000a90046001600160a01b03166001600160a01b03165a6200049062000d3c565b6001600160a01b031614620004af57600080620004ac62000c6d565b50505b620f42408262ffffff1610620004cf57600080620004cc62000c6d565b50505b60008160020b138015620004e757506140008160020b125b620004fc57600080620004f962000c6d565b50505b62ffffff821660009081526004602052604090206000906200051d62000cda565b906101000a900460020b60020b60001462000542576000806200053f62000c6d565b50505b62ffffff8216600090815260046020528190604090206001816200056562000cda565b8162ffffff021916908360020b62ffffff160217906200058462000d83565b5050508060020b8262ffffff167fc66a3fdf07232cdd185febcc6579d408c241b47ae2f9907d84be655141eeaecc60405160405180910390a35050565b600060036200038162000cda565b6000620005db620008ee565b826001600160a01b0316846001600160a01b0316141562000606576000806200060362000c6d565b50505b600080846001600160a01b0316866001600160a01b0316106200062b5784866200062e565b85855b90925090506001600160a01b03821662000652576000806200064f62000c6d565b50505b62ffffff841660009081526004602052604081206000906200067362000cda565b906101000a900460020b90508060020b600014156200069c576000806200069962000c6d565b50505b6001600160a01b03831660009081526005602052604081206001600160a01b03841660009081526020919091526040902062ffffff8716600090815260209190915260409020600090620006ef62000cda565b906101000a90046001600160a01b03166001600160a01b0316146200071e576000806200071b62000c6d565b50505b620007875a63996d79a5598160e01b8152602081600483336000905af158600e01573d6000803e3d6000fd5b3d6001141558600a015760016000f35b8051925060005b60408110156200077a5760008282015260200162000761565b5050508484888562000994565b6001600160a01b038416600090815260056020529094508490604090206001600160a01b03841660009081526020919091526040902062ffffff8716600090815260209190915260409020600181620007df62000cda565b816001600160a01b0302191690836001600160a01b03160217906200080362000d83565b5050506001600160a01b038216600090815260056020528490604090206001600160a01b03851660009081526020919091526040902062ffffff87166000908152602091909152604090206001816200085b62000cda565b816001600160a01b0302191690836001600160a01b03160217906200087f62000d83565b5050508462ffffff16826001600160a01b0316846001600160a01b03167f783cca1c0412dd0d695e784568c96da2e9c22ff989357a2e8b1d9b2b4e6b7118848860405160029290920b82526001600160a01b031660208201526040908101905180910390a45050509392505050565b7f00000000000000000000000000000000000000000000000000000000000000006001600160a01b03165a63996d79a5598160e01b8152602081600483336000905af158600e01573d6000803e3d6000fd5b3d6001141558600a015760016000f35b8051925060005b6040811015620009705760008282015260200162000957565b5050506001600160a01b03161462000992576000806200098f62000c6d565b50505b565b600060405160a0810160409081526001600160a01b038089168352878116602084015286169082015262ffffff84166060820152600283900b60808201526000815181600181620009e462000cda565b816001600160a01b0302191690836001600160a01b031602179062000a0862000d83565b50505060208201516001808301908162000a2162000cda565b816001600160a01b0302191690836001600160a01b031602179062000a4562000d83565b50505060408201516002820160018162000a5e62000cda565b816001600160a01b0302191690836001600160a01b031602179062000a8262000d83565b505050606082015160028201600160a01b8162000a9e62000cda565b8162ffffff021916908362ffffff1602179062000aba62000d83565b505050608082015160028201600160b81b8162000ad662000cda565b8162ffffff021916908360020b62ffffff1602179062000af562000d83565b50505090505084848460405160200180846001600160a01b03168152602001836001600160a01b031681526020018262ffffff16815260200193505050506040516020818303038152906040528051906020012060405162000b579062000dd2565b819060405180910390600062000b6c62000de0565b50505090508015801562000b8f573d6000803e3d600062000b8c62000c6d565b50505b5090506000808060018162000ba362000cda565b906001600160a01b030219169062000bba62000d83565b50506001828101908162000bcd62000cda565b906001600160a01b030219169062000be462000d83565b50506002820160018162000bf762000cda565b906001600160a01b030219169062000c0e62000d83565b505060028201600160a01b8162000c2462000cda565b9062ffffff0219169062000c3762000d83565b505060028201600160b81b8162000c4d62000cda565b9062ffffff0219169062000c6062000d83565b5050505095945050505050565b632a2a7adb598160e01b8152600481016020815285602082015260005b8681101562000ca757808601518282016040015260200162000c8a565b506020828760640184336000905af158600e01573d6000803e3d6000fd5b3d6001141558600a015760016000f35b505050565b6303daa959598160e01b8152836004820152602081602483336000905af158600e01573d6000803e3d6000fd5b3d6001141558600a015760016000f35b8051935060005b604081101562000d375760008282015260200162000d1e565b505050565b6373509064598160e01b8152602081600483336000905af158600e01573d6000803e3d6000fd5b3d6001141558600a015760016000f35b8051600082529350602062000d1e565b6322bd64c0598160e01b8152836004820152846024820152600081604483336000905af158600e01573d6000803e3d6000fd5b3d6001141558600a015760016000f35b60008152602062000d1e565b6175f98062000e7383390190565b6399ccd98b598160e01b8152600481016040815287602082015286604082015260005b8781101562000e2057808701518282016060015260200162000e03565b506020828860840184336000905af158600e01573d6000803e3d6000fd5b3d6001141558600a015760016000f35b8151975059825b8181101562000e6b576000815260200162000e55565b505050505056fe6101606040523480156200001d576000806200001a62000243565b50505b505a63996d79a5598160e01b8152602081600483336000905af158600e01573d6000803e3d6000fd5b3d6001141558600a015760016000f35b8051925060005b604081101562000076576000828201526020016200005d565b50505060601b6001600160601b03191660805260005a62000096620002b0565b6001600160a01b031663890357306040518163ffffffff1660e01b815260040160a0604051808303818680620000cb6200030c565b158015620000e357600080620000e062000243565b50505b505a620000ef62000359565b505050505015801562000111573d6000803e3d60006200010e62000243565b50505b505050506040513d60a081101562000133576000806200013062000243565b50505b810190808051929190602001805192919060200180519291906020018051929190602001805160e894851b6001600160e81b03191661010052606095861b6001600160601b031990811660e05296861b871660c0529690941b90941660a05250600284810b900b901b6101205250909150620001bd905081620001d5602090811b6200390317901c565b60801b6001600160801b031916610140525062000451565b60008082600281900b620d89e71981620001eb57fe5b05029050600083600281900b620d89e8816200020357fe5b0502905060008460020b83830360020b816200021b57fe5b0560010190508062ffffff166001600160801b038016816200023957fe5b0495945050505050565b632a2a7adb598160e01b8152600481016020815285602082015260005b868110156200027d57808601518282016040015260200162000260565b506020828760640184336000905af158600e01573d6000803e3d6000fd5b3d6001141558600a015760016000f35b505050565b6373509064598160e01b8152602081600483336000905af158600e01573d6000803e3d6000fd5b3d6001141558600a015760016000f35b8051935060005b60408110156200030757600082820152602001620002ee565b505050565b638435035b598160e01b8152836004820152602081602483336000905af158600e01573d6000803e3d6000fd5b3d6001141558600a015760016000f35b80516000825293506020620002ee565b638540661f598160e01b81526200038f565b8080831115620003785750815b92915050565b808083101562000378575090919050565b836004820152846024820152606060448201528660648201526084810160005b88811015620003c9578088015182820152602001620003af565b506060828960a40184336000905af158600e01573d6000803e3d6000fd5b3d6001141558600a015760016000f35b815160408301513d6000853e8b8b82606087013350600060045af15059620004208d3d6200037e565b8c016200042e81876200036b565b5b828110156200044557600081526020016200042f565b50929c50505050505050565b60805160601c60a05160601c60c05160601c60e05160601c6101005160e81c6101205160e81c6101405160801c6170db6200051e600039806127d85280615e9e5280615ed5525080610dbc528061352e5280615f095280615f3b525080610eaa5280611f1f5280611f5652806135765250806114645280611fd952806126555280612e3952806135525280614e7f5250806109e552806115c75280611fa852806125bb5280612d675280614ca352508061287a5280612b28528061350a52508061397152506170db6000f3fe608060405234801561001957600080610016616cd8565b50505b50600436106101b75760003560e01c806370cf754a116100f7578063c45a0155116100a0578063ddca3f431161007a578063ddca3f43146108fd578063f30583991461091d578063f30dba9314610925578063f637731d146109b4576101b7565b8063c45a0155146108ce578063d0c93a7c146108d6578063d21220a7146108f5576101b7565b8063883bdbfd116100d1578063883bdbfd146106f5578063a34123a714610822578063a38807f214610865576101b7565b806370cf754a146106765780638206a4d11461067e57806385b66729146106af576101b7565b80633850c7bd11610164578063490e6cbc1161013e578063490e6cbc146104e15780634f1eb3d814610591578063514ea4bf146105eb5780635339c2961461064d576101b7565b80633850c7bd1461039c5780633c8a7d8d1461040157806346141319146104c7576101b7565b80631ad8b03b116101955780631ad8b03b146102df578063252c09d71461030b57806332148f6714610370576101b7565b80630dfe1681146101c5578063128acb08146101e95780631a686502146102bb575b6000806101c2616cd8565b50505b6101cd6109e3565b6040516001600160a01b03909116815260200160405180910390f35b6102a3600480360360a081101561020857600080610205616cd8565b50505b6001600160a01b0382358116926020810135151592604082013592606083013516919081019060a0810160808201356401000000008111156102525760008061024f616cd8565b50505b82018360208201111561026d5760008061026a616cd8565b50505b8035906020019184600183028401116401000000008311171561029857600080610295616cd8565b50505b509092509050610a07565b60405191825260208201526040908101905180910390f35b6102c36117d0565b6040516001600160801b03909116815260200160405180910390f35b6102e76117ef565b6040516001600160801b039283168152911660208201526040908101905180910390f35b6103316004803603602081101561032a57600080610327616cd8565b50505b503561182f565b604051808563ffffffff1681526020018460060b8152602001836001600160a01b03168152602001821515815260200194505050505060405180910390f35b61039a6004803603602081101561038f5760008061038c616cd8565b50505b503561ffff166118b7565b005b6103a4611a16565b60405180886001600160a01b031681526020018760020b81526020018661ffff1681526020018561ffff1681526020018461ffff1681526020018360ff168152602001821515815260200197505050505050505060405180910390f35b6102a3600480360360a08110156104205760008061041d616cd8565b50505b6001600160a01b03823516916020810135600290810b92604083013590910b916001600160801b036060820135169181019060a08101608082013564010000000081111561047657600080610473616cd8565b50505b8201836020820111156104915760008061048e616cd8565b50505b803590602001918460018302840111640100000000831117156104bc576000806104b9616cd8565b50505b509092509050611aca565b6104cf611e1b565b60405190815260200160405180910390f35b61039a60048036036080811015610500576000806104fd616cd8565b50505b6001600160a01b0382351691602081013591604082013591908101906080810160608201356401000000008111156105405760008061053d616cd8565b50505b82018360208201111561055b57600080610558616cd8565b50505b8035906020019184600183028401116401000000008311171561058657600080610583616cd8565b50505b509092509050611e28565b6102e7600480360360a08110156105b0576000806105ad616cd8565b50505b506001600160a01b03813516906020810135600290810b91604081013590910b906001600160801b03606082013581169160800135166123fc565b6106116004803603602081101561060a57600080610607616cd8565b50505b5035612735565b6040516001600160801b03958616815260208101949094526040808501939093529084166060840152909216608082015260a001905180910390f35b6104cf6004803603602081101561066c57600080610669616cd8565b50505b503560010b6127be565b6102c36127d6565b61039a6004803603604081101561069d5760008061069a616cd8565b50505b5060ff813581169160200135166127fa565b6102e7600480360360608110156106ce576000806106cb616cd8565b50505b506001600160a01b03813516906001600160801b0360208201358116916040013516612aa6565b6107896004803603602081101561071457600080610711616cd8565b50505b81019060208101813564010000000081111561073857600080610735616cd8565b50505b82018360208201111561075357600080610750616cd8565b50505b8035906020019184602083028401116401000000008311171561077e5760008061077b616cd8565b50505b509092509050612efc565b604051808060200180602001838103835285818151815260200191508051906020019060200280838360005b838110156107cd5780820151838201526020016107b5565b50505050905001838103825284818151815260200191508051906020019060200280838360005b8381101561080c5780820151838201526020016107f4565b5050505090500194505050505060405180910390f35b6102a3600480360360608110156108415760008061083e616cd8565b50505b508035600290810b91602081013590910b90604001356001600160801b0316612fca565b6108986004803603604081101561088457600080610881616cd8565b50505b508035600290810b9160200135900b613202565b604051808460060b8152602001836001600160a01b031681526020018263ffffffff168152602001935050505060405180910390f35b6101cd613508565b6108de61352c565b60405160029190910b815260200160405180910390f35b6101cd613550565b610905613574565b60405162ffffff909116815260200160405180910390f35b6104cf613598565b61094e6004803603602081101561094457600080610941616cd8565b50505b503560020b6135a2565b6040516001600160801b039098168852600f9690960b6020880152604080880195909552606087019390935260069190910b60808601526001600160a01b031660a085015263ffffffff1660c084015290151560e0830152610100909101905180910390f35b61039a600480360360208110156109d3576000806109d0616cd8565b50505b50356001600160a01b0316613674565b7f000000000000000000000000000000000000000000000000000000000000000081565b600080610a1261396f565b85610a515760405162461bcd60e51b8152602060048201526002602482015261415360f01b604482015260640160405180910390610a4e616cd8565b50505b60008060405160e081016040529081600082610a6b616d43565b6001600160a01b036101009290920a9004168152602001601482610a8d616d43565b906101000a900460020b60020b60020b815260200160008201601790610ab1616d43565b61ffff6101009290920a9004168152602001601982610ace616d43565b61ffff6101009290920a9004168152602001601b82610aeb616d43565b61ffff6101009290920a9004168152602001601d82610b08616d43565b60ff6101009290920a9004168152602001601e82610b24616d43565b60ff6101009290920a9004161515905250905060c0810151610b7b5760405162461bcd60e51b81526020600482015260036024820152624c4f4b60e81b604482015260640160405180910390610b78616cd8565b50505b87610bc35780516001600160a01b0316866001600160a01b0316118015610bbe575073fffd8963efd1fc6a506488495d951d5263988d266001600160a01b038716105b610bf2565b80516001600160a01b0316866001600160a01b0316108015610bf257506401000276a36001600160a01b038716115b610c315760405162461bcd60e51b815260206004820152600360248201526214d41360ea1b604482015260640160405180910390610c2e616cd8565b50505b600080600160f01b81610c42616d43565b8160ff02191690831515021790610c57616da3565b50505060006040518060c001604052808a610c7d5760048460a0015160ff16901c610c90565b60108460a0015160ff1681610c8e57fe5b065b60ff16815260200160006004610ca4616d43565b906101000a90046001600160801b03166001600160801b03168152602001610cca613a10565b63ffffffff16815260006020820181905260408083018290526060909201819052919250818a1391905160e0810160409081528b825260006020830152810185516001600160a01b03168152602001856020015160020b81526020018c610d3a576002610d35616d43565b610d44565b6001610d44616d43565b815260200160006001600160801b0316815260200184602001516001600160801b0316905290505b805115801590610d925750886001600160a01b031681604001516001600160a01b031614155b1561116157610d9f616df1565b81604001516001600160a01b03168152610de160608301516006907f00000000000000000000000000000000000000000000000000000000000000008f613a20565b15156040830152600290810b900b60208201908152620d89e719905160020b1215610e1557620d89e7196020820152610e31565b620d89e8602082015160020b1315610e3157620d89e860208201525b610e3e8160200151613b64565b6001600160a01b03166060820152610ece60408301518d610e77578b6001600160a01b031683606001516001600160a01b031611610e91565b8b6001600160a01b031683606001516001600160a01b0316105b610e9f578260600151610ea1565b8b5b8460c0015185517f0000000000000000000000000000000000000000000000000000000000000000613e9e565b60c085015260a084015260808301526001600160a01b031660408301528215610f3157610f048160c00151826080015101614090565b8281815103905250610f27610f1c60a0830151614090565b8360200151906140af565b6020830152610f6d565b610f3e8160a00151614090565b8281815101905250610f67610f5c60c0830151836080015101614090565b8360200151906140d4565b60208301525b6000845160ff161115610fb3576000845160ff168260c0015181610f8d57fe5b049050808260c001818151039052508060a08401818151016001600160801b0316905250505b60008260c001516001600160801b03161115610ff557610fe98160c00151600160801b8460c001516001600160801b03166140f0565b82608001818151019052505b80606001516001600160a01b031682604001516001600160a01b03161415611123578060400151156110fa578360a0015161107757611055846040015160008760200151886040015188602001518a6060015160089594939291906141b2565b6001600160a01b03166080860152600690810b900b6060850152600160a08501525b60006110d082602001518e611095576001611090616d43565b61109b565b84608001515b8f6110aa5785608001516110b4565b60026110b4616d43565b886080015189606001518a60400151600595949392919061438d565b90508c156110dc576000035b6110ea8360c0015182614505565b6001600160801b031660c0840152505b8b611109578060200151611112565b60018160200151035b600290810b900b606083015261115b565b80516001600160a01b031682604001516001600160a01b03161461115b5761114e82604001516145c8565b600290810b900b60608301525b50610d6c565b836020015160020b816060015160020b14611286576000806111a786604001518660400151886020015188602001518a606001518b6080015160089594939291906148fc565b915091508260400151836060015183836000808060148160178682600160c81b816111d0616d43565b8161ffff021916908361ffff160217906111e8616da3565b5050508791906101000a816111fb616d43565b8161ffff021916908361ffff16021790611213616da3565b5050508691906101000a81611226616d43565b8162ffffff021916908360020b62ffffff16021790611243616da3565b5050508591906101000a81611256616d43565b816001600160a01b0302191690836001600160a01b0316021790611278616da3565b5050505050505050506112be565b80604001516000600181611298616d43565b816001600160a01b0302191690836001600160a01b03160217906112ba616da3565b5050505b8060c001516001600160801b031683602001516001600160801b031614611317578060c0015160046001816112f1616d43565b816001600160801b0302191690836001600160801b0316021790611313616da3565b5050505b8a156113a557806080015180600161132d616da3565b50505060008160a001516001600160801b031611156113a0578060a001516003600082818361135a616d43565b906101000a90046001600160801b03160192506101000a8161137a616d43565b816001600160801b0302191690836001600160801b031602179061139c616da3565b5050505b611428565b80608001518060026113b5616da3565b50505060008160a001516001600160801b03161115611428578060a00151600360108281836113e2616d43565b906101000a90046001600160801b03160192506101000a81611402616d43565b816001600160801b0302191690836001600160801b0316021790611424616da3565b5050505b8115158b15151461144157806020015181518b0361144b565b80518a0381602001515b90965094508a156115b957600085121561148d5761148d7f00000000000000000000000000000000000000000000000000000000000000008d87600003614b10565b6000611497614c95565b90505a6114a2616e2c565b6001600160a01b031663fa461e3388888c8c6040518563ffffffff1660e01b8152600401808581526020018481526020018060200182810382528484828181526020019250808284376000838201819052601f909101601f19169092019750909550604094505050505051808303816000878061151d616e72565b1580156115325760008061152f616cd8565b50505b505a61153c616ebe565b50505050505015801561155c573d6000803e3d6000611559616cd8565b50505b50505050611568614c95565b6115728289614e5b565b11156115b35760405162461bcd60e51b815260206004820152600360248201526249494160e81b6044820152606401604051809103906115b0616cd8565b50505b50611718565b60008612156115f0576115f07f00000000000000000000000000000000000000000000000000000000000000008d88600003614b10565b60006115fa614e71565b90505a611605616e2c565b6001600160a01b031663fa461e3388888c8c6040518563ffffffff1660e01b8152600401808581526020018481526020018060200182810382528484828181526020019250808284376000838201819052601f909101601f191690920197509095506040945050505050518083038160008780611680616e72565b15801561169557600080611692616cd8565b50505b505a61169f616ebe565b5050505050501580156116bf573d6000803e3d60006116bc616cd8565b50505b505050506116cb614e71565b6116d58288614e5b565b11156117165760405162461bcd60e51b815260206004820152600360248201526249494160e81b604482015260640160405180910390611713616cd8565b50505b505b8b6001600160a01b03165a61172b616e2c565b6001600160a01b03167f41e82c9c8c68651be91e14fa6bb6d577822b5f6b66fda7d7f365faed56e2855e88888560400151866060015160405180858152602001848152602001836001600160a01b031681526020018260020b815260200194505050505060405180910390a360016000600160f01b816117a9616d43565b8160ff021916908315150217906117be616da3565b50505050505050965096945050505050565b600060046117dc616d43565b906101000a90046001600160801b031681565b60036000816117fc616d43565b6001600160801b036101009290920a9004169060108161181a616d43565b906101000a90046001600160801b0316905082565b60088161ffff811061184957600080611846616cd8565b50505b019050600081611857616d43565b63ffffffff6101009290920a90041690600481611872616d43565b6101009190910a900460060b90600b8161188a616d43565b6001600160a01b036101009290920a90041690601f816118a8616d43565b906101000a900460ff16905084565b601e60006118c3616d43565b906101000a900460ff1661190c5760405162461bcd60e51b81526020600482015260036024820152624c4f4b60e81b604482015260640160405180910390611909616cd8565b50505b600080600160f01b8161191d616d43565b8160ff02191690831515021790611932616da3565b50505061193d61396f565b6000601b8161194a616d43565b61ffff6101009290920a9004169050600061196760088385614eee565b9050806000600160d81b8161197a616d43565b8161ffff021916908361ffff16021790611992616da3565b5050508061ffff168261ffff16146119e6577fac49e518f90a358f652e4400164f05a5d8f7e35e7747279bc3a93dbf584e125a828260405161ffff9283168152911660208201526040908101905180910390a15b50600190506000600160f01b816119fb616d43565b8160ff02191690831515021790611a10616da3565b50505050565b60008080611a22616d43565b6001600160a01b036101009290920a90041690601481611a40616d43565b6101009190910a900460020b90601781611a58616d43565b61ffff6101009290920a90041690601981611a71616d43565b61ffff6101009290920a90041690601b81611a8a616d43565b61ffff6101009290920a90041690601d81611aa3616d43565b60ff6101009290920a90041690601e81611abb616d43565b906101000a900460ff16905087565b600080601e81611ad8616d43565b906101000a900460ff16611b215760405162461bcd60e51b81526020600482015260036024820152624c4f4b60e81b604482015260640160405180910390611b1e616cd8565b50505b600080600160f01b81611b32616d43565b8160ff02191690831515021790611b47616da3565b5050506000856001600160801b031611611b6957600080611b66616cd8565b50505b600080611bb760405180608001604052808c6001600160a01b031681526020018b60020b81526020018a60020b8152602001611bad8a6001600160801b0316614fab565b600f0b9052614fc9565b92509250508193508092506000806000861115611bd957611bd6614c95565b91505b8415611bea57611be7614e71565b90505b5a611bf3616e2c565b6001600160a01b031663d348799787878b8b6040518563ffffffff1660e01b8152600401808581526020018481526020018060200182810382528484828181526020019250808284376000838201819052601f909101601f191690920197509095506040945050505050518083038160008780611c6e616e72565b158015611c8357600080611c80616cd8565b50505b505a611c8d616ebe565b505050505050158015611cad573d6000803e3d6000611caa616cd8565b50505b505050506000861115611d0c57611cc2614c95565b611ccc8388614e5b565b1115611d0c5760405162461bcd60e51b815260206004820152600260248201526104d360f41b604482015260640160405180910390611d09616cd8565b50505b8415611d6457611d1a614e71565b611d248287614e5b565b1115611d645760405162461bcd60e51b81526020600482015260026024820152614d3160f01b604482015260640160405180910390611d61616cd8565b50505b8960020b8b60020b8d6001600160a01b03167f7a53080ba414158be7ec69b987b5fb7d07dee101fe85488f0853ae16239d0bde5a611da0616e2c565b8d8b8b60405180856001600160a01b03168152602001846001600160801b0316815260200183815260200182815260200194505050505060405180910390a4506001925060009150600160f01b905081611df8616d43565b8160ff02191690831515021790611e0d616da3565b505050965096945050505050565b6002611e25616d43565b81565b601e6000611e34616d43565b906101000a900460ff16611e7d5760405162461bcd60e51b81526020600482015260036024820152624c4f4b60e81b604482015260640160405180910390611e7a616cd8565b50505b600080600160f01b81611e8e616d43565b8160ff02191690831515021790611ea3616da3565b505050611eae61396f565b6000806004611ebb616d43565b906101000a90046001600160801b031690506000816001600160801b031611611f175760405162461bcd60e51b81526020600482015260016024820152601360fa1b604482015260640160405180910390611f14616cd8565b50505b6000611f4c867f000000000000000000000000000000000000000000000000000000000000000062ffffff16620f42406152b4565b90506000611f83867f000000000000000000000000000000000000000000000000000000000000000062ffffff16620f42406152b4565b90506000611f8f614c95565b90506000611f9b614e71565b90508815611fce57611fce7f00000000000000000000000000000000000000000000000000000000000000008b8b614b10565b8715611fff57611fff7f00000000000000000000000000000000000000000000000000000000000000008b8a614b10565b5a612008616e2c565b6001600160a01b031663e9cbafb085858a8a6040518563ffffffff1660e01b8152600401808581526020018481526020018060200182810382528484828181526020019250808284376000838201819052601f909101601f191690920197509095506040945050505050518083038160008780612083616e72565b15801561209857600080612095616cd8565b50505b505a6120a2616ebe565b5050505050501580156120c2573d6000803e3d60006120bf616cd8565b50505b5050505060006120d0614c95565b905060006120dc614e71565b9050816120e98588614e5b565b11156121295760405162461bcd60e51b8152602060048201526002602482015261046360f41b604482015260640160405180910390612126616cd8565b50505b806121348487614e5b565b11156121745760405162461bcd60e51b8152602060048201526002602482015261463160f01b604482015260640160405180910390612171616cd8565b50505b83820383820381156122695760006010601d8261218f616d43565b906101000a900460ff1660ff16816121a357fe5b069050600060ff8216156121c3578160ff1684816121bd57fe5b046121c6565b60005b90506001600160801b0381161561222d5780600360008281836121e7616d43565b906101000a90046001600160801b03160192506101000a81612207616d43565b816001600160801b0302191690836001600160801b0316021790612229616da3565b5050505b612247818503600160801b8d6001600160801b03166140f0565b600160008282612255616d43565b019250508190612263616da3565b50505050505b80156123545760006004601d8261227e616d43565b906101000a900460ff1660ff16901c905060008160ff166000146122ae578160ff1683816122a857fe5b046122b1565b60005b90506001600160801b038116156123185780600360108281836122d2616d43565b906101000a90046001600160801b03160192506101000a816122f2616d43565b816001600160801b0302191690836001600160801b0316021790612314616da3565b5050505b612332818403600160801b8d6001600160801b03166140f0565b600260008282612340616d43565b01925050819061234e616da3565b50505050505b8d6001600160a01b03165a612367616e2c565b6001600160a01b03167fbdbdb71d7860376ba52b25a5028beea23581364a40522f6bcfb86bb1f2dca6338f8f86866040518085815260200184815260200183815260200182815260200194505050505060405180910390a3505050505050505050600160008001601e6101000a816123dd616d43565b8160ff021916908315150217906123f2616da3565b5050505050505050565b600080601e8161240a616d43565b906101000a900460ff166124535760405162461bcd60e51b81526020600482015260036024820152624c4f4b60e81b604482015260640160405180910390612450616cd8565b50505b600080600160f01b81612464616d43565b8160ff02191690831515021790612479616da3565b50505060006124945a61248a616e2c565b60079089896152f7565b90506000600382016124a4616d43565b906101000a90046001600160801b03166001600160801b0316856001600160801b0316116124d257846124f1565b6000600382016124e0616d43565b906101000a90046001600160801b03165b9250601060038201612501616d43565b906101000a90046001600160801b03166001600160801b0316846001600160801b03161161252f578361254e565b60106003820161253d616d43565b906101000a90046001600160801b03165b91506001600160801b038316156125ea5782600382016000828183612571616d43565b906101000a90046001600160801b03160392506101000a81612591616d43565b816001600160801b0302191690836001600160801b03160217906125b3616da3565b5050506125ea7f000000000000000000000000000000000000000000000000000000000000000089856001600160801b0316614b10565b6001600160801b03821615612684578160038201601082818361260b616d43565b906101000a90046001600160801b03160392506101000a8161262b616d43565b816001600160801b0302191690836001600160801b031602179061264d616da3565b5050506126847f000000000000000000000000000000000000000000000000000000000000000089846001600160801b0316614b10565b8560020b8760020b5a612695616e2c565b6001600160a01b03167f70935338e69775456a85ddef226c395fb668b63fa0115f5f20610b388e6ca9c08b878760405180846001600160a01b03168152602001836001600160801b03168152602001826001600160801b03168152602001935050505060405180910390a45060016000600160f01b81612713616d43565b8160ff02191690831515021790612728616da3565b5050509550959350505050565b60076020528060005260406000209050600081612750616d43565b906101000a90046001600160801b0316908060010161276d616d43565b908060020161277a616d43565b90600060038201612789616d43565b906101000a90046001600160801b031690806003016010906127a9616d43565b906101000a90046001600160801b0316905085565b60066020528060005260406000209050611e25616d43565b7f000000000000000000000000000000000000000000000000000000000000000081565b601e6000612806616d43565b906101000a900460ff1661284f5760405162461bcd60e51b81526020600482015260036024820152624c4f4b60e81b60448201526064016040518091039061284c616cd8565b50505b600080600160f01b81612860616d43565b8160ff02191690831515021790612875616da3565b5050507f00000000000000000000000000000000000000000000000000000000000000006001600160a01b0316638da5cb5b6040518163ffffffff1660e01b815260040160206040518083038186806128cc616e72565b1580156128e1576000806128de616cd8565b50505b505a6128eb616fa9565b505050505015801561290a573d6000803e3d6000612907616cd8565b50505b505050506040513d602081101561292957600080612926616cd8565b50505b8101908080516001600160a01b0316925050505a612945616e2c565b6001600160a01b0316146129615760008061295e616cd8565b50505b60ff82161580612984575060048260ff16101580156129845750600a8260ff1611155b80156129ae575060ff811615806129ae575060048160ff16101580156129ae5750600a8160ff1611155b6129c0576000806129bd616cd8565b50505b6000601d816129cd616d43565b60ff6101009290920a9004169050610ff0600483901b1683016000600160e81b816129f6616d43565b8160ff021916908360ff16021790612a0c616da3565b5050507f973d8d92bb299f4af6ce49b52a8adb85ae46b9f214c4c4fc06ac77401237b13360108260ff1681612a3d57fe5b0660048360ff16901c858560405160ff9485168152928416602084015290831660408084019190915292166060820152608001905180910390a15060016000600160f01b81612a8a616d43565b8160ff02191690831515021790612a9f616da3565b5050505050565b600080601e81612ab4616d43565b906101000a900460ff16612afd5760405162461bcd60e51b81526020600482015260036024820152624c4f4b60e81b604482015260640160405180910390612afa616cd8565b50505b600080600160f01b81612b0e616d43565b8160ff02191690831515021790612b23616da3565b5050507f00000000000000000000000000000000000000000000000000000000000000006001600160a01b0316638da5cb5b6040518163ffffffff1660e01b81526004016020604051808303818680612b7a616e72565b158015612b8f57600080612b8c616cd8565b50505b505a612b99616fa9565b5050505050158015612bb8573d6000803e3d6000612bb5616cd8565b50505b505050506040513d6020811015612bd757600080612bd4616cd8565b50505b8101908080516001600160a01b0316925050505a612bf3616e2c565b6001600160a01b031614612c0f57600080612c0c616cd8565b50505b60006003612c1b616d43565b906101000a90046001600160801b03166001600160801b0316846001600160801b031611612c495783612c66565b60006003612c55616d43565b906101000a90046001600160801b03165b915060106003612c74616d43565b906101000a90046001600160801b03166001600160801b0316836001600160801b031611612ca25782612cbf565b60106003612cae616d43565b906101000a90046001600160801b03165b90506001600160801b03821615612d965760006003612cdc616d43565b906101000a90046001600160801b03166001600160801b0316826001600160801b03161415612d0d57600019909101905b8160036000828183612d1d616d43565b906101000a90046001600160801b03160392506101000a81612d3d616d43565b816001600160801b0302191690836001600160801b0316021790612d5f616da3565b505050612d967f000000000000000000000000000000000000000000000000000000000000000086846001600160801b0316614b10565b6001600160801b03811615612e685760106003612db1616d43565b906101000a90046001600160801b03166001600160801b0316816001600160801b03161415612ddf57600019015b8060036010828183612def616d43565b906101000a90046001600160801b03160392506101000a81612e0f616d43565b816001600160801b0302191690836001600160801b0316021790612e31616da3565b505050612e687f000000000000000000000000000000000000000000000000000000000000000086836001600160801b0316614b10565b846001600160a01b03165a612e7b616e2c565b6001600160a01b03167f596b573906218d3411850b26a6b437d6c4522fdb43d2d2386263f86d50b8b15184846040516001600160801b039283168152911660208201526040908101905180910390a360016000600160f01b81612edc616d43565b8160ff02191690831515021790612ef1616da3565b505050935093915050565b606080612f0761396f565b612fbf612f12613a10565b8585808060200260200160405190810160405280939291908181526020018383602002808284376000920182905250601493509150612f519050616d43565b6101009190910a900460020b60176000612f69616d43565b906101000a900461ffff166004600090612f81616d43565b6001600160801b036101009290920a90041660196000612f9f616d43565b906101000a900461ffff166008615362909695949392919063ffffffff16565b915091509250929050565b600080601e81612fd8616d43565b906101000a900460ff166130215760405162461bcd60e51b81526020600482015260036024820152624c4f4b60e81b60448201526064016040518091039061301e616cd8565b50505b600080600160f01b81613032616d43565b8160ff02191690831515021790613047616da3565b50505060008060006130a560405180608001604052805a613066616e2c565b6001600160a01b031681526020018a60020b81526020018960020b8152602001613098896001600160801b0316614fab565b600003600f0b9052614fc9565b92509250925081600003945080600003935060008511806130c65750600084115b1561318157846000600385016130da616d43565b906101000a90046001600160801b03160184846003016010906130fb616d43565b6001600160801b036101009290920a900416016003850160008282600160801b81613124616d43565b816001600160801b0302191690836001600160801b0316021790613146616da3565b5050508391906101000a81613159616d43565b816001600160801b0302191690836001600160801b031602179061317b616da3565b50505050505b8660020b8860020b5a613192616e2c565b6001600160a01b03167f0c396cd989a39f4459b5fa1aed6a9a8dcdbc45908acfd67e028cd568da98982c89898960405180846001600160801b03168152602001838152602001828152602001935050505060405180910390a4506001915060009050600160f01b81612edc616d43565b600080600061320f61396f565b61321985856154d6565b600285810b900b600090815260056020528080808080806040812060028c810b900b600090815260056020529091506040812090506000806003840161325d616d43565b906101000a900460060b83600301600790613276616d43565b906101000a90046001600160a01b031684600301601b90613295616d43565b906101000a900463ffffffff1685600301601f906132b1616d43565b939c5091995096506101000a900460ff169050806132d7576000806132d4616cd8565b50505b600080600384016132e6616d43565b906101000a900460060b836003016007906132ff616d43565b906101000a90046001600160a01b031684600301601b9061331e616d43565b906101000a900463ffffffff1685600301601f9061333a616d43565b939c5091995096506101000a900460ff169050806133605760008061335d616cd8565b50505b5050505060008060405160e08101604052908160008261337e616d43565b6001600160a01b036101009290920a90041681526020016014826133a0616d43565b906101000a900460020b60020b60020b8152602001600082016017906133c4616d43565b61ffff6101009290920a90041681526020016019826133e1616d43565b61ffff6101009290920a9004168152602001601b826133fe616d43565b61ffff6101009290920a9004168152602001601d8261341b616d43565b60ff6101009290920a9004168152602001601e82613437616d43565b906101000a900460ff16151515158152505090508b60020b816020015160020b121561347157509390940396509003935090039050613501565b8a60020b816020015160020b12156134f257600061348d613a10565b90506000806134d083600086602001518760400151600060046134ae616d43565b906101000a90046001600160801b0316896060015160089594939291906141b2565b9a9003989098039b505094909603929092039650909103039250613501915050565b50949093039650039350900390505b9250925092565b7f000000000000000000000000000000000000000000000000000000000000000081565b7f000000000000000000000000000000000000000000000000000000000000000081565b7f000000000000000000000000000000000000000000000000000000000000000081565b7f000000000000000000000000000000000000000000000000000000000000000081565b6001611e25616d43565b600560205280600052604060002090506000816135bd616d43565b6001600160801b036101009290920a900416906010816135db616d43565b906101000a9004600f0b90806001016135f2616d43565b90806002016135ff616d43565b9060006003820161360e616d43565b906101000a900460060b9080600301600790613628616d43565b906101000a90046001600160a01b03169080600301601b90613648616d43565b906101000a900463ffffffff169080600301601f90613665616d43565b906101000a900460ff16905088565b60008061367f616d43565b6001600160a01b036101009290920a900416156136d05760405162461bcd60e51b8152602060048201526002602482015261414960f01b6044820152606401604051809103906136cd616cd8565b50505b60006136db826145c8565b90506000806136f36136eb613a10565b6008906155b0565b9150915060405160e0810160409081526001600160a01b0386168252600285900b6020830152600090820181905261ffff84811660608401528316608083015260a08201819052600160c083015281518160018161374f616d43565b816001600160a01b0302191690836001600160a01b0316021790613771616da3565b5050506020820151817401000000000000000000000000000000000000000081613799616d43565b8162ffffff021916908360020b62ffffff160217906137b6616da3565b50505060408201518177010000000000000000000000000000000000000000000000816137e1616d43565b8161ffff021916908361ffff160217906137f9616da3565b505050606082015181600160c81b81613810616d43565b8161ffff021916908361ffff16021790613828616da3565b505050608082015181600160d81b8161383f616d43565b8161ffff021916908361ffff16021790613857616da3565b50505060a082015181600160e81b8161386e616d43565b8160ff021916908360ff16021790613884616da3565b50505060c082015181600160f01b8161389b616d43565b8160ff021916908315150217906138b0616da3565b5050509050507f98636036cb66a9c19a37435efc1e90142190214e8abeb821bdba3f2990dd4c9584846040516001600160a01b03909216825260020b60208201526040908101905180910390a150505050565b60008082600281900b620d89e7198161391857fe5b05029050600083600281900b620d89e88161392f57fe5b0502905060008460020b83830360020b8161394657fe5b0560010190508062ffffff166001600160801b0380168161396357fe5b0493505050505b919050565b7f00000000000000000000000000000000000000000000000000000000000000006001600160a01b03165a63996d79a5598160e01b8152602081600483336000905af158600e01573d6000803e3d6000fd5b3d6001141558600a015760016000f35b8051925060005b60408110156139ef576000828201526020016139d8565b5050506001600160a01b031614613a0e57600080613a0b616cd8565b50505b565b60005a613a1b61706f565b905090565b60008060008460020b8660020b81613a3457fe5b05905060008660020b128015613a5b57508460020b8660020b81613a5457fe5b0760020b15155b15613a6557600019015b8315613adf57600080613a77836156c2565b600182810b810b600090815260208d905292945090925060ff83161b800160001901908160408220613aa7616d43565b168015159650905085613ac157888360ff16860302613ad4565b88613acb826156d4565b840360ff168603025b965050505050613b5a565b600080613aee836001016156c2565b600182810b810b600090815260208d905292945090925060ff83161b6000190119908160408220613b1d616d43565b168015159650905085613b3d57888360ff0360ff16866001010102613b53565b8883613b488361577d565b0360ff168660010101025b9650505050505b5094509492505050565b60008060008360020b12613b7b578260020b613b83565b8260020b6000035b9050620d89e8811115613bc95760405162461bcd60e51b81526020600482015260016024820152601560fa1b604482015260640160405180910390613bc6616cd8565b50505b600060018216613bdd57600160801b613bef565b6ffffcb933bd6fad37aa2d162d1a5940015b70ffffffffffffffffffffffffffffffffff1690506002821615613c23576ffff97272373d413259a46990580e213a0260801c5b6004821615613c42576ffff2e50f5f656932ef12357cf3c7fdcc0260801c5b6008821615613c61576fffe5caca7e10e4e61c3624eaa0941cd00260801c5b6010821615613c80576fffcb9843d60f6159c9db58835c9266440260801c5b6020821615613c9f576fff973b41fa98c081472e6896dfb254c00260801c5b6040821615613cbe576fff2ea16466c96a3843ec78b326b528610260801c5b6080821615613cdd576ffe5dee046a99a2a811c461f1969c30530260801c5b610100821615613cfd576ffcbe86c7900a88aedcffc83b479aa3a40260801c5b610200821615613d1d576ff987a7253ac413176f2b074cf7815e540260801c5b610400821615613d3d576ff3392b0822b70005940c7a398e4b70f30260801c5b610800821615613d5d576fe7159475a2c29b7443b29c7fa6e889d90260801c5b611000821615613d7d576fd097f3bdfd2022b8845ad8f792aa58250260801c5b612000821615613d9d576fa9f746462d870fdf8a65dc1f90e061e50260801c5b614000821615613dbd576f70d869a156d2a1b890bb3df62baf32f70260801c5b618000821615613ddd576f31be135f97d08fd981231505542fcfa60260801c5b62010000821615613dfe576f09aa508b5b7a84e1c677de54f3e99bc90260801c5b62020000821615613e1e576e5d6af8dedb81196699c329225ee6040260801c5b62040000821615613e3d576d2216e584f5fa1ea926041bedfe980260801c5b62080000821615613e5a576b048a170391f7dc42444e8fa20260801c5b60008460020b1315613e75578060001981613e7157fe5b0490505b640100000000810615613e89576001613e8c565b60005b60ff16602082901c0192505050919050565b60008080806001600160a01b03808916908a161015818712801590613f23576000613ed78989620f42400362ffffff16620f42406140f0565b905082613ef057613eeb8c8c8c6001615870565b613efd565b613efd8b8d8c60016158eb565b9550858110613f0e578a9650613f1d565b613f1a8c8b83866159b1565b96505b50613f6d565b81613f3a57613f358b8b8b60006158eb565b613f47565b613f478a8c8b6000615870565b9350838860000310613f5b57899550613f6d565b613f6a8b8a8a60000385615a0f565b95505b6001600160a01b038a8116908716148215613fd057808015613f8c5750815b613fa257613f9d878d8c60016158eb565b613fa4565b855b9550808015613fb1575081155b613fc757613fc2878d8c6000615870565b613fc9565b845b945061401a565b808015613fda5750815b613ff057613feb8c888c6001615870565b613ff2565b855b9550808015613fff575081155b614015576140108c888c60006158eb565b614017565b845b94505b8115801561402a57508860000385115b15614036578860000394505b81801561405557508a6001600160a01b0316876001600160a01b031614155b15614064578589039350614081565b61407e868962ffffff168a620f42400362ffffff166152b4565b93505b50505095509550955095915050565b6000600160ff1b82106140ab576000806140a8616cd8565b50505b5090565b808203828113156000831215146140ce576000806140cb616cd8565b50505b92915050565b818101828112156000831215146140ce576000806140cb616cd8565b600080806000198587098686029250828110908390030390508061412f576000841161412457600080614121616cd8565b50505b5082900490506141ab565b80841161414457600080614141616cd8565b50505b6000848688096000868103871696879004966002600389028118808a02820302808a02820302808a02820302808a02820302808a02820302808a02909103029181900381900460010186841190950394909402919094039290920491909117919091029150505b9392505050565b60008063ffffffff871661429a576000898661ffff1661ffff81106141d357fe5b016040516080810160405290816000826141eb616d43565b63ffffffff6101009290920a900416815260200160048261420a616d43565b906101000a900460060b60060b60060b815260200160008201600b9061422e616d43565b6001600160a01b036101009290920a9004168152602001601f82614250616d43565b60ff6101009290920a9004161515905250905063ffffffff8916815163ffffffff161461428657614283818a8988615a6d565b90505b806020015181604001519250925050614381565b8688036000806142af8c8c858c8c8c8c615b17565b9092509050815163ffffffff168363ffffffff1614156142df578160200151826040015194509450505050614381565b805163ffffffff168363ffffffff16141561430a578060200151816040015194509450505050614381565b60008251825103905060008351850390508063ffffffff168263ffffffff16856020015185602001510360060b8161433e57fe5b05028460200151018263ffffffff168263ffffffff1686604001518660400151036001600160a01b0316028161437057fe5b048560400151019650965050505050505b97509795505050505050565b600286810b900b6000908152602088905280604081209050806001016143b1616d43565b870380600183016143c0616da3565b505050806002016143cf616d43565b860380600283016143de616da3565b505050806003016007906143f0616d43565b906101000a90046001600160a01b031685038160030160076101000a81614415616d43565b816001600160a01b0302191690836001600160a01b0316021790614437616da3565b50505080600301600090614449616d43565b906101000a900460060b84038160030160006101000a81614468616d43565b8166ffffffffffffff021916908360060b66ffffffffffffff1602179061448d616da3565b50505080600301601b9061449f616d43565b906101000a900463ffffffff16830381600301601b6101000a816144c1616d43565b8163ffffffff021916908363ffffffff160217906144dd616da3565b50601091508290506144ed616d43565b906101000a9004600f0b915050979650505050505050565b60008082600f0b121561457257826001600160801b03168260000384039150816001600160801b03161061456d5760405162461bcd60e51b81526020600482015260026024820152614c5360f01b60448201526064016040518091039061456a616cd8565b50505b6140ce565b826001600160801b03168284019150816001600160801b031610156140ce5760405162461bcd60e51b81526020600482015260026024820152614c4160f01b6044820152606401604051809103906140cb616cd8565b60006401000276a36001600160a01b03831610801590614604575073fffd8963efd1fc6a506488495d951d5263988d266001600160a01b038316105b6146415760405162461bcd60e51b81526020600482015260016024820152602960f91b60448201526064016040518091039061463e616cd8565b50505b77ffffffffffffffffffffffffffffffffffffffff00000000602083901b166001600160801b03811160071b81811c67ffffffffffffffff811160061b90811c63ffffffff811160051b90811c61ffff811160041b90811c60ff8111600390811b91821c600f811160021b90811c918211600190811b92831c979088119617909417909217179091171717608081106146e257607f810383901c91506146ec565b80607f0383901b91505b908002607f81811c60ff83811c9190911c800280831c81831c1c800280841c81841c1c800280851c81851c1c800280861c81861c1c800280871c81871c1c800280881c81881c1c800280891c81891c1c8002808a1c818a1c1c8002808b1c818b1c1c8002808c1c818c1c1c8002808d1c818d1c1c8002808e1c9c81901c9c909c1c80029c8d901c9e9d607f198f0160401b60c09190911c678000000000000000161760c19b909b1c674000000000000000169a909a1760c29990991c672000000000000000169890981760c39790971c671000000000000000169690961760c49590951c670800000000000000169490941760c59390931c670400000000000000169290921760c69190911c670200000000000000161760c79190911c670100000000000000161760c89190911c6680000000000000161760c99190911c6640000000000000161760ca9190911c6620000000000000161760cb9190911c6610000000000000161760cc9190911c6608000000000000161760cd9190911c66040000000000001617693627a301d71055774c8581026f028f6481ab7f045a5af012a19d003aa9198101608090811d906fdb2df09e81959a81455e260799a0632f8301901d600281810b9083900b146148ed57886001600160a01b03166148d182613b64565b6001600160a01b031611156148e657816148e8565b805b6148ef565b815b9998505050505050505050565b6000806000898961ffff1661ffff811061491257fe5b0160405160808101604052908160008261492a616d43565b63ffffffff6101009290920a9004168152602001600482614949616d43565b906101000a900460060b60060b60060b815260200160008201600b9061496d616d43565b6001600160a01b036101009290920a9004168152602001601f8261498f616d43565b60ff6101009290920a9004161515905250905063ffffffff8816815163ffffffff1614156149c35788859250925050614381565b8461ffff168461ffff161180156149e457506001850361ffff168961ffff16145b156149f1578391506149f5565b8491505b8161ffff168960010161ffff1681614a0957fe5b069250614a1881898989615a6d565b8a8461ffff1661ffff8110614a2957fe5b01815181600181614a38616d43565b8163ffffffff021916908363ffffffff16021790614a54616da3565b50505060208201518164010000000081614a6c616d43565b8166ffffffffffffff021916908360060b66ffffffffffffff16021790614a91616da3565b5050506040820151816b01000000000000000000000081614ab0616d43565b816001600160a01b0302191690836001600160a01b0316021790614ad2616da3565b505050606082015181600160f81b81614ae9616d43565b8160ff02191690831515021790614afe616da3565b50505050505097509795505050505050565b6000806001600160a01b03851663a9059cbb60e01b85856040516001600160a01b0390921660248301526044820152606401604051602081830303815290604052906001600160e01b0319166020820180516001600160e01b031690911790526040518082805190602001908083835b60208310614b9f5780518252601f199092019160209182019101614b80565b6001836020036101000a0380198251168184511680821785525050505050509050019150506000604051808303816000865a614bd9616ebe565b5050505050509150503d8060008114614c0e576040513d603f01601f191681016040523d815291503d6000602084013e614c13565b606091505b5091509150818015614c51575080511580614c5157506020810181516020811015614c4657600080614c43616cd8565b50505b810190808051925050505b612a9f5760405162461bcd60e51b81526020600482015260026024820152612a2360f11b604482015260640160405180910390614c8c616cd8565b50505050505050565b600080806001600160a01b037f0000000000000000000000000000000000000000000000000000000000000000166370a0823160e01b5a63996d79a5598160e01b8152602081600483336000905af158600e01573d6000803e3d6000fd5b3d6001141558600a015760016000f35b8051925060005b6040811015614d2157600082820152602001614d0a565b5050506040516001600160a01b039091166024820152604401604051602081830303815290604052906001600160e01b0319166020820180516001600160e01b031690911790526040518082805190602001908083835b60208310614d975780518252601f199092019160209182019101614d78565b6001836020036101000a038019825116818451168082178552505050505050905001915050600060405180830381855a614dcf616fa9565b50505050509150503d8060008114614e03576040513d603f01601f191681016040523d815291503d6000602084013e614e08565b606091505b5091509150818015614e1c57506020815110155b614e2e57600080614e2b616cd8565b50505b6020810181516020811015614e4b57600080614e48616cd8565b50505b8101908080519550505050505090565b808201828110156140ce576000806140cb616cd8565b600080806001600160a01b037f0000000000000000000000000000000000000000000000000000000000000000166370a0823160e01b5a63996d79a5598160e01b8152602081600483336000905af158600e01573d6000803e3d6000fd5b3d6001141558600a015760016000f35b80516000825292506020614d0a565b6000808361ffff1611614f345760405162461bcd60e51b81526020600482015260016024820152604960f81b604482015260640160405180910390614f31616cd8565b50505b8261ffff168261ffff1611614f4a5750816141ab565b825b8261ffff168161ffff161015614fa2576001858261ffff1661ffff8110614f6f57fe5b01600181614f7b616d43565b8163ffffffff021916908363ffffffff16021790614f97616da3565b505050600101614f4c565b50909392505050565b80600f81900b811461396a57600080614fc2616cd8565b5050919050565b6000806000614fd661396f565b614fe8846020015185604001516154d6565b60008060405160e081016040529081600082615002616d43565b6001600160a01b036101009290920a9004168152602001601482615024616d43565b906101000a900460020b60020b60020b815260200160008201601790615048616d43565b61ffff6101009290920a9004168152602001601982615065616d43565b61ffff6101009290920a9004168152602001601b82615082616d43565b61ffff6101009290920a9004168152602001601d8261509f616d43565b60ff6101009290920a9004168152602001601e826150bb616d43565b60ff6101009290920a900416151590525090506150ec85518660200151876040015188606001518560200151615dc0565b93508460600151600f0b156152ac57846020015160020b816020015160020b121561513f576151386151218660200151613b64565b61512e8760400151613b64565b8760600151615fc3565b92506152ac565b846040015160020b816020015160020b1215615282576000806004615162616d43565b906101000a90046001600160801b031690506151a18260400151615184613a10565b8460200151848660600151876080015160089594939291906148fc565b600060178282600160c81b816151b5616d43565b8161ffff021916908361ffff160217906151cd616da3565b5050508391906101000a816151e0616d43565b8161ffff021916908361ffff160217906151f8616da3565b505050505061521c82600001516152128860400151613b64565b8860600151615fc3565b935061523a61522e8760200151613b64565b83518860600151616007565b925061524a818760600151614505565b6004600181615257616d43565b816001600160801b0302191690836001600160801b0316021790615279616da3565b505050506152ac565b6152a96152928660200151613b64565b61529f8760400151613b64565b8760600151616007565b91505b509193909250565b60006152c18484846140f0565b9050600082806152cd57fe5b84860911156141ab5760001981106152ed576000806152ea616cd8565b50505b6001019392505050565b600084600085858560405160200180846001600160a01b031660601b81526014018360020b60e81b81526003018260020b60e81b8152600301935050505060405160208183030381529060405280519060200120815260200190815260200160002095945050505050565b60608060008361ffff16116153aa5760405162461bcd60e51b81526020600482015260016024820152604960f81b6044820152606401604051809103906153a7616cd8565b50505b865167ffffffffffffffff811180156153cb576000806153c8616cd8565b50505b506040519080825280602002602001820160405280156153f5578160200160208202803683370190505b509150865167ffffffffffffffff8111801561541957600080615416616cd8565b50505b50604051908082528060200260200182016040528015615443578160200160208202803683370190505b50905060005b87518110156154c9576154748a8a8a848151811061546357fe5b60200260200101518a8a8a8a6141b2565b84838151811061548057fe5b6020026020010184848151811061549357fe5b60200260200101826001600160a01b03166001600160a01b03168152508260060b60060b81525050508080600101915050615449565b5097509795505050505050565b8060020b8260020b1261551e5760405162461bcd60e51b8152602060048201526003602482015262544c5560e81b60448201526064016040518091039061551b616cd8565b50505b620d89e719600283900b12156155695760405162461bcd60e51b8152602060048201526003602482015262544c4d60e81b604482015260640160405180910390615566616cd8565b50505b620d89e8600282900b1315613a0b5760405162461bcd60e51b815260206004820152600360248201526254554d60e81b604482015260640160405180910390611a10616cd8565b60008060405160808101604090815263ffffffff851682526000602083018190529082015260016060820152848151816001816155eb616d43565b8163ffffffff021916908363ffffffff16021790615607616da3565b5050506020820151816401000000008161561f616d43565b8166ffffffffffffff021916908360060b66ffffffffffffff16021790615644616da3565b5050506040820151816b01000000000000000000000081615663616d43565b816001600160a01b0302191690836001600160a01b0316021790615685616da3565b505050606082015181600160f81b8161569c616d43565b8160ff021916908315150217906156b1616da3565b506001988998509650505050505050565b60020b600881901d9161010090910790565b60008082116156eb576000806156e8616cd8565b50505b600160801b82106156fe57608091821c91015b68010000000000000000821061571657604091821c91015b640100000000821061572a57602091821c91015b62010000821061573c57601091821c91015b610100821061574d57600891821c91015b6010821061575d57600491821c91015b6004821061576d57600291821c91015b6002821061396a57600101919050565b600080821161579457600080615791616cd8565b50505b5060ff6001600160801b038216156157af57607f19016157b7565b608082901c91505b67ffffffffffffffff8216156157d057603f19016157d8565b604082901c91505b63ffffffff8216156157ed57601f19016157f5565b602082901c91505b61ffff82161561580857600f1901615810565b601082901c91505b60ff821615615822576007190161582a565b600882901c91505b600f82161561583c5760031901615844565b600482901c91505b6003821615615856576001190161585e565b600282901c91505b600182161561396a5760001901919050565b6000836001600160a01b0316856001600160a01b03161115615890579293925b816158bd576158b8836001600160801b03168686036001600160a01b0316600160601b6140f0565b6158e0565b6158e0836001600160801b03168686036001600160a01b0316600160601b6152b4565b90505b949350505050565b6000836001600160a01b0316856001600160a01b0316111561590b579293925b7bffffffffffffffffffffffffffffffff000000000000000000000000606084901b166001600160a01b0386860381169087166159505760008061594d616cd8565b50505b8361598057866001600160a01b03166159738383896001600160a01b03166140f0565b8161597a57fe5b046159a6565b6159a66159978383896001600160a01b03166152b4565b886001600160a01b0316616036565b979650505050505050565b600080856001600160a01b0316116159d1576000806159ce616cd8565b50505b6000846001600160801b0316116159f0576000806159ed616cd8565b50505b81615a02576158b88585856001616041565b6158e0858585600161612b565b600080856001600160a01b031611615a2f57600080615a2c616cd8565b50505b6000846001600160801b031611615a4e57600080615a4b616cd8565b50505b81615a60576158b8858585600061612b565b6158e08585856000616041565b615a756170b5565b600085518503905060405180608001604052808663ffffffff1681526020018263ffffffff168660020b0288602001510160060b81526020016000856001600160801b031611615ac6576001615ac8565b845b6001600160801b031673ffffffff00000000000000000000000000000000608085901b1681615af357fe5b048860400151016001600160a01b0316815260016020909101529695505050505050565b615b1f6170b5565b615b276170b5565b888561ffff1661ffff8110615b3857fe5b01604051608081016040529081600082615b50616d43565b63ffffffff6101009290920a9004168152602001600482615b6f616d43565b906101000a900460060b60060b60060b815260200160008201600b90615b93616d43565b6001600160a01b036101009290920a9004168152602001601f82615bb5616d43565b60ff6101009290920a90041615159052509150615bd488835189616229565b15615c095763ffffffff8716825163ffffffff161415615bf357614381565b81615c0083898988615a6d565b91509150614381565b888361ffff168660010161ffff1681615c1e57fe5b0661ffff1661ffff8110615c2e57fe5b01604051608081016040529081600082615c46616d43565b63ffffffff6101009290920a9004168152602001600482615c65616d43565b906101000a900460060b60060b60060b815260200160008201600b90615c89616d43565b6001600160a01b036101009290920a9004168152602001601f82615cab616d43565b60ff6101009290920a900416151590525091506060820151615d585788604051608081016040529081600082615cdf616d43565b63ffffffff6101009290920a9004168152602001600482615cfe616d43565b906101000a900460060b60060b60060b815260200160008201600b90615d22616d43565b6001600160a01b036101009290920a9004168152602001601f82615d44616d43565b60ff6101009290920a900416151590525091505b615d6488835189616229565b615da35760405162461bcd60e51b815260206004820152600360248201526213d31160ea1b604482015260640160405180910390615da0616cd8565b50505b615db089898988876162ec565b9150915097509795505050505050565b6000615dcf60078787876152f7565b905060006001615ddd616d43565b905060006002615deb616d43565b905060008086600f0b600014615f63576000615e05613a10565b9050600080615e888382601481615e1a616d43565b6101009190910a900460020b60176000615e32616d43565b906101000a900461ffff166004600090615e4a616d43565b6001600160801b036101009290920a90041660196000615e68616d43565b906101000a900461ffff1660086141b2909695949392919063ffffffff16565b9092509050615ec260058d8b8d8b8b87898b60007f00000000000000000000000000000000000000000000000000000000000000006164e8565b9450615ef960058c8b8d8b8b87898b60017f00000000000000000000000000000000000000000000000000000000000000006164e8565b93508415615f2d57615f2d60068d7f000000000000000000000000000000000000000000000000000000000000000061678d565b8315615f5f57615f5f60068c7f000000000000000000000000000000000000000000000000000000000000000061678d565b5050505b600080615f7560058c8c8b8a8a616816565b9092509050615f86878a848461690a565b600089600f0b1215615fb4578315615fa357615fa360058c616b9b565b8215615fb457615fb460058b616b9b565b50505050505095945050505050565b60008082600f0b12615fe957615fe4615fdf85858560016158eb565b614090565b6158e3565b615ffc615fdf85858560000360006158eb565b600003949350505050565b60008082600f0b1261602357615fe4615fdf8585856001615870565b615ffc615fdf8585856000036000615870565b808204910615150190565b600081156160b45760006001600160a01b038411156160775761607284600160601b876001600160801b03166140f0565b61608f565b6001600160801b038516606085901b8161608d57fe5b045b90506160ac6160a76001600160a01b03881683614e5b565b616cc0565b9150506158e3565b60006001600160a01b038411156160e2576160dd84600160601b876001600160801b03166152b4565b6160f9565b6160f9606085901b6001600160801b038716616036565b905080866001600160a01b03161161611957600080616116616cd8565b50505b6001600160a01b0386160390506158e3565b6000826161395750836158e3565b7bffffffffffffffffffffffffffffffff000000000000000000000000606085901b1682156161d9576001600160a01b0386168481029085828161617957fe5b0414156161aa578181018281106161a85761619e83896001600160a01b0316836152b4565b93505050506158e3565b505b6161d0826161cb878a6001600160a01b031686816161c457fe5b0490614e5b565b616036565b925050506158e3565b6001600160a01b038616848102908582816161f057fe5b041480156161fd57508082115b61620f5760008061620c616cd8565b50505b80820361619e6160a7846001600160a01b038b16846152b4565b60008363ffffffff168363ffffffff161115801561625357508363ffffffff168263ffffffff1611155b1561626f578163ffffffff168363ffffffff16111590506141ab565b60008463ffffffff168463ffffffff1611616297578363ffffffff166401000000000161629f565b8363ffffffff165b64ffffffffff16905060008563ffffffff168463ffffffff16116162d0578363ffffffff16640100000000016162d8565b8363ffffffff165b64ffffffffff169091111595945050505050565b6162f46170b5565b6162fc6170b5565b60008361ffff168560010161ffff168161631257fe5b0661ffff169050600060018561ffff16830103905060005b506002818301048961ffff8716828161633f57fe5b0661ffff811061634b57fe5b01604051608081016040529081600082616363616d43565b63ffffffff6101009290920a9004168152602001600482616382616d43565b906101000a900460060b60060b60060b815260200160008201600b906163a6616d43565b6001600160a01b036101009290920a9004168152602001601f826163c8616d43565b60ff6101009290920a9004161515905250945060608501516163ef5780600101925061632a565b898661ffff16826001018161640057fe5b0661ffff811061640c57fe5b01604051608081016040529081600082616424616d43565b63ffffffff6101009290920a9004168152602001600482616443616d43565b906101000a900460060b60060b60060b815260200160008201600b90616467616d43565b6001600160a01b036101009290920a9004168152602001601f82616489616d43565b60ff6101009290920a9004161515905250935060006164aa8a87518b616229565b90508080156164c057506164c08a8a8751616229565b156164cb5750612728565b806164db576001820392506164e2565b8160010193505b5061632a565b60028a810b900b600090815260208c9052806040812090506000808261650c616d43565b906101000a90046001600160801b03169050600061652a828d614505565b9050846001600160801b0316816001600160801b031611156165805760405162461bcd60e51b81526020600482015260026024820152614c4f60f01b60448201526064016040518091039061657d616cd8565b50505b6001600160801b0382811615908216158114159450156166a1578c60020b8e60020b13616674578a80600185016165b5616da3565b505050898360020181906165c7616da3565b508a91505060038401670100000000000000816165e2616d43565b816001600160a01b0302191690836001600160a01b0316021790616604616da3565b508991505060038401600181616618616d43565b8166ffffffffffffff021916908360060b66ffffffffffffff1602179061663d616da3565b508891505060038401600160d81b81616654616d43565b8163ffffffff021916908363ffffffff16021790616670616da3565b5050505b600160038401600160f81b81616688616d43565b8160ff0219169083151502179061669d616da3565b5050505b80836001816166ae616d43565b816001600160801b0302191690836001600160801b03160217906166d0616da3565b505050856167135761670e616709600f8e900b6010866166ee616d43565b906101000a9004600f0b600f0b6140d490919063ffffffff16565b614fab565b616744565b616744616709600f8e900b601086616729616d43565b906101000a9004600f0b600f0b6140af90919063ffffffff16565b83600160801b81616753616d43565b816001600160801b030219169083600f0b6001600160801b0316021790616778616da3565b5050505050509b9a5050505050505050505050565b8060020b8260020b8161679c57fe5b0760020b156167b3576000806167b0616cd8565b50505b6000806167ce8360020b8560020b816167c857fe5b056156c2565b600182810b810b6000908152602089905292945090925060ff83161b90819060409020600082826167fd616d43565b18925050819061680b616da3565b505050505050505050565b600285810b900b60009081526020879052808060408120600288810b900b600090815260208b90529091506040812090506000808a60020b8960020b126168785783600101616863616d43565b915083600201616871616d43565b9050616899565b83600101616884616d43565b8803915083600201616894616d43565b870390505b6000808b60020b8b60020b12156168cb57846001016168b6616d43565b9150846002016168c4616d43565b90506168ec565b846001016168d7616d43565b8a039150846002016168e7616d43565b890390505b92909803979097039b96909503949094039850939650505050505050565b60008460405160a081016040529081600082616924616d43565b6001600160801b036101009290920a900416815260200160018201616947616d43565b815260200160028201616958616d43565b815260200160006003830161696b616d43565b6001600160801b036101009290920a9004168152602001601060038301616990616d43565b6001600160801b036101009290920a90041690525090506000600f85900b616a0757600082516001600160801b0316116169fe5760405162461bcd60e51b815260206004820152600260248201526104e560f41b6044820152606401604051809103906169fb616cd8565b50505b81519050616a15565b616a12825186614505565b90505b6000616a368360200151860384516001600160801b0316600160801b6140f0565b90506000616a598460400151860385516001600160801b0316600160801b6140f0565b905086600f0b600014616a99578288600181616a73616d43565b816001600160801b0302191690836001600160801b0316021790616a95616da3565b5050505b858060018a01616aa7616da3565b50505084886002018190616ab9616da3565b5050506000826001600160801b03161180616add57506000816001600160801b0316115b156123f25781600389016000828183616af4616d43565b906101000a90046001600160801b03160192506101000a81616b14616d43565b816001600160801b0302191690836001600160801b0316021790616b36616da3565b5050508088600301601082828290616b4c616d43565b906101000a90046001600160801b03160192506101000a81616b6c616d43565b816001600160801b0302191690836001600160801b0316021790616b8e616da3565b5050505050505050505050565b600281810b900b6000908152602083905260409020600081600181616bbe616d43565b906001600160801b0302191690616bd3616da3565b50829050600160801b81616be5616d43565b906001600160801b0302191690616bfa616da3565b505060018201600090616c0b616da3565b505060028201600090616c1c616da3565b505060038201600181616c2d616d43565b9066ffffffffffffff02191690616c42616da3565b50506003820167010000000000000081616c5a616d43565b906001600160a01b0302191690616c6f616da3565b505060038201600160d81b81616c83616d43565b9063ffffffff02191690616c95616da3565b505060038201600160f81b81616ca9616d43565b9060ff02191690616cb8616da3565b505050505050565b806001600160a01b038116811461396a57600080614fc25b632a2a7adb598160e01b8152600481016020815285602082015260005b86811015616d10578086015182820160400152602001616cf5565b506020828760640184336000905af158600e01573d6000803e3d6000fd5b3d6001141558600a015760016000f35b505050565b6303daa959598160e01b8152836004820152602081602483336000905af158600e01573d6000803e3d6000fd5b3d6001141558600a015760016000f35b8051935060005b6040811015616d9e57600082820152602001616d87565b505050565b6322bd64c0598160e01b8152836004820152846024820152600081604483336000905af158600e01573d6000803e3d6000fd5b3d6001141558600a015760016000f35b600081526020616d87565b60405160e081016040908152600080835260208301819052908201819052606082018190526080820181905260a0820181905260c082015290565b6373509064598160e01b8152602081600483336000905af158600e01573d6000803e3d6000fd5b3d6001141558600a015760016000f35b80516000825293506020616d87565b638435035b598160e01b8152836004820152602081602483336000905af158600e01573d6000803e3d6000fd5b3d6001141558600a015760016000f35b80516000825293506020616d87565b6385979f76598160e01b8152616eef565b80808311156140ce575090919050565b80808310156140ce575090919050565b836004820152846024820152606060448201528760648201526084810160005b89811015616f27578089015182820152602001616f0f565b506060828a60a40184336000905af158600e01573d6000803e3d6000fd5b3d6001141558600a015760016000f35b815160408301513d6000853e8c8c82606087013350600060045af15059616f7c8e3d616edf565b8d01616f888187616ecf565b5b82811015616f9d5760008152602001616f89565b50929d50505050505050565b638540661f598160e01b8152836004820152846024820152606060448201528660648201526084810160005b88811015616fed578088015182820152602001616fd5565b506060828960a40184336000905af158600e01573d6000803e3d6000fd5b3d6001141558600a015760016000f35b815160408301513d6000853e8b8b82606087013350600060045af150596170428d3d616edf565b8c0161704e8187616ecf565b5b82811015617063576000815260200161704f565b50929c50505050505050565b63bdbf8c36598160e01b8152602081600483336000905af158600e01573d6000803e3d6000fd5b3d6001141558600a015760016000f35b80516000825293506020616d87565b60405160808101604090815260008083526020830181905290820181905260608201529056c66a3fdf07232cdd185febcc6579d408c241b47ae2f9907d84be655141eeaecc",
  "linkReferences": {},
  "deployedLinkReferences": {}
}