{
  "_format": "hh-sol-artifact-1",
  "contractName": "SwapRouter",
  "sourceName": "contracts/SwapRouter.sol",
  "abi": [
    {
      "inputs": [
        {
          "internalType": "address",
          "name": "_factory",
          "type": "address"
        },
        {
          "internalType": "address",
          "name": "_WETH9",
          "type": "address"
        }
      ],
      "stateMutability": "nonpayable",
      "type": "constructor"
    },
    {
      "inputs": [],
      "name": "WETH9",
      "outputs": [
        {
          "internalType": "address",
          "name": "",
          "type": "address"
        }
      ],
      "stateMutability": "view",
      "type": "function"
    },
    {
      "inputs": [
        {
          "components": [
            {
              "internalType": "bytes",
              "name": "path",
              "type": "bytes"
            },
            {
              "internalType": "address",
              "name": "recipient",
              "type": "address"
            },
            {
              "internalType": "uint256",
              "name": "deadline",
              "type": "uint256"
            },
            {
              "internalType": "uint256",
              "name": "amountIn",
              "type": "uint256"
            },
            {
              "internalType": "uint256",
              "name": "amountOutMinimum",
              "type": "uint256"
            }
          ],
          "internalType": "struct ISwapRouter.ExactInputParams",
          "name": "params",
          "type": "tuple"
        }
      ],
      "name": "exactInput",
      "outputs": [
        {
          "internalType": "uint256",
          "name": "amountOut",
          "type": "uint256"
        }
      ],
      "stateMutability": "payable",
      "type": "function"
    },
    {
      "inputs": [
        {
          "components": [
            {
              "internalType": "address",
              "name": "tokenIn",
              "type": "address"
            },
            {
              "internalType": "address",
              "name": "tokenOut",
              "type": "address"
            },
            {
              "internalType": "uint24",
              "name": "fee",
              "type": "uint24"
            },
            {
              "internalType": "address",
              "name": "recipient",
              "type": "address"
            },
            {
              "internalType": "uint256",
              "name": "deadline",
              "type": "uint256"
            },
            {
              "internalType": "uint256",
              "name": "amountIn",
              "type": "uint256"
            },
            {
              "internalType": "uint256",
              "name": "amountOutMinimum",
              "type": "uint256"
            },
            {
              "internalType": "uint160",
              "name": "sqrtPriceLimitX96",
              "type": "uint160"
            }
          ],
          "internalType": "struct ISwapRouter.ExactInputSingleParams",
          "name": "params",
          "type": "tuple"
        }
      ],
      "name": "exactInputSingle",
      "outputs": [
        {
          "internalType": "uint256",
          "name": "amountOut",
          "type": "uint256"
        }
      ],
      "stateMutability": "payable",
      "type": "function"
    },
    {
      "inputs": [
        {
          "components": [
            {
              "internalType": "bytes",
              "name": "path",
              "type": "bytes"
            },
            {
              "internalType": "address",
              "name": "recipient",
              "type": "address"
            },
            {
              "internalType": "uint256",
              "name": "deadline",
              "type": "uint256"
            },
            {
              "internalType": "uint256",
              "name": "amountOut",
              "type": "uint256"
            },
            {
              "internalType": "uint256",
              "name": "amountInMaximum",
              "type": "uint256"
            }
          ],
          "internalType": "struct ISwapRouter.ExactOutputParams",
          "name": "params",
          "type": "tuple"
        }
      ],
      "name": "exactOutput",
      "outputs": [
        {
          "internalType": "uint256",
          "name": "amountIn",
          "type": "uint256"
        }
      ],
      "stateMutability": "payable",
      "type": "function"
    },
    {
      "inputs": [
        {
          "components": [
            {
              "internalType": "address",
              "name": "tokenIn",
              "type": "address"
            },
            {
              "internalType": "address",
              "name": "tokenOut",
              "type": "address"
            },
            {
              "internalType": "uint24",
              "name": "fee",
              "type": "uint24"
            },
            {
              "internalType": "address",
              "name": "recipient",
              "type": "address"
            },
            {
              "internalType": "uint256",
              "name": "deadline",
              "type": "uint256"
            },
            {
              "internalType": "uint256",
              "name": "amountOut",
              "type": "uint256"
            },
            {
              "internalType": "uint256",
              "name": "amountInMaximum",
              "type": "uint256"
            },
            {
              "internalType": "uint160",
              "name": "sqrtPriceLimitX96",
              "type": "uint160"
            }
          ],
          "internalType": "struct ISwapRouter.ExactOutputSingleParams",
          "name": "params",
          "type": "tuple"
        }
      ],
      "name": "exactOutputSingle",
      "outputs": [
        {
          "internalType": "uint256",
          "name": "amountIn",
          "type": "uint256"
        }
      ],
      "stateMutability": "payable",
      "type": "function"
    },
    {
      "inputs": [],
      "name": "factory",
      "outputs": [
        {
          "internalType": "address",
          "name": "",
          "type": "address"
        }
      ],
      "stateMutability": "view",
      "type": "function"
    },
    {
      "inputs": [
        {
          "internalType": "bytes[]",
          "name": "data",
          "type": "bytes[]"
        }
      ],
      "name": "multicall",
      "outputs": [
        {
          "internalType": "bytes[]",
          "name": "results",
          "type": "bytes[]"
        }
      ],
      "stateMutability": "payable",
      "type": "function"
    },
    {
      "inputs": [],
      "name": "refundETH",
      "outputs": [],
      "stateMutability": "payable",
      "type": "function"
    },
    {
      "inputs": [
        {
          "internalType": "address",
          "name": "token",
          "type": "address"
        },
        {
          "internalType": "uint256",
          "name": "value",
          "type": "uint256"
        },
        {
          "internalType": "uint256",
          "name": "deadline",
          "type": "uint256"
        },
        {
          "internalType": "uint8",
          "name": "v",
          "type": "uint8"
        },
        {
          "internalType": "bytes32",
          "name": "r",
          "type": "bytes32"
        },
        {
          "internalType": "bytes32",
          "name": "s",
          "type": "bytes32"
        }
      ],
      "name": "selfPermit",
      "outputs": [],
      "stateMutability": "payable",
      "type": "function"
    },
    {
      "inputs": [
        {
          "internalType": "address",
          "name": "token",
          "type": "address"
        },
        {
          "internalType": "uint256",
          "name": "nonce",
          "type": "uint256"
        },
        {
          "internalType": "uint256",
          "name": "expiry",
          "type": "uint256"
        },
        {
          "internalType": "uint8",
          "name": "v",
          "type": "uint8"
        },
        {
          "internalType": "bytes32",
          "name": "r",
          "type": "bytes32"
        },
        {
          "internalType": "bytes32",
          "name": "s",
          "type": "bytes32"
        }
      ],
      "name": "selfPermitAllowed",
      "outputs": [],
      "stateMutability": "payable",
      "type": "function"
    },
    {
      "inputs": [
        {
          "internalType": "address",
          "name": "token",
          "type": "address"
        },
        {
          "internalType": "uint256",
          "name": "nonce",
          "type": "uint256"
        },
        {
          "internalType": "uint256",
          "name": "expiry",
          "type": "uint256"
        },
        {
          "internalType": "uint8",
          "name": "v",
          "type": "uint8"
        },
        {
          "internalType": "bytes32",
          "name": "r",
          "type": "bytes32"
        },
        {
          "internalType": "bytes32",
          "name": "s",
          "type": "bytes32"
        }
      ],
      "name": "selfPermitAllowedIfNecessary",
      "outputs": [],
      "stateMutability": "payable",
      "type": "function"
    },
    {
      "inputs": [
        {
          "internalType": "address",
          "name": "token",
          "type": "address"
        },
        {
          "internalType": "uint256",
          "name": "value",
          "type": "uint256"
        },
        {
          "internalType": "uint256",
          "name": "deadline",
          "type": "uint256"
        },
        {
          "internalType": "uint8",
          "name": "v",
          "type": "uint8"
        },
        {
          "internalType": "bytes32",
          "name": "r",
          "type": "bytes32"
        },
        {
          "internalType": "bytes32",
          "name": "s",
          "type": "bytes32"
        }
      ],
      "name": "selfPermitIfNecessary",
      "outputs": [],
      "stateMutability": "payable",
      "type": "function"
    },
    {
      "inputs": [
        {
          "internalType": "address",
          "name": "token",
          "type": "address"
        },
        {
          "internalType": "uint256",
          "name": "amountMinimum",
          "type": "uint256"
        },
        {
          "internalType": "address",
          "name": "recipient",
          "type": "address"
        }
      ],
      "name": "sweepToken",
      "outputs": [],
      "stateMutability": "payable",
      "type": "function"
    },
    {
      "inputs": [
        {
          "internalType": "address",
          "name": "token",
          "type": "address"
        },
        {
          "internalType": "uint256",
          "name": "amountMinimum",
          "type": "uint256"
        },
        {
          "internalType": "address",
          "name": "recipient",
          "type": "address"
        },
        {
          "internalType": "uint256",
          "name": "feeBips",
          "type": "uint256"
        },
        {
          "internalType": "address",
          "name": "feeRecipient",
          "type": "address"
        }
      ],
      "name": "sweepTokenWithFee",
      "outputs": [],
      "stateMutability": "payable",
      "type": "function"
    },
    {
      "inputs": [
        {
          "internalType": "int256",
          "name": "amount0Delta",
          "type": "int256"
        },
        {
          "internalType": "int256",
          "name": "amount1Delta",
          "type": "int256"
        },
        {
          "internalType": "bytes",
          "name": "_data",
          "type": "bytes"
        }
      ],
      "name": "uniswapV3SwapCallback",
      "outputs": [],
      "stateMutability": "nonpayable",
      "type": "function"
    },
    {
      "inputs": [
        {
          "internalType": "uint256",
          "name": "amountMinimum",
          "type": "uint256"
        },
        {
          "internalType": "address",
          "name": "recipient",
          "type": "address"
        }
      ],
      "name": "unwrapWETH9",
      "outputs": [],
      "stateMutability": "payable",
      "type": "function"
    },
    {
      "inputs": [
        {
          "internalType": "uint256",
          "name": "amountMinimum",
          "type": "uint256"
        },
        {
          "internalType": "address",
          "name": "recipient",
          "type": "address"
        },
        {
          "internalType": "uint256",
          "name": "feeBips",
          "type": "uint256"
        },
        {
          "internalType": "address",
          "name": "feeRecipient",
          "type": "address"
        }
      ],
      "name": "unwrapWETH9WithFee",
      "outputs": [],
      "stateMutability": "payable",
      "type": "function"
    },
    {
      "stateMutability": "payable",
      "type": "receive"
    }
  ],
  "bytecode": "0x60c06040526000196000620000136200006f565b50503480156200002d576000806200002a620000d3565b50505b50604051620042393803806200423983398101604081905262000050916200016c565b6001600160601b0319606092831b8116608052911b1660a052620001ae565b6322bd64c0598160e01b8152836004820152846024820152600081604483336000905af158600e01573d6000803e3d6000fd5b3d6001141558600a015760016000f35b60005b6040811015620000ce57600082820152602001620000b5565b505050565b632a2a7adb598160e01b8152600481016020815285602082015260005b868110156200010d578086015182820160400152602001620000f0565b506020828760640184336000905af158600e01573d6000803e3d6000fd5b3d6001141558600a015760016000f35b505050565b6000815190506001600160a01b0381168114620001675760008062000164620000d3565b50505b919050565b600080604083850312156200018a57818262000187620000d3565b50505b620001958362000140565b9150620001a56020840162000140565b90509250929050565b60805160601c60a05160601c61402f6200020a60003980610119528061067c5280610855528061093052806109795280610b5252806126265280612684528061272b5250806113915280611bc952806128ea525061402f6000f3fe6080604052600436106101125760003560e01c8063c04b8d59116100a5578063df2ab5bb11610074578063f28c049811610059578063f28c049814610336578063f3995c6714610349578063fa461e331461035c576101e3565b8063df2ab5bb14610310578063e0e189a014610323576101e3565b8063c04b8d59146102b9578063c2e3140a146102cc578063c45a0155146102df578063db3e2198146102fd576101e3565b80634aa4a4fc116100e15780634aa4a4fc146102485780639b2c0a3714610273578063a4a78f0c14610286578063ac9650d814610299576101e3565b806312210e8a146101f1578063414bf389146101f95780634659a4941461022257806349404b7c14610235576101e3565b366101e3577f000000000000000000000000000000000000000000000000000000000000000073ffffffffffffffffffffffffffffffffffffffff165a610157613209565b73ffffffffffffffffffffffffffffffffffffffff16146101e1576040517f08c379a000000000000000000000000000000000000000000000000000000000815260206004820152600960248201527f4e6f7420574554483900000000000000000000000000000000000000000000006044820152606401604051809103906101de61325e565b50505b005b6000806101ee61325e565b50505b6101e1610385565b61020c610207366004613a7a565b610387565b6040516102199190613ee2565b60405180910390f35b6101e161023036600461373a565b610511565b6101e1610243366004613bde565b610678565b34801561025d5760008061025a61325e565b50505b5061026661092e565b6040516102199190613d28565b6101e1610281366004613c16565b610952565b6101e161029436600461373a565b610c63565b6102ac6102a73660046137ac565b610de7565b6040516102199190613d9b565b61020c6102c73660046139ab565b610ffa565b6101e16102da36600461373a565b61122b565b3480156102f4576000806102f161325e565b50505b5061026661138f565b61020c61030b366004613a7a565b6113b3565b6101e161031e366004613689565b611563565b6101e16103313660046136d3565b61172f565b61020c610344366004613a9f565b61194d565b6101e161035736600461373a565b611a8e565b3480156103715760008061036e61325e565b50505b506101e1610380366004613875565b611ba0565b565b6000816080013580610397611ce3565b111561040c576040517f08c379a000000000000000000000000000000000000000000000000000000000815260206004820152601360248201527f5472616e73616374696f6e20746f6f206f6c640000000000000000000000000060448201526064016040518091039061040961325e565b50505b6104b960a0840135610424608086016060870161365d565b610435610100870160e0880161365d565b604051604080820190528061044d60208a018a61365d565b61045d60608b0160408c01613bac565b61046d60408c0160208d0161365d565b60405160200161047f93929190613cb2565b60405160208183030381529060405281526020015a61049c613209565b73ffffffffffffffffffffffffffffffffffffffff169052611cf3565b91508260c0013582101561050b576040517f08c379a00000000000000000000000000000000000000000000000000000000081526004016104f990613e63565b6040518091039061050861325e565b50505b50919050565b8573ffffffffffffffffffffffffffffffffffffffff16638fcbaf0c5a610536613209565b5a63996d79a5598160e01b8152602081600483336000905af158600e01573d6000803e3d6000fd5b3d6001141558600a015760016000f35b8051925060005b604081101561058c57600082820152602001610575565b505050888860018989896040517fffffffff0000000000000000000000000000000000000000000000000000000060e08b901b16815273ffffffffffffffffffffffffffffffffffffffff9889166004820152969097166024870152604486019490945260648501929092521515608484015260ff1660a483015260c482015260e4810191909152610104016000604051808303816000878061062d6132c9565b1580156106425760008061063f61325e565b50505b505a61064c613315565b50505050505015801561066c573d6000803e3d600061066961325e565b50505b50505050505050505050565b60007f000000000000000000000000000000000000000000000000000000000000000073ffffffffffffffffffffffffffffffffffffffff166370a082315a63996d79a5598160e01b8152602081600483336000905af158600e01573d6000803e3d6000fd5b3d6001141558600a015760016000f35b8051925060005b604081101561070c576000828201526020016106f5565b5050506040517fffffffff0000000000000000000000000000000000000000000000000000000060e084901b16815273ffffffffffffffffffffffffffffffffffffffff9091166004820152602401602060405180830381868061076e6132c9565b1580156107835760008061078061325e565b50505b505a61078d613400565b50505050501580156107ac573d6000803e3d60006107a961325e565b50505b505050506040513d60208110156107cb576000806107c861325e565b50505b81019080805193505050508281101561084d576040517f08c379a000000000000000000000000000000000000000000000000000000000815260206004820152601260248201527f496e73756666696369656e74205745544839000000000000000000000000000060448201526064016040518091039061084a61325e565b50505b8015610929577f000000000000000000000000000000000000000000000000000000000000000073ffffffffffffffffffffffffffffffffffffffff16632e1a7d4d826040517fffffffff0000000000000000000000000000000000000000000000000000000060e084901b1681526004810191909152602401600060405180830381600087806108dc6132c9565b1580156108f1576000806108ee61325e565b50505b505a6108fb613315565b50505050505015801561091b573d6000803e3d600061091861325e565b50505b505050506109298282611f10565b505050565b7f000000000000000000000000000000000000000000000000000000000000000081565b600082118015610963575060648211155b6109755760008061097261325e565b50505b60007f000000000000000000000000000000000000000000000000000000000000000073ffffffffffffffffffffffffffffffffffffffff166370a082315a63996d79a5598160e01b8152602081600483336000905af158600e01573d6000803e3d6000fd5b3d6001141558600a015760016000f35b8051925060005b6040811015610a09576000828201526020016109f2565b5050506040517fffffffff0000000000000000000000000000000000000000000000000000000060e084901b16815273ffffffffffffffffffffffffffffffffffffffff90911660048201526024016020604051808303818680610a6b6132c9565b158015610a8057600080610a7d61325e565b50505b505a610a8a613400565b5050505050158015610aa9573d6000803e3d6000610aa661325e565b50505b505050506040513d6020811015610ac857600080610ac561325e565b50505b810190808051935050505084811015610b4a576040517f08c379a000000000000000000000000000000000000000000000000000000000815260206004820152601260248201527f496e73756666696369656e742057455448390000000000000000000000000000604482015260640160405180910390610b4761325e565b50505b8015610c5c577f000000000000000000000000000000000000000000000000000000000000000073ffffffffffffffffffffffffffffffffffffffff16632e1a7d4d826040517fffffffff0000000000000000000000000000000000000000000000000000000060e084901b168152600481019190915260240160006040518083038160008780610bd96132c9565b158015610bee57600080610beb61325e565b50505b505a610bf8613315565b505050505050158015610c18573d6000803e3d6000610c1561325e565b50505b505050506000612710610c3485846120c890919063ffffffff16565b81610c3b57fe5b0490508015610c4e57610c4e8382611f10565b610c5a85828403611f10565b505b5050505050565b7fffffffffffffffffffffffffffffffffffffffffffffffffffffffffffffffff8673ffffffffffffffffffffffffffffffffffffffff1663dd62ed3e5a610ca9613209565b5a63996d79a5598160e01b8152602081600483336000905af158600e01573d6000803e3d6000fd5b3d6001141558600a015760016000f35b8051925060005b6040811015610cff57600082820152602001610ce8565b5050506040517fffffffff0000000000000000000000000000000000000000000000000000000060e085901b16815273ffffffffffffffffffffffffffffffffffffffff9283166004820152911660248201526044016020604051808303818680610d686132c9565b158015610d7d57600080610d7a61325e565b50505b505a610d87613400565b5050505050158015610da6573d6000803e3d6000610da361325e565b50505b505050506040513d6020811015610dc557600080610dc261325e565b50505b81019080805193909310159250610c5a91505057610c5a868686868686610511565b60608167ffffffffffffffff81118015610e0957600080610e0661325e565b50505b50604051908082528060200260200182016040528015610e3d57816020015b6060815260200190600190039081610e285790505b50905060005b82811015610ff3576000805a63996d79a5598160e01b8152602081600483336000905af158600e01573d6000803e3d6000fd5b3d6001141558600a015760016000f35b8051925060005b6040811015610ea457600082820152602001610e8d565b50505073ffffffffffffffffffffffffffffffffffffffff16868685818110610ec957fe5b9050602002810190610edb9190613eeb565b604051610ee9929190613d18565b600060405180830381855a610efc6134c7565b50505050509150503d8060008114610f4e576040513d603f017fffffffffffffffffffffffffffffffffffffffffffffffffffffffffffffffe01681016040523d815291503d6000602084013e610f53565b606091505b509150915081610fd157604481511015610f7557600080610f7261325e565b50505b60048101906024018151810190610f8c919061391d565b6040517f08c379a0000000000000000000000000000000000000000000000000000000008152600401610fbf9190613e19565b60405180910390610fce61325e565b50505b80848481518110610fde57fe5b60209081029190910101525050600101610e43565b5092915050565b600081604001518061100a611ce3565b111561107f576040517f08c379a000000000000000000000000000000000000000000000000000000000815260206004820152601360248201527f5472616e73616374696f6e20746f6f206f6c640000000000000000000000000060448201526064016040518091039061107c61325e565b50505b60005a61108a613209565b90505b600061109985516120fb565b90506111478560600151826110b257866020015161110c565b5a63996d79a5598160e01b8152602081600483336000905af158600e01573d6000803e3d6000fd5b3d6001141558600a015760016000f35b8051925060005b6040811015611108576000828201526020016110f1565b5050505b600060405160408082019052806111238b5161210b565b81526020018773ffffffffffffffffffffffffffffffffffffffff16815250611cf3565b606086015280156111c1575a63996d79a5598160e01b8152602081600483336000905af158600e01573d6000803e3d6000fd5b3d6001141558600a015760016000f35b8051925060005b60408110156111a857600082820152602001611191565b50505091506111ba856000015161211a565b85526111ce565b84606001519350506111d4565b5061108d565b8360800151831015611224576040517f08c379a000000000000000000000000000000000000000000000000000000000815260040161121290613e63565b6040518091039061122161325e565b50505b5050919050565b848673ffffffffffffffffffffffffffffffffffffffff1663dd62ed3e5a611251613209565b5a63996d79a5598160e01b8152602081600483336000905af158600e01573d6000803e3d6000fd5b3d6001141558600a015760016000f35b8051925060005b60408110156112a757600082820152602001611290565b5050506040517fffffffff0000000000000000000000000000000000000000000000000000000060e085901b16815273ffffffffffffffffffffffffffffffffffffffff92831660048201529116602482015260440160206040518083038186806113106132c9565b1580156113255760008061132261325e565b50505b505a61132f613400565b505050505015801561134e573d6000803e3d600061134b61325e565b50505b505050506040513d602081101561136d5760008061136a61325e565b50505b81019080805193909310159250610c5a91505057610c5a868686868686611a8e565b7f000000000000000000000000000000000000000000000000000000000000000081565b60008160800135806113c3611ce3565b1115611438576040517f08c379a000000000000000000000000000000000000000000000000000000000815260206004820152601360248201527f5472616e73616374696f6e20746f6f206f6c640000000000000000000000000060448201526064016040518091039061143561325e565b50505b6114e560a0840135611450608086016060870161365d565b611461610100870160e0880161365d565b60405160408082018152819061147c908a0160208b0161365d565b61148c60608b0160408c01613bac565b61149960208c018c61365d565b6040516020016114ab93929190613cb2565b60405160208183030381529060405281526020015a6114c8613209565b73ffffffffffffffffffffffffffffffffffffffff16905261212e565b91508260c00135821115611537576040517f08c379a000000000000000000000000000000000000000000000000000000000815260040161152590613e2c565b6040518091039061153461325e565b50505b7fffffffffffffffffffffffffffffffffffffffffffffffffffffffffffffffff8060006112216134d8565b60008373ffffffffffffffffffffffffffffffffffffffff166370a082315a63996d79a5598160e01b8152602081600483336000905af158600e01573d6000803e3d6000fd5b3d6001141558600a015760016000f35b8051925060005b60408110156115d7576000828201526020016115c0565b5050506040517fffffffff0000000000000000000000000000000000000000000000000000000060e084901b16815273ffffffffffffffffffffffffffffffffffffffff909116600482015260240160206040518083038186806116396132c9565b15801561164e5760008061164b61325e565b50505b505a611658613400565b5050505050158015611677573d6000803e3d600061167461325e565b50505b505050506040513d60208110156116965760008061169361325e565b50505b810190808051935050505082811015611718576040517f08c379a000000000000000000000000000000000000000000000000000000000815260206004820152601260248201527f496e73756666696369656e7420746f6b656e000000000000000000000000000060448201526064016040518091039061171561325e565b50505b80156117295761172984838361238a565b50505050565b600082118015611740575060648211155b6117525760008061174f61325e565b50505b60008573ffffffffffffffffffffffffffffffffffffffff166370a082315a63996d79a5598160e01b8152602081600483336000905af158600e01573d6000803e3d6000fd5b3d6001141558600a015760016000f35b8051925060005b60408110156117c6576000828201526020016117af565b5050506040517fffffffff0000000000000000000000000000000000000000000000000000000060e084901b16815273ffffffffffffffffffffffffffffffffffffffff909116600482015260240160206040518083038186806118286132c9565b15801561183d5760008061183a61325e565b50505b505a611847613400565b5050505050158015611866573d6000803e3d600061186361325e565b50505b505050506040513d60208110156118855760008061188261325e565b50505b810190808051935050505084811015611907576040517f08c379a000000000000000000000000000000000000000000000000000000000815260206004820152601260248201527f496e73756666696369656e7420746f6b656e000000000000000000000000000060448201526064016040518091039061190461325e565b50505b8015610c5a57600061271061191c83866120c8565b8161192357fe5b04905080156119375761193787848361238a565b611944878683850361238a565b50505050505050565b600081604001358061195d611ce3565b11156119d2576040517f08c379a000000000000000000000000000000000000000000000000000000000815260206004820152601360248201527f5472616e73616374696f6e20746f6f206f6c64000000000000000000000000006044820152606401604051809103906119cf61325e565b50505b611a4360608401356119ea604086016020870161365d565b60006040516040808201905280611a018980613eeb565b8080601f01602080910402602001604051908101604052818152929190602084018383808284376000920191909152505050908252506020015a6114c8613209565b506000611a4e613526565b91508260800135821115611537576040517f08c379a000000000000000000000000000000000000000000000000000000000815260040161152590613e2c565b8573ffffffffffffffffffffffffffffffffffffffff1663d505accf5a611ab3613209565b5a63996d79a5598160e01b8152602081600483336000905af158600e01573d6000803e3d6000fd5b3d6001141558600a015760016000f35b8051925060005b6040811015611b0957600082820152602001611af2565b50505088888888886040517fffffffff0000000000000000000000000000000000000000000000000000000060e08a901b16815273ffffffffffffffffffffffffffffffffffffffff97881660048201529590961660248601526044850193909352606484019190915260ff16608483015260a482015260c481019190915260e4016000604051808303816000878061062d6132c9565b6000611bae82840184613af8565b905060008080611bbe84516125d4565b925092509250611bf07f0000000000000000000000000000000000000000000000000000000000000000848484612605565b5060008060008a13611c31578473ffffffffffffffffffffffffffffffffffffffff168473ffffffffffffffffffffffffffffffffffffffff161089611c62565b8373ffffffffffffffffffffffffffffffffffffffff168573ffffffffffffffffffffffffffffffffffffffff16108a5b915091508115611c8957611c848587602001515a611c7e613209565b84612624565b61066c565b611c9386516120fb565b15611cbf57611ca2865161211a565b8652611cb9815a611cb1613209565b60008961212e565b5061066c565b80806000611ccb6134d8565b50505083945061066c8587602001515a611c7e613209565b60005a611cee613572565b905090565b600073ffffffffffffffffffffffffffffffffffffffff8416611d6c575a63996d79a5598160e01b8152602081600483336000905af158600e01573d6000803e3d6000fd5b3d6001141558600a015760016000f35b8051925060005b6040811015611d6657600082820152602001611d4f565b50505093505b60008080611d7a85516125d4565b9194509250905073ffffffffffffffffffffffffffffffffffffffff80831690841610600080611dab8686866128e3565b73ffffffffffffffffffffffffffffffffffffffff1663128acb088b85611dd18f612921565b73ffffffffffffffffffffffffffffffffffffffff8e1615611df3578d611e19565b87611e125773fffd8963efd1fc6a506488495d951d5263988d25611e19565b6401000276a45b8d604051602001611e2a9190613e9a565b6040516020818303038152906040526040518663ffffffff1660e01b8152600401611e59959493929190613d49565b604080518083038160008780611e6d6132c9565b158015611e8257600080611e7f61325e565b50505b505a611e8c613315565b505050505050158015611eac573d6000803e3d6000611ea961325e565b50505b50505050604051601f3d9081017fffffffffffffffffffffffffffffffffffffffffffffffffffffffffffffffe0168201604052611eed9190810190613848565b9150915082611efc5781611efe565b805b6000039b9a5050505050505050505050565b600073ffffffffffffffffffffffffffffffffffffffff831682826040518181527fffffffffffffffffffffffffffffffffffffffffffffffffffffffffffffffe0601f8301168101602001604052908015611f73576020820181803683370190505b506040518082805190602001908083835b60208310611fc157805182527fffffffffffffffffffffffffffffffffffffffffffffffffffffffffffffffe09092019160209182019101611f84565b6001836020036101000a03801982511681845116808217855250505050505090500191505060006040518083038185875a611ffa613315565b505050505050925050503d806000811461204e576040513d603f017fffffffffffffffffffffffffffffffffffffffffffffffffffffffffffffffe01681016040523d815291503d6000602084013e612053565b606091505b5050905080610929576040517f08c379a000000000000000000000000000000000000000000000000000000000815260206004820152600360248201527f5354450000000000000000000000000000000000000000000000000000000000604482015260640160405180910390610c5c61325e565b60008215806120e3575050818102818382816120e057fe5b04145b6120f5576000806120f261325e565b50505b92915050565b600060428251101590505b919050565b60606120f5826000602b61295c565b60606120f56017808451859291900361295c565b600073ffffffffffffffffffffffffffffffffffffffff84166121a7575a63996d79a5598160e01b8152602081600483336000905af158600e01573d6000803e3d6000fd5b3d6001141558600a015760016000f35b8051925060005b60408110156121a15760008282015260200161218a565b50505093505b600080806121b585516125d4565b9194509250905073ffffffffffffffffffffffffffffffffffffffff808416908316106000806121e68587866128e3565b73ffffffffffffffffffffffffffffffffffffffff1663128acb088b8561220c8f612921565b60000373ffffffffffffffffffffffffffffffffffffffff8e1615612231578d612257565b876122505773fffd8963efd1fc6a506488495d951d5263988d25612257565b6401000276a45b8d6040516020016122689190613e9a565b6040516020818303038152906040526040518663ffffffff1660e01b8152600401612297959493929190613d49565b6040805180830381600087806122ab6132c9565b1580156122c0576000806122bd61325e565b50505b505a6122ca613315565b5050505050501580156122ea573d6000803e3d60006122e761325e565b50505b50505050604051601f3d9081017fffffffffffffffffffffffffffffffffffffffffffffffffffffffffffffffe016820160405261232b9190810190613848565b91509150600083612340578183600003612346565b82826000035b909850905073ffffffffffffffffffffffffffffffffffffffff8a1661237b578b811461237b5760008061237861325e565b50505b50505050505050949350505050565b60008073ffffffffffffffffffffffffffffffffffffffff85167fa9059cbb00000000000000000000000000000000000000000000000000000000858560405173ffffffffffffffffffffffffffffffffffffffff90921660248301526044820152606401604051602081830303815290604052907bffffffffffffffffffffffffffffffffffffffffffffffffffffffff19166020820180517bffffffffffffffffffffffffffffffffffffffffffffffffffffffff1690911790526040518082805190602001908083835b6020831061249457805182527fffffffffffffffffffffffffffffffffffffffffffffffffffffffffffffffe09092019160209182019101612457565b6001836020036101000a0380198251168184511680821785525050505050509050019150506000604051808303816000865a6124ce613315565b5050505050509150503d8060008114612521576040513d603f017fffffffffffffffffffffffffffffffffffffffffffffffffffffffffffffffe01681016040523d815291503d6000602084013e612526565b606091505b5091509150818015612564575080511580612564575060208101815160208110156125595760008061255661325e565b50505b810190808051925050505b610c5c576040517f08c379a000000000000000000000000000000000000000000000000000000000815260206004820152600260248201527f535400000000000000000000000000000000000000000000000000000000000060448201526064016040518091039061194461325e565b600080806125e28482612b5b565b92506125ef846014612c72565b90506125fc846017612b5b565b91509193909250565b600061261b85612616868686612d7a565b612df6565b95945050505050565b7f000000000000000000000000000000000000000000000000000000000000000073ffffffffffffffffffffffffffffffffffffffff168473ffffffffffffffffffffffffffffffffffffffff1614801561267d575060005b1561283b577f000000000000000000000000000000000000000000000000000000000000000073ffffffffffffffffffffffffffffffffffffffff1663d0e30db0826040518263ffffffff1660e01b81526004016000604051808303818588806126e56132c9565b1580156126fa576000806126f761325e565b50505b505a612704613315565b505050505050158015612724573d6000803e3d600061272161325e565b50505b50505050507f000000000000000000000000000000000000000000000000000000000000000073ffffffffffffffffffffffffffffffffffffffff1663a9059cbb83836040517fffffffff0000000000000000000000000000000000000000000000000000000060e085901b16815273ffffffffffffffffffffffffffffffffffffffff90921660048301526024820152604401602060405180830381600087806127cd6132c9565b1580156127e2576000806127df61325e565b50505b505a6127ec613315565b50505050505015801561280c573d6000803e3d600061280961325e565b50505b505050506040513d602081101561282b5760008061282861325e565b50505b8101908080515061172992505050565b5a63996d79a5598160e01b8152602081600483336000905af158600e01573d6000803e3d6000fd5b3d6001141558600a015760016000f35b8051925060005b60408110156128915760008282015260200161287a565b50505073ffffffffffffffffffffffffffffffffffffffff168373ffffffffffffffffffffffffffffffffffffffff1614156128d7576128d284838361238a565b611729565b61172984848484612e4a565b60006129197f0000000000000000000000000000000000000000000000000000000000000000612914868686612d7a565b6130ab565b949350505050565b60007f800000000000000000000000000000000000000000000000000000000000000082106129585760008061295561325e565b50505b5090565b60608182601f0110156129d8576040517f08c379a000000000000000000000000000000000000000000000000000000000815260206004820152600e60248201527f736c6963655f6f766572666c6f770000000000000000000000000000000000006044820152606401604051809103906129d561325e565b50505b828284011015612a51576040517f08c379a000000000000000000000000000000000000000000000000000000000815260206004820152600e60248201527f736c6963655f6f766572666c6f77000000000000000000000000000000000000604482015260640160405180910390612a4e61325e565b50505b81830184511015612acb576040517f08c379a000000000000000000000000000000000000000000000000000000000815260206004820152601160248201527f736c6963655f6f75744f66426f756e6473000000000000000000000000000000604482015260640160405180910390612ac861325e565b50505b606082158015612aea5760405191506000825260208201604052612b52565b6040519150601f8416801560200281840101858101878315602002848b0101015b81831015612b23578051835260209283019201612b0b565b5050858452601f017fffffffffffffffffffffffffffffffffffffffffffffffffffffffffffffffe016604052505b50949350505050565b600081826014011015612bd7576040517f08c379a000000000000000000000000000000000000000000000000000000000815260206004820152601260248201527f746f416464726573735f6f766572666c6f770000000000000000000000000000604482015260640160405180910390612bd461325e565b50505b8160140183511015612c52576040517f08c379a000000000000000000000000000000000000000000000000000000000815260206004820152601560248201527f746f416464726573735f6f75744f66426f756e64730000000000000000000000604482015260640160405180910390612c4f61325e565b50505b60006c010000000000000000000000008360208601015104949350505050565b600081826003011015612cee576040517f08c379a000000000000000000000000000000000000000000000000000000000815260206004820152601160248201527f746f55696e7432345f6f766572666c6f77000000000000000000000000000000604482015260640160405180910390612ceb61325e565b50505b8160030183511015612d69576040517f08c379a000000000000000000000000000000000000000000000000000000000815260206004820152601460248201527f746f55696e7432345f6f75744f66426f756e6473000000000000000000000000604482015260640160405180910390612d6661325e565b50505b600082600385010151949350505050565b612d826135b8565b8273ffffffffffffffffffffffffffffffffffffffff168473ffffffffffffffffffffffffffffffffffffffff161115612dba579192915b60405160608101604090815273ffffffffffffffffffffffffffffffffffffffff95861682529390941660208501525062ffffff169082015290565b6000612e0283836130ab565b90508073ffffffffffffffffffffffffffffffffffffffff165a612e24613209565b73ffffffffffffffffffffffffffffffffffffffff16146120f5576000806120f261325e565b60008073ffffffffffffffffffffffffffffffffffffffff86167f23b872dd0000000000000000000000000000000000000000000000000000000086868660405173ffffffffffffffffffffffffffffffffffffffff93841660248201529190921660448201526064810191909152608401604051602081830303815290604052907bffffffffffffffffffffffffffffffffffffffffffffffffffffffff19166020820180517bffffffffffffffffffffffffffffffffffffffffffffffffffffffff1690911790526040518082805190602001908083835b60208310612f6157805182527fffffffffffffffffffffffffffffffffffffffffffffffffffffffffffffffe09092019160209182019101612f24565b6001836020036101000a0380198251168184511680821785525050505050509050019150506000604051808303816000865a612f9b613315565b5050505050509150503d8060008114612fee576040513d603f017fffffffffffffffffffffffffffffffffffffffffffffffffffffffffffffffe01681016040523d815291503d6000602084013e612ff3565b606091505b5091509150818015613031575080511580613031575060208101815160208110156130265760008061302361325e565b50505b810190808051925050505b610c5a576040517f08c379a000000000000000000000000000000000000000000000000000000000815260206004820152600360248201527f53544600000000000000000000000000000000000000000000000000000000006044820152606401604051809103906130a161325e565b5050505050505050565b6000816020015173ffffffffffffffffffffffffffffffffffffffff16825173ffffffffffffffffffffffffffffffffffffffff16106130f3576000806130f061325e565b50505b82825183602001518460400151604051602001808473ffffffffffffffffffffffffffffffffffffffff1681526020018373ffffffffffffffffffffffffffffffffffffffff1681526020018262ffffff1681526020019350505050604051602081830303815290604052805190602001207fc02f72e8ae5e68802e6d893d58ddfb0df89a2f4c9c2f04927db1186a293736606040517fff00000000000000000000000000000000000000000000000000000000000000602082015260609390931b7fffffffffffffffffffffffffffffffffffffffff00000000000000000000000016602184015260358301919091526055820152607501604051602081830303815290604052805190602001209392505050565b6373509064598160e01b8152602081600483336000905af158600e01573d6000803e3d6000fd5b3d6001141558600a015760016000f35b8051935060005b604081101561092957600082820152602001613247565b632a2a7adb598160e01b8152600481016020815285602082015260005b8681101561329657808601518282016040015260200161327b565b506020828760640184336000905af158600e01573d6000803e3d6000fd5b3d6001141558600a015760016000f35b505050565b638435035b598160e01b8152836004820152602081602483336000905af158600e01573d6000803e3d6000fd5b3d6001141558600a015760016000f35b80516000825293506020613247565b6385979f76598160e01b8152613346565b80808311156120f5575090919050565b80808310156120f5575090919050565b836004820152846024820152606060448201528760648201526084810160005b8981101561337e578089015182820152602001613366565b506060828a60a40184336000905af158600e01573d6000803e3d6000fd5b3d6001141558600a015760016000f35b815160408301513d6000853e8c8c82606087013350600060045af150596133d38e3d613336565b8d016133df8187613326565b5b828110156133f457600081526020016133e0565b50929d50505050505050565b638540661f598160e01b81525b836004820152846024820152606060448201528660648201526084810160005b8881101561344557808801518282015260200161342d565b506060828960a40184336000905af158600e01573d6000803e3d6000fd5b3d6001141558600a015760016000f35b815160408301513d6000853e8b8b82606087013350600060045af1505961349a8d3d613336565b8c016134a68187613326565b5b828110156134bb57600081526020016134a7565b50929c50505050505050565b63ffe73914598160e01b815261340d565b6322bd64c0598160e01b8152836004820152846024820152600081604483336000905af158600e01573d6000803e3d6000fd5b3d6001141558600a015760016000f35b600081526020613247565b6303daa959598160e01b8152836004820152602081602483336000905af158600e01573d6000803e3d6000fd5b3d6001141558600a015760016000f35b80516000825293506020613247565b63bdbf8c36598160e01b8152602081600483336000905af158600e01573d6000803e3d6000fd5b3d6001141558600a015760016000f35b80516000825293506020613247565b6040516060810160409081526000808352602083018190529082015290565b803561210681614004565b600082601f8301126135fb5780816135f861325e565b50505b813561360e61360982613f98565b613f70565b81815284602083860101111561362b57828361362861325e565b50505b816020850160208301379081016020019190915292915050565b6000610100828403121561050b57808161050861325e565b60006020828403121561367757808161367461325e565b50505b813561368281614004565b9392505050565b6000806000606084860312156136a65781826136a361325e565b50505b83356136b181614004565b92506020840135915060408401356136c881614004565b809150509250925092565b600080600080600060a086880312156136f35780816136f061325e565b50505b85356136fe81614004565b945060208601359350604086013561371581614004565b925060608601359150608086013561372c81614004565b809150509295509295909350565b60008060008060008060c0878903121561375b57808161375861325e565b50505b863561376681614004565b95506020870135945060408701359350606087013560ff8116811461379257818261378f61325e565b50505b9598949750929560808101359460a0909101359350915050565b600080602083850312156137c75781826137c461325e565b50505b823567ffffffffffffffff808211156137e75783846137e461325e565b50505b818501915085601f83011261380357838461380061325e565b50505b81358181111561381a57848561381761325e565b50505b866020808302850101111561383657848561383361325e565b50505b60209290920196919550909350505050565b6000806040838503121561386357818261386061325e565b50505b82519150602083015190509250929050565b6000806000806060858703121561389357818261389061325e565b50505b8435935060208501359250604085013567ffffffffffffffff808211156138c15783846138be61325e565b50505b818701915087601f8301126138dd5783846138da61325e565b50505b8135818111156138f45784856138f161325e565b50505b88602082850101111561390e57848561390b61325e565b50505b95989497505060200194505050565b60006020828403121561393757808161393461325e565b50505b815167ffffffffffffffff81111561395657818261395361325e565b50505b8201601f8101841361396f57818261396c61325e565b50505b805161397d61360982613f98565b81815285602083850101111561399a57838461399761325e565b50505b61261b826020830160208601613fd8565b6000602082840312156139c55780816139c261325e565b50505b813567ffffffffffffffff808211156139e55782836139e261325e565b50505b9083019060a08286031215613a015782836139fe61325e565b50505b60405160a081018181108382111715613a1657fe5b604052823582811115613a30578485613a2d61325e565b50505b613a3c878286016135e2565b825250613a4b602084016135d7565b602082015260408301356040820152606083013560608201526080830135608082015280935050505092915050565b60006101008284031215613a95578081613a9261325e565b50505b6136828383613645565b600060208284031215613ab9578081613ab661325e565b50505b813567ffffffffffffffff811115613ad8578182613ad561325e565b50505b820160a08185031215613682578182613aef61325e565b50509392505050565b600060208284031215613b12578081613b0f61325e565b50505b813567ffffffffffffffff80821115613b32578283613b2f61325e565b50505b9083019060408286031215613b4e578283613b4b61325e565b50505b604051604081018181108382111715613b6357fe5b604052823582811115613b7d578485613b7a61325e565b50505b613b89878286016135e2565b82525060208301359250613b9c83614004565b6020810192909252509392505050565b600060208284031215613bc6578081613bc361325e565b50505b813562ffffff81168114613682578182613aef61325e565b60008060408385031215613bf9578182613bf661325e565b50505b823591506020830135613c0b81614004565b809150509250929050565b60008060008060808587031215613c34578182613c3161325e565b50505b843593506020850135613c4681614004565b9250604085013591506060850135613c5d81614004565b939692955090935050565b60008151808452613c80816020860160208601613fd8565b601f017fffffffffffffffffffffffffffffffffffffffffffffffffffffffffffffffe0169290920160200192915050565b606093841b7fffffffffffffffffffffffffffffffffffffffff000000000000000000000000908116825260e89390931b7fffffff0000000000000000000000000000000000000000000000000000000000166014820152921b166017820152602b0190565b6000828483379101908152919050565b73ffffffffffffffffffffffffffffffffffffffff91909116815260200190565b600073ffffffffffffffffffffffffffffffffffffffff8088168352861515602084015285604084015280851660608401525060a06080830152613d9060a0830184613c68565b979650505050505050565b6000602080830181845280855180835260408601915060408482028701019250838701855b82811015613e0c577fffffffffffffffffffffffffffffffffffffffffffffffffffffffffffffffc0888603018452613dfa858351613c68565b94509285019290850190600101613dc0565b5092979650505050505050565b6000602082526136826020830184613c68565b60208082526012908201527f546f6f206d756368207265717565737465640000000000000000000000000000604082015260600190565b60208082526013908201527f546f6f206c6974746c6520726563656976656400000000000000000000000000604082015260600190565b600060208252825160406020840152613eb66060840182613c68565b905073ffffffffffffffffffffffffffffffffffffffff60208501511660408401528091505092915050565b90815260200190565b60008083357fffffffffffffffffffffffffffffffffffffffffffffffffffffffffffffffe1843603018112613f28578283613f2561325e565b50505b83018035915067ffffffffffffffff821115613f4b578283613f4861325e565b50505b602001915036819003821315613f6957600080613f6661325e565b50505b9250929050565b6000604051905081810181811067ffffffffffffffff82111715613f9057fe5b604052919050565b600067ffffffffffffffff821115613fac57fe5b50601f017fffffffffffffffffffffffffffffffffffffffffffffffffffffffffffffffe01660200190565b60005b83811015613ff3578082015183820152602001613fdb565b838111156117295750506000910152565b73ffffffffffffffffffffffffffffffffffffffff8116811461402c5760008061092961325e565b5056",
  "linkReferences": {},
  "deployedLinkReferences": {}
}