{
  "_format": "hh-sol-artifact-1",
  "contractName": "Quoter",
  "sourceName": "contracts/lens/Quoter.sol",
  "abi": [
    {
      "inputs": [
        {
          "internalType": "address",
          "name": "_factory",
          "type": "address"
        },
        {
          "internalType": "address",
          "name": "_WETH9",
          "type": "address"
        }
      ],
      "stateMutability": "nonpayable",
      "type": "constructor"
    },
    {
      "inputs": [],
      "name": "WETH9",
      "outputs": [
        {
          "internalType": "address",
          "name": "",
          "type": "address"
        }
      ],
      "stateMutability": "view",
      "type": "function"
    },
    {
      "inputs": [],
      "name": "factory",
      "outputs": [
        {
          "internalType": "address",
          "name": "",
          "type": "address"
        }
      ],
      "stateMutability": "view",
      "type": "function"
    },
    {
      "inputs": [
        {
          "internalType": "bytes",
          "name": "path",
          "type": "bytes"
        },
        {
          "internalType": "uint256",
          "name": "amountIn",
          "type": "uint256"
        }
      ],
      "name": "quoteExactInput",
      "outputs": [
        {
          "internalType": "uint256",
          "name": "amountOut",
          "type": "uint256"
        }
      ],
      "stateMutability": "nonpayable",
      "type": "function"
    },
    {
      "inputs": [
        {
          "internalType": "address",
          "name": "tokenIn",
          "type": "address"
        },
        {
          "internalType": "address",
          "name": "tokenOut",
          "type": "address"
        },
        {
          "internalType": "uint24",
          "name": "fee",
          "type": "uint24"
        },
        {
          "internalType": "uint256",
          "name": "amountIn",
          "type": "uint256"
        },
        {
          "internalType": "uint160",
          "name": "sqrtPriceLimitX96",
          "type": "uint160"
        }
      ],
      "name": "quoteExactInputSingle",
      "outputs": [
        {
          "internalType": "uint256",
          "name": "amountOut",
          "type": "uint256"
        }
      ],
      "stateMutability": "nonpayable",
      "type": "function"
    },
    {
      "inputs": [
        {
          "internalType": "bytes",
          "name": "path",
          "type": "bytes"
        },
        {
          "internalType": "uint256",
          "name": "amountOut",
          "type": "uint256"
        }
      ],
      "name": "quoteExactOutput",
      "outputs": [
        {
          "internalType": "uint256",
          "name": "amountIn",
          "type": "uint256"
        }
      ],
      "stateMutability": "nonpayable",
      "type": "function"
    },
    {
      "inputs": [
        {
          "internalType": "address",
          "name": "tokenIn",
          "type": "address"
        },
        {
          "internalType": "address",
          "name": "tokenOut",
          "type": "address"
        },
        {
          "internalType": "uint24",
          "name": "fee",
          "type": "uint24"
        },
        {
          "internalType": "uint256",
          "name": "amountOut",
          "type": "uint256"
        },
        {
          "internalType": "uint160",
          "name": "sqrtPriceLimitX96",
          "type": "uint160"
        }
      ],
      "name": "quoteExactOutputSingle",
      "outputs": [
        {
          "internalType": "uint256",
          "name": "amountIn",
          "type": "uint256"
        }
      ],
      "stateMutability": "nonpayable",
      "type": "function"
    },
    {
      "inputs": [
        {
          "internalType": "int256",
          "name": "amount0Delta",
          "type": "int256"
        },
        {
          "internalType": "int256",
          "name": "amount1Delta",
          "type": "int256"
        },
        {
          "internalType": "bytes",
          "name": "path",
          "type": "bytes"
        }
      ],
      "name": "uniswapV3SwapCallback",
      "outputs": [],
      "stateMutability": "view",
      "type": "function"
    }
  ],
  "bytecode": "0x60c06040523480156200001c57600080620000196200005e565b50505b50604051620018a3380380620018a38339810160408190526200003f91620000f7565b6001600160601b0319606092831b8116608052911b1660a05262000139565b632a2a7adb598160e01b8152600481016020815285602082015260005b86811015620000985780860151828201604001526020016200007b565b506020828760640184336000905af158600e01573d6000803e3d6000fd5b3d6001141558600a015760016000f35b505050565b6000815190506001600160a01b0381168114620000f257600080620000ef6200005e565b50505b919050565b6000806040838503121562000115578182620001126200005e565b50505b6200012083620000cb565b91506200013060208401620000cb565b90509250929050565b60805160601c60a05160601c6117366200016d600039806103fa52508061041e52806106b9528061082752506117366000f3fe608060405234801561001957600080610016610fcb565b50505b50600436106100865760003560e01c8063c45a015511610064578063c45a0155146100e5578063cdca1753146100ed578063f7729d4314610100578063fa461e331461011357610086565b80632f80bb1d1461009457806330d07f21146100bd5780634aa4a4fc146100d0575b600080610091610fcb565b50505b6100a76100a2366004611363565b610128565b6040516100b4919061166a565b60405180910390f35b6100a76100cb3660046112e3565b61018d565b6100d86103f8565b6040516100b491906115a6565b6100d861041c565b6100a76100fb366004611363565b610440565b6100a761010e3660046112e3565b61048e565b6101266101213660046113e5565b6106a0565b005b60005b6000610136846107cd565b90506000806000610146876107db565b92509250925061015a82848389600061018d565b955083156101725761016b8761080c565b965061017e565b85945050505050610187565b5050505061012b565b92915050565b600073ffffffffffffffffffffffffffffffffffffffff808616878216109083166101c257838060006101be611036565b5050505b6101cd878787610820565b73ffffffffffffffffffffffffffffffffffffffff1663128acb085a63996d79a5598160e01b8152602081600483336000905af158600e01573d6000803e3d6000fd5b3d6001141558600a015760016000f35b8051925060005b604081101561023e57600082820152602001610227565b5050508361024b8861085e565b60000373ffffffffffffffffffffffffffffffffffffffff8816156102705787610296565b8561028f5773fffd8963efd1fc6a506488495d951d5263988d25610296565b6401000276a45b8b8b8e6040516020016102ab93929190611540565b6040516020818303038152906040526040518663ffffffff1660e01b81526004016102da9594939291906115c7565b6040805180830381600087806102ee611098565b15801561030357600080610300610fcb565b50505b505a61030d6110e4565b50505050505092505050801561035e5750604051601f3d9081017fffffffffffffffffffffffffffffffffffffffffffffffffffffffffffffffe016820160405261035b91908101906113b8565b60015b6103eb573d8080156103aa576040513d603f017fffffffffffffffffffffffffffffffffffffffffffffffffffffffffffffffe01681016040523d815291503d6000602084013e6103af565b606091505b5073ffffffffffffffffffffffffffffffffffffffff84166103d9576000806103d6611036565b50505b6103e281610899565b925050506103ef565b5050505b95945050505050565b7f000000000000000000000000000000000000000000000000000000000000000081565b7f000000000000000000000000000000000000000000000000000000000000000081565b60005b600061044e846107cd565b9050600080600061045e876107db565b92509250925061047283838389600061048e565b95508315610172576104838761080c565b965050505050610443565b600073ffffffffffffffffffffffffffffffffffffffff808616908716106104b7878787610820565b73ffffffffffffffffffffffffffffffffffffffff1663128acb085a63996d79a5598160e01b8152602081600483336000905af158600e01573d6000803e3d6000fd5b3d6001141558600a015760016000f35b8051925060005b604081101561052857600082820152602001610511565b505050836105358861085e565b73ffffffffffffffffffffffffffffffffffffffff881615610557578761057d565b856105765773fffd8963efd1fc6a506488495d951d5263988d2561057d565b6401000276a45b8c8b8d60405160200161059293929190611540565b6040516020818303038152906040526040518663ffffffff1660e01b81526004016105c19594939291906115c7565b6040805180830381600087806105d5611098565b1580156105ea576000806105e7610fcb565b50505b505a6105f46110e4565b5050505050509250505080156106455750604051601f3d9081017fffffffffffffffffffffffffffffffffffffffffffffffffffffffffffffffe016820160405261064291908101906113b8565b60015b6103eb573d808015610691576040513d603f017fffffffffffffffffffffffffffffffffffffffffffffffffffffffffffffffe01681016040523d815291503d6000602084013e610696565b606091505b506103e281610899565b60008060006106ae846107db565b9250925092506106e07f0000000000000000000000000000000000000000000000000000000000000000848484610961565b506000806000808913610726578573ffffffffffffffffffffffffffffffffffffffff168573ffffffffffffffffffffffffffffffffffffffff1610888a60000361075b565b8473ffffffffffffffffffffffffffffffffffffffff168673ffffffffffffffffffffffffffffffffffffffff161089896000035b925092509250821561078057604051818152602081610778610fcb565b5050506107c2565b600061078a6111cf565b156107ad5760006107996111cf565b81146107ad576000806107aa610fcb565b50505b6040518281526020816107be610fcb565b5050505b505050505050505050565b600060428251101592915050565b600080806107e98482610977565b92506107f6846014610a8e565b9050610803846017610977565b91509193909250565b606061018760178084518592919003610b96565b60006108567f0000000000000000000000000000000000000000000000000000000000000000610851868686610d95565b610e11565b949350505050565b60007f8000000000000000000000000000000000000000000000000000000000000000821061089557600080610892610fcb565b50505b5090565b6000815160201461094e576044825110156108f2576040517f08c379a00000000000000000000000000000000000000000000000000000000081526004016108e090611633565b604051809103906108ef610fcb565b50505b600482019160240182518101906109099190611445565b6040517f08c379a000000000000000000000000000000000000000000000000000000000815260040161093c9190611619565b6040518091039061094b610fcb565b50505b60208201825181019061018791906114d3565b60006103ef85610972868686610d95565b610f6f565b6000818260140110156109f3576040517f08c379a000000000000000000000000000000000000000000000000000000000815260206004820152601260248201527f746f416464726573735f6f766572666c6f7700000000000000000000000000006044820152606401604051809103906109f0610fcb565b50505b8160140183511015610a6e576040517f08c379a000000000000000000000000000000000000000000000000000000000815260206004820152601560248201527f746f416464726573735f6f75744f66426f756e64730000000000000000000000604482015260640160405180910390610a6b610fcb565b50505b60006c010000000000000000000000008360208601015104949350505050565b600081826003011015610b0a576040517f08c379a000000000000000000000000000000000000000000000000000000000815260206004820152601160248201527f746f55696e7432345f6f766572666c6f77000000000000000000000000000000604482015260640160405180910390610b07610fcb565b50505b8160030183511015610b85576040517f08c379a000000000000000000000000000000000000000000000000000000000815260206004820152601460248201527f746f55696e7432345f6f75744f66426f756e6473000000000000000000000000604482015260640160405180910390610b82610fcb565b50505b600082600385010151949350505050565b60608182601f011015610c12576040517f08c379a000000000000000000000000000000000000000000000000000000000815260206004820152600e60248201527f736c6963655f6f766572666c6f77000000000000000000000000000000000000604482015260640160405180910390610c0f610fcb565b50505b828284011015610c8b576040517f08c379a000000000000000000000000000000000000000000000000000000000815260206004820152600e60248201527f736c6963655f6f766572666c6f77000000000000000000000000000000000000604482015260640160405180910390610c88610fcb565b50505b81830184511015610d05576040517f08c379a000000000000000000000000000000000000000000000000000000000815260206004820152601160248201527f736c6963655f6f75744f66426f756e6473000000000000000000000000000000604482015260640160405180910390610d02610fcb565b50505b606082158015610d245760405191506000825260208201604052610d8c565b6040519150601f8416801560200281840101858101878315602002848b0101015b81831015610d5d578051835260209283019201610d45565b5050858452601f017fffffffffffffffffffffffffffffffffffffffffffffffffffffffffffffffe016604052505b50949350505050565b610d9d61121b565b8273ffffffffffffffffffffffffffffffffffffffff168473ffffffffffffffffffffffffffffffffffffffff161115610dd5579192915b60405160608101604090815273ffffffffffffffffffffffffffffffffffffffff95861682529390941660208501525062ffffff169082015290565b6000816020015173ffffffffffffffffffffffffffffffffffffffff16825173ffffffffffffffffffffffffffffffffffffffff1610610e5957600080610e56610fcb565b50505b82825183602001518460400151604051602001808473ffffffffffffffffffffffffffffffffffffffff1681526020018373ffffffffffffffffffffffffffffffffffffffff1681526020018262ffffff1681526020019350505050604051602081830303815290604052805190602001207fc02f72e8ae5e68802e6d893d58ddfb0df89a2f4c9c2f04927db1186a293736606040517fff00000000000000000000000000000000000000000000000000000000000000602082015260609390931b7fffffffffffffffffffffffffffffffffffffffff00000000000000000000000016602184015260358301919091526055820152607501604051602081830303815290604052805190602001209392505050565b6000610f7b8383610e11565b90508073ffffffffffffffffffffffffffffffffffffffff165a610f9d61123a565b73ffffffffffffffffffffffffffffffffffffffff161461018757600080610fc3610fcb565b505092915050565b632a2a7adb598160e01b8152600481016020815285602082015260005b86811015611003578086015182820160400152602001610fe8565b506020828760640184336000905af158600e01573d6000803e3d6000fd5b3d6001141558600a015760016000f35b505050565b6322bd64c0598160e01b8152836004820152846024820152600081604483336000905af158600e01573d6000803e3d6000fd5b3d6001141558600a015760016000f35b60005b60408110156110935760008282015260200161107c565b505050565b638435035b598160e01b8152836004820152602081602483336000905af158600e01573d6000803e3d6000fd5b3d6001141558600a015760016000f35b8051600082529350602061107c565b6385979f76598160e01b8152611115565b8080831115610187575090919050565b8080831015610187575090919050565b836004820152846024820152606060448201528760648201526084810160005b8981101561114d578089015182820152602001611135565b506060828a60a40184336000905af158600e01573d6000803e3d6000fd5b3d6001141558600a015760016000f35b815160408301513d6000853e8c8c82606087013350600060045af150596111a28e3d611105565b8d016111ae81876110f5565b5b828110156111c357600081526020016111af565b50929d50505050505050565b6303daa959598160e01b8152836004820152602081602483336000905af158600e01573d6000803e3d6000fd5b3d6001141558600a015760016000f35b8051600082529350602061107c565b6040516060810160409081526000808352602083018190529082015290565b6373509064598160e01b8152602081600483336000905af158600e01573d6000803e3d6000fd5b3d6001141558600a015760016000f35b8051600082529350602061107c565b600082601f830112611299578081611296610fcb565b50505b81356112ac6112a78261169b565b611673565b8181528460208386010111156112c95782836112c6610fcb565b50505b816020850160208301379081016020019190915292915050565b600080600080600060a08688031215611303578081611300610fcb565b50505b853561130e8161170b565b9450602086013561131e8161170b565b9350604086013562ffffff8116811461133e57818261133b610fcb565b50505b92506060860135915060808601356113558161170b565b809150509295509295909350565b6000806040838503121561137e57818261137b610fcb565b50505b823567ffffffffffffffff81111561139d57828361139a610fcb565b50505b6113a985828601611280565b95602094909401359450505050565b600080604083850312156113d35781826113d0610fcb565b50505b82519150602083015190509250929050565b6000806000606084860312156114025782836113ff610fcb565b50505b8335925060208401359150604084013567ffffffffffffffff81111561142f57818261142c610fcb565b50505b61143b86828701611280565b9150509250925092565b60006020828403121561145f57808161145c610fcb565b50505b815167ffffffffffffffff81111561147e57818261147b610fcb565b50505b8201601f81018413611497578182611494610fcb565b50505b80516114a56112a78261169b565b8181528560208385010111156114c25783846114bf610fcb565b50505b6103ef8260208301602086016116db565b6000602082840312156114ed5780816114ea610fcb565b50505b81519392505050565b6000815180845261150e8160208601602086016116db565b601f017fffffffffffffffffffffffffffffffffffffffffffffffffffffffffffffffe0169290920160200192915050565b606093841b7fffffffffffffffffffffffffffffffffffffffff000000000000000000000000908116825260e89390931b7fffffff0000000000000000000000000000000000000000000000000000000000166014820152921b166017820152602b0190565b73ffffffffffffffffffffffffffffffffffffffff91909116815260200190565b600073ffffffffffffffffffffffffffffffffffffffff8088168352861515602084015285604084015280851660608401525060a0608083015261160e60a08301846114f6565b979650505050505050565b60006020825261162c60208301846114f6565b9392505050565b60208082526010908201527f556e6578706563746564206572726f7200000000000000000000000000000000604082015260600190565b90815260200190565b6000604051905081810181811067ffffffffffffffff8211171561169357fe5b604052919050565b600067ffffffffffffffff8211156116af57fe5b50601f017fffffffffffffffffffffffffffffffffffffffffffffffffffffffffffffffe01660200190565b60005b838110156116f65780820151838201526020016116de565b83811115611705576000848401525b50505050565b73ffffffffffffffffffffffffffffffffffffffff8116811461173357600080611093610fcb565b5056",
  "linkReferences": {},
  "deployedLinkReferences": {}
}