{
  "_format": "hh-sol-artifact-1",
  "contractName": "NFTDescriptor",
  "sourceName": "contracts/libraries/NFTDescriptor.sol",
  "abi": [
    {
      "inputs": [
        {
          "components": [
            {
              "internalType": "uint256",
              "name": "tokenId",
              "type": "uint256"
            },
            {
              "internalType": "address",
              "name": "quoteTokenAddress",
              "type": "address"
            },
            {
              "internalType": "address",
              "name": "baseTokenAddress",
              "type": "address"
            },
            {
              "internalType": "string",
              "name": "quoteTokenSymbol",
              "type": "string"
            },
            {
              "internalType": "string",
              "name": "baseTokenSymbol",
              "type": "string"
            },
            {
              "internalType": "uint8",
              "name": "quoteTokenDecimals",
              "type": "uint8"
            },
            {
              "internalType": "uint8",
              "name": "baseTokenDecimals",
              "type": "uint8"
            },
            {
              "internalType": "bool",
              "name": "flipRatio",
              "type": "bool"
            },
            {
              "internalType": "int24",
              "name": "tickLower",
              "type": "int24"
            },
            {
              "internalType": "int24",
              "name": "tickUpper",
              "type": "int24"
            },
            {
              "internalType": "int24",
              "name": "tickCurrent",
              "type": "int24"
            },
            {
              "internalType": "int24",
              "name": "tickSpacing",
              "type": "int24"
            },
            {
              "internalType": "uint24",
              "name": "fee",
              "type": "uint24"
            },
            {
              "internalType": "address",
              "name": "poolAddress",
              "type": "address"
            }
          ],
          "internalType": "struct NFTDescriptor.ConstructTokenURIParams",
          "name": "params",
          "type": "tuple"
        }
      ],
      "name": "constructTokenURI",
      "outputs": [
        {
          "internalType": "string",
          "name": "",
          "type": "string"
        }
      ],
      "stateMutability": "pure",
      "type": "function"
    }
  ],
  "bytecode": "0x6158d162000082600b82828239805160001a6073146200001b57fe5b5a63996d79a5598160e01b8152602081600483336000905af158600e01573d6000803e3d6000fd5b3d6001141558600a015760016000f35b8051925060005b604081101562000073576000828201526020016200005a565b505050600052607381538281f3fe7300000000000000000000000000000000000000005a63996d79a5598160e01b8152602081600483336000905af158600e01573d6000803e3d6000fd5b3d6001141558600a015760016000f35b8051925060005b604081101561006a57600082820152602001610053565b5050501460806040526004361061008d5760003560e01c8063c49917d71461009b575b6000806100986139a4565b50505b6100ae6100a9366004613b4b565b6100c4565b6040516100bb9190614326565b60405180910390f35b606060006100df836100da856101800151610213565b610483565b905060006101136100f3856060015161053e565b610100866080015161053e565b61010e876101a00151610735565b61074b565b9050600061015e610124865161077d565b610131876080015161053e565b61013e8860200151610735565b61014b8960400151610735565b6101598a6101800151610213565b610862565b905060006101b86101b38751886020015189604001516101818b6060015161053e565b61018e8c6080015161053e565b61019c8d6101800151610213565b8d61010001518e61012001518f6101400151610898565b610a48565b90506101e8848484846040516020016101d49493929190613f6c565b604051602081830303815290604052610a48565b6040516020016101f891906142e1565b6040516020818303038152906040529450505050505b919050565b606062ffffff821661025a5760405160408082019052600281527f30250000000000000000000000000000000000000000000000000000000000006020820152905061020e565b816000805b62ffffff8316156102aa5760ff81161561027b57600101610294565b600a62ffffff84160662ffffff16600014610294576001015b600190910190600a62ffffff841604925061025f565b6102b2613a0f565b6000600584106103ab57600060046102cd8660ff8716610bfa565b10156102da5760016102dd565b60005b60ff90811691506102f19085166001610bfa565b6102fc866005610bfa565b106103285761032361031260ff86166001610bfa565b61031d876005610bfa565b90610bfa565b61032b565b60005b60ff8516608085019081529092506103509060019061031d9085905160ff1690610c5f565b60ff1660a08401526103758161036f6001608087015160ff1690610bfa565b90610c5f565b60ff908116604085015261039d90829061036f906103969088166001610c5f565b8590610c5f565b60ff16602084015250610425565b6103b6600585610bfa565b6002608084019081529091506103d89060019061031d9051849060ff16610c5f565b60ff90811660a08401526103fa906103f39085166002610c5f565b8290610c5f565b60ff1660208301908152610415906002905160ff1690610bfa565b60ff166040830152600160c08301525b6104446104358560ff8616610bfa565b62ffffff891690600a0a610cc7565b8252600160e08301526004841161045c576000610467565b610467846004610bfa565b60ff16606083015261047882610d36565b979650505050505050565b606081610493846060015161053e565b6104a0856080015161053e565b6104d98660e00151156104b8578661012001516104bf565b8661010001515b8761016001518860c001518960a001518a60e00151610fa4565b6105128760e00151156104f1578761010001516104f8565b8761012001515b8861016001518960c001518a60a001518b60e00151610fa4565b604051602001610526959493929190614091565b60405160208183030381529060405290505b92915050565b6060816000805b82518160ff1610156105bd57828160ff168151811061056057fe5b60200101517fff00000000000000000000000000000000000000000000000000000000000000167f220000000000000000000000000000000000000000000000000000000000000014156105b5576001909101905b600101610545565b5060ff81161561072d5760008160ff1683510167ffffffffffffffff811180156105ef576000806105ec6139a4565b50505b50604051818152601f19601f830116810160200160405290801561061a576020820181803683370190505b5090506000805b84518160ff16101561072057848160ff168151811061063c57fe5b60200101517fff00000000000000000000000000000000000000000000000000000000000000167f220000000000000000000000000000000000000000000000000000000000000014156106d5577f5c000000000000000000000000000000000000000000000000000000000000008383806001019450815181106106bd57fe5b60200101906001600160f81b031916908160001a9053505b848160ff16815181106106e457fe5b602001015160f81c60f81b83838060010194508151811061070157fe5b60200101906001600160f81b031916908160001a905350600101610621565b508194505050505061020e565b509192915050565b60606105386001600160a01b038316601461114d565b6060838383866040516020016107649493929190613de9565b60405160208183030381529060405290505b9392505050565b6060816107a3576040516040808201905260018152600360fc1b6020820152905061020e565b8160005b81156107bb57600101600a820491506107a7565b60008167ffffffffffffffff811180156107dd576000806107da6139a4565b50505b50604051818152601f19601f8301168101602001604052908015610808576020820181803683370190505b50859350905060001982015b8315610859576000198101906030600a86060160f81b9083908151811061083757fe5b60200101906001600160f81b031916908160001a905350600a84049350610814565b50949350505050565b6060838584848960405160200161087d9594939291906141ae565b60405160208183030381529060405290505b95945050505050565b606060006040518061026001604052806108b18c610735565b81526020016108bf8b610735565b81526020018981526020018881526020018781526020018660020b81526020018560020b81526020016108f38787876112e3565b60000b81526020016109048d61077d565b815260200161091d8c6001600160a01b0316608861131a565b81526020016109368b6001600160a01b0316608861131a565b815260200161094f8c6001600160a01b0316600061131a565b81526020016109688b6001600160a01b0316600061131a565b81526020016109926109848d6001600160a01b03166010611329565b600060ff6010610112611330565b81526020016109bc6109ae8c6001600160a01b03166010611329565b600060ff60646101e4611330565b81526020016109d86109848d6001600160a01b03166020611329565b81526020016109f46109ae8c6001600160a01b03166020611329565b8152602001610a106109848d6001600160a01b03166030611329565b8152602001610a2c6109ae8c6001600160a01b03166030611329565b90529050610a3981611378565b9b9a5050505050505050505050565b60608151610a65576040516020810160405260008152905061020e565b6000604051806060016040528060408152602001614ec860409139905060006003845160020181610a9257fe5b04600402905060008160200167ffffffffffffffff81118015610abd57600080610aba6139a4565b50505b50604051818152601f19601f8301168101602001604052908015610ae8576020820181803683370190505b509050818152600183018586518101602084015b81831015610b60576003830192508251603f8160121c1685015160f81b8252600182019150603f81600c1c1685015160f81b8252600182019150603f8160061c1685015160f81b8252600182019150603f811685015160f81b825250600101610afc565b600389510660018114610b7a5760028114610bc457610bec565b7f3d3d0000000000000000000000000000000000000000000000000000000000007ffffffffffffffffffffffffffffffffffffffffffffffffffffffffffffffffe830152610bec565b7f3d000000000000000000000000000000000000000000000000000000000000006000198301525b509398975050505050505050565b600082821115610c595760405162461bcd60e51b815260206004820152601e60248201527f536166654d6174683a207375627472616374696f6e206f766572666c6f770000604482015260640160405180910390610c566139a4565b50505b50900390565b6000828201838110156107765760405162461bcd60e51b815260206004820152601b60248201527f536166654d6174683a206164646974696f6e206f766572666c6f770000000000604482015260640160405180910390610cbe6139a4565b50509392505050565b6000808211610d255760405162461bcd60e51b815260206004820152601a60248201527f536166654d6174683a206469766973696f6e206279207a65726f000000000000604482015260640160405180910390610d226139a4565b50505b818381610d2e57fe5b049392505050565b60606000826020015160ff1667ffffffffffffffff81118015610d6157600080610d5e6139a4565b50505b50604051818152601f19601f8301168101602001604052908015610d8c576020820181803683370190505b5090508260e0015115610de2577f250000000000000000000000000000000000000000000000000000000000000081600183510381518110610dca57fe5b60200101906001600160f81b031916908160001a9053505b8260c0015115610e5b57600360fc1b81600081518110610dfe57fe5b60200101906001600160f81b031916908160001a9053507f2e0000000000000000000000000000000000000000000000000000000000000081600181518110610e4357fe5b60200101906001600160f81b031916908160001a9053505b6000836080015160ff1690505b610e7b60018560a0015160ff1690610c5f565b811015610eb257600360fc1b828281518110610e9357fe5b60200101906001600160f81b031916908160001a905350600101610e68565b505b600083511115610538576000836060015160ff16118015610ee25750826060015160ff16836040015160ff16145b15610f3e577f2e000000000000000000000000000000000000000000000000000000000000008184604001805160ff600019820181169092521681518110610f2657fe5b60200101906001600160f81b031916908160001a9053505b610f56600a845181610f4c57fe5b6030919006610c5f565b60f81b8184604001805160ff600019820181169092521681518110610f7757fe5b60200101906001600160f81b031916908160001a905350600a8381815181610f9b57fe5b04905250610eb4565b606084600281900b7ffffffffffffffffffffffffffffffffffffffffffffffffffffffffffff2761881610fd457fe5b050260020b8660020b141561105e5781156110225760405160408082019052600381527f4d415800000000000000000000000000000000000000000000000000000000006020820152611057565b60405160408082019052600381527f4d494e000000000000000000000000000000000000000000000000000000000060208201525b905061088f565b84600281900b620d89e88161106f57fe5b050260020b8660020b14156110f85781156110bd5760405160408082019052600381527f4d494e00000000000000000000000000000000000000000000000000000000006020820152611057565b60405160408082019052600381527f4d415800000000000000000000000000000000000000000000000000000000006020820152905061088f565b6000611103876115a9565b9050821561113a5761113778010000000000000000000000000000000000000000000000006001600160a01b038316610cc7565b90505b6111458186866118ff565b91505061088f565b606060008260020260020167ffffffffffffffff81118015611177576000806111746139a4565b50505b50604051818152601f19601f83011681016020016040529080156111a2576020820181803683370190505b509050600360fc1b816000815181106111b757fe5b60200101906001600160f81b031916908160001a9053507f7800000000000000000000000000000000000000000000000000000000000000816001815181106111fc57fe5b60200101906001600160f81b031916908160001a905350600160028402015b600181111561128a577f303132333435363738396162636465660000000000000000000000000000000085600f166010811061125357fe5b1a60f81b82828151811061126357fe5b60200101906001600160f81b031916908160001a90535060049490941c936000190161121b565b5083156107765760405162461bcd60e51b815260206004820181905260248201527f537472696e67733a20686578206c656e67746820696e73756666696369656e74604482015260640160405180910390610cbe6139a4565b60008360020b8260020b12156112fc5750600019610776565b8260020b8260020b131561131257506001610776565b506000610776565b606061077683831c6003611ad3565b1c60ff1690565b606061136e6113698461036f611346888a610bfa565b611363611353888a610bfa565b61135d8d8d610bfa565b90611ba6565b90610cc7565b61077d565b9695505050505050565b606061138382611c05565b61139c83518460200151856040015186606001516122f3565b6113b3846040015185606001518660800151612619565b6113ca8560a001518660c001518760e00151612788565b6113e28661010001518760a001518860c00151612afe565b6040516020018086805190602001908083835b602083106114145780518252601f1990920191602091820191016113f5565b6001836020036101000a038019825116818451161790925250505091909101905085805190602001908083835b602083106114605780518252601f199092019160209182019101611441565b6001836020036101000a038019825116818451161790925250505091909101905084805190602001908083835b602083106114ac5780518252601f19909201916020918201910161148d565b6001836020036101000a038019825116818451161790925250505091909101905083805190602001908083835b602083106114f85780518252601f1990920191602091820191016114d9565b6001836020036101000a038019825116818451161790925250505091909101905082805190602001908083835b602083106115445780518252601f199092019160209182019101611525565b6001836020036101000a038019825116818451161790925250507f3c2f7376673e000000000000000000000000000000000000000000000000000093909101928352505060060195506040945050505050516020818303038152906040529050919050565b60008060008360020b126115c0578260020b6115c8565b8260020b6000035b9050620d89e881111561162a5760405162461bcd60e51b815260206004820152600160248201527f54000000000000000000000000000000000000000000000000000000000000006044820152606401604051809103906116276139a4565b50505b60006001821661163e57600160801b611650565b6ffffcb933bd6fad37aa2d162d1a5940015b70ffffffffffffffffffffffffffffffffff1690506002821615611684576ffff97272373d413259a46990580e213a0260801c5b60048216156116a3576ffff2e50f5f656932ef12357cf3c7fdcc0260801c5b60088216156116c2576fffe5caca7e10e4e61c3624eaa0941cd00260801c5b60108216156116e1576fffcb9843d60f6159c9db58835c9266440260801c5b6020821615611700576fff973b41fa98c081472e6896dfb254c00260801c5b604082161561171f576fff2ea16466c96a3843ec78b326b528610260801c5b608082161561173e576ffe5dee046a99a2a811c461f1969c30530260801c5b61010082161561175e576ffcbe86c7900a88aedcffc83b479aa3a40260801c5b61020082161561177e576ff987a7253ac413176f2b074cf7815e540260801c5b61040082161561179e576ff3392b0822b70005940c7a398e4b70f30260801c5b6108008216156117be576fe7159475a2c29b7443b29c7fa6e889d90260801c5b6110008216156117de576fd097f3bdfd2022b8845ad8f792aa58250260801c5b6120008216156117fe576fa9f746462d870fdf8a65dc1f90e061e50260801c5b61400082161561181e576f70d869a156d2a1b890bb3df62baf32f70260801c5b61800082161561183e576f31be135f97d08fd981231505542fcfa60260801c5b6201000082161561185f576f09aa508b5b7a84e1c677de54f3e99bc90260801c5b6202000082161561187f576e5d6af8dedb81196699c329225ee6040260801c5b6204000082161561189e576d2216e584f5fa1ea926041bedfe980260801c5b620800008216156118bb576b048a170391f7dc42444e8fa20260801c5b60008460020b13156118d65780600019816118d257fe5b0490505b6401000000008106156118ea5760016118ed565b60005b60ff16602082901c0192505050919050565b6060600061190e858585612e62565b90506000611926828368010000000000000000612f64565b90506c0100000000000000000000000082108015611967576119608272047bf19673df52e37f2410011d100000000000600160801b612f64565b915061197c565b61197982620186a0600160801b612f64565b91505b8160005b811561199457600101600a82049150611980565b600019016000806119a58684613025565b9150915080156119b6576001909201915b6119be613a0f565b8515611a2b576119dd6119d5602b60ff8716610bfa565b600790610c5f565b60ff908116602083015260026080830152611a039060019061036f90602b908816610bfa565b60ff1660a0820152611a1e6001602083015160ff1690610bfa565b60ff166040820152611aa8565b60098460ff1610611a7a57611a4460ff85166004610bfa565b60ff166020820190815260056080830152611a66906001905160ff1690610bfa565b60ff1660a082015260046040820152611aa8565b60066020820152600560408201819052611a9f9060019061036f9060ff881690610bfa565b60ff1660608201525b82815285151560c0820152600060e0820152611ac381610d36565b9c9b505050505050505050505050565b606060008260020267ffffffffffffffff81118015611afa57600080611af76139a4565b50505b50604051818152601f19601f8301168101602001604052908015611b25576020820181803683370190505b5090506000815190505b8015611b9e577f303132333435363738396162636465660000000000000000000000000000000085600f1660108110611b6457fe5b1a60f81b826001830381518110611b7757fe5b60200101906001600160f81b031916908160001a90535060049490941c9360001901611b2f565b509392505050565b600082611bb557506000610538565b82820282848281611bc257fe5b04146107765760405162461bcd60e51b815260040180806020018281038252602181526020018061512b6021913960400191505060405180910390610cbe6139a4565b6060611cab826101200151604051602001806081614d3b823960810182805190602001908083835b60208310611c4c5780518252601f199092019160209182019101611c2d565b6001836020036101000a038019825116818451161790925250507f272f3e3c2f7376673e000000000000000000000000000000000000000000000093909101928352505060090191506040905051602081830303815290604052610a48565b611e41836101a00151846101c0015185610140015160405160200180606361490b823960630184805190602001908083835b60208310611cfc5780518252601f199092019160209182019101611cdd565b6001836020036101000a038019825116818451161790925250507f272063793d27000000000000000000000000000000000000000000000000000093909101928352505060060183805190602001908083835b60208310611d6e5780518252601f199092019160209182019101611d4f565b6001836020036101000a038019825116818451161790925250507f2720723d273132307078272066696c6c3d27230000000000000000000000000093909101928352505060130182805190602001908083835b60208310611de05780518252601f199092019160209182019101611dc1565b6001836020036101000a038019825116818451161790925250507f272f3e3c2f7376673e0000000000000000000000000000000000000000000000939091019283525050600901935060409250505051602081830303815290604052610a48565b611e91846101e0015185610200015186610160015160405160200180606361490b8239606301848051906020019080838360208310611cfc5780518252601f199092019160209182019101611cdd565b611fc585610220015186610240015187610180015160405160200180606361490b823960630184805190602001908083835b60208310611ee25780518252601f199092019160209182019101611ec3565b6001836020036101000a038019825116818451161790925250507f272063793d27000000000000000000000000000000000000000000000000000093909101928352505060060183805190602001908083835b60208310611f545780518252601f199092019160209182019101611f35565b6001836020036101000a038019825116818451161790925250507f2720723d273130307078272066696c6c3d272300000000000000000000000000939091019283525050601301828051906020019080838360208310611de05780518252601f199092019160209182019101611dc1565b85610120015160405160200180605661466a8239605601602c614f0882397f3c646566733e0000000000000000000000000000000000000000000000000000602c820152603201604b614cf08239604b0186805190602001908083835b602083106120415780518252601f199092019160209182019101612022565b6001836020036101000a0380198251168184511617909252505050919091019050603e6154cd8239603e0185805190602001908083835b602083106120975780518252601f199092019160209182019101612078565b6001836020036101000a0380198251168184511617909252505050919091019050603e614dbc8239603e0184805190602001908083835b602083106120ed5780518252601f1990920191602091820191016120ce565b6001836020036101000a038019825116818451161790925250507f22202f3e00000000000000000000000000000000000000000000000000000000939091019283525050600401603b6144d48239603b0183805190602001908083835b602083106121695780518252601f19909201916020918201910161214a565b6001836020036101000a038019825116818451161790925250505091909101905060996149cb8239609901607f6152ac8239607f01608861544582396088016041614a648239604101605d6155908239605d0160726153588239607201604961443d823960490160be614c32823960be0160716147bc823960710160756151ef82396075016066614aa5823960660160a4614fc6823960a401608561550b82397f3c6720636c69702d706174683d2275726c2823636f726e65727329223e00000060858201527f3c726563742066696c6c3d22000000000000000000000000000000000000000060a282015260ae0182805190602001908083835b602083106122835780518252601f199092019160209182019101612264565b6001836020036101000a03801982511681845116179092525050509190910190506031614b0b8239603101604e6144868239604e01605d61496e8239605d016041614e878239604101605661567b8239605601955050505050506040516020818303038152906040529050919050565b60608382858488878a896040516020018060256157578239602501607d614bb58239607d0189805190602001908083835b602083106123435780518252601f199092019160209182019101612324565b6001836020036101000a0380198251168184511617909252505064010714051160dd1b93909101928352505060050188805190602001908083835b6020831061239d5780518252601f19909201916020918201910161237e565b6001836020036101000a03801982511681845116179092525050509190910190506079614b3c823960790160866156d1823960860187805190602001908083835b602083106123fd5780518252601f1990920191602091820191016123de565b6001836020036101000a0380198251168184511617909252505064010714051160dd1b93909101928352505060050186805190602001908083835b602083106124575780518252601f199092019160209182019101612438565b6001836020036101000a038019825116818451161790925250505091909101905060856146c08239608501607b6153ca8239607b0185805190602001908083835b602083106124b75780518252601f199092019160209182019101612498565b6001836020036101000a0380198251168184511617909252505064010714051160dd1b93909101928352505060050184805190602001908083835b602083106125115780518252601f1990920191602091820191016124f2565b6001836020036101000a0380198251168184511617909252505050919091019050605d6148818239605d0160a361514c823960a30183805190602001908083835b602083106125715780518252601f199092019160209182019101612552565b6001836020036101000a0380198251168184511617909252505064010714051160dd1b93909101928352505060050182805190602001908083835b602083106125cb5780518252601f1990920191602091820191016125ac565b6001836020036101000a0380198251168184511617909252505050919091019050608b6143b28239608b01985050505050505050506040516020818303038152906040529050949350505050565b60608383836040516020018060cd61459d823960cd0184805190602001908083835b6020831061265a5780518252601f19909201916020918201910161263b565b6001836020036101000a038019825116818451161790925250507f2f0000000000000000000000000000000000000000000000000000000000000093909101928352505060010183805190602001908083835b602083106126cc5780518252601f1990920191602091820191016126ad565b6001836020036101000a0380198251168184511617909252505050919091019050607761582d823960770182805190602001908083835b602083106127225780518252601f199092019160209182019101612703565b6001836020036101000a038019825116818451161790925250506a1e17ba32bc3a1f1e17b39f60a91b939091019283525050600b01605261506a82396052016092614f348239609201935050505060405160208183030381529060405290509392505050565b606060008260000b60001914612816578260000b6001146127dc5760405160408082019052600581527f236e6f6e650000000000000000000000000000000000000000000000000000006020820152612811565b60405160408082019052600a81527f23666164652d646f776e0000000000000000000000000000000000000000000060208201525b61284b565b60405160408082019052600881527f23666164652d757000000000000000000000000000000000000000000000000060208201525b9050600061285986866130af565b905081818383612868886132e0565b60405160200180807f3c67206d61736b3d2275726c2800000000000000000000000000000000000000815250600d0186805190602001908083835b602083106128c25780518252601f1990920191602091820191016128a3565b6001836020036101000a038019825116818451161790925250507f29220000000000000000000000000000000000000000000000000000000000009390910192835250506002016077614745823960770185805190602001908083835b6020831061293e5780518252601f19909201916020918201910161291f565b6001836020036101000a0380198251168184511617909252505050919091019050605461482d82397f3c2f673e3c67206d61736b3d2275726c28000000000000000000000000000000605482015260650184805190602001908083835b602083106129ba5780518252601f19909201916020918201910161299b565b6001836020036101000a038019825116818451161790925250507f29220000000000000000000000000000000000000000000000000000000000009390910192835250506002016029614dfa823960290160456150e682397f3c7061746820643d2200000000000000000000000000000000000000000000006045820152604e0183805190602001908083835b60208310612a665780518252601f199092019160209182019101612a47565b6001836020036101000a03801982511681845116179092525050509190910190506048615264823960480182805190602001908083835b60208310612abc5780518252601f199092019160209182019101612a9d565b6001836020036101000a038019825116818451161790925250505091909101965060409550505050505051602081830303815290604052925050509392505050565b60606000612b0b846137fb565b90506000612b18846137fb565b9050600086516004019050600083516005019050600083516005019050612b448360040160070261077d565b89612b548460040160070261077d565b87612b648560040160070261077d565b8860405160200180602d61532b82397f3c726563742077696474683d2200000000000000000000000000000000000000602d820152603a0187805190602001908083835b60208310612bc75780518252601f199092019160209182019101612ba8565b6001836020036101000a0380198251168184511617909252505050919091019050603d614e238239603d01608d6157a08239608d0186805190602001908083835b60208310612c275780518252601f199092019160209182019101612c08565b6001836020036101000a038019825116818451161790925250506a1e17ba32bc3a1f1e17b39f60a91b939091019283525050600b01602d6158a482397f3c726563742077696474683d2200000000000000000000000000000000000000602d820152603a0185805190602001908083835b60208310612cb75780518252601f199092019160209182019101612c98565b6001836020036101000a0380198251168184511617909252505050919091019050603d614e238239603d01608e61450f8239608e0184805190602001908083835b60208310612d175780518252601f199092019160209182019101612cf8565b6001836020036101000a038019825116818451161790925250506a1e17ba32bc3a1f1e17b39f60a91b939091019283525050600b01602d6148de82397f3c726563742077696474683d2200000000000000000000000000000000000000602d820152603a0183805190602001908083835b60208310612da75780518252601f199092019160209182019101612d88565b6001836020036101000a0380198251168184511617909252505050919091019050603d614e238239603d01608e6155ed8239608e0182805190602001908083835b60208310612e075780518252601f199092019160209182019101612de8565b6001836020036101000a038019825116818451161790925250506a1e17ba32bc3a1f1e17b39f60a91b939091019283525050600b01965060409550505050505051602081830303815290604052955050505050509392505050565b600080612e7d612e7860ff868116908616613922565b61398d565b9050600081118015612e90575060128111155b15612f51578260ff168460ff161115612efa57612ec4612eb1826002610cc7565b6001600160a01b03871690600a0a611ba6565b91506002810660011415612ef557612ef2827003298b075b4b6a5240945790619b37fd4a600160801b612f64565b91505b612f4c565b612f1b612f08826002610cc7565b6001600160a01b03871690600a0a610cc7565b91506002810660011415612f4c57612f4982600160801b7003298b075b4b6a5240945790619b37fd4a612f64565b91505b611b9e565b50506001600160a01b0390921692915050565b6000808060001985870986860292508281109083900303905080612fa35760008411612f9857600080612f956139a4565b50505b508290049050610776565b808411612fb857600080612fb56139a4565b50505b6000848688096000868103871696879004966002600389028118808a02820302808a02820302808a02820302808a02820302808a02820302808a02909103029181900381900460010186841190950394909402919094039290920491909117919091029150509392505050565b600080600060058460ff16111561306b576130688560ff7ffffffffffffffffffffffffffffffffffffffffffffffffffffffffffffffffb870116600a0a610cc7565b94505b60006004600a870611905061308186600a610cc7565b95508015613090578560010195505b85620186a014156130a657600a86049550600191505b50939492505050565b60608282036005600282900b136130fb5760405160408082019052601a81527f4d31203143343120343120313035203130352031343520313435000000000000602082015291506132d9565b600a8160020b136131415760405160408082019052601981527f4d31203143333320343920393720313133203134352031343500000000000000602082015291506132d9565b60148160020b136131875760405160408082019052601981527f4d31203143333320353720383920313133203134352031343500000000000000602082015291506132d9565b60328160020b136131cd5760405160408082019052601981527f4d31203143323520363520383120313231203134352031343500000000000000602082015291506132d9565b60648160020b136132135760405160408082019052601981527f4d31203143313720373320373320313239203134352031343500000000000000602082015291506132d9565b6127108160020b1361325a5760405160408082019052601881527f4d31203143392038312036352031333720313435203134350000000000000000602082015291506132d9565b620186a08160020b136132a25760405160408082019052601a81527f4d31203143312038392035372e35203134352031343520313435000000000000602082015291506132d9565b60405160408082019052601881527f4d31203143312039372034392031343520313435203134350000000000000000602082015291505b5092915050565b606060006040518060400160405280600281526020017f3733000000000000000000000000000000000000000000000000000000000000815250905060006040518060400160405280600381526020017f3139300000000000000000000000000000000000000000000000000000000000815250905060006040518060400160405280600381526020017f3231370000000000000000000000000000000000000000000000000000000000815250905060006040518060400160405280600381526020017f333334000000000000000000000000000000000000000000000000000000000081525090508560000b600114806133e057508560000b600019145b156135e2578560000b6001146133f657816133f8565b835b8660000b600114613409578161340b565b835b8760000b60011461341c578361341e565b855b8860000b60011461342f5783613431565b855b60405160200180807f3c636972636c652063783d220000000000000000000000000000000000000000815250600c0185805190602001908083835b6020831061348b5780518252601f19909201916020918201910161346c565b6001836020036101000a0380198251168184511617909252505067383c111031bc9e9160c11b93909101928352505060080184805190602001908083835b602083106134e85780518252601f1990920191602091820191016134c9565b6001836020036101000a03801982511681845116179092525050509190910190506027614e60823960270183805190602001908083835b6020831061353e5780518252601f19909201916020918201910161351f565b6001836020036101000a0380198251168184511617909252505067383c111031bc9e9160c11b93909101928352505060080182805190602001908083835b6020831061359b5780518252601f19909201916020918201910161357c565b6001836020036101000a0380198251168184511617909252505050919091019050602a6150bc8239602a0194505050505060405160208183030381529060405294506137f2565b8383838360405160200180807f3c636972636c652063783d220000000000000000000000000000000000000000815250600c0185805190602001908083835b602083106136405780518252601f199092019160209182019101613621565b6001836020036101000a0380198251168184511617909252505067383c111031bc9e9160c11b93909101928352505060080184805190602001908083835b6020831061369d5780518252601f19909201916020918201910161367e565b6001836020036101000a038019825116818451161790925250507f70782220723d22347078222066696c6c3d22776869746522202f3e00000000009390910192835250507f3c636972636c652063783d220000000000000000000000000000000000000000601b82015260270183805190602001908083835b602083106137355780518252601f199092019160209182019101613716565b6001836020036101000a0380198251168184511617909252505067383c111031bc9e9160c11b93909101928352505060080182805190602001908083835b602083106137925780518252601f199092019160209182019101613773565b6001836020036101000a038019825116818451161790925250507f70782220723d22347078222066696c6c3d22776869746522202f3e0000000000939091019283525050601b019450604093505050505160208183030381529060405294505b50505050919050565b6060600060405180602001604052806000815250905060008360020b121561385b578260001902925060405160408082019052600181527f2d00000000000000000000000000000000000000000000000000000000000000602082015290505b806138688460020b61077d565b6040516020018083805190602001908083835b6020831061389a5780518252601f19909201916020918201910161387b565b6001836020036101000a038019825116818451161790925250505091909101905082805190602001908083835b602083106138e65780518252601f1990920191602091820191016138c7565b6001836020036101000a038019825116818451161790925250505091909101935060409250505051602081830303815290604052915050919050565b60008183038183128015906139375750838113155b8061394c575060008312801561394c57508381135b6107765760405162461bcd60e51b815260040180806020018281038252602481526020018061577c6024913960400191505060405180910390610cbe6139a4565b6000808212156139a05781600003610538565b5090565b632a2a7adb598160e01b8152600481016020815285602082015260005b868110156139dc5780860151828201604001526020016139c1565b506020828760640184336000905af158600e01573d6000803e3d6000fd5b3d6001141558600a015760016000f35b505050565b60405161010081016040908152600080835260208301819052908201819052606082018190526080820181905260a0820181905260c0820181905260e082015290565b80356001600160a01b038116811461020e57600080613a6f6139a4565b5050919050565b8035801515811461020e57600080613a6f6139a4565b8035600281900b811461020e57600080613a6f6139a4565b600082601f830112613abd578081613aba6139a4565b50505b813567ffffffffffffffff811115613ad157fe5b613ae46020601f19601f84011601614359565b818152846020838601011115613b01578283613afe6139a4565b50505b816020850160208301379081016020019190915292915050565b803562ffffff8116811461020e57600080613a6f6139a4565b803560ff8116811461020e57600080613a6f6139a4565b600060208284031215613b65578081613b626139a4565b50505b813567ffffffffffffffff80821115613b85578283613b826139a4565b50505b81840191506101c0808387031215613ba4578384613ba16139a4565b50505b613bad81614359565b905082358152613bbf60208401613a52565b6020820152613bd060408401613a52565b6040820152606083013582811115613bef578485613bec6139a4565b50505b613bfb87828601613aa4565b606083015250608083013582811115613c1b578485613c186139a4565b50505b613c2787828601613aa4565b608083015250613c3960a08401613b34565b60a0820152613c4a60c08401613b34565b60c0820152613c5b60e08401613a76565b60e08201526101009150613c70828401613a8c565b828201526101209150613c84828401613a8c565b828201526101409150613c98828401613a8c565b828201526101609150613cac828401613a8c565b828201526101809150613cc0828401613b1b565b828201526101a09150613cd4828401613a52565b91810191909152949350505050565b60008151613cf5818560208601614381565b9290920192915050565b7fe29aa0efb88f20444953434c41494d45523a204475652064696c6967656e636581527f20697320696d7065726174697665207768656e20617373657373696e6720746860208201527f6973204e46542e204d616b65207375726520746f6b656e20616464726573736560408201527f73206d617463682074686520657870656374656420746f6b656e732c2061732060608201527f746f6b656e2073796d626f6c73206d617920626520696d6974617465642e00006080820152609e0190565b7f5c6e5c6e00000000000000000000000000000000000000000000000000000000815260040190565b60007f54686973204e465420726570726573656e74732061206c69717569646974792082527f706f736974696f6e20696e206120556e6973776170205633200000000000000060208301528551613e47816039850160208a01614381565b7f2d000000000000000000000000000000000000000000000000000000000000006039918401918201528551613e8481603a840160208a01614381565b7f20706f6f6c2e2000000000000000000000000000000000000000000000000000603a92909101918201527f546865206f776e6572206f662074686973204e46542063616e206d6f6469667960418201527f206f722072656465656d2074686520706f736974696f6e2e5c6e00000000000060618201527f5c6e506f6f6c20416464726573733a2000000000000000000000000000000000607b8201528451613f3481608b840160208901614381565b7f5c6e000000000000000000000000000000000000000000000000000000000000608b9290910191820152610478608d820185613ce3565b60007f7b226e616d65223a22000000000000000000000000000000000000000000000082528551613fa4816009850160208a01614381565b7f222c20226465736372697074696f6e223a2200000000000000000000000000006009918401918201528551613fe181601b840160208a01614381565b018451613ff581601b840160208901614381565b7f222c2022696d616765223a202200000000000000000000000000000000000000601b92909101918201527f646174613a696d6167652f7376672b786d6c3b6261736536342c00000000000060288201528351614059816042840160208801614381565b7f227d000000000000000000000000000000000000000000000000000000000000604292909101918201526044019695505050505050565b60007f556e6973776170202d2000000000000000000000000000000000000000000000825286516140c981600a850160208b01614381565b80830190507f202d20000000000000000000000000000000000000000000000000000000000080600a830152875161410881600d850160208c01614381565b7f2f00000000000000000000000000000000000000000000000000000000000000600d9390910192830152865161414681600e850160208b01614381565b600e9201918201528451614161816011840160208901614381565b7f3c3e00000000000000000000000000000000000000000000000000000000000060119290910191820152835161419f816013840160208801614381565b01601301979650505050505050565b60007f20416464726573733a200000000000000000000000000000000000000000000080835287516141e781600a860160208c01614381565b7f5c6e000000000000000000000000000000000000000000000000000000000000600a91850191820152875161422481600c840160208c01614381565b01600c810182905286519150614241826016830160208a01614381565b8181019150507f5c6e46656520546965723a20000000000000000000000000000000000000000060168201528451614280816022840160208901614381565b7f5c6e546f6b656e2049443a2000000000000000000000000000000000000000006022929091019182015283516142be81602e840160208801614381565b6142d46142cf602e83850101613dc0565b613cff565b9998505050505050505050565b60007f646174613a6170706c69636174696f6e2f6a736f6e3b6261736536342c0000008252825161431981601d850160208701614381565b91909101601d0192915050565b6000602082528251806020840152614345816040850160208701614381565b601f01601f19169190910160400192915050565b6000604051905081810181811067ffffffffffffffff8211171561437957fe5b604052919050565b60005b8381101561439c578082015183820152602001614384565b838111156143ab576000848401525b5050505056fe203c616e696d6174652061646469746976653d2273756d22206174747269627574654e616d653d2273746172744f6666736574222066726f6d3d2230252220746f3d22313030252220626567696e3d22307322206475723d223330732220726570656174436f756e743d22696e646566696e69746522202f3e3c2f74657874506174683e3c2f746578743e3c73746f70206f66667365743d222e39222073746f702d636f6c6f723d227768697465222073746f702d6f7061636974793d223022202f3e3c2f6c696e6561724772616469656e743e3c72656374207374796c653d2266696c7465723a2075726c28236631292220783d223070782220793d22307078222077696474683d22323930707822206865696768743d22353030707822202f3e3c6665496d61676520726573756c743d2270332220786c696e6b3a687265663d22646174613a696d6167652f7376672b786d6c3b6261736536342c3c7465787420783d22313270782220793d22313770782220666f6e742d66616d696c793d2227436f7572696572204e6577272c206d6f6e6f73706163652220666f6e742d73697a653d2231327078222066696c6c3d227768697465223e3c747370616e2066696c6c3d2272676261283235352c3235352c3235352c302e3629223e4d696e3a203c2f747370616e3e3c67206d61736b3d2275726c2823666164652d73796d626f6c29223e3c726563742066696c6c3d226e6f6e652220783d223070782220793d22307078222077696474683d22323930707822206865696768743d22323030707822202f3e203c7465787420793d22373070782220783d2233327078222066696c6c3d2277686974652220666f6e742d66616d696c793d2227436f7572696572204e6577272c206d6f6e6f73706163652220666f6e742d7765696768743d223230302220666f6e742d73697a653d2233367078223e3c7376672077696474683d2232393022206865696768743d22353030222076696577426f783d2230203020323930203530302220786d6c6e733d22687474703a2f2f7777772e77332e6f72672f323030302f73766722203c616e696d6174652061646469746976653d2273756d22206174747269627574654e616d653d2273746172744f6666736574222066726f6d3d2230252220746f3d22313030252220626567696e3d22307322206475723d223330732220726570656174436f756e743d22696e646566696e69746522202f3e203c2f74657874506174683e207374796c653d227472616e73666f726d3a7472616e736c61746528373370782c313839707829223e3c7265637420783d222d313670782220793d222d31367078222077696474683d22313830707822206865696768743d223138307078222066696c6c3d226e6f6e6522202f3e3c7061746820643d223c6d61736b2069643d22666164652d757022206d61736b436f6e74656e74556e6974733d226f626a656374426f756e64696e67426f78223e3c726563742077696474683d223122206865696768743d2231222066696c6c3d2275726c2823677261642d75702922202f3e3c2f6d61736b3e22207374726f6b653d227267626128302c302c302c302e332922207374726f6b652d77696474683d2233327078222066696c6c3d226e6f6e6522207374726f6b652d6c696e656361703d22726f756e6422202f3e203c616e696d6174652061646469746976653d2273756d22206174747269627574654e616d653d2273746172744f6666736574222066726f6d3d2230252220746f3d22313030252220626567696e3d22307322206475723d2233307322203c67207374796c653d227472616e73666f726d3a7472616e736c61746528323970782c20343434707829223e3c7376672077696474683d2732393027206865696768743d27353030272076696577426f783d2730203020323930203530302720786d6c6e733d27687474703a2f2f7777772e77332e6f72672f323030302f737667273e3c636972636c652063783d27203c67207374796c653d2266696c7465723a75726c2823746f702d726567696f6e2d626c7572293b207472616e73666f726d3a7363616c6528312e35293b207472616e73666f726d2d6f726967696e3a63656e74657220746f703b223e22202f3e3c6665426c656e64206d6f64653d226f7665726c61792220696e3d2270302220696e323d22703122202f3e3c6665426c656e64206d6f64653d226578636c7573696f6e2220696e323d22703222202f3e3c6665426c656e64206d6f64653d226f7665726c61792220696e323d2270332220726573756c743d22626c656e644f757422202f3e3c6665476175737369616e426c7572203c706174682069643d226d696e696d61702220643d224d3233342034343443323334203435372e393439203234322e323120343633203235332034363322202f3e3c6d61736b2069643d226e6f6e6522206d61736b436f6e74656e74556e6974733d226f626a656374426f756e64696e67426f78223e3c726563742077696474683d223122206865696768743d2231222066696c6c3d22776869746522202f3e3c2f6d61736b3e2220783d223070782220793d22307078222077696474683d22323930707822206865696768743d22353030707822202f3e203c616e696d6174652061646469746976653d2273756d22206174747269627574654e616d653d2273746172744f6666736574222066726f6d3d2230252220746f3d22313030252220626567696e3d22307322206475723d223330732220726570656174436f756e743d22696e646566696e69746522202f3e3c74657874506174682073746172744f66667365743d222d31303025222066696c6c3d2277686974652220666f6e742d66616d696c793d2227436f7572696572204e6577272c206d6f6e6f73706163652220666f6e742d73697a653d22313070782220786c696e6b3a687265663d2223746578742d706174682d61223e3c6c696e6561724772616469656e742069643d22677261642d646f776e222078313d2230222078323d2231222079313d2230222079323d2231223e3c73746f70206f66667365743d22302e30222073746f702d636f6c6f723d227768697465222073746f702d6f7061636974793d223122202f3e3c73746f70206f66667365743d22302e39222073746f702d636f6c6f723d227768697465222073746f702d6f7061636974793d223022202f3e3c2f6c696e6561724772616469656e743e3c66696c7465722069643d226631223e3c6665496d61676520726573756c743d2270302220786c696e6b3a687265663d22646174613a696d6167652f7376672b786d6c3b6261736536342c3c7376672077696474683d2732393027206865696768743d27353030272076696577426f783d2730203020323930203530302720786d6c6e733d27687474703a2f2f7777772e77332e6f72672f323030302f737667273e3c726563742077696474683d27323930707827206865696768743d273530307078272066696c6c3d2723222f3e3c6665496d61676520726573756c743d2270322220786c696e6b3a687265663d22646174613a696d6167652f7376672b786d6c3b6261736536342c207374796c653d227472616e73666f726d3a7472616e736c61746528373370782c313839707829223e707822206865696768743d2232367078222072783d22387078222072793d22387078222066696c6c3d227267626128302c302c302c302e362922202f3e70782220723d22347078222066696c6c3d22776869746522202f3e3c636972636c652063783d223c726563742066696c6c3d226e6f6e652220783d223070782220793d22307078222077696474683d22323930707822206865696768743d22353030707822202f3e4142434445464748494a4b4c4d4e4f505152535455565758595a6162636465666768696a6b6c6d6e6f707172737475767778797a303132333435363738392b2f20786d6c6e733a786c696e6b3d27687474703a2f2f7777772e77332e6f72672f313939392f786c696e6b273e7374726f6b653d2272676261283235352c3235352c3235352c302e322922202f3e3c7265637420783d22302220793d2230222077696474683d2232393022206865696768743d22353030222072783d223432222072793d223432222066696c6c3d227267626128302c302c302c302922207374726f6b653d2272676261283235352c3235352c3235352c302e322922202f3e3c6c696e6561724772616469656e742069643d22677261642d73796d626f6c223e3c73746f70206f66667365743d22302e37222073746f702d636f6c6f723d227768697465222073746f702d6f7061636974793d223122202f3e3c73746f70206f66667365743d222e3935222073746f702d636f6c6f723d227768697465222073746f702d6f7061636974793d223022202f3e3c2f6c696e6561724772616469656e743e3c7265637420783d2231362220793d223136222077696474683d2232353822206865696768743d22343638222072783d223236222072793d223236222066696c6c3d227267626128302c302c302c3029222070782220723d2232347078222066696c6c3d226e6f6e6522207374726f6b653d22776869746522202f3e3c7265637420783d222d313670782220793d222d31367078222077696474683d22313830707822206865696768743d223138307078222066696c6c3d226e6f6e6522202f3e536166654d6174683a206d756c7469706c69636174696f6e206f766572666c6f7720726570656174436f756e743d22696e646566696e69746522202f3e3c2f74657874506174683e3c74657874506174682073746172744f66667365743d222d353025222066696c6c3d2277686974652220666f6e742d66616d696c793d2227436f7572696572204e6577272c206d6f6e6f73706163652220666f6e742d73697a653d22313070782220786c696e6b3a687265663d2223746578742d706174682d61223e3c6d61736b2069643d22666164652d646f776e22206d61736b436f6e74656e74556e6974733d226f626a656374426f756e64696e67426f78223e3c726563742077696474683d223122206865696768743d2231222066696c6c3d2275726c2823677261642d646f776e2922202f3e3c2f6d61736b3e22207374726f6b653d2272676261283235352c3235352c3235352c3129222066696c6c3d226e6f6e6522207374726f6b652d6c696e656361703d22726f756e6422202f3e3c2f673e696e3d22626c656e644f75742220737464446576696174696f6e3d22343222202f3e3c2f66696c7465723e203c636c6970506174682069643d22636f726e657273223e3c726563742077696474683d2232393022206865696768743d22353030222072783d223432222072793d22343222202f3e3c2f636c6970506174683e203c67207374796c653d227472616e73666f726d3a7472616e736c61746528323970782c20333834707829223e3c6c696e6561724772616469656e742069643d22677261642d7570222078313d2231222078323d2230222079313d2231222079323d2230223e3c73746f70206f66667365743d22302e30222073746f702d636f6c6f723d227768697465222073746f702d6f7061636974793d223122202f3e3c74657874506174682073746172744f66667365743d22353025222066696c6c3d2277686974652220666f6e742d66616d696c793d2227436f7572696572204e6577272c206d6f6e6f73706163652220666f6e742d73697a653d22313070782220786c696e6b3a687265663d2223746578742d706174682d61223e3c706174682069643d22746578742d706174682d612220643d224d34302031322048323530204132382032382030203020312032373820343020563436302041323820323820302030203120323530203438382048343020413238203238203020302031203132203436302056343020413238203238203020302031203430203132207a22202f3e222f3e3c6665496d61676520726573756c743d2270312220786c696e6b3a687265663d22646174613a696d6167652f7376672b786d6c3b6261736536342c3c6d61736b2069643d22666164652d73796d626f6c22206d61736b436f6e74656e74556e6974733d227573657253706163654f6e557365223e3c726563742077696474683d22323930707822206865696768743d223230307078222066696c6c3d2275726c2823677261642d73796d626f6c2922202f3e3c2f6d61736b3e3c2f646566733e3c66696c7465722069643d22746f702d726567696f6e2d626c7572223e3c6665476175737369616e426c757220696e3d22536f75726365477261706869632220737464446576696174696f6e3d22323422202f3e3c2f66696c7465723e3c7465787420783d22313270782220793d22313770782220666f6e742d66616d696c793d2227436f7572696572204e6577272c206d6f6e6f73706163652220666f6e742d73697a653d2231327078222066696c6c3d227768697465223e3c747370616e2066696c6c3d2272676261283235352c3235352c3235352c302e3629223e4d61783a203c2f747370616e3e3c656c6c697073652063783d22353025222063793d22307078222072783d223138307078222072793d223132307078222066696c6c3d222330303022206f7061636974793d22302e383522202f3e3c2f673e3c2f673e3c2f74657874506174683e203c74657874506174682073746172744f66667365743d223025222066696c6c3d2277686974652220666f6e742d66616d696c793d2227436f7572696572204e6577272c206d6f6e6f73706163652220666f6e742d73697a653d22313070782220786c696e6b3a687265663d2223746578742d706174682d61223e3c7465787420746578742d72656e646572696e673d226f7074696d697a655370656564223e5369676e6564536166654d6174683a207375627472616374696f6e206f766572666c6f773c7465787420783d22313270782220793d22313770782220666f6e742d66616d696c793d2227436f7572696572204e6577272c206d6f6e6f73706163652220666f6e742d73697a653d2231327078222066696c6c3d227768697465223e3c747370616e2066696c6c3d2272676261283235352c3235352c3235352c302e3629223e49443a203c2f747370616e3e3c2f746578743e3c7465787420793d2231313570782220783d2233327078222066696c6c3d2277686974652220666f6e742d66616d696c793d2227436f7572696572204e6577272c206d6f6e6f73706163652220666f6e742d7765696768743d223230302220666f6e742d73697a653d2233367078223e203c67207374796c653d227472616e73666f726d3a7472616e736c61746528323970782c20343134707829223e",
  "linkReferences": {},
  "deployedLinkReferences": {}
}