{
  "address": "0xD194b59996B187F471D1e816B9cB6B97212E035D",
  "abi": [
    {
      "inputs": [],
      "stateMutability": "nonpayable",
      "type": "constructor"
    },
    {
      "anonymous": false,
      "inputs": [
        {
          "indexed": true,
          "internalType": "address",
          "name": "addr",
          "type": "address"
        },
        {
          "indexed": true,
          "internalType": "address",
          "name": "sender",
          "type": "address"
        }
      ],
      "name": "Deployed",
      "type": "event"
    },
    {
      "inputs": [
        {
          "internalType": "string",
          "name": "ipfs",
          "type": "string"
        },
        {
          "internalType": "string[]",
          "name": "outcomes",
          "type": "string[]"
        },
        {
          "internalType": "address",
          "name": "owner",
          "type": "address"
        },
        {
          "internalType": "address",
          "name": "resolver",
          "type": "address"
        },
        {
          "internalType": "uint256",
          "name": "timestamp",
          "type": "uint256"
        },
        {
          "internalType": "contract IERC20Detailed",
          "name": "collateral",
          "type": "address"
        }
      ],
      "name": "create",
      "outputs": [
        {
          "internalType": "address",
          "name": "",
          "type": "address"
        }
      ],
      "stateMutability": "nonpayable",
      "type": "function"
    },
    {
      "inputs": [
        {
          "internalType": "uint256",
          "name": "",
          "type": "uint256"
        }
      ],
      "name": "markets",
      "outputs": [
        {
          "internalType": "address",
          "name": "",
          "type": "address"
        }
      ],
      "stateMutability": "view",
      "type": "function"
    },
    {
      "inputs": [],
      "name": "marketsLength",
      "outputs": [
        {
          "internalType": "uint256",
          "name": "",
          "type": "uint256"
        }
      ],
      "stateMutability": "view",
      "type": "function"
    }
  ],
  "transactionHash": "0x544cd906e0aa2a4462c0feadb32f97dfd59749fe47e841177240fa2ccb637269",
  "args": [],
  "solcInputHash": "daebcd8f332876e1d1c2ac8555fc6bbf",
  "bytecode": "0x608060405234801561001057600080fd5b50614e43806100206000396000f3fe60806040523480156200001157600080fd5b5060043610620000465760003560e01c80632729b91a146200004b578063a5402544146200007a578063b1283e771462000093575b600080fd5b620000626200005c36600462000242565b620000aa565b60405162000071919062000373565b60405180910390f35b620000846200019c565b6040516200007191906200048b565b62000062620000a436600462000323565b620001a2565b60008089898989338a8a8a8a604051620000c490620001ca565b620000d89998979695949392919062000387565b604051809103906000f080158015620000f5573d6000803e3d6000fd5b5060405190915033906001600160a01b038316907f09e48df7857bd0c1e0d31bb8a85d42cf1874817895f171c917f6ee2cea73ec2090600090a3600080546001810182559080527f290decd9548b62a8d60345a988386fc84ba6bc95484008f6362f93160ef3e5630180547fffffffffffffffffffffffff0000000000000000000000000000000000000000166001600160a01b0383161790559998505050505050505050565b60005490565b60008181548110620001b057fe5b6000918252602090912001546001600160a01b0316905081565b614979806200049583390190565b80356001600160a01b0381168114620001f057600080fd5b92915050565b60008083601f84011262000208578182fd5b50813567ffffffffffffffff81111562000220578182fd5b60208301915083602080830285010111156200023b57600080fd5b9250929050565b60008060008060008060008060c0898b0312156200025e578384fd5b883567ffffffffffffffff8082111562000276578586fd5b818b0191508b601f8301126200028a578586fd5b81358181111562000299578687fd5b8c6020828501011115620002ab578687fd5b60209283019a509850908a01359080821115620002c6578586fd5b50620002d58b828c01620001f6565b9097509550620002eb90508a60408b01620001d8565b9350620002fc8a60608b01620001d8565b925060808901359150620003148a60a08b01620001d8565b90509295985092959890939650565b60006020828403121562000335578081fd5b5035919050565b6001600160a01b03169052565b60008284528282602086013780602084860101526020601f19601f85011685010190509392505050565b6001600160a01b0391909116815260200190565b600060e082526200039d60e083018b8d62000349565b8281036020840152808982526020820190506020808b028301018b845b8c8110156200043357848303601f19018452368e9003601e1901823512620003e0578586fd5b8d82350167ffffffffffffffff81351115620003fa578687fd5b803536038f13156200040a578687fd5b6200041b8482356020840162000349565b602095860195909450929092019150600101620003ba565b50508093505050506200044a60408301886200033c565b6200045960608301876200033c565b6200046860808301866200033c565b8360a08301526200047d60c08301846200033c565b9a9950505050505050505050565b9081526020019056fe6101006040523480156200001257600080fd5b5060405162004979380380620049798339810160408190526200003591620007ab565b60408051808201909152600c81526b4d61726b657445524337323160a01b6020820152876200006b6301ffc9a760e01b620002fc565b815162000080906006906020850190620005f4565b50805162000096906007906020840190620005f4565b50620000a96380ac58cd60e01b620002fc565b620000bb635b5e139f60e01b620002fc565b620000cd63780e9d6360e01b620002fc565b5050428211620000fa5760405162461bcd60e51b8152600401620000f19062000a4e565b60405180910390fd5b620001078460016200034e565b6200013660018860405160200162000120919062000901565b60408051601f198184030181529190526200043c565b86516200014b90600b9060208a0190620005f4565b506001600160601b0319606084811b821660805286811b821660a05260c084905282901b1660e052600c8054600160ff199091168117909155865111620001a65760405162461bcd60e51b8152600401620000f19062000b06565b606086516001600160401b0381118015620001c057600080fd5b50604051908082528060200260200182016040528015620001eb578160200160208202803683370190505b50905060005b87518110156200027a578781815181106200020857fe5b60200260200101513084604051620002209062000679565b6200022e9392919062000932565b604051809103906000f0801580156200024b573d6000803e3d6000fd5b508282815181106200025957fe5b6001600160a01b0390921660209283029190910190910152600101620001f1565b5080516200029090600a90602084019062000687565b50846001600160a01b0316306001600160a01b0316876001600160a01b03167f782d64d7e69bf2133e0dc8a15fbdbd60e3d93b74b6b99fa7f1a5ac26c8e4de998b888887604051620002e6949392919062000967565b60405180910390a4505050505050505062000b97565b6001600160e01b03198082161415620003295760405162461bcd60e51b8152600401620000f190620009e0565b6001600160e01b0319166000908152602081905260409020805460ff19166001179055565b6001600160a01b038216620003775760405162461bcd60e51b8152600401620000f19062000a85565b62000382816200048c565b15620003a25760405162461bcd60e51b8152600401620000f19062000a17565b620003b06000838362000487565b6001600160a01b0382166000908152600160209081526040909120620003e1918390620011bb620004af821b17901c565b50620003ff81836002620004c460201b620011c7179092919060201c565b5060405181906001600160a01b038416906000907fddf252ad1be2c89b69c2b068fc378daa952ba7f163c4a11628f55a4df523b3ef908290a45050565b62000447826200048c565b620004665760405162461bcd60e51b8152600401620000f19062000aba565b600082815260086020908152604090912082516200048792840190620005f4565b505050565b6000620004a9826002620004e460201b620011e71790919060201c565b92915050565b6000620004bd8383620004f2565b9392505050565b6000620004dc84846001600160a01b03851662000541565b949350505050565b6000620004bd8383620005dc565b6000620005008383620005dc565b6200053857508154600181810184556000848152602080822090930184905584548482528286019093526040902091909155620004a9565b506000620004a9565b600082815260018401602052604081205480620005a8575050604080518082018252838152602080820184815286546001818101895560008981528481209551600290930290950191825591519082015586548684528188019092529290912055620004bd565b82856000016001830381548110620005bc57fe5b9060005260206000209060020201600101819055506000915050620004bd565b60009081526001919091016020526040902054151590565b828054600181600116156101000203166002900490600052602060002090601f016020900481019282601f106200063757805160ff191683800117855562000667565b8280016001018555821562000667579182015b82811115620006675782518255916020019190600101906200064a565b5062000675929150620006ed565b5090565b6115d080620033a983390190565b828054828255906000526020600020908101928215620006df579160200282015b82811115620006df57825182546001600160a01b0319166001600160a01b03909116178255602090920191600190910190620006a8565b506200067592915062000704565b5b80821115620006755760008155600101620006ee565b5b80821115620006755780546001600160a01b031916815560010162000705565b80516001600160a01b0381168114620004a957600080fd5b600082601f8301126200074e578081fd5b81516001600160401b0381111562000764578182fd5b62000779601f8201601f191660200162000b3d565b91508082528360208285010111156200079157600080fd5b620007a481602084016020860162000b64565b5092915050565b600080600080600080600060e0888a031215620007c6578283fd5b87516001600160401b0380821115620007dd578485fd5b620007eb8b838c016200073d565b985060208a015191508082111562000801578485fd5b818a0191508a601f83011262000815578485fd5b81518181111562000824578586fd5b6200083460208083020162000b3d565b818152602080820193508401875b8381101562000873576200085d8f602084518901016200073d565b8552602094850194919091019060010162000842565b5050809950505050506200088b8960408a0162000725565b94506200089c8960608a0162000725565b9350620008ad8960808a0162000725565b925060a08801519150620008c58960c08a0162000725565b905092959891949750929550565b60008151808452620008ed81602086016020860162000b64565b601f01601f19169290920160200192915050565b600066697066733a2f2f60c81b825282516200092581600785016020870162000b64565b9190910160070192915050565b600060608252620009476060830186620008d3565b6001600160a01b0394851660208401529290931660409091015292915050565b6000608082526200097c6080830187620008d3565b6001600160a01b03868116602085810191909152604085018790528483036060860152855180845286820193919291830190855b81811015620009d0578551841683529484019491840191600101620009b0565b50909a9950505050505050505050565b6020808252601c908201527f4552433136353a20696e76616c696420696e7465726661636520696400000000604082015260600190565b6020808252601c908201527f4552433732313a20746f6b656e20616c7265616479206d696e74656400000000604082015260600190565b60208082526017908201527f4d61726b65743a2057524f4e475f54494d455354414d50000000000000000000604082015260600190565b6020808252818101527f4552433732313a206d696e7420746f20746865207a65726f2061646472657373604082015260600190565b6020808252602c908201527f4552433732314d657461646174613a2055524920736574206f66206e6f6e657860408201526b34b9ba32b73a103a37b5b2b760a11b606082015260800190565b6020808252601d908201527f4d61726b65743a2057524f4e475f4f5554434f4d45535f414d4f554e54000000604082015260600190565b6040518181016001600160401b038111828210171562000b5c57600080fd5b604052919050565b60005b8381101562000b8157818101518382015260200162000b67565b8381111562000b91576000848401525b50505050565b60805160601c60a05160601c60c05160e05160601c6127bf62000bea60003980610ad45280610e2152806111465250806106875280610f0b52508061040652508061042a528061062652506127bf6000f3fe608060405234801561001057600080fd5b50600436106101c45760003560e01c80636352211e116100f9578063b80777ea11610097578063d7959cf911610071578063d7959cf914610385578063d8dfeb451461038d578063e985e9c514610395578063f452a8ac146103a8576101c4565b8063b80777ea14610357578063b88d4fde1461035f578063c87b56dd14610372576101c4565b806395d89b41116100d357806395d89b4114610316578063a0712d681461031e578063a22cb46514610331578063aad3ec9614610344576101c4565b80636352211e146102e85780636c0360eb146102fb57806370a0823114610303576101c4565b806318160ddd116101665780632f745c59116101405780632f745c591461029c57806342842e0e146102af5780634f64b2be146102c25780634f6ccce7146102d5576101c4565b806318160ddd1461025f578063200d2ed21461027457806323b872dd14610289576101c4565b806306fdde03116101a257806306fdde031461020f578063081812fc14610224578063095ea7b3146102375780630a2a39c81461024c576101c4565b806301ffc9a7146101c957806302d05d3f146101f257806304f3bcec14610207575b600080fd5b6101dc6101d7366004611dfd565b6103c9565b6040516101e99190611fa3565b60405180910390f35b6101fa610404565b6040516101e99190611f16565b6101fa610428565b61021761044c565b6040516101e99190611fc2565b6101fa610232366004611e35565b6104e2565b61024a610245366004611d07565b61052e565b005b6101dc61025a366004611d31565b6105c6565b610267610839565b6040516101e99190612693565b61027c61084a565b6040516101e99190611fae565b61024a610297366004611bdd565b610853565b6102676102aa366004611d07565b61088b565b61024a6102bd366004611bdd565b6108b6565b6101fa6102d0366004611e35565b6108d1565b6102676102e3366004611e35565b6108f8565b6101fa6102f6366004611e35565b61090e565b610217610936565b610267610311366004611b8e565b610997565b6102176109e0565b61026761032c366004611e35565b610a41565b61024a61033f366004611cd0565b610c58565b610267610352366004611d07565b610d26565b610267610f09565b61024a61036d366004611c1a565b610f2d565b610217610380366004611e35565b610f6c565b6102176110b6565b6101fa611144565b6101dc6103a3366004611ba9565b611168565b6103bb6103b6366004611b8e565b611196565b6040516101e9929190611f8a565b7fffffffff00000000000000000000000000000000000000000000000000000000811660009081526020819052604090205460ff165b919050565b7f000000000000000000000000000000000000000000000000000000000000000081565b7f000000000000000000000000000000000000000000000000000000000000000081565b60068054604080516020601f60026000196101006001881615020190951694909404938401819004810282018101909252828152606093909290918301828280156104d85780601f106104ad576101008083540402835291602001916104d8565b820191906000526020600020905b8154815290600101906020018083116104bb57829003601f168201915b5050505050905090565b60006104ed826111f3565b6105125760405162461bcd60e51b81526004016105099061231b565b60405180910390fd5b506000908152600460205260409020546001600160a01b031690565b60006105398261090e565b9050806001600160a01b0316836001600160a01b0316141561056d5760405162461bcd60e51b815260040161050990612421565b806001600160a01b031661057f611200565b6001600160a01b0316148061059b575061059b816103a3611200565b6105b75760405162461bcd60e51b8152600401610509906121c2565b6105c18383611204565b505050565b6000600180600c5460ff1660028111156105dc57fe5b146105f95760405162461bcd60e51b815260040161050990612549565b600a5483511461061b5760405162461bcd60e51b8152600401610509906125b7565b336001600160a01b037f000000000000000000000000000000000000000000000000000000000000000016146106635760405162461bcd60e51b815260040161050990612580565b600a548351146106855760405162461bcd60e51b815260040161050990612625565b7f00000000000000000000000000000000000000000000000000000000000000004210156106c55760405162461bcd60e51b815260040161050990612017565b6000805b84518110156107d45760008582815181106106e057fe5b602002602001015160200151101580156107125750606485828151811061070357fe5b60200260200101516020015111155b61072e5760405162461bcd60e51b81526004016105099061265c565b84818151811061073a57fe5b6020026020010151600d600087848151811061075257fe5b602090810291909101810151516001600160a01b0390811683528282019390935260409091016000208351815473ffffffffffffffffffffffffffffffffffffffff19169316929092178255919091015160019091015584518590829081106107b757fe5b6020026020010151602001518201915080806001019150506106c9565b50806064146107f55760405162461bcd60e51b81526004016105099061218b565b600c805460ff19166002179055604051309033907f85fe05c69e32ec3aed403e05e055faa5b8f0dec24c0f5ef97a497b8f4b8228b590600090a35060019392505050565b6000610845600261127f565b905090565b600c5460ff1681565b61086461085e611200565b8261128a565b6108805760405162461bcd60e51b8152600401610509906124b5565b6105c183838361130f565b6001600160a01b03821660009081526001602052604081206108ad908361141d565b90505b92915050565b6105c183838360405180602001604052806000815250610f2d565b600a81815481106108de57fe5b6000918252602090912001546001600160a01b0316905081565b600080610906600284611429565b509392505050565b60006108b0826040518060600160405280602981526020016127616029913960029190611445565b60098054604080516020601f60026000196101006001881615020190951694909404938401819004810282018101909252828152606093909290918301828280156104d85780601f106104ad576101008083540402835291602001916104d8565b60006001600160a01b0382166109bf5760405162461bcd60e51b81526004016105099061221f565b6001600160a01b03821660009081526001602052604090206108b09061127f565b60078054604080516020601f60026000196101006001881615020190951694909404938401819004810282018101909252828152606093909290918301828280156104d85780601f106104ad576101008083540402835291602001916104d8565b6000600180600c5460ff166002811115610a5757fe5b14610a745760405162461bcd60e51b815260040161050990612549565b600e5460ff1615610a975760405162461bcd60e51b8152600401610509906125ee565b600e805460ff191660011790556040517f23b872dd0000000000000000000000000000000000000000000000000000000081526001600160a01b037f000000000000000000000000000000000000000000000000000000000000000016906323b872dd90610b0d90339030908890600401611f2a565b602060405180830381600087803b158015610b2757600080fd5b505af1158015610b3b573d6000803e3d6000fd5b505050506040513d601f19601f82011682018060405250810190610b5f9190611de1565b5060005b600a54811015610c0c57600a8181548110610b7a57fe5b6000918252602090912001546040517f40c10f190000000000000000000000000000000000000000000000000000000081526001600160a01b03909116906340c10f1990610bce9033908890600401611f8a565b600060405180830381600087803b158015610be857600080fd5b505af1158015610bfc573d6000803e3d6000fd5b505060019092019150610b639050565b50604051309033907f9d228d69b5fdb8d273a2336f8fb8612d039631024ea9bf09c424a9503aa078f090610c41908790612693565b60405180910390a35050600e805460ff1916905590565b610c60611200565b6001600160a01b0316826001600160a01b03161415610c915760405162461bcd60e51b815260040161050990612108565b8060056000610c9e611200565b6001600160a01b03908116825260208083019390935260409182016000908120918716808252919093529120805460ff191692151592909217909155610ce2611200565b6001600160a01b03167f17307eab39ab6107e8899845ad3d59bd9653f200f220920489ca2b5937696c3183604051610d1a9190611fa3565b60405180910390a35050565b6000600280600c5460ff166002811115610d3c57fe5b14610d595760405162461bcd60e51b815260040161050990612549565b600e5460ff1615610d7c5760405162461bcd60e51b8152600401610509906125ee565b600e805460ff19166001179055336000908152600d60205260409020546001600160a01b0316610dbe5760405162461bcd60e51b81526004016105099061247e565b336000908152600d6020526040812060010154610de990606490610de3908790611452565b9061148c565b90508015610eac576040517fa9059cbb0000000000000000000000000000000000000000000000000000000081526001600160a01b037f0000000000000000000000000000000000000000000000000000000000000000169063a9059cbb90610e589088908590600401611f8a565b602060405180830381600087803b158015610e7257600080fd5b505af1158015610e86573d6000803e3d6000fd5b505050506040513d601f19601f82011682018060405250810190610eaa9190611de1565b505b306001600160a01b0316856001600160a01b03167ff7a40077ff7a04c7e61f6f26fb13774259ddf1b6bce9ecf26a8276cdd399268383604051610eef9190612693565b60405180910390a3600e805460ff19169055949350505050565b7f000000000000000000000000000000000000000000000000000000000000000081565b610f3e610f38611200565b8361128a565b610f5a5760405162461bcd60e51b8152600401610509906124b5565b610f66848484846114ce565b50505050565b6060610f77826111f3565b610f935760405162461bcd60e51b8152600401610509906123c4565b60008281526008602090815260409182902080548351601f60026000196101006001861615020190931692909204918201849004840281018401909452808452606093928301828280156110285780601f10610ffd57610100808354040283529160200191611028565b820191906000526020600020905b81548152906001019060200180831161100b57829003601f168201915b5050600954939450505050600260001961010060018416150201909116046110515790506103ff565b8051156110835760098160405160200161106c929190611e95565b6040516020818303038152906040529150506103ff565b600961108e84611501565b60405160200161109f929190611e95565b604051602081830303815290604052915050919050565b600b805460408051602060026001851615610100026000190190941693909304601f8101849004840282018401909252818152929183018282801561113c5780601f106111115761010080835404028352916020019161113c565b820191906000526020600020905b81548152906001019060200180831161111f57829003601f168201915b505050505081565b7f000000000000000000000000000000000000000000000000000000000000000081565b6001600160a01b03918216600090815260056020908152604080832093909416825291909152205460ff1690565b600d60205260009081526040902080546001909101546001600160a01b039091169082565b60006108ad8383611610565b60006111dd84846001600160a01b03851661165a565b90505b9392505050565b60006108ad83836116f1565b60006108b06002836111e7565b3390565b6000818152600460205260409020805473ffffffffffffffffffffffffffffffffffffffff19166001600160a01b03841690811790915581906112468261090e565b6001600160a01b03167f8c5be1e5ebec7d5bd14f71427d1e84f3dd0314c0f7b2291e5b200ac8c7c3b92560405160405180910390a45050565b60006108b082611709565b6000611295826111f3565b6112b15760405162461bcd60e51b81526004016105099061213f565b60006112bc8361090e565b9050806001600160a01b0316846001600160a01b031614806112f75750836001600160a01b03166112ec846104e2565b6001600160a01b0316145b8061130757506113078185611168565b949350505050565b826001600160a01b03166113228261090e565b6001600160a01b0316146113485760405162461bcd60e51b815260040161050990612367565b6001600160a01b03821661136e5760405162461bcd60e51b8152600401610509906120ab565b6113798383836105c1565b611384600082611204565b6001600160a01b03831660009081526001602052604090206113a6908261170d565b506001600160a01b03821660009081526001602052604090206113c990826111bb565b506113d6600282846111c7565b5080826001600160a01b0316846001600160a01b03167fddf252ad1be2c89b69c2b068fc378daa952ba7f163c4a11628f55a4df523b3ef60405160405180910390a4505050565b60006108ad8383611719565b6000808080611438868661175e565b9097909650945050505050565b60006111dd8484846117ba565b600082611461575060006108b0565b8282028284828161146e57fe5b04146108ad5760405162461bcd60e51b8152600401610509906122be565b60006108ad83836040518060400160405280601a81526020017f536166654d6174683a206469766973696f6e206279207a65726f000000000000815250611819565b6114d984848461130f565b6114e584848484611850565b610f665760405162461bcd60e51b81526004016105099061204e565b606081611542575060408051808201909152600181527f300000000000000000000000000000000000000000000000000000000000000060208201526103ff565b8160005b811561155a57600101600a82049150611546565b60608167ffffffffffffffff8111801561157357600080fd5b506040519080825280601f01601f19166020018201604052801561159e576020820181803683370190505b50859350905060001982015b831561160757600a840660300160f81b828280600190039350815181106115cd57fe5b60200101907effffffffffffffffffffffffffffffffffffffffffffffffffffffffffffff1916908160001a905350600a840493506115aa565b50949350505050565b600061161c83836116f1565b611652575081546001818101845560008481526020808220909301849055845484825282860190935260409020919091556108b0565b5060006108b0565b6000828152600184016020526040812054806116bf5750506040805180820182528381526020808201848152865460018181018955600089815284812095516002909302909501918255915190820155865486845281880190925292909120556111e0565b828560000160018303815481106116d257fe5b90600052602060002090600202016001018190555060009150506111e0565b60009081526001919091016020526040902054151590565b5490565b60006108ad8383611971565b8154600090821061173c5760405162461bcd60e51b815260040161050990611fd5565b82600001828154811061174b57fe5b9060005260206000200154905092915050565b8154600090819083106117835760405162461bcd60e51b81526004016105099061227c565b600084600001848154811061179457fe5b906000526020600020906002020190508060000154816001015492509250509250929050565b600082815260018401602052604081205482816117ea5760405162461bcd60e51b81526004016105099190611fc2565b508460000160018203815481106117fd57fe5b9060005260206000209060020201600101549150509392505050565b6000818361183a5760405162461bcd60e51b81526004016105099190611fc2565b50600083858161184657fe5b0495945050505050565b6000611864846001600160a01b0316611a37565b61187057506001611307565b6060611922630a85bd0160e11b611885611200565b88878760405160240161189b9493929190611f4e565b604051602081830303815290604052907bffffffffffffffffffffffffffffffffffffffffffffffffffffffff19166020820180517bffffffffffffffffffffffffffffffffffffffffffffffffffffffff838183161783525050505060405180606001604052806032815260200161272f603291396001600160a01b0388169190611a70565b905060008180602001905181019061193a9190611e19565b7fffffffff0000000000000000000000000000000000000000000000000000000016630a85bd0160e11b1492505050949350505050565b60008181526001830160205260408120548015611a2d57835460001980830191908101906000908790839081106119a457fe5b90600052602060002001549050808760000184815481106119c157fe5b6000918252602080832090910192909255828152600189810190925260409020908401905586548790806119f157fe5b600190038181906000526020600020016000905590558660010160008781526020019081526020016000206000905560019450505050506108b0565b60009150506108b0565b6000813f7fc5d2460186f7233c927e7db2dcc703c0e500b653ca82273b7bfad8045d85a470818114801590611307575050151592915050565b60606111dd84846000856060611a8585611a37565b611aa15760405162461bcd60e51b815260040161050990612512565b60006060866001600160a01b03168587604051611abe9190611e79565b60006040518083038185875af1925050503d8060008114611afb576040519150601f19603f3d011682016040523d82523d6000602084013e611b00565b606091505b50915091508115611b145791506113079050565b805115611b245780518082602001fd5b8360405162461bcd60e51b81526004016105099190611fc2565b80356001600160a01b03811681146108b057600080fd5b600060408284031215611b66578081fd5b611b70604061269c565b9050611b7c8383611b3e565b81526020820135602082015292915050565b600060208284031215611b9f578081fd5b6108ad8383611b3e565b60008060408385031215611bbb578081fd5b611bc58484611b3e565b9150611bd48460208501611b3e565b90509250929050565b600080600060608486031215611bf1578081fd5b611bfb8585611b3e565b9250611c0a8560208601611b3e565b9150604084013590509250925092565b60008060008060808587031215611c2f578081fd5b611c398686611b3e565b93506020611c4987828801611b3e565b935060408601359250606086013567ffffffffffffffff80821115611c6c578384fd5b818801915088601f830112611c7f578384fd5b813581811115611c8d578485fd5b611c9f601f8201601f1916850161269c565b91508082528984828501011115611cb4578485fd5b8084840185840137810190920192909252939692955090935050565b60008060408385031215611ce2578182fd5b611cec8484611b3e565b91506020830135611cfc816126ef565b809150509250929050565b60008060408385031215611d19578182fd5b611d238484611b3e565b946020939093013593505050565b60006020808385031215611d43578182fd5b823567ffffffffffffffff80821115611d5a578384fd5b818501915085601f830112611d6d578384fd5b813581811115611d7b578485fd5b611d88848583020161269c565b81815284810192508385016040808402860187018a1015611da7578788fd5b8795505b83861015611dd357611dbd8a83611b55565b8552600195909501949386019390810190611dab565b509098975050505050505050565b600060208284031215611df2578081fd5b81516108ad816126ef565b600060208284031215611e0e578081fd5b81356108ad81612700565b600060208284031215611e2a578081fd5b81516108ad81612700565b600060208284031215611e46578081fd5b5035919050565b60008151808452611e658160208601602086016126c3565b601f01601f19169290920160200192915050565b60008251611e8b8184602087016126c3565b9190910192915050565b6000808454600180821660008114611eb45760018114611ecb57611efa565b60ff198316865260028304607f1686019350611efa565b600283048886526020808720875b83811015611ef25781548a820152908501908201611ed9565b505050860193505b5050508351611f0d8183602088016126c3565b01949350505050565b6001600160a01b0391909116815260200190565b6001600160a01b039384168152919092166020820152604081019190915260600190565b60006001600160a01b03808716835280861660208401525083604083015260806060830152611f806080830184611e4d565b9695505050505050565b6001600160a01b03929092168252602082015260400190565b901515815260200190565b6020810160038310611fbc57fe5b91905290565b6000602082526108ad6020830184611e4d565b60208082526022908201527f456e756d657261626c655365743a20696e646578206f7574206f6620626f756e604082015261647360f01b606082015260800190565b60208082526011908201527f4d61726b65743a20544f4f5f4541524c59000000000000000000000000000000604082015260600190565b60208082526032908201527f4552433732313a207472616e7366657220746f206e6f6e20455243373231526560408201527f63656976657220696d706c656d656e7465720000000000000000000000000000606082015260800190565b60208082526024908201527f4552433732313a207472616e7366657220746f20746865207a65726f2061646460408201527f7265737300000000000000000000000000000000000000000000000000000000606082015260800190565b60208082526019908201527f4552433732313a20617070726f766520746f2063616c6c657200000000000000604082015260600190565b6020808252602c908201527f4552433732313a206f70657261746f7220717565727920666f72206e6f6e657860408201526b34b9ba32b73a103a37b5b2b760a11b606082015260800190565b6020808252601a908201527f4d61726b65743a2057524f4e475f53554d5f4f5554434f4d4553000000000000604082015260600190565b60208082526038908201527f4552433732313a20617070726f76652063616c6c6572206973206e6f74206f7760408201527f6e6572206e6f7220617070726f76656420666f7220616c6c0000000000000000606082015260800190565b6020808252602a908201527f4552433732313a2062616c616e636520717565727920666f7220746865207a6560408201527f726f206164647265737300000000000000000000000000000000000000000000606082015260800190565b60208082526022908201527f456e756d657261626c654d61703a20696e646578206f7574206f6620626f756e604082015261647360f01b606082015260800190565b60208082526021908201527f536166654d6174683a206d756c7469706c69636174696f6e206f766572666c6f60408201527f7700000000000000000000000000000000000000000000000000000000000000606082015260800190565b6020808252602c908201527f4552433732313a20617070726f76656420717565727920666f72206e6f6e657860408201526b34b9ba32b73a103a37b5b2b760a11b606082015260800190565b60208082526029908201527f4552433732313a207472616e73666572206f6620746f6b656e2074686174206960408201527f73206e6f74206f776e0000000000000000000000000000000000000000000000606082015260800190565b6020808252602f908201527f4552433732314d657461646174613a2055524920717565727920666f72206e6f60408201527f6e6578697374656e7420746f6b656e0000000000000000000000000000000000606082015260800190565b60208082526021908201527f4552433732313a20617070726f76616c20746f2063757272656e74206f776e6560408201527f7200000000000000000000000000000000000000000000000000000000000000606082015260800190565b6020808252601c908201527f4d61726b65743a20544f4b454e5f444f45535f4e4f545f455849535400000000604082015260600190565b60208082526031908201527f4552433732313a207472616e736665722063616c6c6572206973206e6f74206f60408201527f776e6572206e6f7220617070726f766564000000000000000000000000000000606082015260800190565b6020808252601d908201527f416464726573733a2063616c6c20746f206e6f6e2d636f6e7472616374000000604082015260600190565b60208082526014908201527f4d61726b65743a2057524f4e475f535441545553000000000000000000000000604082015260600190565b60208082526011908201527f4d61726b65743a20464f5242494444454e000000000000000000000000000000604082015260600190565b6020808252601c908201527f4d61726b65743a2057524f4e475f5245534f4c56455f414d4f554e5400000000604082015260600190565b60208082526012908201527f436f6e7472616374206973206c6f636b65640000000000000000000000000000604082015260600190565b60208082526018908201527f4d61726b65743a204d495353494e475f4f5554434f4d45530000000000000000604082015260600190565b60208082526014908201527f4d61726b65743a2057524f4e475f524553554c54000000000000000000000000604082015260600190565b90815260200190565b60405181810167ffffffffffffffff811182821017156126bb57600080fd5b604052919050565b60005b838110156126de5781810151838201526020016126c6565b83811115610f665750506000910152565b80151581146126fd57600080fd5b50565b7fffffffff00000000000000000000000000000000000000000000000000000000811681146126fd57600080fdfe4552433732313a207472616e7366657220746f206e6f6e20455243373231526563656976657220696d706c656d656e7465724552433732313a206f776e657220717565727920666f72206e6f6e6578697374656e7420746f6b656ea26469706673582212204dc9cda32cb20601933051478995410a6942bd1608094b1404948039f1ed1bea64736f6c6343000701003360806040523480156200001157600080fd5b50604051620015d0380380620015d0833981810160405260608110156200003757600080fd5b81019080805160405193929190846401000000008211156200005857600080fd5b9083019060208201858111156200006e57600080fd5b82516401000000008111828201881017156200008957600080fd5b82525081516020918201929091019080838360005b83811015620000b85781810151838201526020016200009e565b50505050905090810190601f168015620000e65780820380516001836020036101000a031916815260200191505b50604081815260208381015193820151838301909252600b8084526a04d61726b657445524332360ac1b918401918252939550909350909185916200012f916003919062000355565b5080516200014590600490602084019062000355565b50506005805460ff19166012179055506000620001616200022c565b60058054610100600160a81b0319166101006001600160a01b0384169081029190911790915560405191925090600090600080516020620015b0833981519152908290a350620001b18262000230565b62000223816001600160a01b031663313ce5676040518163ffffffff1660e01b815260040160206040518083038186803b158015620001ef57600080fd5b505afa15801562000204573d6000803e3d6000fd5b505050506040513d60208110156200021b57600080fd5b50516200033f565b505050620003f1565b3390565b6200023a6200022c565b60055461010090046001600160a01b03908116911614620002a2576040805162461bcd60e51b815260206004820181905260248201527f4f776e61626c653a2063616c6c6572206973206e6f7420746865206f776e6572604482015290519081900360640190fd5b6001600160a01b038116620002e95760405162461bcd60e51b81526004018080602001828103825260268152602001806200158a6026913960400191505060405180910390fd5b6005546040516001600160a01b038084169261010090041690600080516020620015b083398151915290600090a3600580546001600160a01b0390921661010002610100600160a81b0319909216919091179055565b6005805460ff191660ff92909216919091179055565b828054600181600116156101000203166002900490600052602060002090601f016020900481019282601f106200039857805160ff1916838001178555620003c8565b82800160010185558215620003c8579182015b82811115620003c8578251825591602001919060010190620003ab565b50620003d6929150620003da565b5090565b5b80821115620003d65760008155600101620003db565b61118980620004016000396000f3fe608060405234801561001057600080fd5b50600436106101005760003560e01c806370a0823111610097578063a457c2d711610066578063a457c2d714610301578063a9059cbb1461032d578063dd62ed3e14610359578063f2fde38b1461038757610100565b806370a08231146102a7578063715018a6146102cd5780638da5cb5b146102d557806395d89b41146102f957610100565b8063313ce567116100d3578063313ce56714610212578063395093511461023057806340c10f191461025c57806342966c681461028a57610100565b806306fdde0314610105578063095ea7b31461018257806318160ddd146101c257806323b872dd146101dc575b600080fd5b61010d6103ad565b6040805160208082528351818301528351919283929083019185019080838360005b8381101561014757818101518382015260200161012f565b50505050905090810190601f1680156101745780820380516001836020036101000a031916815260200191505b509250505060405180910390f35b6101ae6004803603604081101561019857600080fd5b506001600160a01b038135169060200135610443565b604080519115158252519081900360200190f35b6101ca610460565b60408051918252519081900360200190f35b6101ae600480360360608110156101f257600080fd5b506001600160a01b03813581169160208101359091169060400135610466565b61021a6104ed565b6040805160ff9092168252519081900360200190f35b6101ae6004803603604081101561024657600080fd5b506001600160a01b0381351690602001356104f6565b6102886004803603604081101561027257600080fd5b506001600160a01b038135169060200135610544565b005b610288600480360360208110156102a057600080fd5b50356105c1565b6101ca600480360360208110156102bd57600080fd5b50356001600160a01b0316610748565b610288610763565b6102dd61082f565b604080516001600160a01b039092168252519081900360200190f35b61010d610843565b6101ae6004803603604081101561031757600080fd5b506001600160a01b0381351690602001356108a4565b6101ae6004803603604081101561034357600080fd5b506001600160a01b03813516906020013561090c565b6101ca6004803603604081101561036f57600080fd5b506001600160a01b0381358116916020013516610920565b6102886004803603602081101561039d57600080fd5b50356001600160a01b031661094b565b60038054604080516020601f60026000196101006001881615020190951694909404938401819004810282018101909252828152606093909290918301828280156104395780601f1061040e57610100808354040283529160200191610439565b820191906000526020600020905b81548152906001019060200180831161041c57829003601f168201915b5050505050905090565b6000610457610450610a73565b8484610a77565b50600192915050565b60025490565b6000610473848484610b63565b6104e38461047f610a73565b6104de8560405180606001604052806028815260200161109d602891396001600160a01b038a166000908152600160205260408120906104bd610a73565b6001600160a01b031681526020810191909152604001600020549190610cbe565b610a77565b5060019392505050565b60055460ff1690565b6000610457610503610a73565b846104de8560016000610514610a73565b6001600160a01b03908116825260208083019390935260409182016000908120918c168152925290205490610d55565b61054c610a73565b60055461010090046001600160a01b039081169116146105b3576040805162461bcd60e51b815260206004820181905260248201527f4f776e61626c653a2063616c6c6572206973206e6f7420746865206f776e6572604482015290519081900360640190fd5b6105bd8282610db6565b5050565b600554600160a81b900460ff1615610620576040805162461bcd60e51b815260206004820152601260248201527f436f6e7472616374206973206c6f636b65640000000000000000000000000000604482015290519081900360640190fd5b6005805460ff60a81b1916600160a81b17905561063d3382610ea6565b306001600160a01b0316638da5cb5b6040518163ffffffff1660e01b815260040160206040518083038186803b15801561067657600080fd5b505afa15801561068a573d6000803e3d6000fd5b505050506040513d60208110156106a057600080fd5b5051604080517faad3ec960000000000000000000000000000000000000000000000000000000081523360048201526024810184905290516001600160a01b039092169163aad3ec96916044808201926020929091908290030181600087803b15801561070c57600080fd5b505af1158015610720573d6000803e3d6000fd5b505050506040513d602081101561073657600080fd5b50506005805460ff60a81b1916905550565b6001600160a01b031660009081526020819052604090205490565b61076b610a73565b60055461010090046001600160a01b039081169116146107d2576040805162461bcd60e51b815260206004820181905260248201527f4f776e61626c653a2063616c6c6572206973206e6f7420746865206f776e6572604482015290519081900360640190fd5b60055460405160009161010090046001600160a01b0316907f8be0079c531659141344cd1fd0a4f28419497f9722a3daafe3b4186f6b6457e0908390a36005805474ffffffffffffffffffffffffffffffffffffffff0019169055565b60055461010090046001600160a01b031690565b60048054604080516020601f60026000196101006001881615020190951694909404938401819004810282018101909252828152606093909290918301828280156104395780601f1061040e57610100808354040283529160200191610439565b60006104576108b1610a73565b846104de8560405180606001604052806025815260200161112f60259139600160006108db610a73565b6001600160a01b03908116825260208083019390935260409182016000908120918d16815292529020549190610cbe565b6000610457610919610a73565b8484610b63565b6001600160a01b03918216600090815260016020908152604080832093909416825291909152205490565b610953610a73565b60055461010090046001600160a01b039081169116146109ba576040805162461bcd60e51b815260206004820181905260248201527f4f776e61626c653a2063616c6c6572206973206e6f7420746865206f776e6572604482015290519081900360640190fd5b6001600160a01b0381166109ff5760405162461bcd60e51b815260040180806020018281038252602681526020018061102f6026913960400191505060405180910390fd5b6005546040516001600160a01b0380841692610100900416907f8be0079c531659141344cd1fd0a4f28419497f9722a3daafe3b4186f6b6457e090600090a3600580546001600160a01b039092166101000274ffffffffffffffffffffffffffffffffffffffff0019909216919091179055565b3390565b6001600160a01b038316610abc5760405162461bcd60e51b815260040180806020018281038252602481526020018061110b6024913960400191505060405180910390fd5b6001600160a01b038216610b015760405162461bcd60e51b81526004018080602001828103825260228152602001806110556022913960400191505060405180910390fd5b6001600160a01b03808416600081815260016020908152604080832094871680845294825291829020859055815185815291517f8c5be1e5ebec7d5bd14f71427d1e84f3dd0314c0f7b2291e5b200ac8c7c3b9259281900390910190a3505050565b6001600160a01b038316610ba85760405162461bcd60e51b81526004018080602001828103825260258152602001806110e66025913960400191505060405180910390fd5b6001600160a01b038216610bed5760405162461bcd60e51b8152600401808060200182810382526023815260200180610fea6023913960400191505060405180910390fd5b610bf8838383610fa2565b610c3581604051806060016040528060268152602001611077602691396001600160a01b0386166000908152602081905260409020549190610cbe565b6001600160a01b038085166000908152602081905260408082209390935590841681522054610c649082610d55565b6001600160a01b038084166000818152602081815260409182902094909455805185815290519193928716927fddf252ad1be2c89b69c2b068fc378daa952ba7f163c4a11628f55a4df523b3ef92918290030190a3505050565b60008184841115610d4d5760405162461bcd60e51b81526004018080602001828103825283818151815260200191508051906020019080838360005b83811015610d12578181015183820152602001610cfa565b50505050905090810190601f168015610d3f5780820380516001836020036101000a031916815260200191505b509250505060405180910390fd5b505050900390565b600082820183811015610daf576040805162461bcd60e51b815260206004820152601b60248201527f536166654d6174683a206164646974696f6e206f766572666c6f770000000000604482015290519081900360640190fd5b9392505050565b6001600160a01b038216610e11576040805162461bcd60e51b815260206004820152601f60248201527f45524332303a206d696e7420746f20746865207a65726f206164647265737300604482015290519081900360640190fd5b610e1d60008383610fa2565b600254610e2a9082610d55565b6002556001600160a01b038216600090815260208190526040902054610e509082610d55565b6001600160a01b0383166000818152602081815260408083209490945583518581529351929391927fddf252ad1be2c89b69c2b068fc378daa952ba7f163c4a11628f55a4df523b3ef9281900390910190a35050565b6001600160a01b038216610eeb5760405162461bcd60e51b81526004018080602001828103825260218152602001806110c56021913960400191505060405180910390fd5b610ef782600083610fa2565b610f348160405180606001604052806022815260200161100d602291396001600160a01b0385166000908152602081905260409020549190610cbe565b6001600160a01b038316600090815260208190526040902055600254610f5a9082610fa7565b6002556040805182815290516000916001600160a01b038516917fddf252ad1be2c89b69c2b068fc378daa952ba7f163c4a11628f55a4df523b3ef9181900360200190a35050565b505050565b6000610daf83836040518060400160405280601e81526020017f536166654d6174683a207375627472616374696f6e206f766572666c6f770000815250610cbe56fe45524332303a207472616e7366657220746f20746865207a65726f206164647265737345524332303a206275726e20616d6f756e7420657863656564732062616c616e63654f776e61626c653a206e6577206f776e657220697320746865207a65726f206164647265737345524332303a20617070726f766520746f20746865207a65726f206164647265737345524332303a207472616e7366657220616d6f756e7420657863656564732062616c616e636545524332303a207472616e7366657220616d6f756e74206578636565647320616c6c6f77616e636545524332303a206275726e2066726f6d20746865207a65726f206164647265737345524332303a207472616e736665722066726f6d20746865207a65726f206164647265737345524332303a20617070726f76652066726f6d20746865207a65726f206164647265737345524332303a2064656372656173656420616c6c6f77616e63652062656c6f77207a65726fa264697066735822122082be671ca5605c1b45b08b9c2722242f0eb302abedaa369cd5b50baded49b65964736f6c634300070100334f776e61626c653a206e6577206f776e657220697320746865207a65726f20616464726573738be0079c531659141344cd1fd0a4f28419497f9722a3daafe3b4186f6b6457e0a2646970667358221220b8ebc84eee5fd245b9ac763f788d48ff455b7479a0d9267f05bf94b1588b3b7464736f6c63430007010033",
  "devdoc": {
    "kind": "dev",
    "methods": {},
    "version": 1
  },
  "userdoc": {
    "kind": "user",
    "methods": {},
    "version": 1
  },
  "storageLayout": {
    "storage": [
      {
        "astId": 3823,
        "contract": "src/Factories/MarketFactory.sol:MarketFactory",
        "label": "markets",
        "offset": 0,
        "slot": "0",
        "type": "t_array(t_address)dyn_storage"
      }
    ],
    "types": {
      "t_address": {
        "encoding": "inplace",
        "label": "address",
        "numberOfBytes": "20"
      },
      "t_array(t_address)dyn_storage": {
        "base": "t_address",
        "encoding": "dynamic_array",
        "label": "address[]",
        "numberOfBytes": "32"
      }
    }
  }
}