{
  "_format": "hh-sol-artifact-1",
  "contractName": "TickLens",
  "sourceName": "contracts/lens/TickLens.sol",
  "abi": [
    {
      "inputs": [
        {
          "internalType": "address",
          "name": "pool",
          "type": "address"
        },
        {
          "internalType": "int16",
          "name": "tickBitmapIndex",
          "type": "int16"
        }
      ],
      "name": "getPopulatedTicksInWord",
      "outputs": [
        {
          "components": [
            {
              "internalType": "int24",
              "name": "tick",
              "type": "int24"
            },
            {
              "internalType": "int128",
              "name": "liquidityNet",
              "type": "int128"
            },
            {
              "internalType": "uint128",
              "name": "liquidityGross",
              "type": "uint128"
            }
          ],
          "internalType": "struct ITickLens.PopulatedTick[]",
          "name": "populatedTicks",
          "type": "tuple[]"
        }
      ],
      "stateMutability": "view",
      "type": "function"
    }
  ],
  "bytecode": "0x60806040523480156100195760008061001661001f565b50505b5061008a565b632a2a7adb598160e01b8152600481016020815285602082015260005b8681101561005757808601518282016040015260200161003c565b506020828760640184336000905af158600e01573d6000803e3d6000fd5b3d6001141558600a015760016000f35b505050565b61084b806100996000396000f3fe6080604052348015610019576000806100166103ed565b50505b50600436106100345760003560e01c8063351fb47814610042575b60008061003f6103ed565b50505b610055610050366004610613565b61006b565b6040516100629190610790565b60405180910390f35b606060008373ffffffffffffffffffffffffffffffffffffffff16635339c296846040518263ffffffff1660e01b81526004016100a89190610804565b60206040518083038186806100bb610458565b1580156100d0576000806100cd6103ed565b50505b505a6100da6104b8565b50505050501580156100f9573d6000803e3d60006100f66103ed565b50505b50505050604051601f3d9081017fffffffffffffffffffffffffffffffffffffffffffffffffffffffffffffffe016820160405261013a919081019061076d565b90506000805b610100811015610164576001811b83161561015c576001909101905b600101610140565b5060008573ffffffffffffffffffffffffffffffffffffffff1663d0c93a7c6040518163ffffffff1660e01b815260040160206040518083038186806101a8610458565b1580156101bd576000806101ba6103ed565b50505b505a6101c76104b8565b50505050501580156101e6573d6000803e3d60006101e36103ed565b50505b50505050604051601f3d9081017fffffffffffffffffffffffffffffffffffffffffffffffffffffffffffffffe01682016040526102279190810190610663565b90508167ffffffffffffffff81118015610249576000806102466103ed565b50505b5060405190808252806020026020018201604052801561028357816020015b6102706105a5565b8152602001906001900390816102685790505b50935060005b6101008110156103e3576001811b8416156103db57600186900b60020b60081b8101820260008073ffffffffffffffffffffffffffffffffffffffff8a1663f30dba93846040518263ffffffff1660e01b81526004016102e99190610812565b6101006040518083038186806102fd610458565b1580156103125760008061030f6103ed565b50505b505a61031c6104b8565b505050505015801561033b573d6000803e3d60006103386103ed565b50505b50505050604051601f3d9081017fffffffffffffffffffffffffffffffffffffffffffffffffffffffffffffffe016820160405261037c919081019061069d565b5050505050509150915060405180606001604052808460020b815260200182600f0b8152602001836fffffffffffffffffffffffffffffffff16815250888760019003975087815181106103cc57fe5b60200260200101819052505050505b600101610289565b5050505092915050565b632a2a7adb598160e01b8152600481016020815285602082015260005b8681101561042557808601518282016040015260200161040a565b506020828760640184336000905af158600e01573d6000803e3d6000fd5b3d6001141558600a015760016000f35b505050565b638435035b598160e01b8152836004820152602081602483336000905af158600e01573d6000803e3d6000fd5b3d6001141558600a015760016000f35b8051935060005b60408110156104b35760008282015260200161049c565b505050565b638540661f598160e01b81526104eb565b80808311156104d55750815b92915050565b80808310156104d5575090919050565b836004820152846024820152606060448201528660648201526084810160005b8881101561052357808801518282015260200161050b565b506060828960a40184336000905af158600e01573d6000803e3d6000fd5b3d6001141558600a015760016000f35b815160408301513d6000853e8b8b82606087013350600060045af150596105788d3d6104db565b8c0161058481876104c9565b5b828110156105995760008152602001610585565b50929c50505050505050565b6040516060810160409081526000808352602083018190529082015290565b60008151905080151581146105e1576000806105de6103ed565b50505b919050565b6000815190506105e181610820565b60008151905063ffffffff811681146105e1576000806105de6103ed565b6000806040838503121561062e57818261062b6103ed565b50505b823561063981610820565b91506020830135600181900b81146106585781826106556103ed565b50505b809150509250929050565b60006020828403121561067d57808161067a6103ed565b50505b81518060020b81146106965781826106936103ed565b50505b9392505050565b600080600080600080600080610100898b0312156106c25783846106bf6103ed565b50505b88516fffffffffffffffffffffffffffffffff811681146106ea5784856106e76103ed565b50505b9750602089015180600f0b81146107085784856107056103ed565b50505b9650604089015195506060890151945060808901518060060b81146107345784856107316103ed565b50505b935061074260a08a016105e6565b925061075060c08a016105f5565b915061075e60e08a016105c4565b90509295985092959890939650565b6000602082840312156107875780816107846103ed565b50505b81519392505050565b60006020808301818452808551808352604092508286019150838701855b828110156107f7578151805160020b855286810151600f0b878601526fffffffffffffffffffffffffffffffff86820151168587015250606090930192908501906001016107ae565b5091979650505050505050565b60019190910b815260200190565b60029190910b815260200190565b73ffffffffffffffffffffffffffffffffffffffff81168114610848576000806104b36103ed565b5056",
  "linkReferences": {},
  "deployedLinkReferences": {}
}