{
  "address": "0x7AEb3036cA0eEB83f23D942FF09783352248d63e",
  "abi": [
    {
      "inputs": [],
      "stateMutability": "nonpayable",
      "type": "constructor"
    },
    {
      "anonymous": false,
      "inputs": [
        {
          "indexed": true,
          "internalType": "address",
          "name": "addr",
          "type": "address"
        },
        {
          "indexed": true,
          "internalType": "address",
          "name": "sender",
          "type": "address"
        }
      ],
      "name": "Deployed",
      "type": "event"
    },
    {
      "inputs": [
        {
          "internalType": "string",
          "name": "IPFS",
          "type": "string"
        },
        {
          "internalType": "string[]",
          "name": "outcomes",
          "type": "string[]"
        },
        {
          "internalType": "address",
          "name": "owner",
          "type": "address"
        },
        {
          "internalType": "address",
          "name": "resolver",
          "type": "address"
        },
        {
          "internalType": "uint256",
          "name": "timestamp",
          "type": "uint256"
        },
        {
          "internalType": "contract ERC20",
          "name": "collateral",
          "type": "address"
        }
      ],
      "name": "create",
      "outputs": [
        {
          "internalType": "address",
          "name": "",
          "type": "address"
        }
      ],
      "stateMutability": "nonpayable",
      "type": "function"
    },
    {
      "inputs": [
        {
          "internalType": "uint256",
          "name": "",
          "type": "uint256"
        }
      ],
      "name": "markets",
      "outputs": [
        {
          "internalType": "address",
          "name": "",
          "type": "address"
        }
      ],
      "stateMutability": "view",
      "type": "function"
    },
    {
      "inputs": [],
      "name": "marketsLength",
      "outputs": [
        {
          "internalType": "uint256",
          "name": "",
          "type": "uint256"
        }
      ],
      "stateMutability": "view",
      "type": "function"
    }
  ],
  "transactionHash": "0x553130e033e847d71d04377c154df862f792c3c2094064c0cf9bd99e0b150384",
  "args": [],
  "solcInputHash": "0ee0f0f008022c2a0b65a1346b528ba4",
  "bytecode": "0x608060405234801561001057600080fd5b50614a32806100206000396000f3fe60806040523480156200001157600080fd5b5060043610620000465760003560e01c80632729b91a146200004b578063a5402544146200007a578063b1283e771462000093575b600080fd5b620000626200005c3660046200022a565b620000aa565b6040516200007191906200035b565b60405180910390f35b6200008462000184565b60405162000071919062000473565b62000062620000a43660046200030b565b6200018a565b60008089898989338a8a8a8a604051620000c490620001b2565b620000d8999897969594939291906200036f565b604051809103906000f080158015620000f5573d6000803e3d6000fd5b5060405190915033906001600160a01b038316907f09e48df7857bd0c1e0d31bb8a85d42cf1874817895f171c917f6ee2cea73ec2090600090a3600080546001810182559080527f290decd9548b62a8d60345a988386fc84ba6bc95484008f6362f93160ef3e5630180546001600160a01b0319166001600160a01b0383161790559998505050505050505050565b60005490565b600081815481106200019857fe5b6000918252602090912001546001600160a01b0316905081565b614580806200047d83390190565b80356001600160a01b0381168114620001d857600080fd5b92915050565b60008083601f840112620001f0578182fd5b50813567ffffffffffffffff81111562000208578182fd5b60208301915083602080830285010111156200022357600080fd5b9250929050565b60008060008060008060008060c0898b03121562000246578384fd5b883567ffffffffffffffff808211156200025e578586fd5b818b0191508b601f83011262000272578586fd5b81358181111562000281578687fd5b8c602082850101111562000293578687fd5b60209283019a509850908a01359080821115620002ae578586fd5b50620002bd8b828c01620001de565b9097509550620002d390508a60408b01620001c0565b9350620002e48a60608b01620001c0565b925060808901359150620002fc8a60a08b01620001c0565b90509295985092959890939650565b6000602082840312156200031d578081fd5b5035919050565b6001600160a01b03169052565b60008284528282602086013780602084860101526020601f19601f85011685010190509392505050565b6001600160a01b0391909116815260200190565b600060e082526200038560e083018b8d62000331565b8281036020840152808982526020820190506020808b028301018b845b8c8110156200041b57848303601f19018452368e9003601e1901823512620003c8578586fd5b8d82350167ffffffffffffffff81351115620003e2578687fd5b803536038f1315620003f2578687fd5b620004038482356020840162000331565b602095860195909450929092019150600101620003a2565b505080935050505062000432604083018862000324565b62000441606083018762000324565b62000450608083018662000324565b8360a08301526200046560c083018462000324565b9a9950505050505050505050565b9081526020019056fe6101006040523480156200001257600080fd5b506040516200458038038062004580833981016040819052620000359162000731565b60408051808201909152600c81526b4d61726b657445524337323160a01b6020820152876200006b6301ffc9a760e01b620002cd565b8151620000809060069060208501906200057a565b508051620000969060079060208401906200057a565b50620000a96380ac58cd60e01b620002cd565b620000bb635b5e139f60e01b620002cd565b620000cd63780e9d6360e01b620002cd565b5050428211620000fa5760405162461bcd60e51b8152600401620000f190620009a3565b60405180910390fd5b620001078460016200031f565b86516200011c90600b9060208a01906200057a565b506001600160601b0319606084811b821660805286811b821660a05260c084905282901b1660e052600c8054600160ff199091168117909155865111620001775760405162461bcd60e51b8152600401620000f19062000a0f565b606086516001600160401b03811180156200019157600080fd5b50604051908082528060200260200182016040528015620001bc578160200160208202803683370190505b50905060005b87518110156200024b57878181518110620001d957fe5b60200260200101513084604051620001f190620005ff565b620001ff9392919062000887565b604051809103906000f0801580156200021c573d6000803e3d6000fd5b508282815181106200022a57fe5b6001600160a01b0390921660209283029190910190910152600101620001c2565b5080516200026190600a9060208401906200060d565b50846001600160a01b0316306001600160a01b0316876001600160a01b03167f782d64d7e69bf2133e0dc8a15fbdbd60e3d93b74b6b99fa7f1a5ac26c8e4de998b888887604051620002b79493929190620008bc565b60405180910390a4505050505050505062000aa0565b6001600160e01b03198082161415620002fa5760405162461bcd60e51b8152600401620000f19062000935565b6001600160e01b0319166000908152602081905260409020805460ff19166001179055565b6001600160a01b038216620003485760405162461bcd60e51b8152600401620000f190620009da565b62000353816200040d565b15620003735760405162461bcd60e51b8152600401620000f1906200096c565b620003816000838362000430565b6001600160a01b0382166000908152600160209081526040909120620003b29183906200109a62000435821b17901c565b50620003d0818360026200044a60201b620010a6179092919060201c565b5060405181906001600160a01b038416906000907fddf252ad1be2c89b69c2b068fc378daa952ba7f163c4a11628f55a4df523b3ef908290a45050565b60006200042a8260026200046a60201b620010c61790919060201c565b92915050565b505050565b600062000443838362000478565b9392505050565b60006200046284846001600160a01b038516620004c7565b949350505050565b600062000443838362000562565b600062000486838362000562565b620004be575081546001818101845560008481526020808220909301849055845484825282860190935260409020919091556200042a565b5060006200042a565b6000828152600184016020526040812054806200052e57505060408051808201825283815260208082018481528654600181810189556000898152848120955160029093029095019182559151908201558654868452818801909252929091205562000443565b828560000160018303815481106200054257fe5b906000526020600020906002020160010181905550600091505062000443565b60009081526001919091016020526040902054151590565b828054600181600116156101000203166002900490600052602060002090601f016020900481019282601f10620005bd57805160ff1916838001178555620005ed565b82800160010185558215620005ed579182015b82811115620005ed578251825591602001919060010190620005d0565b50620005fb92915062000673565b5090565b6115928062002fee83390190565b82805482825590600052602060002090810192821562000665579160200282015b828111156200066557825182546001600160a01b0319166001600160a01b039091161782556020909201916001909101906200062e565b50620005fb9291506200068a565b5b80821115620005fb576000815560010162000674565b5b80821115620005fb5780546001600160a01b03191681556001016200068b565b80516001600160a01b03811681146200042a57600080fd5b600082601f830112620006d4578081fd5b81516001600160401b03811115620006ea578182fd5b620006ff601f8201601f191660200162000a46565b91508082528360208285010111156200071757600080fd5b6200072a81602084016020860162000a6d565b5092915050565b600080600080600080600060e0888a0312156200074c578283fd5b87516001600160401b038082111562000763578485fd5b620007718b838c01620006c3565b985060208a015191508082111562000787578485fd5b818a0191508a601f8301126200079b578485fd5b815181811115620007aa578586fd5b620007ba60208083020162000a46565b818152602080820193508401875b83811015620007f957620007e38f60208451890101620006c3565b85526020948501949190910190600101620007c8565b505080995050505050620008118960408a01620006ab565b9450620008228960608a01620006ab565b9350620008338960808a01620006ab565b925060a088015191506200084b8960c08a01620006ab565b905092959891949750929550565b600081518084526200087381602086016020860162000a6d565b601f01601f19169290920160200192915050565b6000606082526200089c606083018662000859565b6001600160a01b0394851660208401529290931660409091015292915050565b600060808252620008d1608083018762000859565b6001600160a01b03868116602085810191909152604085018790528483036060860152855180845286820193919291830190855b818110156200092557855184168352948401949184019160010162000905565b50909a9950505050505050505050565b6020808252601c908201527f4552433136353a20696e76616c696420696e7465726661636520696400000000604082015260600190565b6020808252601c908201527f4552433732313a20746f6b656e20616c7265616479206d696e74656400000000604082015260600190565b60208082526017908201527f4d61726b65743a2057524f4e475f54494d455354414d50000000000000000000604082015260600190565b6020808252818101527f4552433732313a206d696e7420746f20746865207a65726f2061646472657373604082015260600190565b6020808252601d908201527f4d61726b65743a2057524f4e475f4f5554434f4d45535f414d4f554e54000000604082015260600190565b6040518181016001600160401b038111828210171562000a6557600080fd5b604052919050565b60005b8381101562000a8a57818101518382015260200162000a70565b8381111562000a9a576000848401525b50505050565b60805160601c60a05160601c60c05160e05160601c6124fb62000af360003980610a425280610d25528061104a5250806106335280610e0f5250806103b25250806103d652806105d252506124fb6000f3fe608060405234801561001057600080fd5b50600436106101a95760003560e01c80634f6ccce7116100f9578063aad3ec9611610097578063c87b56dd11610071578063c87b56dd14610357578063d7959cf91461036a578063d8dfeb4514610372578063e985e9c51461037a576101a9565b8063aad3ec9614610329578063b80777ea1461033c578063b88d4fde14610344576101a9565b806370a08231116100d357806370a08231146102e857806395d89b41146102fb578063a0712d6814610303578063a22cb46514610316576101a9565b80634f6ccce7146102ba5780636352211e146102cd5780636c0360eb146102e0576101a9565b80630a2a39c81161016657806323b872dd1161014057806323b872dd1461026e5780632f745c591461028157806342842e0e146102945780634f64b2be146102a7576101a9565b80630a2a39c81461023157806318160ddd14610244578063200d2ed214610259576101a9565b806301ffc9a7146101ae57806302d05d3f146101d757806304f3bcec146101ec57806306fdde03146101f4578063081812fc14610209578063095ea7b31461021c575b600080fd5b6101c16101bc366004611c59565b61038d565b6040516101ce9190611e00565b60405180910390f35b6101df6103b0565b6040516101ce9190611d72565b6101df6103d4565b6101fc6103f8565b6040516101ce9190611e1f565b6101df610217366004611c91565b61048e565b61022f61022a366004611b63565b6104da565b005b6101c161023f366004611b8d565b610572565b61024c6107c0565b6040516101ce91906123e7565b6102616107d1565b6040516101ce9190611e0b565b61022f61027c366004611a39565b6107da565b61024c61028f366004611b63565b610812565b61022f6102a2366004611a39565b61083d565b6101df6102b5366004611c91565b610858565b61024c6102c8366004611c91565b61087f565b6101df6102db366004611c91565b610895565b6101fc6108bd565b61024c6102f63660046119ea565b61091e565b6101fc610967565b61024c610311366004611c91565b6109c8565b61022f610324366004611b2c565b610bad565b61024c610337366004611b63565b610c7b565b61024c610e0d565b61022f610352366004611a76565b610e31565b6101fc610365366004611c91565b610e70565b6101fc610fba565b6101df611048565b6101c1610388366004611a05565b61106c565b6001600160e01b0319811660009081526020819052604090205460ff165b919050565b7f000000000000000000000000000000000000000000000000000000000000000081565b7f000000000000000000000000000000000000000000000000000000000000000081565b60068054604080516020601f60026000196101006001881615020190951694909404938401819004810282018101909252828152606093909290918301828280156104845780601f1061045957610100808354040283529160200191610484565b820191906000526020600020905b81548152906001019060200180831161046757829003601f168201915b5050505050905090565b6000610499826110d2565b6104be5760405162461bcd60e51b81526004016104b590612119565b60405180910390fd5b506000908152600460205260409020546001600160a01b031690565b60006104e582610895565b9050806001600160a01b0316836001600160a01b031614156105195760405162461bcd60e51b81526004016104b5906121fd565b806001600160a01b031661052b6110df565b6001600160a01b031614806105475750610547816103886110df565b6105635760405162461bcd60e51b81526004016104b590611fef565b61056d83836110e3565b505050565b6000600180600c5460ff16600281111561058857fe5b146105a55760405162461bcd60e51b81526004016104b5906122c6565b600a548351146105c75760405162461bcd60e51b81526004016104b59061231f565b336001600160a01b037f0000000000000000000000000000000000000000000000000000000000000000161461060f5760405162461bcd60e51b81526004016104b5906122f4565b600a548351146106315760405162461bcd60e51b81526004016104b590612382565b7f00000000000000000000000000000000000000000000000000000000000000004210156106715760405162461bcd60e51b81526004016104b590611e74565b6000805b845181101561075b57600085828151811061068c57fe5b602002602001015160200151101580156106be575060648582815181106106af57fe5b60200260200101516020015111155b6106da5760405162461bcd60e51b81526004016104b5906123b9565b8481815181106106e657fe5b602002602001015160200151600d600087848151811061070257fe5b6020026020010151600001516001600160a01b03166001600160a01b031681526020019081526020016000208190555084818151811061073e57fe5b602002602001015160200151820191508080600101915050610675565b508060641461077c5760405162461bcd60e51b81526004016104b590611fb8565b600c805460ff19166002179055604051309033907f85fe05c69e32ec3aed403e05e055faa5b8f0dec24c0f5ef97a497b8f4b8228b590600090a35060019392505050565b60006107cc6002611151565b905090565b600c5460ff1681565b6107eb6107e56110df565b8261115c565b6108075760405162461bcd60e51b81526004016104b59061223e565b61056d8383836111e1565b6001600160a01b038216600090815260016020526040812061083490836112ef565b90505b92915050565b61056d83838360405180602001604052806000815250610e31565b600a818154811061086557fe5b6000918252602090912001546001600160a01b0316905081565b60008061088d6002846112fb565b509392505050565b60006108378260405180606001604052806029815260200161249d6029913960029190611317565b60098054604080516020601f60026000196101006001881615020190951694909404938401819004810282018101909252828152606093909290918301828280156104845780601f1061045957610100808354040283529160200191610484565b60006001600160a01b0382166109465760405162461bcd60e51b81526004016104b59061204c565b6001600160a01b038216600090815260016020526040902061083790611151565b60078054604080516020601f60026000196101006001881615020190951694909404938401819004810282018101909252828152606093909290918301828280156104845780601f1061045957610100808354040283529160200191610484565b6000600180600c5460ff1660028111156109de57fe5b146109fb5760405162461bcd60e51b81526004016104b5906122c6565b600e5460ff1615610a1e5760405162461bcd60e51b81526004016104b590612356565b600e805460ff191660011790556040516323b872dd60e01b81526001600160a01b037f000000000000000000000000000000000000000000000000000000000000000016906323b872dd90610a7b90339030908890600401611d86565b602060405180830381600087803b158015610a9557600080fd5b505af1158015610aa9573d6000803e3d6000fd5b505050506040513d601f19601f82011682018060405250810190610acd9190611c3d565b5060005b600a54811015610b6157600a8181548110610ae857fe5b6000918252602090912001546040516340c10f1960e01b81526001600160a01b03909116906340c10f1990610b239033908890600401611de7565b600060405180830381600087803b158015610b3d57600080fd5b505af1158015610b51573d6000803e3d6000fd5b505060019092019150610ad19050565b50604051309033907f9d228d69b5fdb8d273a2336f8fb8612d039631024ea9bf09c424a9503aa078f090610b969087906123e7565b60405180910390a35050600e805460ff1916905590565b610bb56110df565b6001600160a01b0316826001600160a01b03161415610be65760405162461bcd60e51b81526004016104b590611f35565b8060056000610bf36110df565b6001600160a01b03908116825260208083019390935260409182016000908120918716808252919093529120805460ff191692151592909217909155610c376110df565b6001600160a01b03167f17307eab39ab6107e8899845ad3d59bd9653f200f220920489ca2b5937696c3183604051610c6f9190611e00565b60405180910390a35050565b6000600280600c5460ff166002811115610c9157fe5b14610cae5760405162461bcd60e51b81526004016104b5906122c6565b600e5460ff1615610cd15760405162461bcd60e51b81526004016104b590612356565b600e805460ff19166001179055336000908152600d6020526040812054610d0690606490610d00908790611324565b9061135e565b90508015610db05760405163a9059cbb60e01b81526001600160a01b037f0000000000000000000000000000000000000000000000000000000000000000169063a9059cbb90610d5c9088908590600401611de7565b602060405180830381600087803b158015610d7657600080fd5b505af1158015610d8a573d6000803e3d6000fd5b505050506040513d601f19601f82011682018060405250810190610dae9190611c3d565b505b306001600160a01b0316856001600160a01b03167ff7a40077ff7a04c7e61f6f26fb13774259ddf1b6bce9ecf26a8276cdd399268383604051610df391906123e7565b60405180910390a3600e805460ff19169055949350505050565b7f000000000000000000000000000000000000000000000000000000000000000081565b610e42610e3c6110df565b8361115c565b610e5e5760405162461bcd60e51b81526004016104b59061223e565b610e6a848484846113a0565b50505050565b6060610e7b826110d2565b610e975760405162461bcd60e51b81526004016104b5906121ae565b60008281526008602090815260409182902080548351601f6002600019610100600186161502019093169290920491820184900484028101840190945280845260609392830182828015610f2c5780601f10610f0157610100808354040283529160200191610f2c565b820191906000526020600020905b815481529060010190602001808311610f0f57829003601f168201915b505060095493945050505060026000196101006001841615020190911604610f555790506103ab565b805115610f8757600981604051602001610f70929190611cf1565b6040516020818303038152906040529150506103ab565b6009610f92846113d3565b604051602001610fa3929190611cf1565b604051602081830303815290604052915050919050565b600b805460408051602060026001851615610100026000190190941693909304601f810184900484028201840190925281815292918301828280156110405780601f1061101557610100808354040283529160200191611040565b820191906000526020600020905b81548152906001019060200180831161102357829003601f168201915b505050505081565b7f000000000000000000000000000000000000000000000000000000000000000081565b6001600160a01b03918216600090815260056020908152604080832093909416825291909152205460ff1690565b600061083483836114ae565b60006110bc84846001600160a01b0385166114f8565b90505b9392505050565b6000610834838361158f565b60006108376002836110c6565b3390565b600081815260046020526040902080546001600160a01b0319166001600160a01b038416908117909155819061111882610895565b6001600160a01b03167f8c5be1e5ebec7d5bd14f71427d1e84f3dd0314c0f7b2291e5b200ac8c7c3b92560405160405180910390a45050565b6000610837826115a7565b6000611167826110d2565b6111835760405162461bcd60e51b81526004016104b590611f6c565b600061118e83610895565b9050806001600160a01b0316846001600160a01b031614806111c95750836001600160a01b03166111be8461048e565b6001600160a01b0316145b806111d957506111d9818561106c565b949350505050565b826001600160a01b03166111f482610895565b6001600160a01b03161461121a5760405162461bcd60e51b81526004016104b590612165565b6001600160a01b0382166112405760405162461bcd60e51b81526004016104b590611ef1565b61124b83838361056d565b6112566000826110e3565b6001600160a01b038316600090815260016020526040902061127890826115ab565b506001600160a01b038216600090815260016020526040902061129b908261109a565b506112a8600282846110a6565b5080826001600160a01b0316846001600160a01b03167fddf252ad1be2c89b69c2b068fc378daa952ba7f163c4a11628f55a4df523b3ef60405160405180910390a4505050565b600061083483836115b7565b600080808061130a86866115fc565b9097909650945050505050565b60006110bc848484611658565b60008261133357506000610837565b8282028284828161134057fe5b04146108345760405162461bcd60e51b81526004016104b5906120d8565b600061083483836040518060400160405280601a81526020017f536166654d6174683a206469766973696f6e206279207a65726f0000000000008152506116b7565b6113ab8484846111e1565b6113b7848484846116ee565b610e6a5760405162461bcd60e51b81526004016104b590611e9f565b6060816113f857506040805180820190915260018152600360fc1b60208201526103ab565b8160005b811561141057600101600a820491506113fc565b60608167ffffffffffffffff8111801561142957600080fd5b506040519080825280601f01601f191660200182016040528015611454576020820181803683370190505b50859350905060001982015b83156114a557600a840660300160f81b8282806001900393508151811061148357fe5b60200101906001600160f81b031916908160001a905350600a84049350611460565b50949350505050565b60006114ba838361158f565b6114f057508154600181810184556000848152602080822090930184905584548482528286019093526040902091909155610837565b506000610837565b60008281526001840160205260408120548061155d5750506040805180820182528381526020808201848152865460018181018955600089815284812095516002909302909501918255915190820155865486845281880190925292909120556110bf565b8285600001600183038154811061157057fe5b90600052602060002090600202016001018190555060009150506110bf565b60009081526001919091016020526040902054151590565b5490565b600061083483836117cd565b815460009082106115da5760405162461bcd60e51b81526004016104b590611e32565b8260000182815481106115e957fe5b9060005260206000200154905092915050565b8154600090819083106116215760405162461bcd60e51b81526004016104b590612096565b600084600001848154811061163257fe5b906000526020600020906002020190508060000154816001015492509250509250929050565b600082815260018401602052604081205482816116885760405162461bcd60e51b81526004016104b59190611e1f565b5084600001600182038154811061169b57fe5b9060005260206000209060020201600101549150509392505050565b600081836116d85760405162461bcd60e51b81526004016104b59190611e1f565b5060008385816116e457fe5b0495945050505050565b6000611702846001600160a01b0316611893565b61170e575060016111d9565b6060611796630a85bd0160e11b6117236110df565b8887876040516024016117399493929190611daa565b604051602081830303815290604052906001600160e01b0319166020820180516001600160e01b03838183161783525050505060405180606001604052806032815260200161246b603291396001600160a01b03881691906118cc565b90506000818060200190518101906117ae9190611c75565b6001600160e01b031916630a85bd0160e11b1492505050949350505050565b60008181526001830160205260408120548015611889578354600019808301919081019060009087908390811061180057fe5b906000526020600020015490508087600001848154811061181d57fe5b60009182526020808320909101929092558281526001898101909252604090209084019055865487908061184d57fe5b60019003818190600052602060002001600090559055866001016000878152602001908152602001600020600090556001945050505050610837565b6000915050610837565b6000813f7fc5d2460186f7233c927e7db2dcc703c0e500b653ca82273b7bfad8045d85a4708181148015906111d9575050151592915050565b60606110bc848460008560606118e185611893565b6118fd5760405162461bcd60e51b81526004016104b59061228f565b60006060866001600160a01b0316858760405161191a9190611cd5565b60006040518083038185875af1925050503d8060008114611957576040519150601f19603f3d011682016040523d82523d6000602084013e61195c565b606091505b509150915081156119705791506111d99050565b8051156119805780518082602001fd5b8360405162461bcd60e51b81526004016104b59190611e1f565b80356001600160a01b038116811461083757600080fd5b6000604082840312156119c2578081fd5b6119cc60406123f0565b90506119d8838361199a565b81526020820135602082015292915050565b6000602082840312156119fb578081fd5b610834838361199a565b60008060408385031215611a17578081fd5b611a21848461199a565b9150611a30846020850161199a565b90509250929050565b600080600060608486031215611a4d578081fd5b611a57858561199a565b9250611a66856020860161199a565b9150604084013590509250925092565b60008060008060808587031215611a8b578081fd5b611a95868661199a565b93506020611aa58782880161199a565b935060408601359250606086013567ffffffffffffffff80821115611ac8578384fd5b818801915088601f830112611adb578384fd5b813581811115611ae9578485fd5b611afb601f8201601f191685016123f0565b91508082528984828501011115611b10578485fd5b8084840185840137810190920192909252939692955090935050565b60008060408385031215611b3e578182fd5b611b48848461199a565b91506020830135611b5881612443565b809150509250929050565b60008060408385031215611b75578182fd5b611b7f848461199a565b946020939093013593505050565b60006020808385031215611b9f578182fd5b823567ffffffffffffffff80821115611bb6578384fd5b818501915085601f830112611bc9578384fd5b813581811115611bd7578485fd5b611be484858302016123f0565b81815284810192508385016040808402860187018a1015611c03578788fd5b8795505b83861015611c2f57611c198a836119b1565b8552600195909501949386019390810190611c07565b509098975050505050505050565b600060208284031215611c4e578081fd5b815161083481612443565b600060208284031215611c6a578081fd5b813561083481612454565b600060208284031215611c86578081fd5b815161083481612454565b600060208284031215611ca2578081fd5b5035919050565b60008151808452611cc1816020860160208601612417565b601f01601f19169290920160200192915050565b60008251611ce7818460208701612417565b9190910192915050565b6000808454600180821660008114611d105760018114611d2757611d56565b60ff198316865260028304607f1686019350611d56565b600283048886526020808720875b83811015611d4e5781548a820152908501908201611d35565b505050860193505b5050508351611d69818360208801612417565b01949350505050565b6001600160a01b0391909116815260200190565b6001600160a01b039384168152919092166020820152604081019190915260600190565b6001600160a01b0385811682528416602082015260408101839052608060608201819052600090611ddd90830184611ca9565b9695505050505050565b6001600160a01b03929092168252602082015260400190565b901515815260200190565b6020810160038310611e1957fe5b91905290565b6000602082526108346020830184611ca9565b60208082526022908201527f456e756d657261626c655365743a20696e646578206f7574206f6620626f756e604082015261647360f01b606082015260800190565b6020808252601190820152704d61726b65743a20544f4f5f4541524c5960781b604082015260600190565b60208082526032908201527f4552433732313a207472616e7366657220746f206e6f6e20455243373231526560408201527131b2b4bb32b91034b6b83632b6b2b73a32b960711b606082015260800190565b60208082526024908201527f4552433732313a207472616e7366657220746f20746865207a65726f206164646040820152637265737360e01b606082015260800190565b60208082526019908201527f4552433732313a20617070726f766520746f2063616c6c657200000000000000604082015260600190565b6020808252602c908201527f4552433732313a206f70657261746f7220717565727920666f72206e6f6e657860408201526b34b9ba32b73a103a37b5b2b760a11b606082015260800190565b6020808252601a908201527f4d61726b65743a2057524f4e475f53554d5f4f5554434f4d4553000000000000604082015260600190565b60208082526038908201527f4552433732313a20617070726f76652063616c6c6572206973206e6f74206f7760408201527f6e6572206e6f7220617070726f76656420666f7220616c6c0000000000000000606082015260800190565b6020808252602a908201527f4552433732313a2062616c616e636520717565727920666f7220746865207a65604082015269726f206164647265737360b01b606082015260800190565b60208082526022908201527f456e756d657261626c654d61703a20696e646578206f7574206f6620626f756e604082015261647360f01b606082015260800190565b60208082526021908201527f536166654d6174683a206d756c7469706c69636174696f6e206f766572666c6f6040820152607760f81b606082015260800190565b6020808252602c908201527f4552433732313a20617070726f76656420717565727920666f72206e6f6e657860408201526b34b9ba32b73a103a37b5b2b760a11b606082015260800190565b60208082526029908201527f4552433732313a207472616e73666572206f6620746f6b656e2074686174206960408201526839903737ba1037bbb760b91b606082015260800190565b6020808252602f908201527f4552433732314d657461646174613a2055524920717565727920666f72206e6f60408201526e3732bc34b9ba32b73a103a37b5b2b760891b606082015260800190565b60208082526021908201527f4552433732313a20617070726f76616c20746f2063757272656e74206f776e656040820152603960f91b606082015260800190565b60208082526031908201527f4552433732313a207472616e736665722063616c6c6572206973206e6f74206f6040820152701ddb995c881b9bdc88185c1c1c9bdd9959607a1b606082015260800190565b6020808252601d908201527f416464726573733a2063616c6c20746f206e6f6e2d636f6e7472616374000000604082015260600190565b6020808252601490820152734d61726b65743a2057524f4e475f53544154555360601b604082015260600190565b60208082526011908201527026b0b935b2ba1d102327a92124a22222a760791b604082015260600190565b6020808252601c908201527f4d61726b65743a2057524f4e475f5245534f4c56455f414d4f554e5400000000604082015260600190565b60208082526012908201527110dbdb9d1c9858dd081a5cc81b1bd8dad95960721b604082015260600190565b60208082526018908201527f4d61726b65743a204d495353494e475f4f5554434f4d45530000000000000000604082015260600190565b60208082526014908201527313585c9ad95d0e8815d493d391d7d49154d5531560621b604082015260600190565b90815260200190565b60405181810167ffffffffffffffff8111828210171561240f57600080fd5b604052919050565b60005b8381101561243257818101518382015260200161241a565b83811115610e6a5750506000910152565b801515811461245157600080fd5b50565b6001600160e01b03198116811461245157600080fdfe4552433732313a207472616e7366657220746f206e6f6e20455243373231526563656976657220696d706c656d656e7465724552433732313a206f776e657220717565727920666f72206e6f6e6578697374656e7420746f6b656ea26469706673582212204fee48a23d96e6cc59a8ce802a7879a2fb94adc00bc4910e7725a9712d68a93064736f6c6343000701003360806040523480156200001157600080fd5b506040516200159238038062001592833981810160405260608110156200003757600080fd5b81019080805160405193929190846401000000008211156200005857600080fd5b9083019060208201858111156200006e57600080fd5b82516401000000008111828201881017156200008957600080fd5b82525081516020918201929091019080838360005b83811015620000b85781810151838201526020016200009e565b50505050905090810190601f168015620000e65780820380516001836020036101000a031916815260200191505b50604081815260208381015193820151838301909252600b8084526a04d61726b657445524332360ac1b918401918252939550909350909185916200012f916003919062000355565b5080516200014590600490602084019062000355565b50506005805460ff19166012179055506000620001616200022c565b60058054610100600160a81b0319166101006001600160a01b038416908102919091179091556040519192509060009060008051602062001572833981519152908290a350620001b18262000230565b62000223816001600160a01b031663313ce5676040518163ffffffff1660e01b815260040160206040518083038186803b158015620001ef57600080fd5b505afa15801562000204573d6000803e3d6000fd5b505050506040513d60208110156200021b57600080fd5b50516200033f565b505050620003f1565b3390565b6200023a6200022c565b60055461010090046001600160a01b03908116911614620002a2576040805162461bcd60e51b815260206004820181905260248201527f4f776e61626c653a2063616c6c6572206973206e6f7420746865206f776e6572604482015290519081900360640190fd5b6001600160a01b038116620002e95760405162461bcd60e51b81526004018080602001828103825260268152602001806200154c6026913960400191505060405180910390fd5b6005546040516001600160a01b0380841692610100900416906000805160206200157283398151915290600090a3600580546001600160a01b0390921661010002610100600160a81b0319909216919091179055565b6005805460ff191660ff92909216919091179055565b828054600181600116156101000203166002900490600052602060002090601f016020900481019282601f106200039857805160ff1916838001178555620003c8565b82800160010185558215620003c8579182015b82811115620003c8578251825591602001919060010190620003ab565b50620003d6929150620003da565b5090565b5b80821115620003d65760008155600101620003db565b61114b80620004016000396000f3fe608060405234801561001057600080fd5b50600436106101005760003560e01c806370a0823111610097578063a457c2d711610066578063a457c2d714610301578063a9059cbb1461032d578063dd62ed3e14610359578063f2fde38b1461038757610100565b806370a08231146102a7578063715018a6146102cd5780638da5cb5b146102d557806395d89b41146102f957610100565b8063313ce567116100d3578063313ce56714610212578063395093511461023057806340c10f191461025c57806342966c681461028a57610100565b806306fdde0314610105578063095ea7b31461018257806318160ddd146101c257806323b872dd146101dc575b600080fd5b61010d6103ad565b6040805160208082528351818301528351919283929083019185019080838360005b8381101561014757818101518382015260200161012f565b50505050905090810190601f1680156101745780820380516001836020036101000a031916815260200191505b509250505060405180910390f35b6101ae6004803603604081101561019857600080fd5b506001600160a01b038135169060200135610443565b604080519115158252519081900360200190f35b6101ca610460565b60408051918252519081900360200190f35b6101ae600480360360608110156101f257600080fd5b506001600160a01b03813581169160208101359091169060400135610466565b61021a6104ed565b6040805160ff9092168252519081900360200190f35b6101ae6004803603604081101561024657600080fd5b506001600160a01b0381351690602001356104f6565b6102886004803603604081101561027257600080fd5b506001600160a01b038135169060200135610544565b005b610288600480360360208110156102a057600080fd5b50356105c1565b6101ca600480360360208110156102bd57600080fd5b50356001600160a01b0316610724565b61028861073f565b6102dd6107fe565b604080516001600160a01b039092168252519081900360200190f35b61010d610812565b6101ae6004803603604081101561031757600080fd5b506001600160a01b038135169060200135610873565b6101ae6004803603604081101561034357600080fd5b506001600160a01b0381351690602001356108db565b6101ca6004803603604081101561036f57600080fd5b506001600160a01b03813581169160200135166108ef565b6102886004803603602081101561039d57600080fd5b50356001600160a01b031661091a565b60038054604080516020601f60026000196101006001881615020190951694909404938401819004810282018101909252828152606093909290918301828280156104395780601f1061040e57610100808354040283529160200191610439565b820191906000526020600020905b81548152906001019060200180831161041c57829003601f168201915b5050505050905090565b6000610457610450610a35565b8484610a39565b50600192915050565b60025490565b6000610473848484610b25565b6104e38461047f610a35565b6104de8560405180606001604052806028815260200161105f602891396001600160a01b038a166000908152600160205260408120906104bd610a35565b6001600160a01b031681526020810191909152604001600020549190610c80565b610a39565b5060019392505050565b60055460ff1690565b6000610457610503610a35565b846104de8560016000610514610a35565b6001600160a01b03908116825260208083019390935260409182016000908120918c168152925290205490610d17565b61054c610a35565b60055461010090046001600160a01b039081169116146105b3576040805162461bcd60e51b815260206004820181905260248201527f4f776e61626c653a2063616c6c6572206973206e6f7420746865206f776e6572604482015290519081900360640190fd5b6105bd8282610d78565b5050565b600554600160a81b900460ff1615610615576040805162461bcd60e51b815260206004820152601260248201527110dbdb9d1c9858dd081a5cc81b1bd8dad95960721b604482015290519081900360640190fd5b6005805460ff60a81b1916600160a81b1790556106323382610e68565b306001600160a01b0316638da5cb5b6040518163ffffffff1660e01b815260040160206040518083038186803b15801561066b57600080fd5b505afa15801561067f573d6000803e3d6000fd5b505050506040513d602081101561069557600080fd5b505160408051635569f64b60e11b81523360048201526024810184905290516001600160a01b039092169163aad3ec96916044808201926020929091908290030181600087803b1580156106e857600080fd5b505af11580156106fc573d6000803e3d6000fd5b505050506040513d602081101561071257600080fd5b50506005805460ff60a81b1916905550565b6001600160a01b031660009081526020819052604090205490565b610747610a35565b60055461010090046001600160a01b039081169116146107ae576040805162461bcd60e51b815260206004820181905260248201527f4f776e61626c653a2063616c6c6572206973206e6f7420746865206f776e6572604482015290519081900360640190fd5b60055460405160009161010090046001600160a01b0316907f8be0079c531659141344cd1fd0a4f28419497f9722a3daafe3b4186f6b6457e0908390a360058054610100600160a81b0319169055565b60055461010090046001600160a01b031690565b60048054604080516020601f60026000196101006001881615020190951694909404938401819004810282018101909252828152606093909290918301828280156104395780601f1061040e57610100808354040283529160200191610439565b6000610457610880610a35565b846104de856040518060600160405280602581526020016110f160259139600160006108aa610a35565b6001600160a01b03908116825260208083019390935260409182016000908120918d16815292529020549190610c80565b60006104576108e8610a35565b8484610b25565b6001600160a01b03918216600090815260016020908152604080832093909416825291909152205490565b610922610a35565b60055461010090046001600160a01b03908116911614610989576040805162461bcd60e51b815260206004820181905260248201527f4f776e61626c653a2063616c6c6572206973206e6f7420746865206f776e6572604482015290519081900360640190fd5b6001600160a01b0381166109ce5760405162461bcd60e51b8152600401808060200182810382526026815260200180610ff16026913960400191505060405180910390fd5b6005546040516001600160a01b0380841692610100900416907f8be0079c531659141344cd1fd0a4f28419497f9722a3daafe3b4186f6b6457e090600090a3600580546001600160a01b0390921661010002610100600160a81b0319909216919091179055565b3390565b6001600160a01b038316610a7e5760405162461bcd60e51b81526004018080602001828103825260248152602001806110cd6024913960400191505060405180910390fd5b6001600160a01b038216610ac35760405162461bcd60e51b81526004018080602001828103825260228152602001806110176022913960400191505060405180910390fd5b6001600160a01b03808416600081815260016020908152604080832094871680845294825291829020859055815185815291517f8c5be1e5ebec7d5bd14f71427d1e84f3dd0314c0f7b2291e5b200ac8c7c3b9259281900390910190a3505050565b6001600160a01b038316610b6a5760405162461bcd60e51b81526004018080602001828103825260258152602001806110a86025913960400191505060405180910390fd5b6001600160a01b038216610baf5760405162461bcd60e51b8152600401808060200182810382526023815260200180610fac6023913960400191505060405180910390fd5b610bba838383610f64565b610bf781604051806060016040528060268152602001611039602691396001600160a01b0386166000908152602081905260409020549190610c80565b6001600160a01b038085166000908152602081905260408082209390935590841681522054610c269082610d17565b6001600160a01b038084166000818152602081815260409182902094909455805185815290519193928716927fddf252ad1be2c89b69c2b068fc378daa952ba7f163c4a11628f55a4df523b3ef92918290030190a3505050565b60008184841115610d0f5760405162461bcd60e51b81526004018080602001828103825283818151815260200191508051906020019080838360005b83811015610cd4578181015183820152602001610cbc565b50505050905090810190601f168015610d015780820380516001836020036101000a031916815260200191505b509250505060405180910390fd5b505050900390565b600082820183811015610d71576040805162461bcd60e51b815260206004820152601b60248201527f536166654d6174683a206164646974696f6e206f766572666c6f770000000000604482015290519081900360640190fd5b9392505050565b6001600160a01b038216610dd3576040805162461bcd60e51b815260206004820152601f60248201527f45524332303a206d696e7420746f20746865207a65726f206164647265737300604482015290519081900360640190fd5b610ddf60008383610f64565b600254610dec9082610d17565b6002556001600160a01b038216600090815260208190526040902054610e129082610d17565b6001600160a01b0383166000818152602081815260408083209490945583518581529351929391927fddf252ad1be2c89b69c2b068fc378daa952ba7f163c4a11628f55a4df523b3ef9281900390910190a35050565b6001600160a01b038216610ead5760405162461bcd60e51b81526004018080602001828103825260218152602001806110876021913960400191505060405180910390fd5b610eb982600083610f64565b610ef681604051806060016040528060228152602001610fcf602291396001600160a01b0385166000908152602081905260409020549190610c80565b6001600160a01b038316600090815260208190526040902055600254610f1c9082610f69565b6002556040805182815290516000916001600160a01b038516917fddf252ad1be2c89b69c2b068fc378daa952ba7f163c4a11628f55a4df523b3ef9181900360200190a35050565b505050565b6000610d7183836040518060400160405280601e81526020017f536166654d6174683a207375627472616374696f6e206f766572666c6f770000815250610c8056fe45524332303a207472616e7366657220746f20746865207a65726f206164647265737345524332303a206275726e20616d6f756e7420657863656564732062616c616e63654f776e61626c653a206e6577206f776e657220697320746865207a65726f206164647265737345524332303a20617070726f766520746f20746865207a65726f206164647265737345524332303a207472616e7366657220616d6f756e7420657863656564732062616c616e636545524332303a207472616e7366657220616d6f756e74206578636565647320616c6c6f77616e636545524332303a206275726e2066726f6d20746865207a65726f206164647265737345524332303a207472616e736665722066726f6d20746865207a65726f206164647265737345524332303a20617070726f76652066726f6d20746865207a65726f206164647265737345524332303a2064656372656173656420616c6c6f77616e63652062656c6f77207a65726fa26469706673582212203083d2ebb4298a6310a5178d8c11fe48f34bdfaff8ca9dd073c3f6fcc47d71a364736f6c634300070100334f776e61626c653a206e6577206f776e657220697320746865207a65726f20616464726573738be0079c531659141344cd1fd0a4f28419497f9722a3daafe3b4186f6b6457e0a264697066735822122017502273d2714e7681ea5ba0002471be90bd21d0426acc8a8135952da33039cc64736f6c63430007010033",
  "devdoc": {
    "kind": "dev",
    "methods": {},
    "version": 1
  },
  "userdoc": {
    "kind": "user",
    "methods": {},
    "version": 1
  },
  "storageLayout": {
    "storage": [
      {
        "astId": 3805,
        "contract": "src/Factories/MarketFactory.sol:MarketFactory",
        "label": "markets",
        "offset": 0,
        "slot": "0",
        "type": "t_array(t_address)dyn_storage"
      }
    ],
    "types": {
      "t_address": {
        "encoding": "inplace",
        "label": "address",
        "numberOfBytes": "20"
      },
      "t_array(t_address)dyn_storage": {
        "base": "t_address",
        "encoding": "dynamic_array",
        "label": "address[]",
        "numberOfBytes": "32"
      }
    }
  }
}